:020000040000fa
:080000000004040000000000f0
:020000040000fa
:10600000ffffffffffffffff000004000000000094
:08601000ffffffffffffffff90
:020000040000fa
:100800000f522100007f240000018800000000003a
:100810000c000700e0002200010020001f0007007c
:10082000000020000000e000020032000000020092
:10083000000000006c1e0200000000000040da0012
:100840000000fe004440a900000020000000e0007d
:100850000300320000002000a00188004440a800ee
:1008600000000600f03fb1000180b1000600350035
:10087000ee03090000000000403fb1000180b1001c
:10088000fbff3d001000b000203fb000020035002b
:1008900000800900000000000000060091018800af
:1008a000800078000000eb0015003700e280400077
:1008b00032a0b4009101ba00e280400032a0b4003e
:1008c0009102ba00e280400032a0b4000002eb00c6
:1008d000472bde00f507b200602ce10004003a006f
:1008e0000059eb008301e900fdff3e0004003700e2
:1008f0006128e100010032000082eb0004000700e3
:100900001101ba000200e000e8ff3a000000060012
:100910003159ba008301e9000c0032002159ba00b4
:100920008301e900080032000400e00003003a00ff
:10093000e280400032a0b400f5ff370011d9ba00c0
:100940008301e900faff3a008100e800e1804000fd
:1009500032a0b400000006008001eb000200370066
:10096000817178008301e800828f5100fcff3a001a
:04097000000006007d
:020000040000fa
:0200000401f009
:04000800ffff0000f6
:020000040000fa
:0200000401f009
:04000c007bff000076
:020000040000fa
:0200000401f009
:040010009dff000050
:020000040000fa
:0200000401f009
:040014006cff00007d
:020000040000fa
:0200000401f009
:04001800f8ff0000ed
:020000040000fa
:0200000401f009
:04001c00ddff000004
:020000040000fa
:100008005220000052200000522000005220000020
:100018005220000052200000522000005220000010
:100028005220000052200000522000005220000000
:1000380052200000522000005220000052200000f0
:020000040000fa
:020000040000fa
:08603000c0a80000010b0000f4
:020000040000fa
:100974000200fa00004f7800114798001e80fb0027
:1009840080004000401021000080400010007800ea
:100994008080ea0060168000008060006016880095
:1009a4001e4090000004e00008003a001e80fb0096
:1009b400800040004010210000804000900078003a
:1009c4006016800000807000601688000080fa00c5
:1009d400000006000200fa00004f78001e80fb00b1
:1009e400800040004010210000804000900078000a
:1009f4006016800000806800601688000080fa009d
:100a0400000006000000fa00600a2000401188007f
:100a140080002000001188000000eb001011880005
:100a240021e2a8002342a8008560a9000080fa0002
:100a3400000006000200fa00000f780003003700ef
:100a4400006029000100200085ff07001e0fe90057
:100a54000080eb009e0f1000f9ff3a000080fa00be
:100a6400000006000200fa00000f780003003700bf
:100a7400600220000100200079ff07001e0fe9003a
:100a84000080eb009e0f1000f9ff3a000080fa008e
:100a9400000006003000fa00501798006117980013
:100aa400721798006e1090001001be003217980063
:100ab400431798006e109000640040001001be00bf
:100ac4001217980023179800909b270071e32900c0
:100ad40020079800310798005e1090006103b80069
:100ae400860078002e009000000ab8003e009000b6
:100af40000b0b90005017800000141002e0090000b
:100b04000780b9000001410082027800048fbe0012
:100b1400de119000430798006b0037003e109000f0
:100b2400ce1090004409dd00cc00de00810071008d
:100b34004400dd00700f9800011798003e109000eb
:100b4400ce109000cb09dd004500de00008071006e
:100b5400c508de00500f9800610f98001e00be000b
:100b64004509dd004b00de0000007100cb08de000b
:100b7400630060004200dd00800078007e10900079
:100b8400008040001000be003e014000ae814800dd
:100b94000200be00300f9800410f98007e099000bb
:100ba4008e1190005e089000ee089000000169002c
:100bb400818169003e109000ce1090000201400037
:100bc400838148003e089000ce089000000169002f
:100bd400818169001e109000ae1090000200500048
:100be4008380580010179800211798002e00900059
:100bf400be0090001e1f10001e9718001e109000cb
:100c0400ae109000c409dd00cc00de0081807100cc
:100c14004400dd00100f9800210f98001e10900072
:100c2400ae1090004b09dd004500de0000007100ad
:100c3400c508de0070079800010f98001e007800b8
:100c4400630060004200dd00800078007e109000a8
:100c5400008040001000be003e014000ae8148000c
:100c64000200be0050079800610798001e0990001a
:100c7400ae0990007e0090008e089000000169008b
:100c8400818169001e109000ae10900002014000a6
:100c9400838148005e009000ee009000000169002e
:100ca400818169003e109000ce1090000200500037
:100cb4008380580030179800411798004e00900028
:100cc4000000e900400798004e0090000000e0009a
:100cd40092ff3a006e1090003e119000ce119000e9
:100ce4000288be006e109000640040001e11900047
:100cf400ae1190000288be000080fa0000000600d9
:100d04001000fa0040079800510798006207980005
:100d1400634f98004e009000de0090008100d100e7
:100d24000080d30020079800310798002e0190001e
:100d3400be019000f03f200001002000800f510010
:100d4400818f5900070036002e019000be019000eb
:100d5400f0ff220001002000800f5100818f590014
:100d64000e0036002e019000be019000f0ff22001c
:100d740001002000800f5100818f590009003600c6
:100d84002e019000be019000c0012300010020004c
:100d9400800f5100818f590002003e006db0a80001
:100da400950037002e019000be019000f07f2500d1
:100db40011002000800f5100818f59008e003e00e9
:100dc400ee4090003ad0bf0080cf500006003a00b9
:100dd400ae00900000c02f0080806000e0818000a1
:100de400808f500009003200808780000000e000fe
:100df40003003200e18180003ad0bf00f200070016
:100e0400ae0090006e409000990007002e01900003
:100e1400be0190003000200001002000800f51002e
:100e2400818f590008003e00010023000040eb00c0
:100e34008f0007000000eb00100798001e009000d0
:100e4400680f4000040037000000eb001007980012
:100e540000802000000f7800ce009000f07f20007a
:100e6400808060001e009000010040001007980080
:100e7400000037009e009000a08320000080400006
:100e8400104078008080fb006e00900010407800d5
:100e94000000fb00808f5000090032001e0190000a
:100ea4006e0090001040780080407800a0832000fd
:100eb400000041000148780010002000808788006d
:100ec4001e0090000000e800100798006e009000db
:100ed4000000e800600798006e4890000040e900b8
:100ee400604f98004e009000de00900061004000ca
:100ef400e080480040079800510798006e48900031
:100f04000004e0001d0032001e0090009e0f5000ff
:100f14001a0039002e019000be019000300020001c
:100f240001002000800f5100818f590003003e0012
:100f34008000200010079800020037000000eb003a
:100f44001007980000802000000f7800e1818000e5
:100f54003ad0bf009c0007004e009000de009000d5
:100f64008100d1000080d300200798003107980049
:100f7400ae0090006e4090003d0007006e48900067
:100f84000004e0001b0032004e009000de009000e0
:100f94008101d1000081d300f03f20000100200036
:100fa400800f5100818f5900b2ff36004e0090002f
:100fb400de0090008101d1000081d300c001230034
:100fc40001002000800f5100818f59000900360074
:100fd4004e009000de0090008101d1000081d3001a
:100fe400f07f250011002000800f5100818f5900ef
:100ff400a0ff36006d90a8000080fa0000000600f3
:101004000200fa000040eb0032e0b70000002300c9
:101014001000ba008000eb00010f7800e10f4000df
:101024000200320010002000000f78001e0078003b
:101034000080fa00000006000200fa000040eb0005
:1010440032e0b700800023001000ba008000eb00fb
:10105400010f7800e10f4000020032001000200070
:10106400000f78001e0078000080fa0000000600df
:101074000a00fa0060479800410798006e4090000b
:1010840032e0b700ce009000f03f20000080600006
:1010940010079800ce0090001e00900000805000c1
:1010a400200798006e4090003af0b7002e009000a0
:1010b400e08188000000eb00808788000000eb00de
:1010c400000f7800220037001e0178002e009000e7
:1010d4001000ba0080407800a08320000000410086
:1010e400014878001e0fe8001e0178002e009000d1
:1010f4001000ba004800de0080407800a083200081
:1011040000004100014878001e0fe8001e0178002d
:101114002e0090001080ba0080407800a083200048
:1011240000004100014878001e0fe8009e0078008e
:10113400a0832000808040000040eb0080487800bd
:101144001e0fe8002e0090000080e80020079800a1
:10115400f07f20009e0f1000dbff36000080fa00b5
:10116400000006000600fa00004f780011079800fe
:101174001e40780032e0b70020042400003b8800c1
:101184009e0090001e0090008008bb002e0090007e
:1011940050052000303b8800a00a2000303b880026
:1011a40061e7a800000000000000000061c7bf0064
:1011b40001c8b300014060000004e000fbff3a00f6
:1011c4000080fa00000006001000fa00204f98008a
:1011d40061079800ee0090002e489000e1ff0700a0
:1011e4002e48900032e0b700ee009000f03f20005f
:1011f4000080600030079800ee0090003e009000f0
:1012040000805000400798000000eb003007980071
:101214004e009000600798000000eb002007980043
:10122400420037000000eb00100798002800370048
:10123400be009000a0832000008040001040780091
:101244000080fb00000f78003e0090000000e800e2
:1012540030079800be009000a0832000008040006a
:10126400104078000080fb004800dd001e0f700075
:101274003e0090000000e800300798006e009000e7
:101284001e08bb00be009000a08320000080400028
:10129400104078008080fb003e0090000000e800d1
:1012a400300798006e0090000188bb003e0090005b
:1012b4000000e800300798006e0090000080e8000d
:1012c400600798001e0090000000e80010079800d6
:1012d4009e009000f0032000808f5000d4ff360061
:1012e40010002400003b88007e0090005005200080
:1012f400303b8800a00a2000303b880061e7a8004a
:1013040000000000000000007007980061c7bf00e3
:1013140001c8b300014060000004e000fbff3a0094
:101324002e0090000000e800200798002e00900096
:10133400e70f5000bbff36000000eb0080878800f9
:101344000080fa00000006000600fa008040eb006e
:1013540010c0b30086fd070011c0b30030c0b30055
:1013640083fd07000000230001002000008fbe0061
:101374000b003700490207001e0178001e00be0062
:101384004008de00010020008200780075ff07009d
:1013940000402000010020001e0f40005e9748001e
:1013a400f03f250011002000be0f1000ae8f180082
:1013b400f0ff3600cd02a8008000eb000040eb00f7
:1013c4002bff0700c00020002007980020003700f2
:1013d400ae009000a08320008080400060c1b30074
:1013e400804878002e0090000000e8002007980054
:1013f400ae009000a08320008080400000c4b300b1
:10140400804878002e0090000000e8002007980033
:10141400ae009000a0832000808040000040eb00dc
:10142400804878002e0090000000e8002007980013
:10143400ae009000a0832000808040000040eb00bc
:10144400804878002e0090000000e80020079800f3
:10145400ae009000f07f2000808f5000dcff36004b
:101464008000eb000040eb0057ff07004100230021
:101474000040eb00fefe07008000200020079800db
:10148400ae009000a0832000808040000040eb006c
:10149400804878002e0090000000e80020079800a3
:1014a400ae009000a0832000808040000040eb004c
:1014b400804878002e0090000000e8002007980083
:1014c400ae009000a08320008080400040c0b300a4
:1014d400804878002e0090000000e8002007980063
:1014e400ae009000a0832000808040000040eb000c
:1014f400804878002e0090000000e8002007980043
:10150400ae009000a0832000808040000040eb00eb
:10151400804878002e0090000000e8002007980022
:10152400ae009000a0832000808040000040eb00cb
:10153400804878002e0090000000e8002007980002
:10154400ae009000a0832000808040000040eb00ab
:10155400804878002e0090000000e80020079800e2
:10156400ae009000a0832000808040000040eb008b
:10157400804878000003200020079800ae00900007
:10158400a0832000008040008105210003000900a1
:10159400315878004000b100ae009000820521006f
:1015a40012417800a08320000080400002487800a7
:1015b4002e0090000000e80020079800ae00900084
:1015c4009205210012417800a08320000080400091
:1015d400024878002e0090000000e80020079800e0
:1015e4002e0090000000e800200798002e009000d4
:1015f4000000e80020079800ae009000a20521003a
:1016040012417800a0832000008040000248780046
:101614002e0090000000e80020079800ae00900023
:10162400b205210012417800a08320000080400010
:10163400024878002e0090000000e800200798007f
:101644000002200020079800ae0090005204210000
:1016540012417800a08320000080400002487800f6
:101664002e0090000000e80020079800ae009000d3
:101674006204210012417800a08320000080400011
:10168400024878002e0090000000e800200798002f
:101694002e0090000000e800200798002e00900023
:1016a4000000e80020079800ae00900072042100ba
:1016b40012417800a0832000008040000248780096
:1016c4002e0090000000e80020079800ae00900073
:1016d4008204210012417800a08320000080400091
:1016e400024878002e0090000000e80020079800cf
:1016f4002e0090000000e800200798002e009000c3
:101704000000e80020079800ae0090009204210039
:1017140012417800a0832000008040000248780035
:101724002e0090000000e80020079800ae00900012
:10173400a204210012417800a08320000080400010
:10174400024878002e0090000000e800200798006e
:10175400410023000040eb009bfe07008040eb00ab
:1017640030c0b30082fc070011c0b30010c0b30046
:101774007ffc07000080fa00000006000400fa0065
:10178400008fbe0000400100008fbe000080fa0000
:10179400000006000400fa00204798004012800070
:1017a400004f78002e4090000000fb00401288009b
:1017b40040c2bf00614060000004e000fcff320052
:1017c400401280000080fb000080fa000000060048
:1017d4000400fa002047980040128000004f78006f
:1017e4002e4090000000fb004012880040c2bf0061
:1017f400614060000004e000fcff32000080fa0059
:10180400000006000000fa00d422a8000040eb000b
:101814003ef0b7000040eb003ef0b70010c0b3004c
:101824003ef0b7000040eb003ef0b700301220005d
:10183400101288000000eb00201288000000eb006a
:101844000012880041e2a8000080fa0000000600af
:101854000400fa00008fbe001e00be000040880095
:10186400114088000040eb0024e8b7000000eb00c2
:101874000080fa00000006000000fa0024c8bf003f
:101884000004e0000d003a00004080001140800098
:1018940003022000428020001a000700004080005c
:1018a400114080000002b0000180b00000408800b8
:1018b4001140880000c2b30024e8b700428220002f
:1018c400124178008280fb00000220008100500059
:1018d4004080200000804000104078008080fb00a1
:1018e4000240e90024e8b700010078000080fa0013
:1018f400000006000000fa000000eb000080fa007f
:10190400000006000c00fa00200798003107980038
:10191400420798005307980010128000000f7800c7
:1019240041c2bf000080fb004700de002047980052
:1019340041e2a900301220001012880041e2a80000
:10194400d422a90030002000401288000000370093
:1019540040c2bf00624060000004e000fcff3a00a7
:1019640040c2bf00614060000004e000f8ff3200a4
:1019740040128000304798006400470010409000f7
:101984000080fb00401288000000370040c2bf0006
:10199400624060000004e000fcff3a0040c2bf0067
:1019a400614060000004e000f8ff32004012800053
:1019b4003047980064004700104078000080fb0026
:1019c400401288000000370040c2bf00624060003f
:1019d4000004e000fcff3a0040c2bf006140600028
:1019e4000004e000f8ff3200401280003047980005
:1019f400160037000000eb0040128800000037009a
:101a040040c2bf00624060000004e000fcff3a00f6
:101a140040c2bf00614060000004e000f8ff3200f3
:101a240040128000304798004e0090000000e00013
:101a340006003200be4090004e009000014878003d
:101a44004e0090000000e800400798005e009000ff
:101a54000000e900500798005e009000e10f40008c
:101a6400e4ff3a00d422a80041e2a9001e00780055
:101a7400101288002e40900061406000c700dd0015
:101a840041c2bf000074a1000140700041e2b700f0
:101a94000000eb000080fa00000006000600fa00d7
:101aa40010128000000f780041c2bf000080fb00cc
:101ab4004700de002047980041e2a90030122000d0
:101ac4001012880041e2a800d422a900500020008e
:101ad400401288000000370040c2bf00624060002e
:101ae4000004e000fcff3a0040c2bf006140600017
:101af4000004e000f8ff32004012800040479800e4
:101b04000000eb00401288000000370040c2bf0014
:101b1400624060000004e000fcff3a0040c2bf00e5
:101b2400614060000004e000f8ff320040128000d1
:101b340040479800d422a80041e2a9001e00780082
:101b4400101288002e40900061406000c700dd0044
:101b540041c2bf000074a1000140700041e2b7001f
:101b64004e409000614060000080fb000080fa005d
:101b7400000006000400fa001007980090c6b300a5
:101b8400104798000040eb00004f78000900370030
:101b94001e80fb00800078001e0090000080400042
:101ba400904078001e40900001404000104798008b
:101bb4001e4fe80030c0b3009e4f1000f4ff360003
:101bc4001e4090000080fb000080fa000000060028
:101bd4000000fa000000eb00101688000080eb0003
:101be4000016880000c0230050168800302e200004
:101bf40040168800700020009016880080d42f00c2
:101c040080168800e0012000303a88000000eb00d4
:101c1400203a88000080eb0060198800816a200067
:101c24009140780000ceb30000c060003041b300a2
:101c3400a8e6b700416d20009140780000ceb300c3
:101c440000c060007040b300d4e6b700516d2000be
:101c54009140780000ceb30000c060000034a000c2
:101c6400d5e6b700416a20009140780000ceb30069
:101c740000c060006041b300a4e6b700716d2000ad
:101c84009140780000ceb30000c060003040b30043
:101c9400d7e6b7000080fa00000006000000fa0052
:101ca40084c0bf00684060000004e0003a003200d5
:101cb4008460a9005ed0bf000040e9005ef0b70078
:101cc4005ed0bf000004e00002003a0010002000d3
:101cd40030838800008380001183800061005000fd
:101ce400e08058000083880011838800008380000e
:101cf40011838000e00f5000e08f580002003a008a
:101d0400100020004083880042d0bf000040e9005a
:101d140042f0b70042d0bf000004e00004003a00e3
:101d240090c1b30042f0b7000040eb0029fb07006c
:101d340041d0bf000004e0000d00320044d0bf00d9
:101d44000040e90044f0b70044d0bf000004e000c4
:101d540007003a008040eb0030c0b30004fb0700ea
:101d64000040eb0041f0b70040c6b30044f0b700b8
:101d740064d0bf000040e90064f0b70064d0bf0045
:101d84000004e00004003a001000200050838800a2
:101d940040c6b30064f0b7000080fa0000000600fb
:101da4000200fa00004f780011479800d402a900fd
:101db40000cab3001e40700085fe07001e4090005c
:101dc40083fe0700d402a8000080fa000000060089
:101dd4000200fa00004f780011479800d402a900cd
:101de40000c8b3001e40700079fe07001e4090003a
:101df40077fe0700d402a8000080fa000000060065
:101e04000200fa00004f780011479800d402a9009c
:101e140000c4b3001e4070006dfe07001e40900019
:101e24006bfe0700d402a8000080fa000000060040
:101e34000200fa00000f780031c0b300f0c1b30013
:101e4400d7ff07001e0078004800de00e340600072
:101e5400f0c1b300deff07000080fa0000000600b6
:101e64000400fa0020479800d402a9002e409000f4
:101e740048fe07000040eb0046fe0700004f7800d4
:101e8400d402a8001e80fb000080fa0000000600b7
:101e94000000fa0001c2b300e0c1b300c0ff0700b4
:101ea40010002000e3fa0700d402a90000c0eb00f0
:101eb40047fe0700d402a80010002000ddfa070046
:101ec4000080fa00000006000400fa002047980091
:101ed400d402a9002e4090002efe07000040eb0023
:101ee4002cfe07000040eb002afe0700004f78009c
:101ef400d402a8001e4078000080fb000080fa0095
:101f0400000006000600fa00204798002107980008
:101f140040212000c6ff0700ae40900040c1b3003e
:101f2400b7ff07002e0090008040780060c1b30026
:101f3400b3ff07002e0090004800de0080407800c8
:101f440070c1b300aeff0700a0302000b8ff070047
:101f5400a0c0b300dcff0700004f78001e80fb0028
:101f6400610060000004e000f9ff3a000080fa001c
:101f7400000006000600fa004047980040212000b7
:101f8400abff0700ce40900040c1b3009cff0700a8
:101f940011c0b30020c1b30099ff0700a030200096
:101fa400a3ff0700a0c0b300c7ff0700004f7800dd
:101fb4001e80fb00610060000004e000f9ff3a00ad
:101fc400202120009aff07008040eb0020c1b300cd
:101fd4008bff070080c1b300bbff070020479800b8
:101fe40090c1b300b8ff0700304798001e0090006e
:101ff4000080fa00000006000800fa00200798009c
:10200400c1c0b300f0c1b30065ff07000040eb009e
:10201400d8ff0700000f78002e009000e20f500058
:102024000f003a001e007800010020004809dd007e
:102034004800de0000007100c808de006100600096
:102044000004e00003003200100020002007980084
:102054000e0037000000eb00200798000b0037004b
:102064002e009000e10f500003003a000010200001
:102074001e0f700002003700f0ef2f001e0f6000eb
:102084009e0078000040eb009eff07002020200007
:1020940067ff070020c0b3008bff070020479800ac
:1020a4002e009000e10f500007003a002e409000ef
:1020b4000004a00020479800ae40900020c0b30068
:1020c4004fff0700070037002e409000e1cfb30018
:1020d4000140600020479800ae40900020c0b3004b
:1020e40047ff07002e0090000000e00003003200cc
:1020f40050c1b300604798000200370022c1b3000a
:1021040062479800ee40900040c0b3003cff0700d7
:1021140041c0b300f0c1b3002dff07000080fa00f6
:10212400000006000400fa0010079800d402a8007a
:102134000000eb001012880041e2a9004342a9000c
:1021440042a2a8004302a8004322a90042c2a90057
:102154002124200091407800c0cfb30000c060006b
:102164000014a00042e2b70042c2bf00c041b30065
:1021740042e2b70041e2a800200020002dfa070047
:102184000000370042ff0700d0c1b30034ff07004e
:10219400004f78001e80fb004300de0061006000f9
:1021a4000004e000f7ff3a001e80fb000080ea0014
:1021b400610060000004e000f2ff3a0041c0b30097
:1021c400f0c1b300f6fe07001000200070878800fd
:1021d4009011200016ff07008040eb0090c1b3006f
:1021e40007ff07000000eb00e08288008000200069
:1021f4000fff07008040eb0080c0b30000ff070022
:102204008040eb0090c0b300fdfe07008040eb006f
:10221400c0c0b300fafe07008040eb00d0c0b3009a
:10222400f7fe070080c0eb00a0c0b300f4fe070077
:1022340071c1b300b0c0b300f1fe07008040eb00f1
:1022440040c0b300eefe070081c1b30050c0b3002c
:10225400ebfe070080112000f5fe070071cab300f1
:1022640080c1b300e6fe070000202000f0fe070056
:1022740011c0b3000040eb00e1fe07008040eb001a
:1022840010c0b300defe070021c3b30020c0b300ba
:10229400dbfe0700e1ceb300a0c0b300d8fe070008
:1022a40051c0b300b0c0b300d5fe070021c1b300d4
:1022b40060c0b300d2fe0700c1c0b30070c0b30059
:1022c400cffe070010302000d9fe07001e0090004a
:1022d400650040009040780010c0b300c8fe0700bd
:1022e4001e00900064004000904078000040eb0025
:1022f400c3fe07001e009000630040009040780079
:1023040030c0b300befe07001e0090000080e8004d
:102314009040780020c0b300b9fe07001e00900072
:102324000000e8009040780050c0b300b4fe0700fd
:102334001e0090009040780040c0b300b0fe07003b
:102344000110200000c1b300eefe07002147200069
:1023540040c1b300ebfe07000000eb0026ff0700be
:1023640041c0b300f0c1b30099fe07000080fa0039
:10237400000006000200fa00004f7800d402a90011
:10238400a0c7b30012fd07001e40780010fd07002f
:10239400d402a8000080fa00000006000400fa003d
:1023a400000f780011079800d402a900a0c7b30059
:1023b40007fd0700040037001e0078001040780075
:1023c4001e0fe80002fd07001e0090000000e90057
:1023d400100798001e009000e10f4000f6ff3a003d
:1023e400d402a8000080fa00000006000200fa00ef
:1023f400d402a900a0c3b300f5fc07000040eb0021
:10240400e4fc0700004f7800d402a8001e80fb0003
:102414000080fa00000006000600fa001007980089
:1024240021079800d402a900a0c3b300e8fc070068
:102434000000eb00000f7800090037000040eb00bb
:10244400d4fc0700804078001e009000014878000a
:102454001e0090000000e800100798001e0fe8001e
:102464002e0090009e0f1000f4ff3900d402a80043
:102474001e0078000080fa00000006000400fa0044
:1024840020479800d402a900a0c3b300d0fc0700e1
:102494000040eb00004f7800030037000040eb00e1
:1024a400bcfc07001e4fe8002e4090009e4f100019
:1024b400faff3900d402a8000080fa0000000600e8
:1024c4000000fa0001c8b300f0c1b30040fe0700e9
:1024d40001c8b300f0c1b30031fe0700a1c0b300ce
:1024e400c0c1b3002efe070081c0b300f0c1b30029
:1024f40037fe07000080fa00000006000400fa001e
:10250400f0c1b30056fe0700004f78001e80fb00a8
:102514004300de00610060000000e00003003a00b8
:102524001000200010079800020037000000eb00a4
:10253400100798001e0090000080fa0000000600ba
:102544000200fa00708780000000e0001a003a00e0
:102554001000200070878800e0828000000fe900ee
:10256400f07f21009e0f100002003600f07f210052
:10257400000f780001c4b300e0c1b30014fe0700eb
:10258400c00020002afe07001e007800804078006a
:10259400c0c0b3001afe07001e0078004800de0029
:1025a40080407800d0c0b30015fe070001c4b3001a
:1025b400c0c1b30006fe07000080fa000000060058
:1025c4000800fa00100798002107980090112000d5
:1025d40017fe070090c1b30021fe07000004e000cd
:1025e40003003a000000eb00300798003500370084
:1025f400708780000000e00001003a00d0ff07006f
:102604000000eb000afe0700e082800080407800b2
:102614000040eb00fafd0700e08280004800de0085
:102624008040780010c0b300f5fd070060822000f0
:102634006100200078ff0700c0822000e100200034
:1026440075ff0700c041800010479800c04180001a
:102654004800de00004f78001e007800c04188006a
:1026640030418000e08288001e0090002183200019
:1026740005000900315878006000b100ae009000f8
:10268400f00f200080087800c14180000080200005
:10269400808f500004003200c1418000608020001f
:1026a400808f500003003a00c14180002e0090004a
:1026b400010878000000eb007087880010002000fb
:1026c400300798003e0090000080fa0000000600e9
:1026d4000600fa00000f78001107980022079800fe
:1026e40020002000d2fd07008040eb0020c0b30092
:1026f400c3fd070081c1b30030c0b300c0fd0700b3
:10270400ae009000e0802100008040002007980087
:102714002e0090008040780060c0b300b8fd070030
:102724002e0090004800de008040780070c0b300a6
:10273400b3fd07000040eb000eff07001e00780009
:102744006100200015ff07006100200050042100f3
:1027540012ff07001e0090004800de0005ff07007e
:102764001e00900003ff07000080fa00000006002e
:102774000800fa00100798004147980032079800b3
:1027840020002000aafd070030c0b300b4fd0700fc
:102794001047980020c0b300b1fd0700004f780037
:1027a40050c4b300f3fe07000040eb00f1fe070045
:1027b4003e0090004800de00eefe07003e00900060
:1027c400ecfe07000040eb00eafe07000040eb00cf
:1027d400e8fe07000040eb00e6fe07000040eb00c7
:1027e400e4fe070000c0eb00e2fe07004e4090004c
:1027f400e0fe07000040eb00defe07000040eb00b7
:10280400dcfe07004100200080052100e3fe0700f4
:102814001e00900041002000e0fe07001e0078002a
:10282400a200200041012000020007000080fa00fd
:10283400000006001600fa00889fbe00000f9800f2
:10284400110f9800220f98002000200078fd070047
:1028540030c0b30082fd07003047980020c0b300a9
:102864007ffd0700204798000040eb007cfd070037
:102874001047980010c0b30079fd0700004f78009e
:102884000e089000804078000040eb005cfd0700db
:102894000e0890004800de008040780010c0b300ad
:1028a40057fd07001e0890000000d1004047980023
:1028b4006e004700300798003e0090000000e800da
:1028c400400798006000b80050079800610798001e
:1028d40010003700c5fe0700804078004e009000cd
:1028e40001487800c1fe0700804078003e00900057
:1028f400014878005e019000ee0190007e00900097
:102904000100200002004000838048005007980026
:10291400610798004e4090000040e900404798004d
:102924004e409000e14f4000eaff3a001e0890003c
:10293400610060000004e000160032005e049000b4
:10294400ee049000a9fe07000080fb0001002000b7
:1029540008004000898048005007980061079800eb
:102964000c0037006e009000700798000000eb0028
:10297400600798005e019000ee0190007e009000d8
:1029840001002000020040008380480050079800a6
:10299400610798006e0090000000e000f1ff3a002b
:1029a4005e0090000080ea00500798000e08900036
:1029b400804078002e08900080c0400020c0b30002
:1029c4000ffd07008e0890002e0890000080400044
:1029d4004800de008040780030c0b30008fd0700e6
:1029e4005e0090004800de0062fe07005e0090007a
:1029f40060fe0700ae40900020c0b30000fd070059
:102a0400be40900030c0b300fdfc07009e40900023
:102a14000040eb00fafc07009e40780010c0b300b1
:102a2400f7fc07004f04be000080fa000000060017
:102a34000a00fa001007980021079800320798004e
:102a440043079800c2012000018020001e0090006e
:102a54001fff0700c201200011c0b3002e00900028
:102a640043ff070020002000f1fc070030c0b30042
:102a7400fbfc07001047980020c0b300f8fc0700d7
:102a8400004f78000040eb003afe07000040eb00e6
:102a940038fe07000040eb0036fe07000040eb0064
:102aa40034fe07003e0090001040780031fe07001d
:102ab4003e0090000000e800104078002dfe070062
:102ac4004e009000104078002afe07004e0090004f
:102ad4000000e8001040780026fe07001e00780081
:102ae400220020008100200052ff070074fe07002e
:102af4000080fa00000006000e00fa00100798009b
:102b0400210798003207980043079800540798005b
:102b1400650798005e0090007c0140000180200061
:102b24001e009000eafe07005e0090007c01400059
:102b340011c1b3002e0090000dff07003e0090006d
:102b4400100078000bfe07003e0090001000780093
:102b54004800de0007fe07004e00900010007800d9
:102b640004fe07004e009000100078004800de00cc
:102b740000fe07005e009000680f40001e00780011
:102b84004800de00fbfd07001e007800f9fd070089
:102b94000040eb00f7fd07000040eb00f5fd0700e7
:102ba400de0090006e009000fcfd070044fe07006c
:102bb4000080fa00000006000400fa00000f78000c
:102bc40011079800c2012000618020001e007800d7
:102bd400bffe07000040eb00e6fd070010c0b30095
:102be400e4fd070080c0b300e2fd07000040eb00f5
:102bf400e0fd070060c0b300defd070040c0b30085
:102c0400dcfd07000040eb00dafd070020c0b30044
:102c1400d8fd07006100200050042100dffd0700fb
:102c24004100200080052100dcfd07001e00780023
:102c340061002000d9fd07001e0090004100200023
:102c4400d6fd07001efe07000080fa000000060003
:102c54000800fa00200798003107980000012000be
:102c640073fc07002e0090008040780000c1b30080
:102c740063fc07002e0090004800de0080407800ce
:102c840010c1b3005efc07002e0090008040780065
:102c94003e00900080c0400020c1b30058fc0700f3
:102ca4008040eb0030c1b30055fc070001c3b30002
:102cb400f0c1b30046fc0700f0c1b30068fc070094
:102cc400004f78001e80fb004500de0061006000bc
:102cd4000004e000f8ff3a0070c1b30060fc070094
:102ce4003047980060c1b3005dfc0700204798009e
:102cf4001e0090000080fa00000006003800fa0070
:102d0400e10220008e804000630047002cfe070093
:102d14000000e0009e0032007e109000301f9800fa
:102d240000802000be189000808f50002a003200de
:102d340060802000be189000808f50000100320097
:102d440092003700e0c0b300ccfd070069004700e3
:102d540041002000b0fd070060c0b300c7fd0700bc
:102d64006d00470041002000abfd07000040eb0070
:102d740020479800030037002e4090000040e800f0
:102d8400204798002e4090008080fb0080052100a1
:102d940000804000104178002e4090008080fb00ad
:102da4006d00470061407800804f510003003a00f5
:102db4002e409000e34f5000efff36002e4090006d
:102dc400e44f500071003a00e900470063004700f7
:102dd40079ff07006d0037007200470041012000b1
:102de4008dfd07000040eb002047980003003700ea
:102df4002e4090000040e800204798002e409000ac
:102e04008080fb0080052100008040001041780094
:102e14002e4090000080fb00f2004700700040004c
:102e24000100400010407800804f510003003a0038
:102e34002e409000e34f5000edff36002e409000ee
:102e4400e44f5000160032000040eb002047980089
:102e5400030037002e4090000040e800204798000f
:102e64002e4090008080fb00400e21000080400036
:102e7400104178002e4090000080fb00f2004700d3
:102e8400700040000100400010407800804f510065
:102e940003003a002e409000e34f5000edff36004f
:102ea4002e409000e44f500038003a007200470072
:102eb400104890000080fb00201f98002e189000fe
:102ec400e10f500004003200ae189000f18f500062
:102ed4001a0032002d00370044fd0700e84f50006f
:102ee4002a003a0030c0b30064fd0700000320004c
:102ef4000e0040002100200047fd070020032000b1
:102f04000e0040002100200043fd070021032000a3
:102f14008e804000020320000e0141007200470031
:102f24006c00400063024700810178008000780053
:102f340004007800befe0700140037006002200081
:102f44000e0040008100200033fd07004e10900069
:102f54004801de004e109000c800dd0000f02f0094
:102f640000806000000f4100400024009e0f10000c
:102f740006003a006301470072004700ec0040007d
:102f8400600220000e004000050207006cfd0700ef
:102f94000080fa00000006000800fa000000eb00c0
:102fa400000f780000c1b30045f0b7000040eb000b
:102fb40046f0b7000040eb0047f0b7008104210061
:102fc400914078005008800000c0680048f0b700c5
:102fd4009104210091407800a008800000c068009e
:102fe40049f0b700a104210091407800c008800096
:102ff40000c068004af0b70030c0b3002047980012
:10300400260037000000eb0020079800110037006d
:103014002e4090000081fb002e4090008080fb0039
:103024005004210000804000904078001e00780089
:103034001040780080c06800500421000000410066
:10304400014878001e0fe8002e0090000000e80000
:1030540020079800ae009000e00f2000808f500001
:10306400ebff36002e4090000080fb000001e800da
:103074002e4090008080fb0050042100008040001e
:10308400904078005004210000004100014878007d
:103094002e4090000040e800204798002e40900009
:1030a400e54f5000d7ff3600010123000040eb003c
:1030b400eff707000002200030079800be009000e0
:1030c4005204210012417800a083200000804000b7
:1030d400024878003e0090000000e80030079800a5
:1030e400be0090006204210012417800a0832000f9
:1030f40000804000024878003e0090000000e80094
:10310400300798003e0090000000e8003007980067
:103114003e0090000000e80030079800be009000d8
:103124007204210012417800a08320000080400036
:10313400024878003e0090000000e8003007980044
:10314400be0090008204210012417800a083200078
:1031540000804000024878003e0090000000e80033
:10316400300798003e0090000000e8003007980007
:103174003e0090000000e80030079800be00900078
:103184009204210012417800a083200000804000b6
:10319400024878003e0090000000e80030079800e4
:1031a400be009000a204210012417800a0832000f8
:1031b40000804000024878003e0090000000e800d3
:1031c40030079800010123000040eb00fef70700e0
:1031d4000080fa00000006000200fa000040eb0044
:1031e40032e0b700800123001000ba00000f78001d
:1031f4001e00780058f0b7001e0078004800de007a
:1032040059f0b700a00123001000ba00000f7800a5
:103214001e0078005af0b7001e0078004800de0057
:103224005bf0b7000040eb0032e0b7000001230080
:103234001000ba00000f78001e00780045f0b700b7
:103244001e0078004800de0046f0b700200123008d
:103254001000ba00000f78001e00780047f0b70095
:103264001e0078004800de0048f0b700400123004b
:103274001000ba00000f78001e00780049f0b70073
:103284001e0078004800de004af0b70045d0bf00b9
:10329400e14f400001003a003fff07000080fa00c0
:1032a400000006000000fa000080fa00000006009a
:1032b4000200fa00410020008005210056fc0700ae
:1032c400810123000040eb0069f7070000032000a0
:1032d400000f78009e007800a0832000008040004a
:1032e4008105210003000900315878004000b10035
:1032f4009e0078008205210012417800a0832000fe
:1033040000804000024878001e0fe8009e0078000c
:103314009205210012417800a08320000080400023
:10332400024878001e0fe8001e0fe8001e0fe80098
:103334009e007800a205210012417800a08320009d
:1033440000804000024878001e0fe8009e007800cc
:10335400b205210012417800a083200000804000c3
:10336400024878001e0fe800810123000040eb00b2
:1033740095f707000080fa00000006001a00fa0022
:10338400200f9800310f9800420f9800a0c5b30099
:10339400004f780050cab300104798000040eb007b
:1033a400204798000040eb0030479800b08480002c
:1033b40040479800b08480004800de0050479800e1
:1033c40098d0bf006047980000d1bf0070479800b4
:1033d40001d1bf00004f980002d1bf00104f9800e8
:1033e400a0838000204f9800a08380004800de0066
:1033f400304f980058d0bf00404f980059d0bf00bc
:10340400504f98005ad0bf00604f98005bd0bf0067
:10341400704f98006083800000579800608380009c
:103424004800de001057980072d0bf002057980063
:1034340072d0bf000080fb004880de00804078002e
:1034440000c0eb0000c06000305798008e00780088
:103454002e0890000081e8008102780034012000e9
:1034640063052100be0890004e089000a2fd0700ed
:10347400100020000080fa00000006002600fa0078
:103484006a004700100798006a0047008101200085
:10349400e1fb0700c2102100ea0047000001200000
:1034a4007cf50700c21021006a0047006800400054
:1034b400800078000001200076f50700c21021008a
:1034c4006a0047007000400080007800000120007e
:1034d40070f507006a004700200798002e0090004e
:1034e40010407800f04f5000040036006c70a800c3
:1034f4000000eb0020179800a60037002e00900073
:1035040090407800614798002e0090000000e80089
:10351400200798002e00900090407800014f9800fa
:103524002e0090000000e80020079800ee40900074
:103534000e48900000c04000604798002e009000a4
:1035440090407800714798002e0090000000e80039
:1035540020079800ee4090007e40900000c040009c
:10356400604798002e00900090407800014f98002a
:103574002e0090000000e80020079800ee40900024
:103584000e48900000c04000604798000040eb00e7
:10359400104f98000b0037002e00900090407800e8
:1035a4006e40900001404000604798002e0090005b
:1035b4000000e800200798001e4890000040e80042
:1035c400104f98001e009000904078001e48900014
:1035d40080cf5000f0ff3e002e0090009040780015
:1035e400014f9800ee4090000e48900000c040004b
:1035f400604798001e009000ee40900041509800f3
:103604006e4090000004e000040032006dd0a80079
:103614000000eb00201798005e0037008040eb00ac
:1036240010c0b300d2f407001e0090003040900098
:103634000080fb00101798009e109000e18f50004e
:10364400270032001e109000e40f500019003200d1
:103654009e1090000100e000010032004700370096
:1036640011c0b30030c0b300c1f4070010c0b300f0
:1036740041f0b7001e00900010409000a7f0b70082
:103684001e00900020409000a6f0b7001e0090009d
:10369400904078001e009000640040000001780013
:1036a40081417800308580004185800094f50700d1
:1036b400360037001e00900040409000a9f0b7008b
:1036c4001e00900050409000a8f0b7000040eb00ae
:1036d4006ef0b7006ef0a8006d90a8002b003700c4
:1036e400808780000000e00003003200e181800058
:1036f4003ad0bf00b4f6070041f607000000e0002e
:103704001b003200810023000040eb0058f6070044
:1037140000012000000f78009e007800a0832000a4
:10372400808040000040eb00804878001e0fe800d5
:103734009e007800a0832000808040000040eb00c1
:10374400804878001e0fe800810023000040eb0051
:103754009df6070011c0b30010c0b30084f4070045
:103764006d70a8006cb0a9006cf0a90007003700c8
:103774000000eb0020179800060037006c10a8002a
:103784008000eb0021179800020037001000200091
:10379400201798002e1090000080fa000000060008
:1037a4001200fa0040079800510798006207980039
:1037b4004e00900010007800b08288004e00900007
:1037c40020009000c800de004800dd000100700009
:1037d40068005000300798003e009000e60f50004b
:1037e40004003600be00900070302000808f50002e
:1037f400030036000000eb00000f98003201370090
:10380400fafa070080407800a0c5b30080cf5000ca
:10381400030032000000eb00000f98002a0137007b
:10382400f2fa07008040780050cab30080cf5000fd
:10383400030032000000eb00000f98002201370063
:10384400eafa07000080fb0020079800e7fa070067
:103854000080fb004800dd008000780000f02f00ad
:10386400808060002e009000010070002007980006
:103874006009210021002000e7fa0700dbfa0700b5
:1038840098f0b7002e0090000000e00007003a0016
:103894006e019000de0090004e009000b7fe07001d
:1038a40010002000000f980007013700a18380005a
:1038b4002e009000810f5000030032000000eb0046
:1038c400000f98000001370098d0bf000080fb0073
:1038d400700798007e009000e40f500072003200e0
:1038e4007e009000e40f500011003c007e00900028
:1038f400e10f5000190032007e009000e10f5000eb
:1039040004003c007e0090000000e000250032002e
:10391400e70037007e009000e20f500028003200dc
:103924007e009000e30f500052003200e0003700a8
:103934007e009000e80f500004003c007e009000e0
:10394400e60f5000aa003d00a10037007e00900061
:10395400e90f5000cc003200d50037003e00900043
:10396400eb0f500008003a0051fe07006e01900072
:10397400de0090004e00900080fe07001000200042
:10398400000f9800d00037006e019000de00900018
:103994004e00900079fe07000000eb00000f980035
:1039a400c90037006e019000de0090004e009000c8
:1039b40072fe070010002000000f9800c2003700bc
:1039c4006083800001042000010060000000e0002a
:1039d40007003a006e019000de0090004e00900057
:1039e40066fe07000000eb00000f9800b6003700e9
:1039f400810023000040eb009df50700000120003a
:103a0400100798009e009000a08320008080400052
:103a14000040eb00804878001e0090000000e800a1
:103a2400100798009e009000a08320008080400032
:103a34000040eb00804878001e0090000000e80081
:103a440010079800810023000040eb00def507001a
:103a54006cb0a8006cf0a8006e019000de0090002d
:103a64004e00900045fe07000000eb00000f980098
:103a7400950037006cd0a80011e1a90084e0a900ea
:103a84006e019000de0090004e0090003bfe0700a7
:103a94006000b8003085880041858800100020004f
:103aa400000f980088003700608380000104200024
:103ab400010060000000e00009003a006c90a800da
:103ac4006e019000de0090004e0090002bfe070077
:103ad4006c90a9000000eb00000f98007a003700fa
:103ae4003e00900082012000110009000280d800ed
:103af400000f78001e00e0000300320000022000e6
:103b04009e0f1000090036006c70a8006e01900032
:103b1400de0090004e00900018fe07006c70a900b3
:103b24000000eb00000f9800670037001e007800cb
:103b34007800b900e70040003e009000808f5000fc
:103b44000f0032006c70a8006e019000de0090003f
:103b54004e00900009fe07006c70a9000000eb0005
:103b6400000f98005800370044fe07000000e000f2
:103b740003003a000000eb00000f980052003700e9
:103b84001e0fe9000080eb009e0f1000f6ff3a00c4
:103b94006e019000de0090004e009000f7fd0700db
:103ba4006c10a9006c30a9006df0a9006dd0a900bb
:103bb4006db0a9006d90a9006d70a9006d50a900a9
:103bc4006d30a90010002000000f98003e0037005f
:103bd4006e019000de0090004e009000e7fd0700ab
:103be4006d10a9000000eb00000f980036003700ac
:103bf4006083800001042000010060000000e000f8
:103c040009003a006c90a8006e019000de0090005c
:103c14004e009000d9fd07006c90a9000000eb0055
:103c2400000f98002800370098d0bf00e74f5000dd
:103c3400030032009bfd07000040eb006ef0b7006c
:103c440098d0bf00e64f50000300320098d0bf0068
:103c5400e74f500005003a00bbf507000040eb00b9
:103c64006ef0b7006cb0a8006cf0a8006e01900074
:103c7400de0090004e009000c0fd07001000200000
:103c8400000f9800100037006e019000de009000d5
:103c94004e009000b9fd07004006200065f30700c0
:103ca4000000fe0010002000000f980006003700fe
:103cb4006e019000de0090004e009000affd070002
:103cc4000000eb00000f98000e0890000080fa003e
:103cd400000006000600fa00881f7800ff3ffc0081
:103ce4000000eb00100488000000eb00a004880032
:103cf4000000eb00b00488000000eb00c004880062
:103d04000000eb00d00488000000eb00e004880011
:103d140010002000f0888800adf707000060fe0066
:103d24002dfd0700b7f607000e01e8005300200040
:103d34001014200001002000f2f60700cbc2bf00df
:103d4400624060000004e0000b0032000e00e80056
:103d5400404490000e00e80086f70700804f5400ae
:103d640005003a000e00e800810521000300090067
:103d7400b05878004000b10022f30700910a2000f7
:103d840091407800f0c8b30000c0600001c4b300e3
:103d940001407000a9e0b700f05f29001008880016
:103da400510a200091407800f0c8b30000c06000c0
:103db400a5e0b70000002800200888008460a9005e
:103dc400f05f29006008880094e0a9000000eb007f
:103dd4008008880084e0a9000000eb00608388006c
:103de4000040eb00004f78001d00370011c0b30005
:103df4000040eb00def2070011c0b30030c0b30096
:103e0400dbf2070011c0b30020c0b300d8f20700f2
:103e140011c0b30010c0b300d5f20700c0122000d7
:103e240004f307008040eb000040eb00d0f20700f1
:103e34008040eb0030c0b300cdf207008040eb00bf
:103e440020c0b300caf207008040eb0010c0b300ea
:103e5400c7f20700c0122000f6f207001e4fe80068
:103e640020c0b3009e4f1000e0ff360090c1b300a5
:103e740042f0b70010c0b30065f0b70040c6b3000d
:103e840044f0b70040c6b30043f0b700620020001e
:103e9400f10f2000b0042100aef20700110521004b
:103ea4008005210003000900b058780049d0bf0004
:103eb4000080fb004800dd00800078004ad0bf008d
:103ec4000080fb0000807000a08388005004210063
:103ed40094f807000040eb00004f7800030037001f
:103ee400a00f2000d3f207001e4fe80031c0b3003a
:103ef4009ecf1000faff360000442000b0828800f4
:103f04000040eb00004f7800060037009e80fb0065
:103f1400b00421008080400000c0eb00804878009d
:103f24001e4fe80050c0b3009e4f1000f7ff36004c
:103f3400a00f2000bff20700a00f2000bdf2070071
:103f4400a00f2000bbf20700a00f2000b9f2070069
:103f540081052100b004210017fb07000040eb009d
:103f64006ef0b7000040eb0072f0b7000040eb00c9
:103f7400a4f0b7006000b80030858800418588004f
:103f840081052100800e21000bfb07000040eb009f
:103f940041f0b7008040eb0030c0b30074f207007a
:103fa40017f407000000e0000700320022f40700c5
:103fb4000000e0000400320011e1a80000712200ba
:103fc400d0848800020037006cb0a8006cd0a80030
:103fd40084c0bf0001c8b300014060000004e000d9
:103fe4000a00320084e0a900d08480000000e900c7
:103ff400d0848800d08480000000e00003003a00f0
:104004000000230001002000dcf5070023f707006f
:084014003afb0700eeff370044
:020000040000fa
:10401c00e41000002800000002000000e60a0a007c
:10402c000bffff00ffffff00ff0000000000ff0080
:10403c00ffffff00ffffff00ffe60a000a0b000076
:10404c0040101000100000001000080000040000d8
:10405c00200000000c110000120000000200000003
:10406c0042727500736845006c65630074726f0072
:10407c006e6963007300000000080000e408000093
:10408c00000000001e1100000200000002000000f1
:08409c0001000000000000001b
:020000040000fa
:0440a4000000fe001a
:00000001FF
