:020000040000FA
:0600000009EF76F012008A
:0600080025EF59F0120083
:06002A000E0051ED000084
:100030006B0400000F0000004FED0000D50400002D
:10004000020000004DED0000D3040000020000009B
:1000500049ED0000C10400000400000046ED00006E
:10006000C8040000030000000DED00004102000084
:1000700039000000BCEC0000680D000051000000D9
:1000800083EC0000C20100003900000081EC000098
:10009000D1040000020000007FEC0000CF0400004B
:1000A000020000007AEC0000BC0400000500000023
:1000B0001BEB0000FF0D00000100000062EC0000DF
:1000C000E80200001800000060EC0000CD04000011
:0400D000020000002A
:0C00D4000901006B0A0E005D5CE20051A7
:1000E000240DF3CF01F9F4CF02F9000E01270C0E15
:1000F000022301C9E9FF02C9EAFF0A0EEF6E01C936
:10010000E9FF02C9EAFF230EE926000EEA22EF907A
:1001100001C9E9FF02C9EAFF230EE926000EEA221F
:10012000EF8201C9E9FF02C9EAFF230EE926000EAA
:10013000EA22EF8401C9E9FF02C9EAFF230EE9269A
:10014000000EEA22EF9801C9E9FF02C9EAFF230E77
:10015000E926000EEA22EF9601C9E9FF02C9EAFF8B
:100160000F0EE926000EEA22EF6801C9E9FF02C975
:10017000EAFF210EE926000EEA222C0EEE6E010E99
:10018000ED6E01C9E9FF02C9EAFF100EEB6A110E1C
:10019000EB6A002BA1D712000901006B0A0E005D6B
:1001A00001E37BD00051240DF3CF01F9F4CF02F924
:1001B000000E01270C0E022301C9E9FF02C9EAFF64
:1001C000EF500A0868E101C9E9FF02C9EAFFEF6AD6
:1001D00001C9E9FF02C9EAFF0B0E62C0EBFF0C0E7A
:1001E00063C0EBFF01C9E9FF02C9EAFF0D0EEB6A2C
:1001F0000E0EEB6A01C9E9FF02C9EAFFEE52060ED4
:10020000E926000EEA22EE6AEE6AEE6AEE6A01C99B
:10021000E9FF02C9EAFF230EE926000EEA22EF8079
:1002200001C9E9FF02C9EAFF230EE926000EEA220E
:10023000EF9601C9E9FF02C9EAFF0F0EEB50106EFD
:10024000116A126A136AE868101805E1115003E197
:10025000125001E1135013E001C9E9FF02C9EAFF9E
:100260000F0EEB500301846F86EC30F001C9E9FFFB
:1002700002C9EAFF0F0EE926000EEA22EF6801C963
:10028000E9FF02C9EAFF230EE926000EEA22EF8207
:10029000090100511200002B81D7FE0C09016F6B80
:1002A0006C6B0A0E6C5D16E26C51240DF3CF6DF988
:1002B000F4CF6EF9000E6D270C0E6E236DC9E9FFA9
:1002C0006EC9EAFFEF500A0803E1010E6F6F02D01A
:1002D0006C2BE7D76F5101E1FE0C0401CD2B000E12
:1002E000CE236DC9E9FF6EC9EAFF0B0ECDC4EBFF4B
:1002F0000C0ECEC4EBFFCDC410F0CEC411F0126AC8
:10030000136AD880880E1054130E1154000E125424
:10031000000E135403E2CD6B040ECE6F6DC9E9FFDE
:100320006EC9EAFF230EE926000EEA22EF906DC99E
:10033000E9FF6EC9EAFF0D0E66C0EBFF0E0E67C047
:10034000EBFF6DC9E9FF6EC9EAFF160EE926000E44
:10035000EA22EE2AEE22EE22EE226DC9E9FF6EC9F4
:10036000EAFF1A0EE926000EEA22EE6AEE6AEE6A4B
:10037000EE6A0A0EE66EE66A64C0E6FF65C0E6FF56
:100380006DC9E9FF6EC9EAFFEE52E9CF10F0EACF7E
:1003900011F0E9CFE6FFEACFE6FFADEC6FF0126EA9
:1003A000060EE15E0001986B996B000197690001F0
:1003B000020E966F6DC9E9FF6EC9EAFF1A0EE926B3
:1003C000000EEA22EECF92F0EECF93F0EECF94F053
:1003D000EFCF95F06DC9E9FF6EC9EAFF160EE92669
:1003E000000EEA22EECF8EF0EECF8FF0EECF90F03F
:1003F000EFCF91F06DC9E9FF6EC9EAFF0D0EE92656
:10040000000EEA22EECF8CF0EDCF8DF06DC9E9FF42
:100410006EC9EAFF0B0EE926000EEA22EECF8AF043
:10042000EDCF8BF06DC9E9FF6EC9EAFFEE52E9CF5F
:1004300088F0EACF89F0B4EC09F06DC9E9FF6EC924
:10044000EAFF010EEF6E6DC9E9FF6EC9EAFF160EF5
:10045000E926000EEA22EE2AEE22EE22EE226DC9F5
:10046000E9FF6EC9EAFF1F0EA1C4EBFF200EA2C474
:10047000EBFF09016C51120000016851240DF3CF0C
:10048000E9FFF4CFEAFF000EE9260C0EEA22EF5056
:10049000030801E0000C010C00016951240DF3CFA9
:1004A0006CF9F4CF6DF9000E09016C270C0E6D2369
:1004B0006CC9E9FF6DC9EAFFEF5003080DE06CC994
:1004C000E9FF6DC9EAFFEF50020806E06CC9A0F031
:1004D0006DC9A1F035EF0DF069C073F0E1DA0001EC
:1004E000986B996B000197690001110E966F6CC9AA
:1004F000E9FF6DC9EAFF1A0EE926000EEA22EECFE7
:1005000092F0EECF93F0EECF94F0EFCF95F06CC970
:10051000E9FF6DC9EAFF160EE926000EEA22EECFCA
:100520008EF0EECF8FF0EECF90F0EFCF91F06CC960
:10053000E9FF6DC9EAFF0D0EE926000EEA22EECFB3
:100540008CF0EDCF8DF06CC9E9FF6DC9EAFF0B0EA1
:10055000E926000EEA22EECF8AF0EDCF8BF06CC9CF
:10056000E9FF6DC9EAFFEE52E9CF88F0EACF89F0E2
:10057000B4EC09F06CC9E9FF6DC9EAFF160EE92673
:10058000000EEA22EE2AEE22EE22EE226CC9E9FFEC
:100590006DC9EAFF040EEF6E120000016A51240DCE
:1005A000F3CF7AF9F4CF7BF9000E09017A270C0E0C
:1005B0007B237AC9E9FF7BC9EAFF0F0EEB50106E6F
:1005C000116A126A136AE868101807E1115005E110
:1005D000125003E1135001E1000C7AC9E9FF7BC915
:1005E000EAFF230EE926000EEA22EF50020B01E19A
:1005F000000C7AC9E9FF7BC9EAFF100EE926000E5C
:10060000EA22EECF98F0EDCF99F07AC9E9FF7BC9E5
:10061000EAFF0F0EEB500001976F0001180E966F66
:100620001A0EE926000EEA22EECF92F0EECF93F0FA
:10063000EECF94F0EFCF95F07AC9E9FF7BC9EAFFDE
:10064000160EE926000EEA22EECF8EF0EECF8FF0E6
:10065000EECF90F0EFCF91F07AC9E9FF7BC9EAFFC6
:100660000D0EE926000EEA22EECF8CF0EDCF8DF0D4
:100670007AC9E9FF7BC9EAFF0B0EE926000EEA22E0
:10068000EECF8AF0EDCF8BF07AC9E9FF7BC9EAFFA4
:10069000EE52E9CF88F0EACF89F0B4EC09F07AC9DC
:1006A000E9FF7BC9EAFF100EE926000EEA22EECF31
:1006B00010F0EFCF11F0126A136A7AC9E9FF7BC913
:1006C000EAFF160EE926000EEA221050EE2611501F
:1006D000EE221250EE221350EE227AC9E9FF7BC9B6
:1006E000EAFF230EE926000EEA22EF927AC9E9FF1B
:1006F0007BC9EAFF230EE926000EEA22EF98010CDF
:100700000A0E00016B5D01E3000C6B51240DF3CF69
:10071000E9FFF4CFEAFF000EE9260C0EEA22140EE0
:10072000E926000EEA22EE50ED1001E1000C6B51BB
:10073000240DF3CFE9FFF4CFEAFF000EE9260C0EFB
:10074000EA220F0EE926000EEA22EFCF10F0116A1E
:10075000126A136AE86810180AE1115008E1125091
:1007600006E1135004E10301746B9CEF2DF06B5113
:10077000240DF3CFE9FFF4CFEAFF000EE9260C0EBB
:10078000EA22230EE926000EEA22EF50020B01E0D6
:10079000010E120000016C51240DF3CF78F9F4CF53
:1007A00079F9000E090178270C0E792378C9E9FF41
:1007B00079C9EAFF140EE926000EEA22EE50ED1088
:1007C00001E1000C78C9E9FF79C9EAFF0F0EEB508F
:1007D000106E116A126A136AE868101840E111502D
:1007E0003EE112503CE113503AE10301756BD5EC48
:1007F0002DF0E66E78C9E9FF79C9EAFF0F0EE92608
:10080000000EEA22E552E750EF6E78C9E9FF79C998
:10081000EAFF0F0EEB50106E116A126A136AE86855
:10082000101807E1115005E1125003E1135001E1E6
:10083000000C78C9E9FF79C9EAFF100EEB6A110EC6
:10084000EB6A280E0301966F976B78C9E9FF79C9A7
:10085000EAFF0F0EEB500301956F95EC33F078C96A
:10086000E9FF79C9EAFF230EE926000EEA22EF88A4
:100870006DC076F31FEC2EF078C9E9FF79C9EAFF65
:10088000140EE926000EEA22EE06EF5A78C9E9FFB7
:1008900079C9EAFF100EE926000EEA22EE2AED22BF
:1008A000EECF10F0EDCF11F0126A136ACA0E105C91
:1008B000030E1158000E1258000E135803E36CC0BB
:1008C0006AF06BDE010C00016E51240DF3CF6CF960
:1008D000F4CF6DF9000E09016C270C0E6D236CC965
:1008E000E9FF6DC9EAFF140EE926000EEA22EE5078
:1008F000ED1001E1000C6CC9E9FF6DC9EAFF0F0EB4
:10090000EB50106E116A126A136AE868101840E121
:1009100011503EE112503CE113503AE10301756B76
:10092000D5EC2DF0E66E6CC9E9FF6DC9EAFF0F0E3C
:10093000E926000EEA22E552E750EF6E6CC9E9FFA6
:100940006DC9EAFF0F0EEB50106E116A126A136A3E
:10095000E868101807E1115005E1125003E1135047
:1009600001E1000C6CC9E9FF6DC9EAFF100EEB6AEA
:10097000110EEB6A280E0301966F976B6CC9E9FFA5
:100980006DC9EAFF0F0EEB500301956F95EC33F044
:100990006CC9E9FF6DC9EAFF100EE926000EEA22D4
:1009A00000017151EE24106E7251EE20116E126A28
:1009B000136AD880CA0E1054030E1154000E12543C
:1009C000000E135424E2CA0E146E030E156E166A3E
:1009D000176A6CC9E9FF6DC9EAFF100EE926000E1F
:1009E000EA22EECF18F0EFCF19F01A6A1B6A1850FE
:1009F000145C106E19501558116E1A501658126E5C
:100A00001B501758136E10C071F011C072F06CC9F2
:100A1000E9FF6DC9EAFF230EE926000EEA22EF88FE
:100A200071C079F372C07AF36FC077F370C078F356
:100A30004BEC2EF06CC9E9FF6DC9EAFF140EE926F4
:100A4000000EEA2200017151EE5E7251ED5A6CC93E
:100A5000E9FF6DC9EAFF100EE926000EEA22715186
:100A6000EE267251ED226CC9E9FF6DC9EAFF100E46
:100A7000E926000EEA22EECF10F0EFCF11F0126A55
:100A8000136ACA0E105C030E1158000E1258000EA5
:100A9000135803E36EC06AF080DD0001715112004B
:100AA00000017351240DF3CF00F9F4CF01F9000ECA
:100AB000090100270C0E012300C9E9FF01C9EAFF63
:100AC000230EE926000EEA22EF50080B01E1000C8C
:100AD000A4EC30F000C9E9FF01C9EAFF230EE926C2
:100AE000000EEA22EF96010C00017451240DF3CFA1
:100AF00000F9F4CF01F9000E090100270C0E0123C3
:100B000000C9E9FF01C9EAFF230EE926000EEA2227
:100B1000EF50080B5AE000C9E9FF01C9EAFF230EB4
:100B2000E926000EEA22EF50040B10E00001AB6B47
:100B3000AC6B74C0AAF058EC13F000C9E9FF01C90E
:100B4000EAFF230EE926000EEA22EF9400C9E9FF2E
:100B500001C9EAFF120EE926000EEA22EECF10F0DC
:100B6000EFCF11F000017751105C785111580CE271
:100B700000C9E9FF01C9EAFF120EE926000EEA22C8
:100B8000EECF77F0EDCF78F000C9E9FF01C9EAFFB9
:100B9000120EE926000EEA22EE50ED100CE1A4EC54
:100BA00030F000C9E9FF01C9EAFF230EE926000E73
:100BB000EA22EF960AD077C07DF378C07EF375C045
:100BC0007BF376C07CF38EEF2FF0F36AF46A1200A9
:100BD00000017951240DF3CF87F9F4CF88F9000E85
:100BE000090187270C0E8823896B8A6B8B6B87C959
:100BF000E9FF88C9EAFF230EE926000EEA22EF503A
:100C0000080B71E087C9E9FF88C9EAFF230EE926CE
:100C1000000EEA22EF50040B10E00001AB6BAC6B4E
:100C200079C0AAF058EC13F087C9E9FF88C9EAFF38
:100C3000230EE926000EEA22EF9487C9E9FF88C94E
:100C4000EAFF120EE926000EEA22EECF10F0EFCFF7
:100C500011F000017C51105C000E11580DE287C9A3
:100C6000E9FF88C9EAFF120EE926000EEA22EFCF5B
:100C70007CF00901100E896F87C9E9FF88C9EAFF76
:100C8000120EE926000EEA22EE50ED100FE1A4EC60
:100C900030F087C9E9FF88C9EAFF230EE926000E74
:100CA000EA22EF96F36A100EF46E12007DC082F312
:100CB0007CC081F37AC07FF37BC080F3E8EC2FF037
:100CC000F3CF8AF9F4CF8BF9116A126A136A200EF6
:100CD000F4180BE1115009E1125007E1135005E13E
:100CE0000901200E01D0300E896F89C98BF98AC99C
:100CF000F3FF89C9F4FF120000017E51240DF3CFE8
:100D000087F9F4CF88F9000E090187270C0E882394
:100D100087C9E9FF88C9EAFF230EE926000EEA2207
:100D2000EF50080B44E087C9E9FF88C9EAFF230EAA
:100D3000E926000EEA22EF50040B10E00001AB6B35
:100D4000AC6B7EC0AAF058EC13F087C9E9FF88C9E4
:100D5000EAFF230EE926000EEA22EF9487C9E9FF95
:100D600088C9EAFF120EE926000EEA22EE50ED10C5
:100D70000CE1A4EC30F087C9E9FF88C9EAFF230E33
:100D8000E926000EEA22EF96000C87C9E9FF88C920
:100D9000EAFF120EE926000EEA22EE06EF5A33ECC5
:100DA0002FF07FC0E9FF80C0EAFFEF6E010C000C5E
:100DB0000A0E0001815D01E3000C8151240DF3CF87
:100DC000E9FFF4CFEAFF000EE9260C0EEA22230E1B
:100DD000E926000EEA22EF50080B01E0010E120096
:100DE00009017B6B6C6B0A0E6C5D01E3FAD16C51EF
:100DF000240DF3CF75F9F4CF76F9000E75270C0E9C
:100E0000762375C9E9FF76C9EAFF230EE926000EAD
:100E1000EA22EF50080B01E0E1D175C9E9FF76C97C
:100E2000EAFF230EE926000EEA22EF50100B01E044
:100E3000D5D175C9E9FF76C9EAFFEF500A0801E18B
:100E4000CDD175C9E9FF76C9EAFFEF5000090CE181
:100E500075C9E9FF76C9EAFF230EE926000EEA22EA
:100E6000EF50010B01E0BAD175C9E9FF76C9EAFF7D
:100E70001F0EE926000EEA220401EE50A15D106E5D
:100E8000EE50A259116E75C9E9FF76C9EAFF210E2D
:100E9000E926000EEA22EECF12F0EFCF13F0105049
:100EA000125C1150135801E399D10301010E746FC4
:100EB0009CEC2DF0000901E1120075C9E9FF76C92B
:100EC000EAFF1F0EA1C4EBFF200EA2C4EBFF75C901
:100ED000E9FF76C9EAFF210EE926000EEA22010E9B
:100EE000D890EE36ED36E806FBE175C9E9FF76C924
:100EF000EAFF1E0EE926000EEA22EF2A75C9E9FF75
:100F000076C9EAFFEF50090A01E1D5D0010A01E1F3
:100F1000C8D00F0A01E1E7D0020A01E1E4D0030AD8
:100F200001E1E1D0020A01E1A5D0070A3AE0010A95
:100F300006E0030A01E0DDD00901020ED2D075C936
:100F4000E9FF76C9EAFF1E0EEB50106E116A126AB5
:100F5000136AD880030E1054000E1154000E125460
:100F6000000E135403E30901120EBBD075C9E9FF4B
:100F700076C9EAFF230EE926000EEA22EF50010BA4
:100F800006E075C9E9FF76C9EAFFEF6AACD009014E
:100F9000020E7B6F75C9E9FF76C9EAFF010EEF6E9D
:100FA000A2D075C9E9FF76C9EAFF1E0EEB50106E9C
:100FB000116A126A136AD880030E1054000E11547D
:100FC000000E1254000E135426E375C9E9FF76C9CA
:100FD000EAFF0F0EEB50106E116A126A136AE8688E
:100FE000101805E1115003E1125001E1135010E017
:100FF0000301966B976B75C9E9FF76C9EAFF0F0E7F
:10100000EB500301956F95EC33F0DDEC32F071D0CD
:101010000901100E66D075C9E9FF76C9EAFF0F0E07
:10102000EB50106E116A126A136AE868101805E135
:10103000115003E1125001E1135013E075C9E9FFAB
:1010400076C9EAFF0F0EEB500301846F86EC30F097
:1010500075C9E9FF76C9EAFF0F0EE926000EEA22FC
:10106000EF680901110E7B6F75C9E9FF76C9EAFFC8
:10107000040E1FD075C9E9FF76C9EAFF1E0EEB50BA
:10108000106E116A126A136AD880030E1054000E93
:101090001154000E1254000E135425E30901010EE1
:1010A00020D00901010E7B6F75C9E9FF76C9EAFFFF
:1010B000090EEF6E1ED075C9E9FF76C9EAFF1E0E54
:1010C000EB50106E116A126A136AD880030E105426
:1010D000000E1154000E1254000E135404E30901C3
:1010E000110E7B6F06D075C9A0F076C9A1F035EC62
:1010F0000DF009017B5172E07BC910F0100E101643
:10110000116A126A136A105011101210131011E0B4
:1011100075C9E9FF76C9EAFF160EE926000EEA2234
:10112000EECF77F9EECF78F9EECF79F9EFCF7AF904
:1011300014D075C9E9FF76C9EAFF160EE926000E3C
:10114000EA22EFCF77F9EE2AEFCF78F9EE22EFCF50
:1011500079F9EE22EFCF7AF9EF220001986B996BC3
:10116000000197697BC996F075C9E9FF76C9EAFF66
:101170001A0EE926000EEA22EECF92F0EECF93F09F
:10118000EECF94F0EFCF95F077C98EF078C98FF05D
:1011900079C990F07AC991F075C9E9FF76C9EAFF7B
:1011A0000D0EE926000EEA22EECF8CF0EDCF8DF089
:1011B00075C9E9FF76C9EAFF0B0EE926000EEA229F
:1011C000EECF8AF0EDCF8BF075C9E9FF76C9EAFF63
:1011D000EE52E9CF88F0EACF89F0C6D809016C2B2E
:1011E00002D6120082C0E9FF83C0EAFF060EE9269C
:1011F000000EEA22EECF80F9EECF81F9EECF82F930
:10120000EFCF83F984C0E9FF85C0EAFFEECF84F910
:10121000EECF85F9EECF86F9EFCF87F90901886B1C
:10122000060E896F86C08AF987C08BF986C002F3E3
:1012300087C003F322EC48F0F3CF8AF9F4CF8BF99F
:101240000C0E03010A6F0B6B0301800E086F090E71
:10125000096F82EC48F0F3CF8DF9F4CF8EF90901D4
:101260008D1F8E1F86C00CF387C00DF3EEEC48F087
:10127000F3CF8FF9F4CF90F90901F4508D5D71E14E
:101280008F518E5D6EE10401476B486B2BEC61F072
:10129000140E03017D6F7E6B03016C0E7B6F090ED4
:1012A0007C6F8EEC2FF000016C0E9E6F090E9F6F0D
:1012B000A6DA09017851F00BE842E842E842E84238
:1012C000040DF350106E116A140E105E000E115AC8
:1012D00010C091F91050106E116AE8500001865D3F
:1012E000866F11508759876F140E865F000E875BDB
:1012F00009017851F00BE842E842E842E842040D67
:10130000F3500401476F486B2BEC61F082C09CF0F6
:1013100083C09DF000016C0E9A6F090E9B6F68D917
:1013200009018C6F106E116A126A136AFE0E101892
:1013300005E1115003E1125001E1135012E086C0A3
:10134000A7F087C0A8F000016C0EA56F090EA66F6C
:1013500082C0A3F083C0A4F08CC9A2F0C4EC0DF04D
:10136000010CA4EC30F0010C0301010E746F9CEC35
:101370002DF0000903E1ACEC59F0F6D797C010F05E
:10138000116A126A136AE86810180DE111500BE136
:10139000125009E1135007E10301010E756FD5ECFE
:1013A0002DF00001976F97C010F0116A126A136A4E
:1013B000E868101807E1115005E1125003E11350DD
:1013C00001E11200140E0301966F976B97C095F31D
:1013D00095EC33F08AC048F98BC049F98CC04AF9C2
:1013E0008DC04BF98EC04CF98FC04DF990C04EF9AD
:1013F00091C04FF992C050F993C051F994C052F97D
:1014000095C053F90901549154935495549796C03B
:1014100055F9B8EC30F0F3CF56F9F4CF57F9F3CFD4
:1014200010F0F4CF11F0126A136A000EF35C040E90
:10143000F458000E1258000E135805E30901566BBC
:10144000040E576F0ED00901360ED8805655000E87
:10145000575505E2360E565F000E575B02D0566BAD
:10146000576B586B596B5A6B5B6B0001480E9E6F44
:10147000090E9F6FC4D9140E00019827000E9923FE
:1014800096C010F0020E1016116A126A136A1050FC
:101490001110121013100EE0040E9827000E99235D
:1014A0000901020E5C6F040E5D6F5E6F5F6B5499F5
:1014B000548B03D009015489549B548D549FB1C25D
:1014C00060F9B2C261F9B3C262F9B4C263F988C00B
:1014D000E9FF89C0EAFF060EE926000EEA22EECFF8
:1014E00064F9EECF65F9EECF66F9EFCF67F9686B77
:1014F000060E696F98C06AF999C06BF998C002F33B
:1015000099C003F322EC48F0F3CF6AF9F4CF6BF9FA
:101510000C0E03010A6F0B6B0301600E086F090EBE
:10152000096F82EC48F0F3CF58F9F4CF59F909016B
:10153000581F591F58C946F959C947F998C045F469
:1015400099C046F40401060E446F88C042F489C075
:1015500043F4B7EC60F0140E0301796F7A6B03016A
:10156000480E776F090E786F4BEC2EF096C010F096
:10157000020E1016116A126A136A1050111012101E
:1015800013100BE0040E0301796F7A6B03015C0EFC
:10159000776F090E786F4BEC2EF0140E0301966FE7
:1015A000976B97C095F395EC33F098C00CF399C006
:1015B0000DF3EEEC48F0F3CF46F9F4CF47F9240EE3
:1015C0000301966F976B97C095F395EC33F047C97D
:1015D00076F31FEC2EF046C976F31FEC2EF00301D4
:1015E000966B976B97C095F395EC33F0DDEF32F087
:1015F0000901FE0E036F026B0A0E025D01E37FD04C
:101600000251240DF3CF00F9F4CF01F9000E0027A9
:101610000C0E012300C9E9FF01C9EAFFEF500A08D7
:101620006BE000C9E9FF01C9EAFF0B0EE926000ED5
:10163000EA22EECF10F0EFCF11F09AC0E9FF9BC085
:10164000EAFF020EE926000EEA22EECF12F0EFCFFB
:1016500013F00001125010184FE1135011184CE113
:1016600000C9E9FF01C9EAFFEF50000902E102C920
:1016700003F900C9E9FF01C9EAFF0D0EE926000ED2
:10168000EA22EECF10F0EFCF11F09AC0E9FF9BC035
:10169000EAFFEECF12F0EFCF13F0125010182CE14A
:1016A0001350111829E19CC0E9FF9DC0EAFF060E06
:1016B000E926000EEA22EECF14F0EECF15F0EECFC1
:1016C00016F0EFCF17F000C9E9FF01C9EAFFEE52AB
:1016D000060EE926000EEA22EE5014180DE1EE5037
:1016E00015180AE1EE50161807E1EE50171804E13C
:1016F00003E10901025112000901022B7DD703C940
:1017000010F0116A126A136AFE0E101807E11150E8
:1017100005E1125003E1135001E1FE0C0351240DC9
:10172000F3CF00F9F4CF01F9000E00270C0E0123CE
:101730000A0EE66EE66A9CC0E6FF9DC0E6FF00C9A1
:10174000E9FF01C9EAFFEE52E9CF10F0EACF11F04C
:10175000E9CFE6FFEACFE6FFADEC6FF0126E060EC2
:10176000E15E12509AC0E9FF9BC0EAFFEECF10F095
:10177000EFCF11F000C9E9FF01C9EAFF0D0E10C05B
:10178000EBFF0E0E11C0EBFF00C9E9FF01C9EAFF34
:10179000230EE926000EEA22EF9600C9E9FF01C9EF
:1017A000EAFF0F0EEB50106E116A126A136AE868B6
:1017B000101805E1115003E1125001E1135013E03C
:1017C00000C9E9FF01C9EAFF0F0EEB500301846F66
:1017D00086EC30F000C9E9FF01C9EAFF0F0EE926E7
:1017E000000EEA22EF6800C9E9FF01C9EAFF230EF3
:1017F000E926000EEA22EF820901035112009EC081
:10180000E9FF9FC0EAFFEFCF07F9010EE926000EBE
:10181000EA22EF50E66E9EC0E9FF9FC0EAFFE55264
:10182000E750EF6E9EC0E9FF9FC0EAFF010EE92678
:10183000000EEA2207C9EFFF9EC0E9FF9FC0EAFF42
:10184000020EE926000EEA22EFCF07F99EC0E9FF5B
:101850009FC0EAFF020EE926000EEA22010EE926E9
:10186000000EEA22EF50E66E9EC0E9FF9FC0EAFF3D
:10187000020EE926000EEA22E552E750EF6E9EC006
:10188000E9FF9FC0EAFF020EE926000EEA22010EE0
:10189000E926000EEA2207C9EFFF9EC0E9FF9FC0BC
:1018A000EAFF040EE926000EEA22EECF04F3EECFA3
:1018B00005F3EECF06F3EFCF07F327EC48F004C0B3
:1018C00010F005C011F006C012F007C013F09EC062
:1018D000E9FF9FC0EAFF040EE926000EEA2204C0D9
:1018E000EEFF11C0EEFF12C0EEFF13C0EEFF9EC070
:1018F000E9FF9FC0EAFF080EE926000EEA22EECFBC
:1019000004F3EECF05F3EECF06F3EFCF07F327ECAA
:1019100048F004C010F005C011F006C012F007C076
:1019200013F09EC0E9FF9FC0EAFF080EE926000EF3
:10193000EA2204C0EEFF11C0EEFF12C0EEFF13C09A
:10194000EEFF9EC0E9FF9FC0EAFF0E0EE926000EE3
:10195000EA22EFCF07F99EC0E9FF9FC0EAFF0E0E13
:10196000E926000EEA22010EE926000EEA22EF50D7
:10197000E66E9EC0E9FF9FC0EAFF0E0EE926000E4C
:10198000EA22E552E750EF6E9EC0E9FF9FC0EAFFF2
:101990000E0EE926000EEA22010EE926000EEA22CA
:1019A00007C9EFFF9EC0E9FF9FC0EAFF100EE926BE
:1019B000000EEA22EFCF07F99EC0E9FF9FC0EAFFC1
:1019C000100EE926000EEA22010EE926000EEA2298
:1019D000EF50E66E9EC0E9FF9FC0EAFF100EE926B9
:1019E000000EEA22E552E750EF6E9EC0E9FF9FC06D
:1019F000EAFF100EE926000EEA22010EE926000E8B
:101A0000EA2207C9EFFF9EC0E9FF9FC0EAFF120E5E
:101A1000E926000EEA22EFCF07F99EC0E9FF9FC03A
:101A2000EAFF120EE926000EEA22010EE926000E58
:101A3000EA22EF50E66E9EC0E9FF9FC0EAFF120E59
:101A4000E926000EEA22E552E750EF6E9EC0E9FF5C
:101A50009FC0EAFF120EE926000EEA22010EE926D7
:101A6000000EEA2207C9EFFF1200A0C0E9FFA1C0E3
:101A7000EAFF0F0EEB50106E116A126A136AE868E3
:101A8000101805E1115003E1125001E113501CE060
:101A9000A0C0E9FFA1C0EAFF0F0EEB500301846F65
:101AA00086EC30F0A0C0E9FFA1C0EAFF0F0EE926E6
:101AB000000EEA22EF68A0C0E9FFA1C0EAFF230EF2
:101AC000E926000EEA22EF82A0C0E9FFA1C0EAFFEA
:101AD000EE52060EE926000EEA22EE6AEE6AEE6A81
:101AE000EE6AA0C0E9FFA1C0EAFF0D0EEB6A0E0E80
:101AF000EB6AA0C0E9FFA1C0EAFF230EE926000EB1
:101B0000EA22EF50080B02E0A4EC30F0A0C0E9FF9D
:101B1000A1C0EAFF230EE926000EEA22EF96A0C03C
:101B2000E9FFA1C0EAFF210EE926000EEA222C0EF1
:101B3000EE6E010EED6EA0C0E9FFA1C0EAFF230E1C
:101B4000E926000EEA22EF98A0C0E9FFA1C0EAFF53
:101B5000230EE926000EEA22EF50010B06E0A0C09A
:101B6000E9FFA1C0EAFFEF6A06D0A0C0E9FFA1C06B
:101B7000EAFF0A0EEF6EA0C0E9FFA1C0EAFF100E57
:101B8000EB6A110EEB6A12000001A251240DF3CF93
:101B9000B6F9F4CFB7F9000E0901B6270C0EB7233A
:101BA000A7C060F0A8C061F0B86BB6C9E9FFB7C9BB
:101BB000EAFF1E0EE926000EEA22EF6AB6C9E9FF27
:101BC000B7C9EAFF1F0EA1C4EBFF200EA2C4EBFFB2
:101BD000B6C9E9FFB7C9EAFF210EE926000EEA22DD
:101BE0002C0EEE6E010EED6EA5C0E9FFA6C0EAFF59
:101BF0000D0EE926000EEA22EF50040B19E0A4ECCA
:101C000030F0B6C9E9FFB7C9EAFF230EE926000E96
:101C1000EA22EF50010B02E0000E01D0010EE66E49
:101C2000B6C9E9FFB7C9EAFFE552E750EF6E120007
:101C3000B6C9E9FFB7C9EAFF160EE926000EEA2287
:101C4000EECFAAF9EECFABF9EECFACF9EFCFADF90D
:101C5000A5C0E9FFA6C0EAFF0E0EE926000EEA22A3
:101C6000EECF14F0EFCF15F0166A176AA5C0E9FFA2
:101C7000A6C0EAFF080EE926000EEA22EE50AA5D91
:101C8000186EEE50AB59196EEE50AC591A6EEE50FC
:101C9000AD591B6E1850145C106E19501558116E0A
:101CA0001A501658126E1B501758136EB6C9E9FF1A
:101CB000B7C9EAFF100EE926000EEA22EECF1CF0AB
:101CC000EFCF1DF01E6A1F6A1C50105CA66F1D50DE
:101CD0001158A76F1E501258A86F1F501358A96FA4
:101CE000800EA91509E0B6C9E9FFB7C9EAFF140ECD
:101CF000EB6A150EEB6A0AD0B6C9E9FFB7C9EAFF6D
:101D0000140EA6C9EBFF150EA7C9EBFFB6C9E9FF74
:101D1000B7C9EAFFEF50010801E092D0A5C0E9FF82
:101D2000A6C0EAFF0D0EE926000EEA22EF50020BD4
:101D300010E1A4EC30F0A5C0E9FFA6C0EAFF0D0E4B
:101D4000E926000EEA22EF50100B02E147EF13F0F4
:101D50008CD0A7C014F0A8C015F0166A176AA5C0E9
:101D6000E9FFA6C0EAFF040EE926000EEA22EE50C3
:101D70001424106EEE501520116EEE501620126EC7
:101D8000EE501720136E102A000E11221222132279
:101D9000B6C9E9FFB7C9EAFF1A0EE926000EEA2222
:101DA00010C0EEFF11C0EEFF12C0EEFF13C0EEFF39
:101DB000B6C9E9FFB7C9EAFF1A0EE926000EEA2202
:101DC000EECFA6F9EECFA7F9EECFA8F9EFCFA9F99C
:101DD000A5C0E9FFA6C0EAFF0D0EE926000EEA2223
:101DE000EF50100B09E1B6C9E9FFB7C9EAFF020ECF
:101DF000EF6EA4EC30F0D7D0B6C9E9FFB7C9EAFF5F
:101E0000030EEF6E100EB86FA5C0E9FFA6C0EAFF83
:101E10000E0EE926000EEA22EECF10F0EFCF11F001
:101E2000B6C9E9FFB7C9EAFF140E10C0EBFF150EE3
:101E300011C0EBFF0001A751A81101E04BD173D2F3
:101E4000B6C9E9FFB7C9EAFFEF50000901E0AFD01A
:101E5000A4EC30F0A5C0E9FFA6C0EAFF0D0EE9260C
:101E6000000EEA22EF50020B03E10901040E9DD09F
:101E7000A7C014F0A8C015F0166A176AA5C0E9FF3C
:101E8000A6C0EAFF040EE926000EEA22EE50142452
:101E9000106EEE501520116EEE501620126EEE50A0
:101EA0001720136E102A000E112212221322B6C917
:101EB000E9FFB7C9EAFF1A0EE926000EEA2210C0B0
:101EC000EEFF11C0EEFF12C0EEFF13C0EEFFA5C083
:101ED000E9FFA6C0EAFF0E0EE926000EEA22EECFC9
:101EE00010F0EFCF11F0B6C9E9FFB7C9EAFF140E41
:101EF00010C0EBFF150E11C0EBFF0A0EE66EE66A8E
:101F0000A3C0E6FFA4C0E6FFB6C9E9FFB7C9EAFF70
:101F1000EE52E9CF10F0EACF11F0E9CFE6FFEACFB9
:101F2000E6FFADEC6FF0126E060EE15E1250A5C03A
:101F3000E9FFA6C0EAFFEECF10F0EFCF11F0B6C96F
:101F4000E9FFB7C9EAFF0D0E10C0EBFF0E0E11C07E
:101F5000EBFFB6C9E9FFB7C9EAFF020EEF6EB6C9DB
:101F6000E9FFB7C9EAFF160EE926000EEA22EFCF15
:101F7000AAF9EE2AEFCFABF9EE22EFCFACF9EE22C1
:101F8000EFCFADF9EF22B6C9E9FFB7C9EAFF1A0EE4
:101F9000E926000EEA22EECFA6F9EECFA7F9EECFA2
:101FA000A8F9EFCFA9F90901120EB86F77D2B6C917
:101FB000E9FFB7C9EAFF1A0EE926000EEA22EECFC2
:101FC000AEF9EECFAFF9EECFB0F9EFCFB1F9B6C9B8
:101FD000E9FFB7C9EAFF160EE926000EEA22EECFA6
:101FE000B2F9EECFB3F9EECFB4F9EFCFB5F9A5C0A2
:101FF000E9FFA6C0EAFF040EE926000EEA22EECFB2
:10200000A6F9EECFA7F9EECFA8F9EFCFA9F9000115
:10201000A7510901A6270001A8510901A723000E15
:10202000A823A923B6C9E9FFB7C9EAFF160EE92616
:10203000000EEA22EECFAAF9EECFABF9EECFACF963
:10204000EFCFADF9A5C0E9FFA6C0EAFF040EE9266F
:10205000000EEA22EE50AE1901E013D2EE50AF1995
:1020600001E00FD2EE50B01901E00BD2EE50B119E1
:1020700001E007D201E005D2B6C9E9FFB7C9EAFF1E
:10208000EF50020844E1A5C0E9FFA6C0EAFF0D0E2B
:10209000E926000EEA22EF50100B01E144D1B6C947
:1020A000E9FFB7C9EAFF1A0EE926000EEA22A6C91F
:1020B000EEFFA7C9EEFFA8C9EEFFA9C9EEFFB6C99A
:1020C000E9FFB7C9EAFF030EEF6E0001A751A8119F
:1020D00001E129D1B6C9E9FFB7C9EAFF230EE92614
:1020E000000EEA22EF86B6C9E9FFB7C9EAFF120E71
:1020F000A7C0EBFF130EA8C0EBFFB6C9E9FFB7C935
:10210000EAFF230EE926000EEA22EF84C7D1B6C902
:10211000E9FFB7C9EAFF1A0EE926000EEA22A6C9AE
:10212000EEFFA7C9EEFFA8C9EEFFA9C9EEFFB6C929
:10213000E9FFB7C9EAFFEF50030801E0F7D0A5C0F7
:10214000E9FFA6C0EAFF0D0EE926000EEA22EF50D5
:10215000100B5FE0A5C0E9FFA6C0EAFF080EE92664
:10216000000EEA22EECF10F0EECF11F0EECF12F01B
:10217000EFCF13F0B6C9E9FFB7C9EAFF160EE9269B
:10218000000EEA221050EE1844E11150EE1841E121
:102190001250EE183EE11350EE183BE13AE1B6C999
:1021A000E9FFB7C9EAFF230EE926000EEA22EF5045
:1021B000020B2FE1B6C9E9FFB7C9EAFF0F0EEB50DA
:1021C000106E116A126A136AE868101805E111505E
:1021D00003E1125001E113501CE0B6C9E9FFB7C991
:1021E000EAFF0F0EEB500301846F86EC30F0B6C9A6
:1021F000E9FFB7C9EAFF0F0EE926000EEA22EF68F1
:10220000B6C9E9FFB7C9EAFF230EE926000EEA22A4
:10221000EF82A5C0E9FFA6C0EAFF0D0EE926000E79
:10222000EA22EF50010B31E00901110EB86FB6C977
:10223000E9FFB7C9EAFF160EE926000EEA22EFCF42
:10224000AAF9EE2AEFCFABF9EE22EFCFACF9EE22EE
:10225000EFCFADF9EF22B6C9E9FFB7C9EAFF1A0E11
:10226000E926000EEA22EF2AEECFA6F9EF22EECF02
:10227000A7F9EF22EECFA8F9EF22EFCFA9F9B6C95F
:10228000E9FFB7C9EAFF090EEF6E0001A751A811D7
:102290004AE0B6C9E9FFB7C9EAFF230EE926000EF6
:1022A000EA22EF50080B1FE1B6C9E9FFB7C9EAFF00
:1022B000230EE926000EEA22EF86B6C9E9FFB7C968
:1022C000EAFF120EA7C0EBFF130EA8C0EBFFB6C9C2
:1022D000E9FFB7C9EAFF230EE926000EEA22EF84E0
:1022E0000901B889DBD0B6C9E9FFB7C9EAFF160E04
:1022F000E926000EEA22B2C9EEFFB3C9EEFFB4C967
:10230000EEFFB5C9EEFFB6C9E9FFB7C9EAFF1A0E7D
:10231000E926000EEA22AEC9EEFFAFC9EEFFB0C952
:10232000EEFFB1C9EEFFA4EC30F0B8D0B6C9E9FFBA
:10233000B7C9EAFFEF5009080FE1A4EC30F0A5C0DF
:10234000E9FFA6C0EAFF0D0EE926000EEA22EF50D3
:10235000100B01E1A3D08ED0B6C9E9FFB7C9EAFFDF
:10236000EF50040847E1A4EC30F0A5C0E9FFA6C097
:10237000EAFF0D0EE926000EEA22EF50010B28E0DD
:102380000901100EB86FB6C9E9FFB7C9EAFF1A0E06
:10239000E926000EEA22EF2AEECFA6F9EF22EECFD1
:1023A000A7F9EF22EECFA8F9EF22EFCFA9F9A5C048
:1023B000E9FFA6C0EAFF0D0EE926000EEA22EF5063
:1023C000100B58E1B6C9E9FFB7C9EAFF060E10D0F5
:1023D000A5C0E9FFA6C0EAFF0D0EE926000EEA221D
:1023E000EF50100B5BE0B6C9E9FFB7C9EAFF050E75
:1023F000EF6E54D0B6C9E9FFB7C9EAFFEF50050840
:1024000025E1A4EC30F0A5C0E9FFA6C0EAFF0D0E5F
:10241000E926000EEA22EF50010B40E00901100E00
:10242000B86FB6C9E9FFB7C9EAFF1A0EE926000E70
:10243000EA22EF2AEECFA6F9EF22EECFA7F9EF229C
:10244000EECFA8F9EF22EFCFA9F914D0B6C9E9FF72
:10245000B7C9EAFFEF50060821E1A4EC30F0A5C0AF
:10246000E9FFA6C0EAFF0D0EE926000EEA22EF50B2
:10247000100B14E0B6C9A0F0B7C9A1F035EC0DF00F
:102480000DD0A4EC30F00901100EB86FAEC9A6F95A
:10249000AFC9A7F9B0C9A8F9B1C9A9F90901B851DB
:1024A00001E1F5D0B6C9E9FFB7C9EAFF230EE92675
:1024B000000EEA22EF50020B01E0B8D0B6C9E9FFE6
:1024C000B7C9EAFF0F0EEB50106E116A126A136A59
:1024D000E868101805E1115003E1125001E11350B2
:1024E00001E1A4D0B6C9E9FFB7C9EAFF100EE92699
:1024F000000EEA22EE50ED1001E198D0B6C9E9FFD6
:10250000B7C9EAFF100EE926000EEA22EECF10F05E
:10251000EFCF11F0126A136AB6C9E9FFB7C9EAFF33
:10252000160EE926000EEA221050EE5E1150EE5A09
:102530001250EE5A1350EE5AB6C9E9FFB7C9EAFF76
:10254000100EE926000EEA22EECF98F0EDCF99F0BA
:10255000B6C9E9FFB7C9EAFF0F0EEB500001976F4C
:10256000B8C910F0116A126A136A108610C096F08A
:102570001A0EE926000EEA22EECF92F0EECF93F08B
:10258000EECF94F0EFCF95F0B6C9E9FFB7C9EAFFF7
:10259000160EE926000EEA22EECF8EF0EECF8FF077
:1025A000EECF90F0EFCF91F0B6C9E9FFB7C9EAFFDF
:1025B0000D0EE926000EEA22EECF8CF0EDCF8DF065
:1025C000B6C9E9FFB7C9EAFF0B0EE926000EEA22F9
:1025D000EECF8AF0EDCF8BF0B6C9E9FFB7C9EAFFBD
:1025E000EE52E9CF88F0EACF89F0B4EC09F0B6C931
:1025F000E9FFB7C9EAFF100EE926000EEA22EECF86
:1026000010F0EFCF11F0126A136AB6C9E9FFB7C92B
:10261000EAFF160EE926000EEA221050EE261150AF
:10262000EE221250EE221350EE2212000001986B9F
:10263000996B00019769B8C996F0A6C992F0A7C92D
:1026400093F0A8C994F0A9C995F0AAC98EF0ABC9B6
:102650008FF0ACC990F0ADC991F0A5C0E9FFA6C05C
:10266000EAFFEECF8CF0EDCF8DF0A5C0E9FFA6C05C
:10267000EAFF020EE926000EEA22EECF8AF0EDCF45
:102680008BF0A3C088F0A4C089F0B4EC09F012006C
:102690000001A951240DF3CF10F0F4CF11F0000E7A
:1026A00010260C0E112210C0F3FF11C0F4FF12000F
:1026B0000001AA51240DF3CF8DF9F4CF8EF9000E4D
:1026C00009018D270C0E8E230C0E0401476F486BF9
:1026D0002BEC61F033EC2FF0E840E8403F0B3C0B73
:1026E00009018C6F0001AB51605D106E6151AC55FA
:1026F000116E8DC9E9FF8EC9EAFF120E10C0EBFF03
:10270000130E11C0EBFF09018C510001AB25040130
:10271000476F000E0001AC210401486F2BEF61F000
:102720000001AD51240DF3CF00F9F4CF01F9000EF3
:10273000090100270C0E012300C9E9FF01C9EAFFC6
:10274000120EE926000EEA220001EE50605D106EC6
:0C275000EE50615910C0F3FFF46E12004F
:04275C000401D46B35
:102760000A0E0301286F296B0301000E266F090E64
:10277000276F57EC4AF00101A56BA66B0101000E13
:10278000A36F090EA46F5C0E0201DB6FDC6B4CECD7
:1027900053F0116E106A10C0E6FFE66E5B0E020188
:1027A000DB6FDC6B4CEC53F0E552E7CF11F0E552F8
:1027B000E7CF10F001011010A16F11C0A2F1C0EC21
:1027C00033F00401D36F106E116A126A136AE8685D
:1027D000101805E1115003E1125001E113501200ED
:1027E0000901016B026B0401D4512AE103019E6BC4
:1027F000D3C4AEF12DEC36F0000901E184D1620EB4
:102800000201DB6FDC6B4CEC53F0010B03E16EEC6F
:1028100037F075D10401010ED46F620E0201DB6F37
:10282000DC6B4CEC53F0020B04E00301010E9F6FD4
:1028300002D003019F6B0901056B466B456B5FD1AD
:10284000D40519E103019EA305D06EEC37F0040115
:10285000D46B59D19EB10DD09E6B0101000EB06FAB
:10286000090EB16F69EC36F0000913E103019E8394
:1028700010D09E910ED0030ED45D04E1D45101E03E
:1028800042D141D1020ED45D04E1D45101E13BD1EA
:102890003AD103019F51080A01E1FDD00F0A01E17D
:1028A000E1D0010A01E1CAD0030A01E1C3D0010A63
:1028B00001E1A3D0070A01E17DD0010A5DE0030A2E
:1028C0000FE0010A01E01BD1250E0901005D03E1C3
:1028D0000301050EC5D00301020E9F6F9E810FD12B
:1028E000200E0901005D2FE10551EA6A060FE96E2D
:1028F000090EEA22EF6A350E03011F6F206B0301F8
:10290000060E1D6F090E1E6F07EC4AF0000913E159
:102910003E0E03011F6F206B0901465103011D6F1D
:102920001E6B060E1D27090E1E2307EC4AF0000938
:1029300002E103019F6B03019F5101E0DFD0090118
:10294000056B466BDCD03A0E005D03E1006B052998
:10295000466F0551106E116A3F0E105C000E115843
:1029600001E3CDD00551052BEA6A060FE96E090E89
:10297000EA2200C9EFFFC3D03D0E0901005D17E157
:10298000006B0301030E9F6F09010529106E116A88
:10299000400E105C000E11580DE20529466F052906
:1029A000EA6A060FE96E090EEA22EF6A03D0200EEA
:1029B000005D3DE003019E51020B04E1260E09017A
:1029C000005D05E10301040E9F6F0901006B0551D5
:1029D000106E116A3F0E105C000E115809E205518D
:1029E000052BEA6A060FE96E090EEA2200C9EFFF1D
:1029F000040E03019F5D01E082D00301010EA46F6C
:102A0000090146510301A26FA36B060EA227090E0E
:102A1000A3230301060EA06F090EA16FEAD8F3509D
:102A200009010113F450021303019F6B0901466B66
:102A3000056B65D000C948F9060E12D0610E090178
:102A4000005D02E3270E04D0410E005D02E3070E95
:102A5000005F300E005D100DF3CF47F90301070E44
:102A60009F6F4DD0610E0901005D02E3270E04D077
:102A7000410E005D02E3070E005F300E005D47135C
:102A8000000E4B6F090E4C6F010E4D6F496B4A6B78
:102A90000301080E9F6F9E81D3C4A8F15CEC34F053
:102AA00000092AE00301470EA56F090EA66F60EC2E
:102AB0001DF0F3CF03F9F4CF04F90901000ED8801B
:102AC000F354000EF45404E200C9A9F168EC34F0A8
:102AD00049C910F04AC911F0126A136AE86810185F
:102AE000E1E1E8681118DEE11250DCE11350DAE1AF
:102AF00098EC35F0030102D003019F6B9E83040123
:102B0000D45101E070D609010151021171E001C9EF
:102B100010F0020E1016116A126A136A105011108A
:102B20001210131001E0120001C910F0040E10166B
:102B3000116A126A136A105011101210131004E077
:102B400087EC53F0E1EF53F001C910F0080E1016B6
:102B5000116A126A136A105011101210131002E059
:102B60003BEF54F001C910F0100E1016116A126AF2
:102B7000136A105011101210131002E0B5EF54F048
:102B800002C911F0106A010E1116126A136A105070
:102B900011101210131002E0D1EF55F002C911F01C
:102BA000106A200E1116126A136A105011101210BA
:102BB000131002E05BEF56F002C911F0106A080E24
:102BC0001116126A136A105011101210131002E03D
:102BD000C3EF3EF002C911F0106A100E1116126A0E
:102BE000136A105011101210131002E0D3EC3FF0D2
:102BF000120009014F6B506BA0C3E9FFA1C3EAFFAC
:102C0000EF506B0808E0A0C3E9FFA1C3EAFFEF5053
:102C1000750801E0EAD10901010E516F0901746BD9
:102C2000756B0301730E116F090E126F010E030114
:102C3000A02503010F6F000E0301A1210301106FF6
:102C400074EC49F0000904E1F36AF46A5FEF1DF0E7
:102C5000A0C3E9FFA1C3EAFFEF5075080CE1090129
:102C600073510901746F756B000E09017427010E11
:102C70000901752305D0090173510901746F756B42
:102C8000030E0301EA6AA025E96EA151EA22EF5082
:102C900062082CE1040E0301EA6AA025E96EA15145
:102CA000EA22EF50D00F106E010E105204E0E846F9
:102CB000FE0B1006FCE10901776F74C9DBF275C9E0
:102CC000DCF24CEC53F00901766FA2C3E9FFA3C319
:102CD000EAFFEF50300805E10901771D0901761779
:102CE00004D0090177510901761363D0A2C3E9FF2B
:102CF000A3C3EAFFEF50480818E10301760E116FF5
:102D0000090E126F010E0301A22503010F6F000EC1
:102D10000301A3210301106F74EC49F0000904E1E1
:102D2000F36AF46A5FEF1DF00AD0A2C3E6FFA3C303
:102D3000E6FF7FEC6EF0E552E552F3CF76F9030E35
:102D40000301EA6AA025E96EA151EA22EF506D085D
:102D500030E10301770E116F090E126F040E0301AB
:102D6000A02503010F6F000E0301A1210301106FC5
:102D700074EC49F0000904E1F36AF46A5FEF1DF0B6
:102D80000901771D106E10C0E6FF74C9DBF275C92A
:102D9000DCF24CEC53F0E552E7CF10F010140901CF
:102DA000786F090176510901771509017811090138
:102DB000766F0901110ED8807455000E755506E224
:102DC0000901160E741901E1755105E109014F83DE
:102DD0000901516BF3D00901150ED8807455000E0E
:102DE00075550BE30901130E741901E1755104E0E7
:102DF00009014F8F0901516BE1D009011A0ED880EA
:102E00007455000E755501E3D9D009011E0ED88006
:102E10007455000E755501E3D1D00901220ED880FA
:102E20007455000E75551BE309011F0E741901E15D
:102E3000755106E00901210E741901E1755107E190
:102E400009017651080802E30901516B02D009011A
:102E5000516B0901515102E109014F85AFD00901C0
:102E6000300ED8807455000E755521E3870E02018F
:102E7000DB6FDC6B4CEC53F0020814E10901250E0A
:102E8000741901E1755104E1F36AF46A5FEF1DF012
:102E90000901240E741901E1755104E1F36AF46A21
:102EA0005FEF1DF009014F870901516B87D00901C0
:102EB000320ED8807455000E755505E309014F890F
:102EC0000901516B7BD009015A0ED8807455000E50
:102ED000755503E30901516B71D00901620ED88069
:102EE0007455000E755503E30901516B67D0090154
:102EF0006F0ED8807455000E755505E30901508199
:102F00000901516B5BD00901750ED8807455000E14
:102F1000755505E3090150830901516B4FD0090133
:102F20007B0ED8807455000E755505E30901508558
:102F30000901516B43D00901860ED8807455000EEB
:102F4000755503E30901516B39D00901900ED88002
:102F50007455000E755515E30901870E741901E1CA
:102F6000755107E109017651020802E30901516B2D
:102F700002D00901516B0901515102E10901508B45
:102F80001DD00901000E745D010E75590CE3090195
:102F90000F0ED8807455010E755505E30901508751
:102FA0000901516B0BD00901170ED8807455010E21
:102FB000755504E3090150890901516B090151510B
:102FC00012E1A4C310F0116A126A136A10501110B2
:102FD0001210131008E076C9A8FF74C9DDF275C994
:102FE000DEF25DEC53F05AEF1DF0A0C3E9FFA1C380
:102FF000EAFFEFCF10F0610E105C01E21BD2A0C31C
:10300000E9FFA1C3EAFFEF50670801E213D2A0C3B2
:10301000E9FFA1C3EAFFEF50640807E0A0C3E9FF9E
:10302000A1C3EAFFEF50650804E1F36AF46A5FEFB9
:103030001DF0870E0201DB6FDC6B4CEC53F00208D5
:103040000BE1A0C3E9FFA1C3EAFFEF50630804E16D
:10305000F36AF46A5FEF1DF0A0C3E9FFA1C3EAFFC2
:10306000EF509F0F09017A6F7B6B890E09017A2758
:103070000F0E09017B23010E0301EA6AA025E96E08
:10308000A151EA22EF5014E10301510E116F090E14
:10309000126FA2C30FF3A3C310F374EC49F000093D
:1030A00006E07AC9E9FF7BC9EAFF51C9EFFFC1D148
:1030B000010E0301EA6AA025E96EA151EA22EF5050
:1030C000780833E1020E0301EA6AA025E96EA151F6
:1030D000EA22EF50D00F106E010E105204E0E846C5
:1030E000FE0B1006FCE109017D6FA2C3E9FFA3C33B
:1030F000EAFFEF5031080AE109017D1D106E7AC91F
:10310000E9FF7BC9EAFF1050EF160ED0A2C3E9FF1A
:10311000A3C3EAFFEF50300807E17AC9E9FF7BC992
:10312000EAFF09017D51EF1284D1010E0301EA6A21
:10313000A025E96EA151EA22EF50630801E079D0A1
:10314000020E0301EA6AA025E96EA151EA22EF50BE
:10315000D00F09017D6F09017D51070869E3010E58
:103160007DC9E7FFE75204E0E846FE0BE706FCE115
:1031700009017D6FA0C3E9FFA1C3EAFFEF509F0FD4
:1031800009017A6F7B6B920E09017A270F0E0901F4
:103190007B23A0C3E9FFA1C3EAFFEF509F0F230FDA
:1031A0000201DB6FDC6B4CEC53F009017C6FA2C3B6
:1031B000E9FFA3C3EAFFEF5031080CE17AC9E9FF48
:1031C0007BC9EAFF09017D51EF1209017D51090117
:1031D0007C1316D0A2C3E9FFA3C3EAFFEF50300867
:1031E0000FE109017D1D09017D6F7AC9E9FF7BC9E6
:1031F000EAFF09017D51EF1609017D5109017C1794
:10320000030E0301EA6AA025E96EA151EA22EF50FC
:1032100072080EE17CC9A8FFA0C3E9FFA1C3EAFFC1
:10322000EF509F0F230F0201DD6FDE6B5DEC53F05B
:1032300000D1010E0301EA6AA025E96EA151EA223C
:10324000EFCF10F0300E105C01E2F3D0010E03015D
:10325000EA6AA025E96EA151EA22EF50390801E29D
:10326000E8D0010E0301EA6AA025E96EA151EA2225
:10327000EF50D00F09017D6F020E0301EA6AA0250D
:10328000E96EA151EA22EF500AE0020E0301EA6A58
:10329000A025E96EA151EA22EF5072085BE1010E10
:1032A0007DC9E7FFE75204E0E846FE0BE706FCE1D4
:1032B00009017D6FA0C3E9FFA1C3EAFFEF509F0F93
:1032C0002A0F0201DB6FDC6B4CEC53F009017C6FC1
:1032D000A2C3E9FFA3C3EAFFEF50300810E10901E0
:1032E0007D1D09017D6F7AC9E9FF7BC9EAFF0901EC
:1032F0007D51EF1609017D5109017C1712D0A2C33F
:10330000E9FFA3C3EAFFEF5031080BE17AC9E9FFF7
:103310007BC9EAFF09017D51EF1209017D510901C5
:103320007C13020E0301EA6AA025E96EA151EA228C
:10333000EF5072080EE17CC9A8FFA0C3E9FFA1C34A
:10334000EAFFEF509F0F2A0F0201DD6FDE6B5DEC8D
:1033500053F06FD0020E0301EA6AA025E96EA15175
:10336000EA22EF5070080AE0020E0301EA6AA02583
:10337000E96EA151EA22EF506E085BE1010E7DC9B2
:10338000E7FFE75204E0E846FE0BE706FCE109012F
:103390007D6FA2C3E9FFA3C3EAFFEF50D00F09017D
:1033A000516F000E0901515D04E3090151510908F3
:1033B00002E20901516B020E0301EA6AA025E96EDF
:1033C000A151EA22EF50700817E17AC9E9FF7BC9E1
:1033D000EAFF09017D51EF1209015151510700091E
:1033E00001E0FAD709017D1D106E7AC9E9FF7BC99A
:1033F000EAFF1050EF161DD0A2C3E9FFA3C3EAFFF6
:10340000EF50310816E109017D1D106E7AC9E9FF00
:103410007BC9EAFF1050EF1609015151510700090D
:1034200001E0FAD77AC9E9FF7BC9EAFF09017D51BA
:10343000EF1240D3A0C3E9FFA1C3EAFFEF506C082D
:1034400001E082D1010E0301EA6AA025E96EA151D3
:10345000EA22EF506B0A01E17FD0070A01E17CD03C
:10346000020A35E00F0A1BE0030A01E06CD1A4C395
:1034700010F0116A126A136A105011101210131012
:103480000DE00301080E176FA2C315F3A3C316F3D3
:103490003E0E0301136F146B99EC49F054D1A4C391
:1034A00010F0116A126A136A1050111012101310E2
:1034B0000DE00301080E176FA2C315F3A3C316F3A3
:1034C000350E0301136F146B99EC49F03CD1A4C382
:1034D00010F0116A126A136A1050111012101310B2
:1034E0003AE00901010E516F0901526B0F0E0901FB
:1034F000525D2AE2090151510AE0090152510301CA
:10350000EA6AA225E96EA351EA22EFCF51F9090137
:1035100051510BE1200EA86E470E09015225020100
:10352000DD6FDE6B5DEC53F00AD051C9A8FF470E8A
:10353000090152250201DD6FDE6B5DEC53F0ACEC4E
:1035400059F00901522BD2D7A86A560E0201DD6F3D
:10355000DE6B5DEC53F0F7D0A2C37FF9A3C380F913
:103560000901526B0901816B0901826B020E030193
:10357000EA6AA025E96EA151EA22EFCF10F0300EE1
:10358000105C15E3020E0301EA6AA025E96EA15161
:10359000EA22EF5039080BE3020E0301EA6AA02584
:1035A000E96EA151EA22EF50D00F0901826F1F0E80
:1035B0000901525D01E39FD009017FC9E9FF80C97C
:1035C000EAFF7F2B000E8023EFCF7EF909017E51A9
:1035D00001E191D00901815112E15F0E09017E5D87
:1035E00003E10901812B0AD009015251522BEA6AE9
:1035F000530FE96E090EEA227EC9EFFF7BD0090165
:10360000810562E15F0E09017E5D0DE10901525104
:10361000522BEA6A530FE96E090EEA227EC9EFFFC8
:103620000901816B50D0010E0301EA6AA025E96E01
:10363000A151EA22EF506C0833E10901516B0901F5
:103640007E51740A19E0160A13E0100A0DE0140AFC
:1036500007E0080A01E014D009010A0E516F10D0EA
:1036600009010C0E516F0CD009010D0E516F08D0DD
:103670000901080E516F04D00901090E516F00D0E5
:10368000090151510AE009015251522BEA6A530FC4
:10369000E96E090EEA2251C9EFFF0901816B13D0CF
:1036A000010E0301EA6AA025E96EA151EA22EF505A
:1036B0006B0809E17EC90EF359EC49F0100DF3CF08
:1036C00051F90901812B16D0020E0901815D12E129
:1036D0007EC90EF359EC49F0090151130901525109
:1036E000522BEA6A530FE96E090EEA2251C9EFFF25
:1036F0000901816B5CD7010E0301EA6AA025E96E1E
:10370000A151EA22EF506C0812E109015251EA6A14
:10371000530FE96E090EEA22EF6A0401530E186F87
:10372000090E196F82C917F46AEC5FF00BD052C909
:1037300016F40401530E146F090E156F82C913F4A9
:1037400022EC5FF000D0B6D1A0C3E9FFA1C3EAFF2D
:10375000EF506D0821E1A4C310F0116A126A136AD8
:10376000105011101210131016E0A2C3E9FFA3C3EA
:10377000EAFFEF50720A01E00ED036EC33F0FF0E94
:10378000986E966E956E936E000E866E846E836E46
:10379000816EFF0000D08ED1A0C3E9FFA1C3EAFF74
:1037A000EF50770801E0EFD0010E0301EA6AA0258F
:1037B000E96EA151EA22EF5066081CE1A2C3E9FFBD
:1037C000A3C3EAFFEF50D00F0901516F020E0301AE
:1037D000EA6AA025E96EA151EA22EF50720802E0E0
:1037E000000E01D0010E0201E56F51C9E4F25BEC5D
:1037F00055F0C8D0010E0301EA6AA025E96EA15177
:10380000EA22EF50650821E10301510E116F090E04
:10381000126FA2C30FF3A3C310F374EC49F00009B5
:1038200013E0020E0301EA6AA025E96EA151EA2223
:10383000EF50720802E0000E01D0010E0201E76FA6
:1038400051C9E6F2A2EC55F09DD0010E0301EA6ADF
:10385000A025E96EA151EA22EFCF10F0310E105CE5
:1038600037E3010E0301EA6AA025E96EA151EA22BD
:10387000EF5035082DE3A2C3E6FFA3C3E6FF7FECBC
:103880006EF0E552E552F3CF85F9F4CF86F9020EDA
:103890000301EA6AA025E96EA151EA22EF507208FD
:1038A00002E0000E01D0010E0201E26F85C9E0F2D4
:1038B00086C9E1F2010E0301EA6AA025E96EA15171
:1038C000EA22EF50D00F0201DF6FC3EC54F05AD060
:1038D000010E0301EA6AA025E96EA151EA22EF5028
:1038E0006D0850E10901010E526F650E0201DB6F98
:1038F000DC6B4CEC53F0FE0B0901516FA2C3E9FFE6
:10390000A3C3EAFFEF50380808E13F0ECB5C04E0A8
:103910000901526B3F0ECB6E14D0A2C3E9FFA3C3C3
:10392000EAFFEF5061080DE1CB50106E116AFF0EF7
:10393000101801E1115003E00901526BCB68090135
:103940005181090152510CE10201E56B640E020143
:10395000DB6FDC6B4CEC53F00201E46F5BEC55F079
:10396000020E0301EA6AA025E96EA151EA22EF5096
:10397000720808E151C9A8FF650E0201DD6FDE6B18
:103980005DEC53F097D0A0C3E9FFA1C3EAFFEF506D
:10399000780801E08FD0A2C3E9FFA3C3EAFFEF508C
:1039A000300802E1000E01D0010E0901876F010EFF
:1039B0000301EA6AA025E96EA151EA22EF507208DC
:1039C00034E1020E0301EA6AA025E96EA151EA2260
:1039D000EF50D00F0901886F870E0201DB6FDC6B9F
:1039E0004CEC53F00901516F0901510509E187C9F8
:1039F000E3F3090188050301E26F78EC5DF014D070
:103A0000020E0901515D10E1010E0901885D0CE310
:103A100009018851050808E387C93EF209018805B4
:103A200002013D6F75EC47F045D0010E0301EA6AD3
:103A3000A025E96EA151EA22EF506F083BE1020E8A
:103A40000301EA6AA025E96EA151EA22EF50D00FE6
:103A50000901886F870E0201DB6FDC6B4CEC53F0C1
:103A60000901516F0901510511E1010E0901885D3C
:103A70000DE309018851060809E387C9E5F3090147
:103A800088050301E46F8EEC5DF014D0020E09018D
:103A9000515D10E1010E0901885D0CE309018851B7
:103AA000060808E387C940F20901880502013F6F53
:103AB000B3EC47F04FC9F3FF50C9F4FF00D0120038
:103AC000A5C3E9FFA6C3EAFFEF500901506F010E3D
:103AD000EB50516F020EE926000EEA22EECF54F9A8
:103AE000EDCF55F9A5C3E9FFA6C3EAFF040EE92609
:103AF000000EEA22EE50EFCFEAFFE96EEF6A610EA8
:103B0000515D01E278D05151680801E274D04F6BE9
:103B1000610E515D536F070E5015106E010E10525D
:103B200004E0E846FE0B1006FCE10901526F535118
:103B3000566F576B920E56270F0E572356C9E9FF43
:103B400057C9EAFFEF50521509E15351566F576BB1
:103B5000890E56270F0E57234F8107D05351566FAA
:103B6000576B800E56270F0E5723F00E5015536FCC
:103B7000E85009E156C9E9FF57C9EAFFEF5052156D
:103B800001E1AFD036D0100E535D09E156C9E9FF0F
:103B900057C9EAFFEF50521501E1C9D3C1D3200E36
:103BA000535D03E1010E4F1506E0300E535D08E151
:103BB000010E4F1505E0080E501501E1B6D2CAD22C
:103BC000400E535D0EE150A703D04FB1D5D302D0C4
:103BD0004FA1D2D30301520EAA6FEB0EAB6F000EB2
:103BE000ACD3500E535D01E0C7D3010E4F1501E079
:103BF00078D0310E79D06B0E515D03E0750E515DBA
:103C000025E1A5C3E9FFA6C3EAFF060EEB50106E3F
:103C1000116A126A136AE85011101210131013E09F
:103C20006B0E515D05E150510201DB6FDC6B08D07A
:103C300050510201DB6FDC6B000EDB27010EDC2331
:103C40004CEC53F088D00301BE6B87D06C0E515DF5
:103C500001E085D0500507E10301580EAA6FEC0E74
:103C6000AB6F000E6AD3020E505D07E103012E0E0A
:103C7000AA6FEC0EAB6F000E60D3040E505D07E12F
:103C80000301D90EAA6FCE0EAB6F000E56D3505162
:103C900017E1A5C3E9FFA6C3EAFF060EEB50106EBD
:103CA000116A126A136AE85011101210131001E021
:103CB0007AD20301D30EAA6FCE0EAB6F000E3DD3A6
:103CC000030E505D21E1A5C3E9FFA6C3EAFF060E7E
:103CD000EB50116A126A136AE85011101210131097
:103CE00002E1300E01D0310EE66EA5C3E9FFA6C396
:103CF000EAFF040EE926000EEA22EE50EFCFEAFFBB
:103D0000E96EE552E75010D0060E505D0FE1A5C3F5
:103D1000E9FFA6C3EAFF040EE926000EEA22EE50F0
:103D2000EFCFEAFFE96E300EEF6EEDD2050E505D7B
:103D300002E1470E3ED2100E505D01E21DD35051FC
:103D4000210801E219D3100E505DEA6AB10FE96E45
:103D5000020EEA22EF500301BE6FBF6BCAD16E0E96
:103D6000515D01E011D14F6B0F0E5015106EC11C4B
:103D70000F0B105C01E24F83F00E5015536FE850AB
:103D80001EE154C910F055C911F0126A136A10509F
:103D900011101210131003E1542B000E55230F0EB7
:103DA0005015E96EEA6AD890E936EA36C30EE9267C
:103DB000020EEA22EECFB9F3EDCFBAF37FD1100EA7
:103DC000535D10E10F0E5015E96EEA6AD890E9369E
:103DD000EA36C30EE926020EEA22EECFBEF3EDCF9D
:103DE000BFF387D1200E535D01E0B0D00F0E501508
:103DF000E96EEA6AD890E936EA36C30EE926020E81
:103E0000EA22EECF58F9EDCF59F954C910F055C94F
:103E100011F0126A136A10501110121013106AE197
:103E200058C910F059C911F0CC0E0B6E0C6A58C964
:103E300006F059C907F0C2EC75F006C010F007C0D3
:103E400011F0300E06240301986F2E0E996FCC0EE0
:103E50000B6E0C6A58C906F059C907F0C2EC75F030
:103E600002C058F903C059F902C010F003C011F0A4
:103E70000A0E1102F3CF11F01002F3CF10F0F4503C
:103E80001126CC0E0B6E0C6AF3CF06F011C007F0B2
:103E9000C2EC75F006C010F007C011F0300E062419
:103EA00003019A6F0A0E0B6E0C6A58C906F059C9C5
:103EB00007F0C2EC75F006C058F907C059F906C002
:103EC00010F007C011F0640E1102F3CF11F01002D0
:103ED000F3CF10F0F4501126CC0E0B6E0C6AF3CF1A
:103EE00006F011C007F0C2EC75F0300E0624030195
:103EF0009B6F9C6B09015451EA6A980FE96E030E9F
:103F0000EA22EF50E66EA5C3E9FFA6C3EAFF040E5E
:103F1000E926000EEA22EE50EFCFEAFFE96EE55205
:103F2000E750EF6E5451EA6A980FE96E030EEA22E9
:103F3000EF5001E1E8D1A5C3E9FFA6C3EAFF020EF5
:103F4000E926000EEA22EE2AEF2213D2300E535D4C
:103F500004E1020E4F1501E0E8D0500E535D04E17C
:103F6000020E4F1501E1E1D0400E535D04E1020E57
:103F70004F1501E0EFD0600E535D01E0FDD1020E60
:103F80004F1501E0F9D1E6D0770E515D01E0E9D09F
:103F90004F6B0F0E50155B6F5A6BE80403E1BDCFFA
:103FA0005AF911D0020E5B5D03E1BACF5AF90BD07A
:103FB000030E5B5D03E1B7CF5AF905D0040E5B5DDC
:103FC00002E173CF5AF90F0E5A1501E04F87F00E38
:103FD0005015536FF00E535D59E15B5104E18CECC9
:103FE00055F0300F80D1040E5B5D29E1CB50106E8F
:103FF000116AFF0E101801E1115002E0000E01D00D
:10400000010E01080EE1A5C3E9FFA6C3EAFF040EF5
:10401000E926000EEA22EE50EFCFEAFFE96E610ECC
:1040200071D1A5C3E9FFA6C3EAFF040EE926000E7D
:10403000EA22EE50EFCFEAFFE96E380E63D1080EA8
:104040005B5D01E099D1536B0F0EBD1401E053810C
:104050000F0EBA1401E053830F0EB71401E053851D
:104060000F0E731401E0538753C9B5F3A5C3E9FFDD
:10407000A6C3EAFF040EE926000EEA22EECFB3F350
:10408000EDCFB4F354C9B2F3D0D967D1535126E17F
:1040900054C910F055C911F0126A136A105011106A
:1040A0001210131003E1542B000E55235BC9E3F2E9
:1040B0001CEC55F0F3CFB9F3F4CFBAF3A5C3E9FF85
:1040C000A6C3EAFF040EE926000EEA22EECFB7F3FC
:1040D000EDCFB8F354C9B6F3CAD93FD1100E535D32
:1040E00018E15BC9E3F21CEC55F0F3CFBEF3F4CF5B
:1040F000BFF3A5C3E9FFA6C3EAFF040EE926000E3D
:10410000EA22EECFBCF3EDCFBDF354C9BBF3E0D947
:1041100024D1300E535D03E1080E4F1506E1500E19
:10412000535D0AE1080E4F1507E10301630EAA6F04
:10413000EB0EAB6F000E01D1400E535D03E1080E94
:104140004F1508E1600E535D01E016D1080E4F15C2
:1041500001E012D10301680EAA6FEB0EAB6F000EE7
:10416000ECD0730E515D38E1A5C3E9FFA6C3EAFFA9
:10417000060EEB50106E116A126A136AE8501110A5
:10418000121013100EE1A5C3E9FFA6C3EAFF040E47
:10419000E926000EEA22EE50EFCFEAFFE96E300E7C
:1041A000B1D0505102E1350E04D0500501E0E4D009
:1041B0003E0E0301B06FB16BA5C3E9FFA6C3EAFFD2
:1041C000040EE926000EEA22EECFAEF3EDCFAFF3F8
:1041D00054C9ADF309D9C1D0780E515D01E0CCD0FE
:1041E0005F6B010E616F0F0E50155C6F0F0E501557
:1041F000606FF00E50155D6F870E0201DB6FDC6B98
:104200004CEC53F009015E6F5D5103E0100E5D5DF3
:104210003EE15E0514E1010E60C9E7FFE75204E0EC
:10422000E846FE0BE706FCE1106EE66EC6EC5DF0BC
:10423000E552E7CF10F0101417E0010E18D0020E6F
:104240005E5D18E1010E60C9E7FFE75204E0E84651
:10425000FE0BE706FCE1106EE66E04EC48F0E5525A
:10426000E7CF10F0101402E1000E01D0010E090199
:104270005F6F01D0616B615101E17ED05D5104E15E
:104280005F512EE1300E2FD05F5151E049D0200E0A
:104290005D5D03E0300E5D5D6FE1020E5E5D18E175
:1042A000010E60C9E7FFE75204E0E846FE0BE706AF
:1042B000FCE1106EE66E69EC47F0E552E7CF10F0D6
:1042C000101402E1000E01D0010E09015F6F01D050
:1042D000616B615151E0200E5D5D20E15F5102E0B4
:1042E000310E01D0300EE66EA5C3E9FFA6C3EAFF8A
:1042F000040EE926000EEA22EE50EFCFEAFFE96E47
:10430000E552E750EF6EA5C3E9FFA6C3EAFF020E30
:10431000E926000EEA22EE68ED682BD05F5107E037
:1043200003016C0EAA6FEB0EAB6F000E06D00301FB
:104330006F0EAA6FEB0EAB6F000EAC6FA5C3E9FF5B
:10434000A6C3EAFF040EE926000EEA22EECFA8F388
:10435000EDCFA9F354C9A7F31CD8F4CF11F0A5C32E
:10436000E9FFA6C3EAFF020EF3CFEBFF030E11C075
:10437000EBFF010EF36E0BD0A5C3E9FFA6C3EAFF66
:10438000020EE926000EEA22EE68ED68F36AF46A8E
:104390001200A7C310F0116A126A0301AA51102477
:1043A000F36EAB511120F46EAC511220F86EF4CFC5
:1043B000F7FFF3CFF6FF0800F550A8C3E9FFA9C344
:1043C000EAFFEF6EA8C3E9FFA9C3EAFFEF5003E1DC
:1043D000F368F4681200A72BA751106E116AA7C3E7
:1043E000F3FF11C0F4FF12000301AD51B025090124
:1043F000626F000E0301B121AA6E62C9A9FF3F0ED0
:10440000A616A680A850AEC3E9FFAFC3EAFFEF6EC1
:10441000A85003E1F368F4681200AD2BAD51116AA6
:10442000ADC3F3FF11C0F4FF12000301B251010844
:1044300015E3B25103E1B5390F0BB56F0F0EB51788
:10444000B551090802E2370E01D0300EB525B3C3CD
:10445000E9FFB4C3EAFFEF6EB20503E1F368F46865
:104460001200B229116AF36E11C0F4FF12000301A9
:10447000B651030824E3030ED880B655040DF3505B
:10448000B9C310F0BAC311F005E0D8901132103260
:10449000E804FBE110C062F90F0E090162176251D6
:1044A000090802E2370E01D0300E6225B7C3E9FFDA
:1044B000B8C3EAFFEF6E030E0301B65D03E1F368D4
:1044C000F4681200B629116AF36E11C0F4FF1200ED
:1044D0000301BB5111E1980EE66E030EE66EBEC3FA
:1044E000E6FFBFC3E6FFF4EC6EF0E552E552E5529D
:1044F000E55203019D6BBB6BBB51EA6A980FE96EF5
:10450000030EEA22EF50BCC3E9FFBDC3EAFFEF6E22
:10451000BB51EA6A980FE96E030EEA22EF5003E1FD
:10452000F368F4681200BB2BBB51116ABBC3F3FFE5
:0645300011C0F4FF1200AF
:0A453600A1C43CFFA2C43DFF09012F
:10454000036B060E035D4DE2750E0201DB6FDC6B43
:104550004CEC53F0116E106A10C0E6FFE66E740E5C
:104560000201DB6FDC6B4CEC53F0E552E7CF11F04E
:10457000E552E7CF10F000011010626F11C063F038
:10458000CCEC00F0E66E090103510A0DF3CFE9FF10
:10459000F4CFEAFF000EE9260F0EEA22E552E750BB
:1045A000EF6E03510A0DF3CFE9FFF4CFEAFF000EDF
:1045B000E9260F0EEA22020EE926000EEA22EF6A31
:1045C00003510A0DF3CFE9FFF4CFEAFF000EE9260D
:1045D0000F0EEA22090EE926000EEA22EF6A032BEB
:1045E000B0D712000901E06B060EE05D06E2E0C9FB
:1045F00043FFC9D80901E02BF7D712003ECF00F9DD
:104600003FCF01F9090100C9E9FF01C9EAFF002B09
:10461000000E0123EF502E0807E000C9E9FF01C991
:10462000EAFFEF50EFE10A0C026B0251106E116AC3
:10463000100E105C000E11583CE2F00E136EE80EE6
:10464000146E000E156E02C916F0176A186A020E73
:10465000D890163617361836E806FAE113501624A5
:10466000F36E14501720F46E15501820F86EF4CF26
:10467000F7FFF3CFF6FFF6CF10F0F7CF11F0F8CF3A
:1046800012F010C0E6FF11C0E6FF12C0E6FF00C93D
:10469000E6FF01C9E6FF12EC70F0196E050EE15E4F
:1046A0001950000903E10901025112000901022B0E
:1046B000BCD70A0C0001000E7F6F090E806F40CF3F
:1046C0007EF07CEC06F0000904E0200E0901005D9C
:1046D000F1E00901016B2B0E0901005D02E1200EE2
:1046E000006F2F0E005D24E05C0E005D21E0200EC7
:1046F000005D29E03F0E005D26E00D0E005D23E029
:104700000A0E005D20E00C0E015D12E2610E005DFC
:1047100005E300517A0802E3200E005F0151012BEE
:104720000F01EA6A4125E96E4251EA2200C9EFFF12
:104730000001000E7F6F090E806F40CF7EF07CEC91
:1047400006F00009C8E1090101510F01EA6A41259B
:10475000E96E4251EA22EF6A090101510EE1A70E0A
:10476000E66EE90EE66E000EE66E41CFE6FF42CF42
:10477000E6FF28EC70F0050EE15E3F0E0901005DDA
:1047800001E1010C000C0F0143510A0DF3CFC5F9F3
:10479000F4CFC6F9000E0901C5270F0EC623010E7E
:1047A000C36F0901C35102E1CEEF28F0C36BCC6B9C
:1047B000C5C9E9FFC6C9EAFFEF500001686F3CECCC
:1047C00002F0000931E1C5C9E9FFC6C9EAFF090ED7
:1047D000E926000EEA22EF50020B13E0C5C9E9FFFB
:1047E000C6C9EAFF090EE926000EEA22EF92C5C902
:1047F000E9FFC6C9EAFF010EEB500D01EF6F63EC54
:104800004DF0C5C9E9FFC6C9EAFF090EE926000E49
:10481000EA22EF94C5C9E9FFC6C9EAFF020EE926FC
:10482000000EEA22EF6A1200C5C9E9FFC6C9EAFF15
:10483000020EEB50080AB5E00F0A02E19AEF28F0E9
:10484000010A02E144EF28F0030A02E144EF28F0F4
:10485000010AA7E0070A02E18EEF28F0010A01E150
:10486000AED3030A01E114D3010A9BE1C5C9E9FFF4
:10487000C6C9EAFFEF500001816FD8EC06F00009CD
:1048800090E00901010EC36FA1C43CFFA2C43DFF2B
:10489000C5C9E9FFC6C9EAFF090EE926000EEA22EA
:1048A000EF6AC5C9E9FFC6C9EAFFEF500F01496FBA
:1048B0002BEC29F00901C26F0F01B50E416F090EF3
:1048C000426FC5C9E9FFC6C9EAFFEF500F01406F4B
:1048D000F1DE0901CC91E8B0CC81C5C9E9FFC6C9B8
:1048E000EAFFEF500001AD6F90EC13F0F3CFCAF97F
:1048F000F4CFCBF90F01B50E516F090E526F43CFB4
:1049000050FF54EC2BF00F01B50E3E6F090E3F6FB8
:1049100075DEE66EC5C9E9FFC6C9EAFF040EE926E1
:10492000000EEA22040EE926000EEA22E552E750C4
:10493000EF6EC5C9E9FFC6C9EAFF040EE926000EFD
:10494000EA22040EE926000EEA22EFCF10F0116AE7
:10495000126A136A060E101805E1115003E1125095
:1049600001E1135040E0C5C9E9FFC6C9EAFF040EE2
:10497000E926000EEA22040EE926000EEA22EFCF15
:1049800014F0156A166A176A010E141805E115501D
:1049900003E1165001E1175002E0000E01D0010EB4
:1049A000000E000920E1C5C9E9FFC6C9EAFF040EEF
:1049B000E926000EEA22040EE926000EEA22EFCFD5
:1049C00018F0196A1A6A1B6A040E181805E11950C2
:1049D00003E11A5001E11B5002E0000E01D0010E6C
:1049E000000E00090AE0C5C9E9FFC6C9EAFF090EC1
:1049F000E926000EEA22EF8009D0C5C9E9FFC6C941
:104A0000EAFF090EE926000EEA22EF90720E02017B
:104A1000DB6FDC6B4CEC53F0020B4FE1C5C9E9FFD7
:104A2000C6C9EAFF040EE926000EEA22040EE926B2
:104A3000000EEA22EFCF10F0116A126A136A060E16
:104A400010180EE111500CE112500AE1135008E168
:104A5000720E0201DB6FDC6B4CEC53F0100B2DE19E
:104A6000580E0901B55D08E1720E0201DB6FDC6BC7
:104A70004CEC53F0010B21E1C5C9E9FFC6C9EAFFBF
:104A8000090EE926000EEA22EF50010B08E0720E33
:104A90000201DB6FDC6B4CEC53F0080B0EE1720E85
:104AA0000201DB6FDC6B4CEC53F0040B1BE00901E3
:104AB000C25118E1CC51010B15E0C5C9E9FFC6C9C7
:104AC000EAFF090EE926000EEA22EF50040B0AE184
:104AD000C5C9E9FFC6C9EAFFEF500001736F50EC8A
:104AE00005F06BD00901C25101E0C5D1C5C9E9FF8C
:104AF000C6C9EAFF090EE926000EEA22CC93EF5060
:104B0000040B01E0CC83720E0201DB6FDC6B4CEC1A
:104B100053F0200B09E1C5C9E9FFC6C9EAFF090E38
:104B2000E926000EEA22EF840901CCA118D0CAC9F7
:104B3000ABF0CBC9ACF0C5C9E9FFC6C9EAFFEF507D
:104B40000001AA6F58EC13F00401B50E936F090E23
:104B5000946FC5C991F4C6C992F410EC6CF0C5C944
:104B6000E9FFC6C9EAFF090EE926000EEA2209019B
:104B7000CC51020B02E0EF8401D0EF94C5C9E9FFEC
:104B8000C6C9EAFFEF500001736F50EC05F0C5C9CC
:104B9000E9FFC6C9EAFF090EE926000EEA22EF5036
:104BA000100B1EE0C5C9E9FFC6C9EAFF090EE926D8
:104BB000000EEA22EF50040B13E1C5C9E9FFC6C994
:104BC000EAFF040EE926000EEA22020EEF6EC5C9C6
:104BD000E9FFC6C9EAFFE926000EEA22060EA7D2BF
:104BE000C5C9E9FFC6C9EAFF020EE926000EEA229E
:104BF000050EEF6E0D01EE6B0D01B50EEC6F090E9B
:104C0000ED6F1EEC4CF0E66EC5C9E9FFC6C9EAFFC0
:104C1000EE52E552E750EF6EC5C9E9FFC6C9EAFF9B
:104C2000010EEB50106E116A126A136A060E105CC8
:104C3000000E1158000E1258000E135801E2C4D095
:104C4000C5C9E9FFC6C9EAFF040EE926000EEA223B
:104C5000040EE926000EEA22EFCF10F0116A126A64
:104C6000136AD880040E1054000E1154000E125412
:104C7000000E135401E2A8D0B50EE66E090EE66EE2
:104C800041EC70F0E552E552F3CFC4F9C5C9E9FF34
:104C9000C6C9EAFF040EE926000EEA22040EE92640
:104CA000000EEA22EFCF10F0116A126A136AD88060
:104CB000030E1054000E1154000E1254000E135423
:104CC00002E3030E01D0020E0901C45FC5C9E9FF6A
:104CD000C6C9EAFF040EE926000EEA22040EE92600
:104CE000000EEA22EFCF10F0116A126A136A0B0E5F
:104CF0001026000E112212221322C5C9E9FFC6C9CF
:104D0000EAFF040EE926000EEA22040EE926000E50
:104D1000EA2210C0EFFFF00E136EE80E146E000EC4
:104D2000156EC5C9E9FFC6C9EAFF040EE926000EE3
:104D3000EA22040EE926000EEA22EFCF16F0176AE7
:104D4000186A020ED890163617361836E806FAE1B9
:104D500013501624F36E14501720F46E15501820BB
:104D6000F86EF4CFF7FFF3CFF6FFF6CF10F0F7CFE2
:104D700011F0F8CF12F010C0E6FF11C0E6FF12C02C
:104D8000E6FF0901C4511A6AB50F196E090E1A22FD
:104D900019C0E6FF1AC0E6FF28EC70F01B6E050E86
:104DA000E15E1B500D01EE6B0D01B50EEC6F090EAF
:104DB000ED6F1EEC4CF0E66EC5C9E9FFC6C9EAFF0F
:104DC000EE52E552E750EF6EC5C9E9FFC6C9EAFFEA
:104DD000010EEB50106E116A126A136AE86810181F
:104DE00010E111500EE112500CE113500AE1C5C957
:104DF000E9FFC6C9EAFF040EE926000EEA22EF6ABF
:104E00001DD0C5C9E9FFC6C9EAFF010EEB50106EFF
:104E1000116A126A136AFE0E10181AE1115018E195
:104E2000125016E1135014E1C5C9E9FFC6C9EAFFE3
:104E3000040EE926000EEA22010EEF6EC5C9E9FF55
:104E4000C6C9EAFF020EE926000EEA22050E6FD15E
:104E5000C5C9E9FFC6C9EAFF090EE926000EEA2224
:104E6000EF82C5C9E9FFC6C9EAFF020EE926000EB6
:104E7000EA22010E5CD1C20501E093D4C5C9E9FF65
:104E8000C6C9EAFF020EE926000EEA22030E4FD140
:104E9000C5C9E9FFC6C9EAFFEF5000016B6F80EC9E
:104EA00003F0000901E17DD40901010EC36F0F0178
:104EB000300E4D6FE90E4E6F000E4F6F43CF4CFF1B
:104EC000C5DB43CF4BFF9EDB0F01400E4D6FE90E5C
:104ED0004E6F000E4F6F43CF4CFFB8DBC5C9E9FFE3
:104EE000C6C9EAFF040EE926000EEA22040EE926EE
:104EF000000EEA22EF50030DF3CFE9FFF4CFEAFFF3
:104F0000C20EE926010EEA22EECF4DFFEECF4EFF94
:104F1000EFCF4FFF43CF4CFF99DB43CF4BFF72DB0B
:104F2000C5C9E9FFC6C9EAFF040EE926000EEA2258
:104F3000040EE926000EEA22EFCF10F0116A126A81
:104F4000136A0B0E105C000E1158000E1258000E62
:104F500013580AE30F014F0E4D6FE90E4E6F000E0E
:104F60004F6F43CF4CFF72DBC5C9E9FFC6C9EAFFEB
:104F7000090EE926000EEA22EF50010B0AE10F01AB
:104F80006E0E4D6FCB0E4E6F000E4F6F43CF4CFF2A
:104F90005DDB43CF4BFF36DBC5C9E9FFC6C9EAFF7E
:104FA000030EE926000EEA22EF6AC5C9E9FFC6C969
:104FB000EAFF020EE926000EEA22020EB8D0C5C9A9
:104FC000E9FFC6C9EAFFEF500001816FD8EC06F097
:104FD000000909E0C5C9E9FFC6C9EAFFEF500001B1
:104FE000736F50EC05F0C5C9E9FFC6C9EAFF090EA9
:104FF000E926000EEA220901CC93EF50040B01E0F0
:10500000CC83720E0201DB6FDC6B4CEC53F0200B97
:1050100009E1C5C9E9FFC6C9EAFF090EE926000E84
:10502000EA22EF8443CF4AFF59D900091DE0C5C9E0
:10503000E9FFC6C9EAFF090EE926000EEA22EF924F
:10504000C5C9E9FFC6C9EAFF010EEB500D01EF6FBC
:1050500063EC4DF0C5C9E9FFC6C9EAFF020EE926B7
:10506000000EEA22070EEF6EC5C9E9FFC6C9EAFFC6
:10507000090EE926000EEA220901CC51020B01E1DA
:105080008AD0EF84D1EF23F0C5C9E9FFC6C9EAFF92
:10509000EF5000016B6F80EC03F0000902E1D1EFEB
:1050A00023F0C5C9E9FFC6C9EAFF040EE926000ED0
:1050B000EA22EF50030DF3CFE9FFF4CFEAFFF20E3F
:1050C000E926010EEA22EECFC7F9EECFC8F9EFCFFD
:1050D000C9F90901C7C9F6FFC72BC8C9F7FF000EF8
:1050E000C823C9C9F8FFC9230800F5CFC4F9F55092
:1050F0000CE0C4C96DF0C5C9E9FFC6C9EAFFEF50AD
:1051000000016C6FCAEC03F0E4D7C5C9E9FFC6C95A
:10511000EAFFEF5000016A6FCDEC02F0C5C9E9FF6C
:10512000C6C9EAFF020EE926000EEA22070EEF6E5C
:10513000D1EF23F0C5C9E9FFC6C9EAFFEF5000016E
:10514000686F3CEC02F000091EE0C5C9E9FFC6C962
:10515000EAFFEF5000016B6F80EC03F0000913E0F1
:10516000C5C9E9FFC6C9EAFFEF500001696F4CEC01
:1051700002F0C5C9E9FFC6C9EAFF020EE926000E22
:10518000EA22080EEF6EC5C9E9FFC6C9EAFF090E9B
:10519000E926000EEA22EF94D1EF23F0120047CF68
:1051A000E9FF48CFEAFFEF0409014A6F496BEF6A54
:1051B0004B6B4A510F01EA6A4525E96E4651EA22D6
:1051C000EF6A09014B5141E10001480E7F6F090E62
:1051D000806F44CF7EF07CEC06F0000936E03D0E97
:1051E0000901485D0BE1486B4A51495D1EE24929BE
:1051F00047CFE9FF48CFEAFFEF6E17D0260E485D94
:1052000002E1020E0AD0200E485D06E00D0E485D58
:1052100003E00A0E485D04E1010E4B6F486B05D0B8
:105220002B0E485D02E1200E486F4A51495D06E2AF
:1052300045CFE9FF46CFEAFF48C9EFFF0F01452BF5
:10524000000E46230901492BBCD709014B5101E14E
:10525000000C4B0512000901056B0001060E7F6F63
:10526000090E806F49CF7EF07CEC06F0000916E055
:10527000200E0901065D12E00551106E116A040E40
:10528000105C000E1158E9E20551052BEA6A000F87
:10529000E96E090EEA2206C9EFFFDFD709010551C1
:1052A000EA6A000FE96E090EEA22EF6A470E005D16
:1052B00007E1450E015D04E1540E025D01E1000CC1
:1052C000500E005D0AE14F0E015D07E1530E025DD5
:1052D00004E1540E035D01E1010C020C0F014A517F
:1052E0000A0DF3CF6EF9F4CF6FF9000E09016E27A6
:1052F0000F0E6F236EC9E9FF6FC9EAFFEF5000017F
:105300006B6F80EC03F0000901E171D109016C6B56
:105310006EC9E9FF6FC9EAFF030EEB5004084CE0C9
:105320006EC9E9FF6FC9EAFF010EEB50080DF3CF1C
:10533000E9FFF4CFEAFFB90EE9260D0EEA22EFCF1E
:1053400010F0400E1016116A126A136A10501110F4
:105350001210131027E16EC9E9FF6FC9EAFF010EB1
:10536000EB500D01F16FBEEC4DF009016D6F6EC990
:10537000E9FF6FC9EAFF010EEB50080DF3CFE9FF1B
:10538000F4CFEAFFB90EE9260D0EEA22EFCF10F0B6
:10539000200E1016116A126A136A105011101210A2
:1053A00013100AE06EC9E9FF6FC9EAFFEF50000170
:1053B0006A6FCDEC02F0010C6EC9E9FF6FC9EAFF1C
:1053C000090EE926000EEA22EF50010B01E101D19E
:1053D0006EC9E9FF6FC9EAFF030EEB50040A01E151
:1053E000B8D0070A5EE0010A33E0030A13E0010ABD
:1053F00001E0EDD0250E6D5D0AE16EC9E9FF6FC9D0
:10540000EAFF030EE926000EEA22010E48D0010E43
:105410006C6FDDD0250E6D5D03E1010E6C6FCED09B
:105420006EC9E9FF6FC9EAFF040EE926000EEA2201
:10543000030EE926000EEA226DC9EFFF6EC9E9FFEF
:105440006FC9EAFF030EE926000EEA22020E27D0FA
:10545000610E6D5D02E3270E04D0410E6D5D02E327
:10546000070E6D5F300E6D5D100DF350E66E6EC968
:10547000E9FF6FC9EAFF040EE926000EEA22020ED8
:10548000E926000EEA22E552E750EF6E6EC9E9FF09
:105490006FC9EAFF030EE926000EEA22030EEF6E43
:1054A00096D0610E6D5D02E3270E04D0410E6D5D56
:1054B00002E3070E6D5F300E6D5D106E6EC9E9FF81
:1054C0006FC9EAFF040EE926000EEA22020EE92661
:1054D000000EEA221050EF126EC9E9FF6FC9EAFF11
:1054E000030EE926000EEA22040EEF6E6EC9E9FFF4
:1054F0006FC9EAFFE926000EEA22EE6AED6A726BD6
:10550000736B6EC9E9FF6FC9EAFF040EE926000E4E
:10551000EA22020EE926000EEA22EFCF70F96EC9E8
:10552000E9FF6FC9EAFF040EE926000EEA22030E26
:10553000E926000EEA22EFCF71F96D0E746F090EA5
:10554000756F6EC953FF6FC954FF66D90901766F35
:105550003ED06EC9E9FF6FC9EAFF040EE926000ECE
:10556000EA22EECF72F9EDCF73F90301700EA56F49
:10557000090EA66F60EC1DF06EC9E9FF6FC9EAFF66
:10558000040EE926000EEA2272C9EEFF73C9EDFF90
:105590000901010E6C6F72C910F073C911F0126A23
:1055A000136AE868101813E1E868111810E1125046
:1055B0000EE113500CE16D5101E16C6B6EC9E9FF16
:1055C0006FC9EAFF030EE926000EEA22EF6A6C516A
:1055D0000BE06DC96DF06EC9E9FF6FC9EAFFEF50CE
:1055E00000016C6FCAEC03F0ACEC59F083D66EC9C5
:1055F000E9FF6FC9EAFF010EEB500D01F06F73EC8C
:105600004DF0000C0F014B510A0DF3CF6CF9F4CFA4
:105610006DF9000E09016C270F0E6D2300010D0EB0
:105620006D6F6CC9E9FF6DC9EAFFEF5000016C6F47
:10563000CAEC03F000010A0E6D6F6CC9E9FF6DC979
:10564000EAFFEF5000016C6FCAEF03F00F014C51FD
:105650000A0DF3CF6CF9F4CF6DF9000E09016C2738
:105660000F0E6D234DCFF6FF4ECFF7FF4FCFF8FF54
:105670000800F55018E00F014DCFF6FF4D2B4ECF2F
:10568000F7FF000E4E234FCFF8FF4F230800F5CF52
:105690006DF06CC9E9FF6DC9EAFFEF5000016C6F56
:1056A000CAEC03F0DFD712000F0150510A0DF3CFFF
:1056B00000F9F4CF01F9000E090100270F0E0123B4
:1056C000040E836F00010A0E7D6F00017C690001EA
:1056D0007A6B7B6B00C9E9FF01C9EAFFEF5000015B
:1056E000796FE8EC05F0F4CF10F0116A126A136AD2
:1056F000200EF41805E1115003E1125001E113509E
:1057000006E00901835183070009DCE11200000172
:105710000D0E7D6F0001800E7C6F0001020E7A6F0E
:10572000090E7B6F00C9E9FF01C9EAFFEF500001D4
:10573000796FE8EC05F0F3CF85F9F4CF86F9F4CF73
:1057400010F0116A126A136AF4501110121013103B
:105750002AE10901040E836F00010D0E7D6F000127
:105760007C6900017A6B7B6B00C9E9FF01C9EAFF24
:10577000EF500001796FE8EC05F0F4CF10F0116AFA
:10578000126A136A200EF41805E1115003E1125059
:1057900001E1135005E00901835183070009DCE1B1
:1057A0000901200E866F86C910F0116A126A136A09
:1057B000200E101805E1115003E1125001E11350C1
:1057C00001E012000901850501E112000001830ECC
:1057D0007F6F090E806F00C9E9FF01C9EAFFEF5032
:1057E00000017E6F7CEC06F009018505EA6A020F74
:1057F000E96E090EEA22EF6A51CF82F452CF83F4A8
:105800000401020E806F090E816F00C97EF401C988
:105810007FF418EC5BF07BD753CFE9FF54CFEAFF5E
:10582000090EE926000EEA22EF50040B0DE053CFDB
:10583000E9FF54CFEAFF090EE926000EEA22EF50F5
:0A584000080B01E0020C010C000C43
:06584A00966A868898882A
:1058500003016E6B6F6B706B716B726B736B090115
:10586000006B00C910F0116A126A136A030E105C13
:10587000000E1158000E1258000E13582EE200C9E7
:1058800010F0116A126A136A020ED890103611369F
:1058900012361336E806F9E1400E1026000E1122EA
:1058A0001222132209010051E96EEA6AD890E93602
:1058B000EA36660EE926030EEA2210C0EFFF005119
:1058C000E96EEA6AD890E936EA36660EE926030EF2
:1058D000EA22EE52EF80002BC4D7236A03016C69E1
:1058E00036EC33F00401050ECC6F9BEC75F0030130
:1058F0001F0E906F55EC33F003018F6F03011F0EE5
:105900008E6F49EC33F00401050ECC6F9BEC75F003
:105910000301210E8F6F03018E6B49EC33F00401FC
:10592000050ECC6F9BEC75F00301080E8F6F030121
:105930000E0E8E6F49EC33F003018F6B03010A0EDC
:105940008E6F49EC33F003018F6B03010B0E8E6FEA
:1059500049EC33F00301040E8F6F03010C0E8E6FC0
:1059600049EC33F00301020E8F6F03010D0E8E6FB1
:1059700049EC33F02350E96EEA6AD890E936EA360A
:10598000660EE926030EEA22EFCF8FF30301040E21
:105990008E6F49EC33F003014C0E8F6F0301010E43
:1059A0008E6F49EC33F00301600E8F6F0301020E1E
:1059B0008E6F49EC33F003014C0E8F6F0301030E21
:1059C0008E6F49EC33F003018F690301070E8E6F70
:1059D00049EC33F003018F6B03010F0E8E6F49EC1E
:1059E00033F00301610E8F6F03018E6B49EC33F0CE
:1059F000B5C28FF30301010E8E6F49EC33F0B6C2CE
:105A00008FF30301020E8E6F49EC33F0B7C28FF3B0
:105A10000301030E8E6F49EC33F0B8C28FF303011C
:105A2000040E8E6F49EC33F0B9C28FF30301050EFB
:105A30008E6F49EC33F0BAC28FF30301060E8E6FFE
:105A400049EC33F00901006B080E005D14E203011C
:105A50008F6900C910F0116A126A136A080E1026C5
:105A6000000E11221222132210C08EF349EC33F0E3
:105A70000901002BE9D703014C0E8F6F0301070EBC
:105A80008E6F49EC33F04C0E206E0301220E8F6FA7
:105A900003018E6B49EC33F003018F6B03010D0E94
:105AA0008E6F49EC33F00301E00E8F6F03018E6BB4
:105AB00049EC33F00301C00E8F6F0301010E8E6FAE
:105AC00049EC33F003018F6B0301040E8E6F49EC38
:105AD00033F003018F6B0301010E8E6F49EC33F03D
