:020000040000fa
:080000000002040000000000f2
:020000040000fa
:100400002feb200000ff200000018800000000000a
:100410000c000700a0cc2100010020001100070003
:10042000000020000000e000020032000000020096
:1004300000000000d61a0200000000000040da00b0
:100440000000fe004440a900600e20000000e00013
:100450000300320000002000a00188004440a800f2
:100460000000060091018800800078000000eb0089
:1004700015003700e280400032a0b4009101ba00bc
:10048000e280400032a0b4009102ba00e280400055
:1004900032a0b4000002eb00472bde00f507b200eb
:1004a000602ce10004003a000059eb008301e900f0
:1004b000fdff3e00040037006128e100010032002a
:1004c0000082eb00040007001101ba000200e00006
:1004d000e8ff3a00000006003159ba008301e90044
:1004e0000c0032002159ba008301e90008003200f3
:1004f0000400e00003003a00e280400032a0b400b3
:10050000f5ff370011d9ba008301e900faff3a007c
:100510008100e800e180400032a0b4000000060045
:100520000a00fa0011002000b1bf9f00c0bf9f0069
:100530006a80570000c0da004fb897000080fa00c8
:10054000000006000a00fa0051002000b1bf9f0021
:10055000c0bf9f006a80570000c0da005fb89700f4
:100560000080fa00000006000a00fa0044002000a3
:10057000b4bf9f00c0bf9f00d2bf9f00e3bf9f00da
:10058000f1bf9f006a80570000c0da005fb8970093
:10059000efb897000080fa0000000600889fbe00b8
:1005a00080047800806d80000000e00003003a00c5
:1005b000100007000000e0000a003500806d800098
:1005c0000900e00002003a0000047800060037004d
:1005d0000004780009004000060007000000e00069
:1005e00001003d000084eb00080078004f04be00cd
:1005f00000000600800078000000e00004003a00df
:1006000020db2000806d88000101780006003700a3
:100610000081eb0020eb2000808f500002003e00a4
:10062000816d88000001eb000200780000000600e8
:10063000020ab900001bb9000200b80081004200a4
:100640008100430000000600889fbe008a9fbe0014
:10065000010578000100e0000400350008003c00be
:100660000000e000200032000500370060001000ac
:10067000e080180002003b0001f02c001a00370057
:100680000004be006011b8006b0920000982cf0091
:10069000020039000882cf000441b00069425200d4
:1006a0000e00320008003b0082817100610164008d
:1006b0008904d1000884d3008b05e8000442e800d7
:1006c000f9ff3a00050037000804440089844c0013
:1006d0008b05e9000442e900fbff3a000601070030
:1006e0000af0a70001f0a0004f05be004f04be00b5
:1006f0000000060003f0a200889fbe008a9fbe0093
:100700008c1f780022010700290133006450e100aa
:100710004f0032006420e1005200320003826c007e
:1007200007003b000905d0000306d000820f5400eb
:100730000c065d00020039000200320089017800d9
:10074000030678008582550004003d000003fd008b
:100750008103fd008502ea008b854200840f720050
:1007600002003b0060001000e08018006011b8003b
:100770000005eb007a28e1000a0039000600780045
:10078000c75ddd00f707b200878075002d003700d8
:10079000828171000a017800610560008180d100ca
:1007a0000080d3008502e900f9ff3b000604400009
:1007b0008784480002003b0060041400e0841c00b1
:1007c0000988a300070032008a81710082817100cc
:1007d000610164008904d1000884d3008b05e8001e
:1007e000170037000978a30013003a000b00e0005f
:1007f000130034008b05e9000804440089844c0090
:100800000a4474000978a3000d003a000b00e000d0
:10081000070034008b05e9000804440089844c007b
:1008200001003a000b0020000978a300f7ff320016
:100830000001eb0002003700828171000a0178009c
:10084000ad0007000cf0a70001f0a000e1003700a8
:100850006420e10002003a00838f6c00e100330065
:100860000801be000200be00da003700889fbe000b
:100870008a9fbe008c1f7800c5000700cc003300a3
:1008800003866c006450e100240032006420e10023
:10089000270032006150e100220032006120e100b7
:1008a000210032008b854200eb07b1000134b80013
:1008b000003ab8000804420089844a00013ab800ae
:1008c0000030b8008880400009014a00040033006d
:1008d0000000400081804800020149008b05e900ca
:1008e000c909dd00830170000100320013002000ff
:1008f000c814de004814dd004709de001200b20013
:10090000c808de00088470007b00070001f0a10029
:100910000cf0a70001f0a000ae0037006120e1005c
:10092000b00032000801be000200be00f7ff370031
:100930006150e100fcff3a00aa003700889fbe002a
:100940008a9fbe008c1f780091000700980033003a
:1009500003866c006450e1002e0032006420e10048
:10096000330032006150e1002f0032006120e100cd
:100970003100320085855500eb07b00009002000ea
:1009800008042000050037000804440089844c0056
:100990000a0031000603430087834b000001530027
:1009a00081815b00f8ff33000203be000800a00055
:1009b0000804440089844c00f6ff3900c639dd0084
:1009c0008301730001003200130020008904d1006c
:1009d0000884d3000998a300050032000800a7008e
:1009e0000300a0008904d1000884d3008b05e8002f
:1009f0008904d1000884d3000001eb000281d200f9
:100a00003d00070001f0a1000cf0a70001f0a000dc
:100a1000700037006420e100720032000801be005f
:100a20000200be00f7ff37006120e1006d003200d8
:100a30006000b800f3ff37000000200001f8270035
:100a4000f0ff370014002000690037006022b80072
:100a5000060220000000d0008180d2000482d20073
:100a60008582d2000000a0000202520083825a0058
:100a7000030031000202420083824a000000a1000c
:100a80000603e900f3ff3a00000006000001be0083
:100a9000720007000470a70003f0a10003f8a30090
:100aa00013003a006509b10010003200090035005a
:100ab0006928e1000200350001002800000005005f
:100ac00000004000818048008502e900fcff3a00f8
:100ad00000000600f88f4200050035008100d100bb
:100ae0000080d3008502e800fcff3a000000060009
:100af0008000eb00000005008100200061805500af
:100b00000b003d000b00200061fe2f000100e10002
:100b10001d00340082817100610164008904d100ec
:100b20000884d3000000e800faff3a0071002000ba
:100b300061006400030070000200600009003200e0
:100b400061044400e0844c000988a50005003200df
:100b50008b05e8006808e10002003a008904d10032
:100b60000884d300f20f20000258e10005003d0088
:100b7000c75ddd00f907b2008980750008007800c4
:100b8000000006000bf827008b007800000005002d
:100b90000004be00310007000003be000405be00d3
:100ba0000200be002d000700844f75000000060003
:100bb0000200be006450e100050036006420e10040
:100bc000020036000968a30001003a000800be00d8
:100bd0000160a0004f0678004f05be004f04be0024
:100be00000000600f0ff2f00f1ff2700f9ff37009b
:100bf000889fbe008a9fbe00841f7800e4ff070024
:100c00004f00780011003300f0ff2f00838f6c003d
:100c100006003b00040565000a00a7000800370035
:100c200009f0a6001000200008003700820f5400d1
:100c3000838f5c00030039001000200001003e009b
:100c40000000200009f0a7000000ea004f05be00e8
:100c50004f04be000000e00000000600c70ade00ee
:100c6000f107b200f50fb20008003200e1cf4200f8
:100c7000020032000170a00024000500810f700006
:100c8000010032000408050044000500810f7000d7
:100c900002003a00140005008502e900000040004f
:100ca00081c04800fcff3b000170a000240005004b
:100cb000881f7800000478005001be004000be008c
:100cc00004004000858048000601490087814900f2
:100cd000009cbe000294be000400e1000588e10013
:100ce0000690e1000798e10002003100680044002e
:100cf0001008e8004f04780000000600f487470061
:100d0000889fbe008a9fbe008c9fbe008e1f780009
:100d10000205be000004be00d4b79f00e5b79f00e7
:100d2000f6b79f0087bf9f000000eb00c0b79f0091
:100d3000b0b79f00a0b79f0090b79f0080b79f00fb
:100d40000d042000bfb097004fb097000001400095
:100d50000000e0000f003d004f08de0000007100c1
:100d6000c0b79f009e00070001003d001200200058
:100d7000a100070001003d0012002000a6000700ae
:100d8000b1000700b60007000f004000c8ff0700d1
:100d9000220037004f08de0000067100ccb79f002c
:100da0008f00070001003d001200200092000700a4
:100db00001003d001200200097000700a20007007c
:100dc0000fb297009fb297002fb39700bfb3970061
:100dd000a90007000000520081805a0002015b0058
:100de00083815b0080b79f0091b79f00a2b79f00ef
:100df000b3b79f000007eb009f0007000020e10051
:100e000001a8e10002b0e10003b8e10001003100f7
:100e10001e0020000e005600c0b79f004fb2970082
:100e20000400e00007003500100020000100200051
:100e30006011b80008047000898470000a05710010
:100e40008b8571008d06e900beff3a000400e000ca
:100e500003003d00820007000f00400094ff0700e0
:100e60004fa897000000e00004003a000fb497007c
:100e70009fb497002fb59700bfb597009400070067
:100e80004f0778004f06be004f05be004f04be005e
:100e90004f01b10000000600881f780018002000f4
:100ea000881f780095ff07008f87e9004f047800be
:100eb00000000600801feb0090ff07008f87e9000d
:100ec00000000600889fbe008a9fbe008c1f78002d
:100ed0006e00070007003d0073000700e00f5b0095
:100ee000e08f5b0007003d00320007000006eb00ca
:100ef000040037003400070002003d002a0007000c
:100f00001c00200072000700e3ff07000203be0080
:100f10000002be000c00e0000100320022000700c9
:100f20000400be000601be004f0678004f05be005b
:100f30004f04be0000000600889fbe008a9fbe00ce
:100f40008c1f78005100070005003d005600070087
:100f5000e00f5b00e08f5b0006003d0004003700ff
:100f60001900070003003d006000b8006011b800e0
:100f70001000070056000700ceff07000203be0066
:100f80000002be000c00e000010032000600070075
:100f90000400be000601be004f0678004f05be00eb
:100fa0004f04be00000006006000b8006011b800e9
:100fb00000003700040250008582580006035900e3
:100fc00087835900000006000006eb00e00f520086
:100fd000e08f5a00e00f5b00e08f5b00000006002e
:100fe0000180400090b79f000001eb008fb0970098
:100ff0000100e000000006000200700090b79f00b2
:101000000180400080b79f000001eb00ffa897001f
:101010000100e000000006000200700080b79f00a1
:10102000018040006faa9700cf20de000100700011
:10103000f0af9f0004024200250007004f18de00b9
:101040000002720000000600e4af9f0008044400a4
:1010500089844c000a054d008b854d000000060078
:101060003fb29700cfb297005fb39700efb39700fe
:1010700000fe2f00000006003fb09700cfb09700a1
:101080005fb19700efb19700000006000205be00b7
:101090000004be00e00f5000e08f5800e00f590040
:1010a000e08f5900000006006000b8006011b80031
:1010b00008045000898458000a0559008b8559009e
:1010c0001c002000e00f5200e08f5a0000000600d4
:1010d0000800be000a01be0000000600889fbe0096
:1010e0000004be00060037000804e8000000fb0012
:1010f00089007800d3000700e10f400004003200af
:10110000184078000004e000f7ff3a000000eb0010
:101110004f04be0000000600881f7800c1d32000e5
:10112000eeff070000047800c1d32000a0002000db
:10113000c4000700080078004f0478000000060093
:101140000000fa00cfb8970068815700c0d3200094
:10115000050107000080fa00000006008001780009
:101160000001780031407800005978000004e00068
:10117000fcff3a00030078000000060080007800c1
:101180003004e000feff3a00010050000000e900da
:1011900000000600881f7800606080000000e0000a
:1011a000010032000000010008d320000800780090
:1011b000570307006c04440000d92000800f54003e
:1011c000faff3a004f04780000000600881f7800fc
:1011d00000047800300090000008a30007003200ef
:1011e000800078000120b20004003a001104980049
:1011f000a8009000010c7800170037000018a30029
:10120000190032000098a30017003200a8009000d7
:101210000100e00014003200180190000200e0001c
:10122000110032004800900060070700980090000d
:10123000810f500003003200380090000003b3001b
:10124000300498000000eb00100498002800900083
:10125000000c7800380090000058a3000200320013
:101260000080eb00010037000000eb004f04780025
:1012700000000600889fbe008a9fbe0080047800a0
:1012800001057800820578000100e00002003a00c4
:10129000000478000c003700000478000a80440045
:1012a0000000e900800f5400070032000b007800b6
:1012b0004f030700e10f400003003200005c78009c
:1012c000ea4f5000f5ff3a00004ceb000000eb0045
:1012d000890f540001003200090078004f05be005c
:1012e0004f04be0000000600881f780002d32000d3
:1012f0008080eb00dfff0700000478000000e000c2
:10130000040032009dff0700000044008040eb0015
:1013100071f89f00080078004f0478000000060074
:10132000889fbe000004be000d0037000900780051
:1013300092ff0700000178000800be00600307006c
:101340000000e00002003a000800780009003700c1
:101350009900fb000800e8006a0307000004780019
:101360000800e000020032001804e000efff3a003d
:101370000000eb004f04be0000000600889fbe0086
:101380008a9fbe008000780000c2b30001003700d1
:10139000890078008104780039447800804f540037
:1013a000fbff3200e94f5400f9ff3200d0c2b30016
:1013b000804f540004003a00194478008184e8000a
:1013c0001ac0b300060037000045eb00b0c2b300fe
:1013d000804f540002003a00194478008184e800ec
:1013e0006022b8000a003700a2002000030020009d
:1013f0000400be008efc07000b4144000281fb008c
:101400000300200000024100818249003944780035
:101410000880fb000bfd2f000b004000e90f50007f
:10142000f1ff36000a04e000020032006002120000
:10143000e0821a000400be004f05be004f04be004b
:1014400000000600889fbe000001780001047800bb
:10145000b10090000118a3003d0032000198a300e4
:1014600003003a00180090000000e00038003a0045
:101470000190a0003104980082047800f90fb200b6
:10148000180090000000e00002003a0028009000e0
:10149000000c78003800900000b8a300060032006d
:1014a00000a8a30004003200210020006011b80051
:1014b0000800780038030700b800900001007800a9
:1014c00000b0a10030049800ea8f540005003a00f3
:1014d0000178a30003003a0088007800d0002000c3
:1014e000d8ff07009800900058009000808f5000af
:1014f0000b0032000100e80010049800180078008a
:1015000009587800000c780011c0b300a0da200060
:1015100001487800ea8f5400060032000f003700bf
:1015200088007800094078008b0307008004780069
:101530000a003700380090000088a300060032003f
:101540000800780021ff0700e10f400002003a0088
:101550008084eb0001003700a9002000090078001a
:101560004f04be0000000600fa874700889fbe00b7
:101570008a9fbe008c9fbe008e1f7800f0b79f0030
:101580000107780082bf9f000000eb00b0b79f000a
:10159000540237000006eb0050c2b30080cf500069
:1015a000090032000100fb00ffb09700a5ff070013
:1015b000e10f40004b023200bfb097008100e8000d
:1015c000b1b79f00470237009e407800b0c2b30019
:1015d00080cf50001300320007003c006b405000e9
:1015e00080cf50000d0032006340400080cf50009b
:1015f00013003a000d003700d0c2b30080cf500076
:10160000040032006340400080cf50000c003a00dc
:10161000080037000c30a000070037000c00a000c5
:10162000050037000c10a000030037000cb0a0002c
:10163000010037000c20a0000e07e800e2ff370091
:101640000c18a300010032000c00a1000c38a3000c
:10165000010032000c20a1000100fb0002fd2f0060
:1016600002004000e90f50000e003e000002eb00b7
:10167000f4af9f0082017800ffae97006a68b9005e
:101680001e01fb000001410003014100f2af9f0079
:101690005e00fb0003004000e90f50000b003e001d
:1016a000f5ff37000000eb00f0af9f00a0c2b300d1
:1016b00080cf500005003a008fb8970041017800b4
:1016c00081bf9f00f2af9f000e07e8000002eb0011
:1016d000c4b79f00e0c2b3009e4f100018003a004c
:1016e0000ce0a0008e00e80064405000914f100014
:1016f00002003200010778000c0037008fbe97000f
:101700004d0078008dbf9f00c0b79f000e87e80096
:101710000b0037004fb297006a20b900000041006b
:1017200003004000c0b79f000e07e8001e01fb0049
:1017300003fd2f0003004100e90f5000f5ff3600c4
:10174000be407800a1df9f0030c7b30080cf5000bb
:101750001900320009003c007040500080cf50005a
:10176000630032006940400080cf50000a00320020
:101770000104e000df0132007c00370050c7b300f5
:1017800080cf50007d0032006340400080cf500089
:1017900076003a0006003700000028000c48a3003d
:1017a00001003a000001200000067600e4ff370047
:1017b0000c70a000720037008fbe97004d007800bb
:1017c0008dbf9f00000478000000e00001003a0097
:1017d00008d920008004eb00010037008104e800f4
:1017e00089007800088044001004e000fbff3a0004
:1017f0004fb097000000e00003003200890f500056
:1018000001003100800478008000eb0081b79f0068
:101810007fa99700890f510002003600090051008e
:1018200080b79f004360de00e10660001b003a00c5
:101830000d06780009003700ffb097000002200075
:1018400000ff0700e10f4000030032003fb29700a5
:101850000402e800b4b79f000c06e8000fb0970040
:10186000800f5600f4ff3a008080eb0081b79f00a4
:101870000a003700880078003100fb00010478007e
:10188000ffb09700effe0700e10f400003003200b9
:101890003fb197000201e800b2b79f000900e900dc
:1018a00080047800e10f4000f2ff3a000006eb00f0
:1018b0000d00e0000a003a008a013700ffb09700ef
:1018c00000022000dffe0700e10f400003003200ad
:1018d0003fb297000402e800b4b79f000c06e8008e
:1018e0008fb697008d0f5600f4ff3a007d01370048
:1018f0008fb897004100780081bf9f00cf80de0045
:1019000001017800820178000205be000004be00db
:101910000203be000002be004822de00c82edd0029
:1019200004827600a4df9f000c48a3000a00320066
:101930000404e00008003200e14f420006003200db
:10194000b1fd2f000f804000044878001840980037
:101950002900200002003700b0df9f00190020009e
:10196000b2fd2f000f044100a1ff3700a4fd2f009e
:101970000f044200190020009dff37000c0cb3003b
:101980009cb79f009fb697000d00e00005003d004a
:101990000fb897004005be004004be0080bf9f0006
:1019a000110037009fb097000148a30007003200e4
:1019b0000fba97004400be0084bf9f006011b800ba
:1019c0000205be000004be00070037008fbe97006e
:1019d0004d0078008dbf9f000004780009002000b2
:1019e0000a0020000b0020004fb097000000e0002c
:1019f00007003a00e00f5400e08f5c00e00f5d004c
:101a0000e08f5d0002003a0011002000c1b79f0086
:101a10001fb19700020cb200e2b79f00000820003f
:101a2000800f510014003200000c2000800f510084
:101a300022003a0014c0b300e5c820000b003700b4
:101a40000400fb004300dd00050040005001be0023
:101a50004000be000040e10001c8e10002d0e1000a
:101a600003d8e100140039000442e800f44f5200aa
:101a7000f3ff3a001000370014c0b300e5c02000a7
:101a80000b0037000400fb004300dd0005004000b0
:101a90005001be004000be000040e10001c8e1006e
:101aa00002d0e10003d8e100030039000442e8005d
:101ab000f04f5200f3ff3a00a4df9f002fda9700a7
:101ac0000400fb00cfb697008d0f500002003d00d0
:101ad000addf9f0004003700cfb09700808f50002b
:101ae00001003d00c0b79f007fa997000200e00001
:101af000050032001fb2970063006200020032004e
:101b00000201e900f2af9f009fb697000de8a30025
:101b10000b0032007fa89700cfb09700810f5000d4
:101b200003003c000001eb00f2af9f00040037000f
:101b30007faa9700cfb697000d025200f4af9f0026
:101b4000008c20009fb097008086600000882000f5
:101b5000808f560009003a007fa99700e20f5100dc
:101b600003003c000002eb00f4af9f0003003700cd
:101b70007fa897000080e900f0af9f00afd89700e2
:101b80000100fb000001eb00d2b79f007faa970085
:101b9000800f52000200340000005200d0b79f00b6
:101ba0001fb097000028a30049003200e100600048
:101bb0000018a3000c003200d00220000100e00059
:101bc00001003a000080e900ffb097001dfe070009
:101bd000e10f400022003200bfb097008100e80012
:101be000b1b79f001e0037000100e000090032007d
:101bf000ffb097000002200012fe0700e10f400036
:101c0000170032003fb197000201e800b2b79f0011
:101c10001300370000882000808f560010003a0023
:101c2000ffb097000003200006fe0700e10f400010
:101c3000030032003fb297000402e800b4b79f00ef
:101c4000ffb0970080072000fefd0700e10f400075
:101c500003003200bfb697008d06e800bdb79f00b5
:101c60005fb097000000e0000f0032000006eb00bc
:101c7000ffb0970000032000f2fd0700e10f4000d5
:101c800003003200bfb097008100e800b1b79f00a9
:101c90000c06e8005fb19700820f5600f4ff3a008f
:101ca0000002eb00d4b79f00cfb697000d00e9000b
:101cb0004300dd00e1c8200081064000e1c02000b3
:101cc000010640000000eb00a0b79f006e00370047
:101cd000dfb097000100e000120032001fb1970052
:101ce000680061000f003a0000067800ffb097001e
:101cf00000022000d3fd0700e10f40000300320086
:101d00003fb297000402e800b4b79f000c06e80059
:101d10005fb09700800f5600f4ff3a008000eb00a0
:101d2000d1b79f001fb19700e10061000218a30026
:101d30000c003200d00220000100e00001003a0057
:101d40000080e900ffb09700befd0700e10f4000f2
:101d50000e0032003fb297000402e800b4b79f00c3
:101d60000a0037000100e00008003200ffb09700d1
:101d700000022000b3fd0700e10f40000300320025
:101d80003fb097000000e800b0b79f000088200037
:101d9000808f5600c4ff3a00ffb097000003200078
:101da000a8fd0700e10f400003003200bfb097001c
:101db0008100e800b1b79f00ffb0970080072000c6
:101dc000a0fd0700e10f4000b7ff32003fb19700d0
:101dd0000201e800b2b79f00b3ff370000082000ff
:101de0006fb29700800f520010003200000c2000ec
:101df000800f520016003a003d02be002d03be00c7
:101e00000800be000a01be0023fc0700a400200059
:101e1000050020006033b80026fc070004c3b300af
:101e200004424000a4df9f00090037003c02be00ce
:101e30002c03be000800be000a01be0016fc07000d
:101e40006f00600074d9200064427800a4df9f0016
:101e5000afd897000100fb00ffb0970079fd0700a5
:101e6000e10f4000030032003fb197000201e8009b
:101e7000b2b79f002fb297000402e800a4b79f00fa
:101e8000e8865600680656002fb09700cfb097003e
:101e9000810f5000d1ff3a001fb197000238a30014
:101ea000100032005fb297000400e0000d00340023
:101eb0000006eb00ffb097000002200061fd070064
:101ec000e10f400003003200bfb697008d06e80026
:101ed000bdb79f000c06e8005fb09700800f56006a
:101ee000f4ff3a00be407800a1df9f000104e0004b
:101ef000a8fd3a003fb097004f0778004f06be009c
:101f00004f05be004f04be00af01b1000000060047
:101f1000889fbe008a1f780000047800300090007f
:101f2000630060002400320008007800a7fc07006e
:101f30003805900080ef2f00000065003004980005
:101f4000280090000000e00004003200e804650072
:101f500002003a005301070029049800480090004d
:101f60006ff90700e10f400013003200b800900045
:101f70000102b20010003a000ac8a30018003200a3
:101f8000706d80000000e000150032000001780054
:101f900081047800012a200012289000880f500048
:101fa000070032004205b0004905b000818f54009f
:101fb0000b003200f8ff37000080eb00090037000b
:101fc000020078005ff90700706d80000900400092
:101fd0008000eb0011289800010078000100370014
:101fe0000000eb004f0578004f04be000000060023
:101ff000881f780000047800b00090000148a3001a
:1020000007003a000108a300050032000198a30070
:1020100008003200100090000000e00005003200cf
:10202000380090000040a000300498008080eb0051
:10203000200037000190a1003104980018009000a2
:102040000000e000060034000000e90010049800e1
:1020500018007800b080fb00000c78000600370004
:10206000380090000068a300edff3a0008007800f7
:102070001001070080007800380090000078a3006d
:102080000c003a00fa8f500008003a002800900037
:102090000000e000e2ff3200180090000000e800bd
:1020a00010049800180ce900ddff3700ed8f500098
:1020b000e2ff3200010078004f04780000000600c3
:1020c000810178000002eb000b003700e44078004b
:1020d0000104e000030032000402e80093cf500046
:1020e000040032008180fb001380fb000080500060
:1020f000000006008301e800820f5200f3ff3a005f
:102100000000050010417800814f510004003200aa
:102110000000e8000204e000faff3a000000eb00d3
:1021200000000600881f780000047800400090003e
:10213000110020006011b8000bf907000001be007b
:10214000180090000000e00002003d000000eb00dd
:1021500010049800280090000000e0000800320001
:10216000380090000098a30005003200180090008d
:10217000cf80de000200400083804800040037006a
:1021800018009000cf80de000000510081805900cf
:102190004f047800000006000400fa00889fbe008b
:1021a0008a9fbe008c1f78000006780092bf9f00b7
:1021b000a3bf9f0001047800300090000040a10000
:1021c000300698002c0090000000e00006003a0065
:1021d0004c009000e4f80700e10f4000e08f480059
:1021e00057003a0054003700e18f500005003200dc
:1021f000e28f50000c0032000100e00020003200ad
:102200004d0037000c007800c6ff07001fb997008b
:10221000afb99700020140008381480092bf9f0040
:10222000a3bf9f00160037000c007800e7fb0700f3
:102230004c009000110020006011b800caf807009f
:102240000005be004c009000880078006011b800c6
:10225000c5f807000004be004c0090008000eb00b1
:102260000a01be00c0f807001fba9700afba970076
:102270000402440085824c0094bf9f00a5bf9f00cc
:102280000c007800a7ff07001fba9700afba9700ad
:102290000001520081815a00030032003c0090008e
:1022a00000b0a000300698003c0290000408a30093
:1022b0000f003200620362000d003a00e00f51008f
:1022c000e08f59000a0035009c0290006128b90097
:1022d000800f5100818f590005003c0002805200a0
:1022e000100698001c0e410006007800150037000b
:1022f0000498a300050032001c0090000000e000dc
:10230000020032000c007800b0fb07008000eb00f8
:1023100011069800ac029000050e78004c00900069
:102320001fb99700afb997008ff80700e00f500072
:10233000e08f580002003d000080eb0001003700f4
:102340000000eb004f0678004f05be004f04be00b2
:102350000080fa00000006000200fa00889fbe001c
:10236000a0ff9f000104780031009000e2006000af
:1023700004003a000003b3003004980011049800f0
:1023800018003700d80490000900e0001a003a0055
:102390006c00600004003a0033000700200498003d
:1023a000e10f400011003a002904980059049800f8
:1023b000380090000020a000300498001904980014
:1023c0004800900012002000e6805700f702070046
:1023d000e10f50001f003200380090000003b300ee
:1023e000300498000080eb001c0037000020200023
:1023f000500498000a00370018019000a8009000cf
:1024000048009000e902070098009000810f5000fa
:1024100003003200380090000003b300300498003d
:10242000100020001004980028009000aff89700da
:102430000148780028009000000ce800b8009000e7
:102440000080eb000158a30004003a000190a000b6
:1024500031049800aff897000180fb004f04be00e4
:102460000080fa0000000600616d80000100e000bd
:102470000300320011007800606d8800030037000f
:102480000020200045f8070080007800e18f400020
:1024900002003a00906e260050408800010078004b
:1024a00000000600616d800001087800606d880002
:1024b000000006000200fa00889fbe008a1f780014
:1024c000000478000000eb00100498003800900031
:1024d0008080eb000008a3003f003200a0da20005b
:1024e0001004e0001000320009d320006ad320005d
:1024f0001a0078006c0545002010b2002110200061
:10250000810f500002003a00090078002ffb0700fd
:10251000ec84440000d92000808f5400f4ff3a007e
:10252000a0da20000048eb0048009000580190001d
:102530000200e0000d003a00120498001200200092
:10254000e8805700c8020700e10f500003003a007e
:102550000ff897008080fb001f00370038009000c4
:102560000040a0003004980012003700a80090003e
:10257000bd020700100498000000e00003003200d4
:10258000e10f40000d003a000300370038009000d2
:102590000040a00002003700380090000003b300a4
:1025a00030049800a8009000010c78000000eb00b7
:1025b000100498008080eb0007003700a80090000e
:1025c000010c78000000e900100498000100780078
:1025d000b080fb00000c7800010078004f05780007
:0c25e0004f04be000080fa00000006005e
:020000040000fa
:0200000401f009
:04000000ffff0000fe
:020000040000fa
:0200000401f009
:04000800ffff0000f6
:020000040000fa
:0200000401f009
:04000c0059ff000098
:020000040000fa
:0200000401f009
:040010007bff000072
:020000040000fa
:0200000401f009
:04001800d7ff00000e
:020000040000fa
:0200000401f009
:04001c00feff0000e3
:020000040000fa
:10000800c01e0000c01e0000c01e0000c01e000070
:10001800c01e0000c01e0000c01e0000c01e000060
:10002800c01e0000c01e0000c01e0000c01e000050
:10003800c01e0000c01e0000c01e0000c01e000040
:020000040000fa
:020000040000fa
:1025ec000a500000434700004d2000002850000016
:1025fc00726f000067720000616d00006d61000079
:10260c00626c000065200000436c00006f630000ea
:10261c006b200000476500006e65000072610000d1
:10262c00746f0000722000004d6f00006475000094
:10263c006c6500002920000056650000722e000019
:10264c00203000002e31000020310000322f00001d
:10265c00303600002f32000030310000310a00000b
:10266c0000430000616c0000637500006c610000a9
:10267c00746900006e6700002e2e00002e2e0000e4
:10268c002e0a00000044000065730000697200000f
:10269c00656400002046000072650000713a00007d
:1026ac0020250000732000004b4800007a0a00002f
:1026bc000041000063740000756100006c20000094
:1026cc0046720000657100003a200000257300007e
:1026dc002e250000732000004b4800007a0a0000f1
:1026ec000a000000456e00007465000072200000b6
:1026fc004e650000772000004672000065710000f6
:10270c002e200000696e0000204b0000487a00006b
:10271c002c2000006f7200002022000053410000aa
:10272c0056450000222000003a2000000a0000005c
:10273c005341000056450000004e00006577000034
:10274c002046000072650000712e0000205300002e
:10275c0061760000656400000a0a00000049000070
:10276c006e760000616c0000696400002046000079
:10277c0072650000712e0000202800006d750000ad
:10278c007374000020620000652000003e3d0000d4
:10279c002031000030300000302000004b48000099
:0c27ac007a2900000a0a0000000000006a
:020000040000fa
:1027b8000800fa001007980080052400003b8800f4
:1027c800f007200032e0b70000e02f00000f78008b
:1027d8009e0078000000eb008008bb000500fc00ac
:1027e8002e00900050052000303b8800a00a2000f1
:1027f800303b880061e7a8000000000000000000ee
:1028080061c7bf0001c8b300014060000004e000d8
:10281800fbff3a0040002400003b8800f00720003e
:1028280032e0b70000e02f00000f78009e0078002b
:102838001e0090008008bb000500fc003e009000d0
:1028480050052000303b8800a00a2000303b88005b
:1028580061e7a800000000000000000061c7bf0099
:1028680001c8b300014060000004e000fbff3a002b
:102878000080fa00000006000200fa00f0072000bd
:1028880032e0b70000e02f00000f78001e0078004b
:102898001000ba000080fa00000006000400fa00e8
:1028a800000f7800110798000b0037001a05070081
:1028b8000004e000fdff3200240507008040780096
:1028c8001e009000014878001e0090000000e800fb
:1028d800100798001e0fe9001e00e000f3ff3a0001
:1028e8001e0078000080fa00000006004000fa0090
:1028f800881f780010179800211798003217980041
:102908000000eb00200798001e109000ae10900009
:10291800e00f5000e08f5800060035001e109000b0
:10292800ae10900046f70700201f9800311f98004e
:10293800170037001e109000ae1090006101600073
:102948006000b8000300200002007000838070005f
:102958001e119000ae1190008301d1000281d300b6
:10296800020070008380700035f70700201f980070
:10297800311f98002e199000be1990002e18900053
:10298800be1890005af70700201f9800311f9800c2
:1029980002002000031224002e189000be18900098
:1029a800b0f70700100f9800210f980000002000d2
:1029b80001f8230030079800410798001e11900085
:1029c800ae11900080a9230001002000800f510063
:1029d800818f59002f003600400020002007980002
:1029e8001e109000ae109000e00f5000e08f5800cd
:1029f800060035001e109000ae10900010f707007a
:102a0800001f9800111f9800170037001e10900033
:102a1800ae109000610160006000b8000300200063
:102a280002007000838070001e119000ae119000ab
:102a38008301d1000281d3000200700083807000fe
:102a4800fff60700001f9800111f98000e1990004c
:102a58009e1990000e1890009e18900024f7070009
:102a6800001f9800111f980002002000030a24008c
:102a78000e1890009e1890007af70700100f980023
:102a8800210f980000002000010024003007980062
:102a9800410798001e119000ae11900000532700c6
:102aa80001002000800f5100818f59002f0036004f
:102ab80060002000200798001e109000ae109000c3
:102ac800e00f5000e08f5800060035001e109000ff
:102ad800ae109000daf6070060179800711798009a
:102ae800170037001e109000ae10900061016000c2
:102af8006000b800030020000200700083807000ae
:102b08001e119000ae1190008301d1000281d30004
:102b18000200700083807000c9f6070060179800f3
:102b2800711798006e119000fe1190006e109000c1
:102b3800fe109000eef607006017980071179800d5
:102b480002002000030424006e109000fe10900084
:102b580044f70700100f9800210f980050552500e2
:102b68005105240030079800410798001e11900075
:102b7800ae11900000a62e0001002000800f510029
:102b8800818f59002f003600100020002007980080
:102b98001e109000ae109000e00f5000e08f58001b
:102ba800060035001e109000ae109000a4f6070035
:102bb8004017980051179800170037001e10900012
:102bc800ae109000610160006000b80003002000b2
:102bd80002007000838070001e119000ae119000fa
:102be8008301d1000281d30002007000838070004d
:102bf80093f6070040179800511798004e1190005f
:102c0800de1190004e109000de109000b8f607001c
:102c180040179800511798004e119000de1190004f
:102c28004e109000de109000b1f60700100f9800cb
:102c3800210f980000002000010a240030079800a6
:102c48004107980000002400c16124007007980023
:102c5800010f980080b22600e1e62c00700f980062
:102c68000117980020002000100798008200370004
:102c7800ccc2bf000080fb004400de006140600061
:102c88000004a20061406000614060004401dd0072
:102c9800c12c200091407800f0ceb30000c0600045
:102ca80002407000cce2b7001e0090000084e800eb
:102cb8006140b90062f60700401f9800511f980054
:102cc8000800e00007003d0002002000037824000f
:102cd8004e189000de18900085f60700401f9800f7
:102ce800511f98004e189000de189000300f980081
:102cf800410f9800a0002000000f7800580037000e
:102d08000060fe009e007800688440006140b900c1
:102d18004bf60700601f9800711f98000800e0003c
:102d280007003d0002002000037824006e18900080
:102d3800fe1890006ef60700601f9800711f98003b
:102d48006e189000fe189000500f9800610f9800c0
:102d580002002400c36924005e089000ee08900079
:102d6800c0f6070050079800610798003e099000d8
:102d7800ce0990005e009000ee009000edf607008e
:102d880050079800610798001e099000ae0990004e
:102d98005e009000ee00900054f6070001f0a100dc
:102da8007e0190008e09900024f707000000e000e3
:102db80001003500290037001e099000ae09900077
:102dc8005e009000ee00900048f6070001f0a100b8
:102dd80070079800010f98002e009000804078003e
:102de8000144a0003e109000014878003e10900079
:102df8008000e8001e0078000000d10080487800bc
:102e08003e1090008080e8001e0090008048780006
:102e18009e007800618060000004e0000800320035
:102e28003e1090000081e8003e1090000080e8000d
:102e38009040780000c8b30000c0700000497800d6
:102e48005e009000ee0090000200200003122400b3
:102e5800b8f60700700f9800011798001e0fe800d9
:102e6800f01f20009e0f1000a5ff36001e009000e6
:102e78000000e800100798009e0090002003200042
:102e8800808f50007aff36003e019000ce019000fe
:102e98007e0890008e10900072f607004f047800ac
:102ea8000080fa00000006000400fa00204798009d
:102eb8002e4090000080fb00401288000000370080
:102ec80040c2bf00624060000004e000fcff3a001e
:102ed80040c2bf00614060000004e000f8ff32001b
:102ee80040128000004f78000080fa0000000600c1
:102ef8000600fa000060fe0030408000414080007b
:102f080010079800210798008040eb00014f7800d7
:102f180000352c00010020001e019000ae01900039
:102f2800800f5100818f59000200360013c0b30092
:102f3800034f78001e019000ae019000610041002f
:102f4800e080490030408800414088009e41780078
:102f58000304e000110032006000b800304088002f
:102f680041408800ccc2bf000080fb004400de0066
:102f7800614060000004a2006140600061406000a0
:102f88004401dd00c12c200091407800f0ceb30050
:102f980000c0600002407000cce2b7000080fa0078
:102fa800000006000c00fa0020079800310798007e
:102fb800420798004e009000100798002e009000dd
:102fc8000000e0001f0035002e009000e20f5000c6
:102fd8001c003c003e009000000f780010003700f5
:102fe800530307000004e000fdff3a001e007800cc
:102ff80010407800ea4f500005003a00d0c0b300f6
:10300800570307004a0307000004e000fdff3a00e9
:103018001e00780010407800510307001e0fe800da
:103028001e0090000000e900100798001e009000a4
:10303800e10f4000eaff3a004e0090005007980068
:103048000400370060002000504088000080eb003a
:10305800500798005e0090000080fa00000006000b
:103068001000fa004007980051079800620798007e
:103078000060fe000000eb00204088004e00900039
:103088000000e000030035004e009000e20f500001
:103098000500340060002000504088000080eb00ec
:1030a800700798009f0037004e009000e10f500015
:1030b800030032004e009000e20f500003003a0077
:1030c8008000eb0071079800960037005e009000c2
:1030d800300798000000eb001007980081003700c7
:1030e8001e009000800078003e0090008080400024
:1030f8000040eb0080487800070307000004e00068
:1031080007003200110307000074a100404798002f
:103118004e409000e34f5000030032001800370083
:1031280073ff0700f4ff3700010307000004e00005
:10313800fdff3a00e0c5b30009030700fc020700e1
:103148000004e000fdff3a0030c4b30004030700a8
:103158001000200020408800be009000a0c0b300ee
:10316800804878003e0090008000e8000040eb00b6
:103178008048780010002000100798005d00370094
:103188004e409000e84f500007003200ce409000bb
:10319800f0c7b30080cf5000030032004e409000cb
:1031a800f54f500029003a001e0090000000e00092
:1031b8004c0032004e409000f54f500003003a009a
:1031c8009e009000010f78001b00370010002000bf
:1031d800000f7800180037001e0090000000e9007a
:1031e800100798001e009000800078003e009000b4
:1031f800808040000040eb0080487800cc02070047
:103208000004e000fdff3a0080c0b300d4020700cc
:10321800c70207000004e000fdff3a0000c2b30047
:10322800cf020700c20207000004e000fdff3a00d9
:1032380080c0b300ca0207001e0fe9000080eb003f
:103248009e0f1000e4ff3a00260037004e40900021
:10325800ed4f5000030032004e409000ff4f5000e9
:1032680020003600ce409000e0c7b30080cf500069
:103278001c003e004e409000ed4f500002003a0006
:10328800a0c0b300404798001e009000800078005e
:103298003e00900000804000ce4090000148780039
:1032a8001e0090000000e800100798001e00900023
:1032b800800078003e009000808040000040eb00d5
:1032c800804878004e409000ea4f500009003200d4
:1032d800970207000004e000fdff3a004e4090000e
:1032e8009f0207009e0090006e009000808f5000a3
:1032f8007bff39008e0207000004e000fdff3a0062
:10330800d0c0b30096020700890207000004e0005d
:10331800fdff3a00a0c0b300910207001e00900014
:10332800700798007e0090000080fa0000000600f8
:103338001200fa006007980071079800020f9800c1
:103348000000eb00000f78006e009000fe00900077
:10335800e00f5000e08f5800400032000040eb00c2
:10336800204f980000a02c00a1b923001007980056
:1033780021079800350037001e019000ae0190002b
:103388006e009000fe009000aef507003007980030
:10339800410798003e009000ce009000e00f5000da
:1033a800e08f580002003a001e00e0001d003200c5
:1033b8003e0090000043b000804078000e08900066
:1033c800014878000e0890000000e800000f9800ff
:1033d800be0090001e009000000ab800be009000d9
:1033e8002e0090000088b900050178000001410016
:1033f8009e0090004e0090000088b9000001410036
:10340800820278006e009000fe00900004005000d8
:103418008580580060079800710798001000200008
:10342800000f78001e009000ae009000a20020005f
:103438000300200083f50700100798002107980073
:103448002e4890000040e800204f98002e48900039
:10345800e94f5000c8ff3600060037008e0890007c
:1034680000c3b300804878000e0890000000e80010
:10347800000f98008e0890000040eb00804878000c
:103488000080fa00000006001000fa0060079800ab
:103498007107980010002000000f78000040eb0032
:1034a800204f9800400620000100200010079800d7
:1034b80021079800330037006e00900001002000bb
:1034c8001e019000ae0190005ef5070030079800dd
:1034d800410798003e009000ce009000e00f500099
:1034e800e08f580002003a001e00e0001b00320086
:1034f8003e0090000043b000804078007e009000bd
:10350800014878007e0090000000e80070079800ed
:10351800be0090001e009000000ab800be00900097
:103528002e0090000088b9000501780000014100d4
:103538009e0090004e0090000088b90000014100f4
:1035480082027800840078006e009000010050002c
:103558006007980010002000000f78001e009000ff
:10356800ae009000a20020000300200035f50700ff
:1035780010079800210798002e4890000040e800a6
:10358800204f98002e489000e24f5000caff3600a6
:10359800fe0090000040eb00804878000080fa00b0
:1035a800000006003600fa000000eb00203a880010
:1035b8001200200081072000a00920003374200099
:1035c80081497800804978008249780012002000fb
:1035d80061042000700520002374200081497800d0
:1035e80080497800824978000000eb0000168800c6
:1035f80060002200401688000000eb0020168800ba
:1036080000312000601688000000eb0000278800c9
:103618000000eb00102788003012200010128800ec
:103628000000eb0000128800c442a9000000eb0073
:10363800204088006000b800304088004140880081
:1036480000002800001188000040200010118800a8
:10365800700620004011880010002000406d88008e
:1036680085fc0700010020004007980051079800da
:103678004e009000de009000e00f5000e08f5800f0
:1036880004003a000084230001002000400798004d
:1036980051079800602f29009df6070000003700a9
:1036a800703329009af60700028020004e0090002f
:1036b800de0090008dfc0700008fbe006e01470001
:1036c8004e009000de00900019ff07006e004700d2
:1036d800801f780090342900801f780096f6070034
:1036e800e487570002002000a34724001e00be0004
:1036f8005cf40700e3f407002007980031079800fe
:103708006e0147002e009000be00900008ff0700e1
:10371800ee004700200220000e0040008df6070052
:103728006e00470093f60700600798006e0090004f
:10373800e30050006e004700808040000040eb002e
:1037480080487800ee009000200220000e00400023
:103758000100400063005000801f78006e004700a1
:10376800801f7800f0352900801f780072f6070066
:10377800e68757000000eb00600798000400370058
:10378800000000006e0090000000e800600798004c
:10379800ee009000703e2000808f5000f8ff360049
:1037a80000402000203a8800720020008107200095
:1037b800a0092000337420008149780080497800ee
:1037c8008249780012002000610420007005200062
:1037d8002374200081497800804978008249780064
:1037e800cde2a80041e2a8000040eb00aefd0700d2
:1037f80000c8bf00acfd070001c8bf00aafd070054
:1038080002c8bf00a8fd070041e2a90000000000af
:1038180000000000c442a8000000000000000000f2
:10382800c442a9000000eb006007980004003700bc
:10383800000000006e0090000000e800600798009b
:10384800ee00900030062000808f5000f8ff360010
:10385800cd02a900cd22a9000000eb00203a880083
:103868001200200081072000a009200033742000e6
:103878008149780080497800824978001200200048
:10388800610420007005200023742000814978001d
:1038980080497800824978000000eb0060079800b2
:1038a80004003700000000006e0090000000e800ef
:1038b80060079800ee009000703e2000808f500056
:1038c800f8ff360080372900801f78001af60700b5
:1038d8008f87e900c0d320003af607006e00470042
:1038e80002d320003101200060f60700204080004c
:1038f8000000e0006aff3a006e0047001df607006e
:10390800e10f500066ff36006e004700e1392900dc
:1039180081f607000000e000070032004e0090002a
:10392800a3fb0700303a2900801f780002f6070041
:103938008f87e9005aff37006e0047008df60700b1
:1039480020079800310798002e019000be019000d2
:10395800703e200001002000800f5100818f590027
:10396800050036002e009000be0090004007980029
:10397800510798004aff3700503b2900801f780004
:0c398800edf507008f87e90045ff3700d0
:020000040000fa
:10399400000800000a00000000000000a80d00005c
:1039a4000200000002000000010000000a080000fc
:1039b40002000000000000002e0d00006200000064
:1039c40002000000300d0c000a0000000c0a09007f
:1039d4000000000000020c00080000000c080a00af
:1039e40003010000000200000000000000000600c7
:1039f40002020000000000000000000000000000bf
:103a040000000000000000000000000000000000b2
:103a140000000000000000000000000000000000a2
:103a24000000000000000000000000000000000092
:103a34000000000000000000000000000000000082
:103a440000000000000000000c0800000204000058
:103a540000000000aa0d00000200000000000000a9
:103a64000e0c000020010000020000000100000014
:103a74000000000000001000000000000000000032
:103a84000000010000000000000000000010000021
:103a94000000000000000000000100000000000021
:103aa4000000000010000000000000000000000002
:103ab40001000000000000000000100000000000f1
:103ac40000000000000001000000000000000000f1
:103ad40000100000000000000000000000010000d1
:103ae40000000000000000001000000000000000c2
:103af40000000000010000000000000000001000b1
:103b040000000000000000000000010000000000b0
:103b14000000000000100100000000000000000090
:103b2400000a000000000000000000006400000023
:103b3400000000000000e800030000000000000096
:103b4400001027000000000000000000a086010013
:103b54000000000000004000420f000000000000d0
:103b640000809600980000000000000000e1f500cd
:103b74000500000000000000ca9a3b00000000009d
:103b84000000e4000b5402000000000000e876008e
:103b9400481700000000000010a5d400e800000051
:103ba4000000a000724e18000900000000407a00d6
:103bb40010f35a000000000080c6a4007e8d0300ac
:103bc40000000000c16ff2008623000000008a009c
:103bd4005d784500630100000064a700b3b6e0000f
:103be4000d000000e889040023c78a00900d00003e
:103bf4001800000002000000286e75006c6c29009b
:103c04000030310032333400353637003839610042
:103c14006263640065660000ac0d000002000000f1
:103c240000000000ae0d00000200000000000000d3
:103c3400b00d0000020000000000000000000000c1
:020000040000fa
:103c44000200fa00000f78000900370023c2bf0009
:103c5400614060000004e000fcff32001e007800b8
:103c6400104078000000fb00201188001e0fe800bf
:103c74001e007800104078000004e000f3ff3a00d2
:103c84000080fa00000006000a00fa0010079800fd
:103c940021079800320798000000eb00000f78001d
:103ca400160037003e0090009e0f10000200310005
:103cb4001e0fe800030037001e0090004007980024
:103cc40013003700150007000004e000f5ff320080
:103cd4000000eb00000f7800311180002e009000ee
:103ce400010878002e0090000080e800200798006a
:103cf4001e0090000000e900100798001e009000cc
:103d04000000e000efff3a001e009000400798001a
:103d14004e0090000080fa00000006000000fa0047
:103d240022c2bf00614060000080fb000080fa00f6
:103d3400000006000000fa0023c2bf000004a20035
:103d44000000fb00610060000080fa000000060033
:103d54000000fa00301180000000fb000080fa002f
:103d6400000006000200fa00004f78001e00fb006d
:0c3d7400201188000080fa00000006000a
:020000040000fa
:043d80000000fe0041
:020000040000fa
:0200000400fffb
:04fc00000000000000
:00000001FF
