:020000040000FA
:060000003AEF62F012006D
:020006001200E6
:060008004AEF00F01200B7
:02000E000B00E5
:10001000DAC40000AA03000001000000D9C40000F7
:10002000A903000001000000D6C40000A0030000E6
:1000300003000000D2C400009C0300000400000084
:10004000D1C40000A803000001000000CFC40000DC
:10005000A503000002000000CEC40000A7030000BA
:1000600001000000CAC40000980300000400000062
:10007000C8C40000A303000002000000BFC40000C9
:10008000E602000009000000BDC40000FE020000FE
:04009000020000006A
:0C009400E9CFE4FFEACFE4FFF6CFE4FF81
:1000A000F7CFE4FFF5CFE4FFF3CFE4FFF4CFE4FFB5
:1000B000FACFE4FF00EE00F0140EE80403E3EECF05
:1000C000E4FFFBD7E652D9CFE6FFDACFE6FFE1CF78
:1000D000D9FFE2CFDAFF1E0EE12402E3E168E65227
:1000E000E16EF2A407D00301982B000E99239A2306
:1000F0009B23F2949E50010B01E105D19D50010B11
:1001000001E101D1CD90D60ECE6ED30ECF6ECD8053
:10011000C2820401365104E05D2B000E5E2303D041
:100120005F2B000E6023D950100FE96EDACFEAFF83
:10013000000EEA22000EEE6E050EED6ED950100F85
:10014000E96E000EDA20EA6E0051EE260151ED2232
:10015000100EDBCFE9FF110EDBCFEAFFEF34F76AB9
:10016000FE0BF736F66ED20EF626980EF722090031
:10017000160EF5CFDBFF0A00170EF5CFDBFF160ECC
:10018000DBCF24F0170EDBCF25F00001800E251405
:1001900011E008680968160EDBCF0DF0170EDBCFF3
:1001A0000EF0A3EC5FF0140E06C0DBFF150E07C0C7
:1001B000DBFF0CD0160EDBCF08F0170EDBCF09F0FB
:1001C000140E08C0DBFF150E09C0DBFF140EDBCFD9
:1001D00024F0150EDBCF25F0070ED89025322432FF
:1001E000E804FBE1140E24C0DBFF150E25C0DBFF85
:1001F000160EDBCF24F0170EDBCF25F00001800EAA
:10020000251410E008680968140EDBCF0DF0150EF8
:10021000DBCF0EF0A3EC5FF0140E06C0DBFF150E73
:1002200007C0DBFFD950140FE96E000EDA20EA6E2A
:10023000800EEE26000EED22140EDBCF08F0150E18
:10024000DBCF09F0120E08C0DBFF130E09C0DBFF85
:10025000100EDBCFE9FF110EDBCFEAFFEF680401E0
:10026000002B000E0123010141510401005D010139
:1002700042510401015902E3006B016B120EDBCF06
:100280007BF4DBCF24F0130EDBCF25F0060ED890E5
:1002900024362536E804FBE1120E24C0DBFF130EE2
:1002A00025C0DBFF0D0EBACFDBFFDB98DB9AFF0E1C
:1002B000E76E120EDBCF24F0130EDBCF25F0E750F4
:1002C0002416256AD89025322432D890253224323B
:1002D0000D0EDBCFE7FF2450E7120D0EE7CFDBFF5B
:1002E000120EDBCF24F0130EDBCF25F025C024F057
:1002F000256A0E0E24C0DBFF0D0EDB50BA6E0E0E0B
:10030000DB50BB6E9E909E50400B01E189D09D500A
:10031000400B01E185D0C450266E26C027F0266A26
:10032000C35000012624246E000E2720256E180ECF
:1003300024C0DBFF190E25C0DBFFD950180FE96E72
:10034000000EDA20EA6EEE52030EED16180EDBCF29
:1003500024F0190EDBCF25F0020E245C000E255888
:100360000AE3D950180FE96E000EDA20EA6E020E89
:10037000EE5E000EED5A0201F55117E0180EDBCFCC
:10038000F6FF190EDBCFF7FFD20EF626940EF722FA
:100390000800F550E66E600EF625E96E000EF721B6
:1003A000EA6EE552E750EF6E16D0180EDBCFF6FF7F
:1003B000190EDBCFF7FFD20EF626940EF7220800B7
:1003C000F550E66E000EF625E96E020EF721EA6E94
:1003D000E552E750EF6EF62B000EF723A00EF65D08
:1003E000000EF7591CE3F66BF76BF57100C402F4CD
:1003F00001C403F4020E04016927000E6A236B2373
:100400006C23615162116311641106E0020E6127D1
:10041000000E6223632364230201010EF86F9E9C89
:100420001E0EE15C02E2E16AE552E16EE552E5CFC3
:10043000DAFFE7CFD9FFE55200EE13F0140EE8041F
:1004400003E3E5CFEDFFFBD7E5CFFAFFE5CFF4FF00
:10045000E5CFF3FFE5CFF5FFE5CFF7FFE5CFF6FFFB
:10046000E5CFEAFFE5CFE9FF1100D9CFE6FFDACF0C
:10047000E6FFE1CFD9FFE2CFDAFFE652E652E652DD
:10048000E652DE68DE68DE68DD68DD52DD52D95096
:10049000FC0FE96EFF0EDA20EA6EEE50ED1067E019
:1004A000FC0EDBCFE9FFFD0EDBCFEAFFEF505FE094
:1004B000D9CFE9FFDACFEAFFEECF20F0EECF21F07F
:1004C000EECF22F0EFCF23F0080ED8902332223265
:1004D00021322032E806F9E1FC0EDBCFE9FFDB2A0E
:1004E000FD0EDBCFEAFF01E3DB2AEFCF1CF01D6A34
:1004F0001E6A1F6AD9CFE9FFDACFEAFFEE501C1857
:10050000186EEE501D18196EEE501E181A6EEE5031
:100510001F181B6E196A1A6A1B6A18C0F6FF19C0E9
:10052000F7FFD890F636F736D890F636F736D20E73
:10053000F6269A0EF7220900F5502018146E0900CD
:10054000F5502118156E0900F5502218166E090095
:10055000F5502318176E14C0DFFF010E15C0DBFF26
:10056000020E16C0DBFF030E17C0DBFF90D7D95079
:10057000FA0FE96EFF0EDA20EA6EEE50ED1067E03A
:10058000FA0EDBCFE9FFFB0EDBCFEAFFEF505FE0B7
:10059000D9CFE9FFDACFEAFFEECF20F0EECF21F09E
:1005A000EECF22F0EFCF23F0080ED8902332223284
:1005B00021322032E806F9E1FA0EDBCFE9FFDB2A2F
:1005C000FB0EDBCFEAFF01E3DB2AEFCF1CF01D6A55
:1005D0001E6A1F6AD9CFE9FFDACFEAFFEE501C1876
:1005E000186EEE501D18196EEE501E181A6EEE5051
:1005F0001F181B6E196A1A6A1B6A18C0F6FF19C009
:10060000F7FFD890F636F736D890F636F736D20E92
:10061000F6269A0EF7220900F5502018146E0900EC
:10062000F5502118156E0900F5502218166E0900B4
:10063000F5502318176E14C0DFFF010E15C0DBFF45
:10064000020E16C0DBFF030E17C0DBFF90D7D9CF19
:10065000E9FFDACFEAFFEECF14F0EECF15F0EECFE0
:1006600016F0EFCF17F0141E151E161E171E14C01D
:1006700006F015C007F016C008F017C009F0040E08
:10068000E15C03E200D0E16AE552E16EE552E5CFBC
:10069000DAFFE7CFD9FF1200D9CFE6FFDACFE6FFC6
:1006A000E1CFD9FFE2CFDAFFE652E652690EDF6E04
:1006B000010EDB6A040EF36E010EDBCFF4FFF35084
:1006C000F45C0CE2010EDB50EA6AA70FE96E010E42
:1006D000EA22EF50DF26010EDB2AECD7DF5000D0F4
:1006E000E552E552E552E5CFDAFFE7CFD9FF120038
:1006F0000101A65105E18250100B02E0010E09D064
:10070000A60505E18250100B02E1010E02D0000E99
:1007100000D01200D9CFE6FFDACFE6FFE1CFD9FF54
:10072000E2CFDAFF060EE12402E3E168E652E16E71
:10073000D950FC0F146EFF0EDA20156E020E14C095
:10074000DBFF030E15C0DBFFD9CF14F0DACF15F0B5
:10075000040E14C0DBFF050E15C0DBFF010EE76EB3
:10076000020EDBCFE9FF030EDBCFEAFFE750E926FD
:10077000000EEA22EF50E66E040EDBCFE9FF050E15
:10078000DBCFEAFFE552E750EF6E020EDBCFE9FF69
:10079000030EDBCFEAFFEF50E66E010EE76E040EAC
:1007A000DBCFE9FF050EDBCFEAFFE750E926000EBD
:1007B000EA22E552E750EF6EDECF14F0DDCF15F000
:1007C00014C0F3FF15C0F4FF060EE15C03E200D095
:1007D000E16AE552E16EE552E5CFDAFFE7CFD9FFF6
:1007E0001200D9CFE6FFDACFE6FFE1CFD9FFE2CFA3
:1007F000DAFF060EE12402E3E168E652E16ED95029
:10080000FC0F146EFF0EDA20156E020E14C0DBFF13
:10081000030E15C0DBFFD9CF14F0DACF15F0040EAC
:1008200014C0DBFF050E15C0DBFF010EE76E020EE4
:10083000DBCFE9FF030EDBCFEAFFE750E926000E2E
:10084000EA22EF50E66E040EDBCFE9FF050EDBCFA8
:10085000EAFFE552E750EF6E020EDBCFE9FF030E31
:10086000DBCFEAFFEF50E66E010EE76E040EDBCF42
:10087000E9FF050EDBCFEAFFE750E926000EEA228A
:10088000E552E750EF6EDECF14F0DDCF15F014C067
:10089000F3FF15C0F4FF060EE15C03E200D0E16A4D
:1008A000E552E16EE552E5CFDAFFE7CFD9FF12005E
:1008B000D9CFE6FFDACFE6FFE1CFD9FFE2CFDAFF0B
:1008C000080EE12402E3E168E652E16ED950FA0F26
:1008D000146EFF0EDA20156E040E14C0DBFF050E39
:1008E00015C0DBFFD9CF14F0DACF15F0060E14C017
:1008F000DBFF070E15C0DBFF030EE76E040EDBCF38
:10090000E9FF050EDBCFEAFFE750E926000EEA22F9
:10091000EF50E66E060EDBCFE9FF070EDBCFEAFFF6
:10092000E552E750EF6E020EE76E040EDBCFE9FFF3
:10093000050EDBCFEAFFE750E926000EEA22EF5072
:10094000E66E010EE76E060EDBCFE9FF070EDBCF8A
:10095000EAFFE750E926000EEA22E552E750EF6E83
:10096000010EE76E040EDBCFE9FF050EDBCFEAFFD9
:10097000E750E926000EEA22EF50E66E020EE76E1F
:10098000060EDBCFE9FF070EDBCFEAFFE750E926D3
:10099000000EEA22E552E750EF6E040EDBCFE9FFCE
:1009A000050EDBCFEAFFEF50E66E030EE76E060E94
:1009B000DBCFE9FF070EDBCFEAFFE750E926000EA9
:1009C000EA22E552E750EF6EDECF06F0DECF07F009
:1009D000DECF08F0DDCF09F0DD52DD52080EE15C1C
:1009E00003E200D0E16AE552E16EE552E5CFDAFFBD
:1009F000E7CFD9FF1200D9CFE6FFDACFE6FFE1CF8C
:100A0000D9FFE2CFDAFF080EE12402E3E168E65203
:100A1000E16ED950FA0F146EFF0EDA20156E040E37
:100A200014C0DBFF050E15C0DBFFD9CF14F0DACF01
:100A300015F0060E14C0DBFF070E15C0DBFF030E1A
:100A4000E76E040EDBCFE9FF050EDBCFEAFFE750D0
:100A5000E926000EEA22EF50E66E060EDBCFE9FF34
:100A6000070EDBCFEAFFE552E750EF6E020EE76EAE
:100A7000040EDBCFE9FF050EDBCFEAFFE750E926E6
:100A8000000EEA22EF50E66E010EE76E060EDBCF97
:100A9000E9FF070EDBCFEAFFE750E926000EEA2266
:100AA000E552E750EF6E010EE76E040EDBCFE9FF73
:100AB000050EDBCFEAFFE750E926000EEA22EF50F1
:100AC000E66E020EE76E060EDBCFE9FF070EDBCF08
:100AD000EAFFE750E926000EEA22E552E750EF6E02
:100AE000040EDBCFE9FF050EDBCFEAFFEF50E66E29
:100AF000030EE76E060EDBCFE9FF070EDBCFEAFF42
:100B0000E750E926000EEA22E552E750EF6EDECF0D
:100B100006F0DECF07F0DECF08F0DDCF09F0DD52C2
:100B2000DD52080EE15C03E200D0E16AE552E16EBD
:100B3000E552E5CFDAFFE7CFD9FF1200D9CFE6FFC4
:100B4000DACFE6FFE1CFD9FFE2CFDAFF1F0EE124D3
:100B500002E3E168E652E16E060E02C4DBFF070E17
:100B600003C4DBFF080E69C4DBFF090E6AC4DBFFA8
:100B70000A0E6BC4DBFF0B0E6CC4DBFF0C0E61C4F2
:100B8000DBFF0D0E62C4DBFF0E0E63C4DBFF0F0E36
:100B900064C4DBFF0201F85101E155D10401365173
:100BA00007E0A6DD000906E1020E04017A1502E164
:100BB000000E01D0010EE76E100EE7CFDBFF020141
:100BC000F86B0401365105E1A00E5F5D0F0E605910
:100BD00004E2100EDB5001E136D1FC0EDBCFE9FF61
:100BE000FD0EDBCFEAFFEF50E66ECDEC28F0E552CC
:100BF000F3CF14F0F4CF15F01450151001E123D108
:100C0000FA0EDBCFE9FFFB0EDBCFEAFF040EE9268D
:100C1000000EEA22EECF14F0EECF15F0EECF16F074
:100C2000EECF17F0EECF18F0EFCF19F003018C5193
:100C30000E0DF3CFE9FFF4CFEAFF000EE926030E15
:100C4000EA22040EE926000EEA2214C0EEFF15C0C7
:100C5000EEFF16C0EEFF17C0EEFF18C0EEFF19C082
:100C6000EEFF180EE66EE66AE66A000EE66E0E0EFF
:100C7000E66EE9EC5DF0146E050EE15C02E2E16AFD
:100C8000E552E16E14500E01006B016B026B036BB9
:100C9000D950080FE96E000EDA20EA6EEECFE6FFBB
:100CA000EECFE6FFEECFE6FFEFCFE6FF01DEE55247
:100CB000E552E552E55206C004FE07C005FE08C035
:100CC00006FE09C007FE860EE66E040EE66E080EEE
:100CD000E66E0E0EE66E37EC5EF0E552E552E5523A
:100CE000E55271C4E6FF72C4E6FF73C4E6FF74C444
:100CF000E6FFDEDDE552E552E552E55206C012FEA2
:100D000007C013FE08C014FE09C015FE100EDB500C
:100D10000AE0040EE66EE66AFDDCE552E552F3CF2A
:100D200016FEF4CF17FE020EDB6AD950040FE96EEF
:100D3000DACFEAFF000EEA22000EEE6E0E0EED6E26
:100D4000020EDB6ADB50146E156A180E145C000E7E
:100D5000155811E2040EDBCFE9FFDB2A050EDBCFCD
:100D6000EAFF01E3DB2AEF50E66E13EC29F0E552CF
:100D7000020EDB2AE7D7100EDB505BE0B9DC00097E
:100D800041E0E66813EC29F0E5520201F5511DE05F
:100D9000020EDB6ADB50146E156AD890155004E61B
:100DA000A00E145C000E15580FE2020EDB50EA6A2A
:100DB000000FE96E020EEA22EF50E66E13EC29F006
:100DC000E552020EDB2AE6D71CD0020EDB6ADB50AE
:100DD000146E156AD890155004E6A00E145C000E2F
:100DE00015580FE2020EDB50EA6A600FE96E000E42
:100DF000EA22EF50E66E13EC29F0E552020EDB2AF0
:100E0000E6D716D0E66A13EC29F0E552020EDB6A4B
:100E1000030EDB50F36E020EDBCFF4FFF350F45CF5
:100E200007E2E66813EC29F0E552020EDB2AF0D760
:100E300005D0200EE66E13EC29F0E552CBEC2AF03B
:100E400004015F6B606BFC0EDBCFE9FFFD0EDBCFB7
:100E5000EAFFEF50E66E28EC2CF0E552F3CF14F0E9
:100E6000F4CF15F01450151001E1CBD3DF6AD9503F
:100E7000040FE96EDACFEAFF000EEA22000EEE6EF2
:100E80000E0EED6ED950010FE66E000EDA20E66E02
:100E900056EC2CF0E552E552000916E0DF50DF2A4F
:100EA000146E156AB90E145C000E15580CE2040E8F
:100EB000DBCFE9FFDB2A050EDBCFEAFF01E3DB2A0C
:100EC000010EDBCFEFFFDED7DF50146E156A180E70
:100ED000145C000E155801E292D37C0EE66E040EEF
:100EE000E66E080EE66E0E0EE66E17EC5EF0E5524C
:100EF000E552E552E55200092FE00401366B696BBB
:100F00006A6B6B6B6C6B656B666B676B686B7D0E8E
:100F1000E66E010EE66E080EE66E0E0EE66E35EC1F
:100F200002F0E552E552E552E55206C071F407C001
:100F300072F408C073F409C074F4080EE66E0E0E65
:100F4000E66E7C0EE66E040EE66E37EC5EF0E55261
:100F5000E552E552E55253D304016D516E116F1104
:100F600070112FE00E01125113111411151129E007
:100F700012CEE6FF13CEE6FF14CEE6FF15CEE6FF57
:100F80003ADDE552E552E552E55204016D5106188D
:100F900009E16E51071806E16F51081803E170511D
:100FA000091800E10EE116CEE6FF17CEE6FF19DCC8
:100FB000E552E552F3CF14F0F4CF15F014501510AC
:100FC0006CE1910EE66E010EE66E860EE66E040E84
:100FD000E66E35EC02F0E552E552E552E55206C008
:100FE00075F407C076F408C077F409C078F412CE1F
:100FF000E6FF13CEE6FF14CEE6FF15CEE6FFFBDCE0
:10100000E552E552E552E55204017551061809E131
:101010007651071806E17751081803E1785109184D
:1010200000E12DE175C46DF476C46EF477C46FF4FD
:1010300078C470F4365102E15D6B5E6B010E366F61
:10104000DF50146E156A180ED8801454000E155413
:1010500003E218CE7AF401D07A6B7ABB0FD0010E7E
:10106000796F366B696B6A6B6B6B6C6B656B666B00
:10107000676B686B6D6B6E6B6F6B706B0DD0366BE7
:10108000696B6A6B6B6B6C6B656B666B676B686BC4
:101090006D6B6E6B6F6B706BB2D20401365102E1F7
:1010A0005D6B5E6B010E366F16CEE6FF17CEE6FF68
:1010B000F1EC03F0E552E552F3CF14F0F4CF15F064
:1010C000040E141801E1155001E099D2080E69C40C
:1010D000DBFF090E6AC4DBFF0A0E6BC4DBFF0B0EDD
:1010E0006CC4DBFF65C414F066C415F067C416F069
:1010F00068C417F0020E1426000E152216221722BD
:10110000D950080FE96E000EDA20EA6E030EEBCF1D
:10111000F3FF1750F318E8AE02D0F33408D0EE50C6
:10112000145CEE501558EE501658EE50175805E264
:101130000401616B626B636B646B080EDBCF65F45B
:10114000090EDBCF66F40A0EDBCF67F40B0EDBCFA4
:1011500068F40401615162116311641121E104CE4C
:10116000E6FF05CEE6FF06CEE6FF07CEE6FF43DC50
:10117000E552E552E552E55206C061F407C062F45B
:1011800008C063F409C064F40C0E06C0DBFF0D0E4A
:1011900007C0DBFF0E0E08C0DBFF0F0E09C0DBFF30
:1011A0000C0EDBCF18F00D0EDBCF19F00E0EDBCFDF
:1011B0001AF00F0EDBCF1BF018C0E6FF19C0E6FFD8
:1011C0001AC0E6FF1BC0E6FF04CEE6FF05CEE6FF31
:1011D00006CEE6FF07CEE6FF0EDCE552E552E5520D
:1011E000E552E552E7CF1BF0E552E7CF1AF0E552A2
:1011F000E7CF19F0E552E7CF18F000011850065C70
:10120000146E19500758156E1A500858166E1B5058
:101210000958176E110E14C0DBFF120E15C0DBFF4C
:10122000130E16C0DBFF140E17C0DBFFD950110FD1
:10123000E96E000EDA20EA6EA00E0B6E0C6A0D6AE3
:101240000E6AEECF06F0EECF07F0EECF08F0EFCF4C
:1012500009F096EC61F005C0EDFF04C0EDFF03C09E
:10126000EDFF02C0EFFFD950110FE96E000EDA203A
:10127000EA6E400EEE5E010EEE5A000EEE5AEE5A87
:1012800041C114F042C115F0400E145E010E155A12
:10129000166A176AD950110FE96E000EDA20EA6E4D
:1012A0001450EE261550EE221650EE221750EE2264
:1012B000110EDBCF07F0120EDBCF08F0130EDBCFE1
:1012C00009F0140EDBCF0AF00A34000E0A1809E602
:1012D000D880000E0754000E0854000E0954000E6A
:1012E0000A5401E386D141C114F042C115F0400E09
:1012F000145E010E155A166A176AD950110FE96E5D
:10130000000EDA20EA6E030EEBCFF3FF1750F3184E
:10131000E8AE02D0F33408D0EE50145CEE5015580D
:10132000EE501658EE50175801E263D1110EDBCF84
:1013300006F0120EDBCF07F0130EDBCF08F0140E11
:10134000DBCF09F0A00E0B6E0C6A0D6A0E6A6FEC13
:101350005FF01B0E06C0DBFF1C0E07C0DBFF1D0E7F
:1013600008C0DBFF1E0E09C0DBFFD9501B0FE96E62
:10137000000EDA20EA6E04016951EE24146E6A51FF
:10138000EE20156E6B51EE20166E6C51EE20176E2E
:1013900068511718E8AE02D0173408D01450655DB4
:1013A00015506659165067591750685912E2D950AE
:1013B0001B0FE96E000EDA20EA6E6951EE24656FAC
:1013C0006A51EE20666F6B51EE20676F6C51EE2014
:1013D000686F060EDBCF14F0070EDBCF15F0166A30
:1013E000176AD950110FE96E000EDA20EA6E145018
:1013F000EE261550EE221650EE221750EE2241C175
:1014000014F042C115F0166A176AD950110FE96E2F
:10141000000EDA20EA6E030EEB501718E8AE02D089
:10142000173408D01450EE5C1550EE581650EE5894
:101430001750EE5814E341C114F042C115F0166A7A
:10144000176AD950110FE96E000EDA20EA6E1450B7
:10145000EE5E1550EE5A1650EE5A1750EE5A150E13
:1014600041C1DBFF160E42C1DBFFA00EE76E110E7D
:10147000DBCF14F0120EDBCF15F0E7501426000E70
:101480001522D950150FE96E000EDA20EA6E1450BD
:10149000EE5E1550ED5AD950170FE96EDACFEAFF1C
:1014A000000EEA22000EEE6E050EED6E110EDBCF81
:1014B00014F0120EDBCF15F0D950170FE96E000EA5
:1014C000DA20EA6E1450EE261550ED22150EDBCF11
:1014D00014F0160EDBCF15F00001800E151418E184
:1014E000A00EE66EE66A190EE66E0E0EE66E170E9A
:1014F000DBCFE6FF180EDBCFE6FF9BEC5DF0146E52
:10150000060EE15C02E2E16AE552E16E145070D031
:10151000150EDBCF14F0160EDBCF15F0A00E14263F
:10152000000E152214C0E6FF15C0E6FF190EE66E88
:101530000E0EE66E170EDBCFE6FF180EDBCFE6FFD2
:101540009BEC5DF0166E060EE15C02E2E16AE5528C
:10155000E16E1650D950170FE96EDACFEAFF000E90
:10156000EA22000EEE6E050EED6ED950190FE96EEF
:10157000DACFEAFF000EEA22190EEE6E0E0EED6EC5
:10158000150EDBCF14F0160EDBCF15F0A00E1426CF
:10159000000E1522D950190FE96E000EDA20EA6EFE
:1015A0001450EE261550ED22150EDBCF14F0160E5A
:1015B000DBCF15F0146C151E000E152214C0E6FFCB
:1015C00015C0E6FF190EDBCFE6FF1A0EDBCFE6FFF4
:1015D000170EDBCFE6FF180EDBCFE6FF9BEC5DF0CE
:1015E000166E060EE15C02E2E16AE552E16E16500B
:1015F00006D0897A0401616B626B636B646BF3ECF8
:101600002CF00401365101E1BBD0E00E5D5D2E0EE1
:101610005E5901E2B5D0FC0EDBCFE9FFFD0EDBCF5A
:10162000EAFFEF50E66ECDEC28F0E552F3CF14F070
:10163000F4CF15F01450151001E1A2D0FA0EDBCF53
:10164000E9FFFB0EDBCFEAFF040EE926000EEA22DB
:10165000EECF14F0EECF15F0EECF16F0EECF17F080
:10166000EECF18F0EFCF19F003018C510E0DF3CF30
:10167000E9FFF4CFEAFF000EE926030EEA22040E8A
:10168000E926000EEA2214C0EEFF15C0EEFF16C0D8
:10169000EEFF17C0EEFF18C0EEFF19C0EEFF040109
:1016A000046B056B066B076BE66AE66AE66AE66A38
:1016B00058EC04F0E552E552E552E55206C008F454
:1016C00007C009F408C00AF409C00BF4860EE66EE0
:1016D000040EE66E0C0EE66E040EE66E37EC5EF05F
:1016E000E552E552E552E55271C4E6FF72C4E6FFE9
:1016F00073C4E6FF74C4E6FF58EC04F0E552E5520B
:10170000E552E55206C016F407C017F408C018F4F5
:1017100009C019F4020EE66EE66A8AEC03F0E5529F
:10172000E552F3CF1AF4F4CF1BF4D950040FE96E4D
:10173000DACFEAFF000EEA22040EEE6E040EED6E22
:10174000020EDB6ADB50146E156A180E145C000E74
:10175000155811E2040EDBCFE9FFDB2A050EDBCFC3
:10176000EAFF01E3DB2AEF50E66E13EC29F0E552C5
:10177000020EDB2AE7D7CBEC2AF004015D6B5E6B2F
:101780001F0EE15C02E2E16AE552E16EE552E5CF4F
:10179000DAFFE7CFD9FF12000401010E386F010113
:1017A0003A51200B04E03A51400B01E09DD04551E5
:1017B00001E19AD004015751581117E1B8EC3DF0FE
:1017C000780E0401576F586B596BAFEC3DF0000970
:1017D0000BE0010EE66E450EE66E010EE66ECCECF9
:1017E0003DF0E552E552E5527FD0595101E07CD001
:1017F0004B0EE66E040EE66E34EC3EF0E552E5521A
:10180000000972E0B8EC3DF0000968E0040EE66EF5
:10181000E66A4B0EE66E040EE66E4F0EE66E040EA2
:10182000E66E72EC5DF0146E060EE15C02E2E16AB7
:10183000E552E16E1450000948E0FF0E0401405DDE
:1018400005E040C4E6FF31EC28F0E5520A0EE66EF2
:10185000E66AE66A410EE66E040EE66EE9EC5DF0BD
:10186000146E050EE15C02E2E16AE552E16E14508D
:101870004BC441F44CC442F44DC443F44EC444F44C
:1018800077C1E6FF78C1E6FF410EE66E040EE66E14
:101890007BC1E6FF7CC1E6FF51EC27F0146E060E1B
:1018A000E15C02E2E16AE552E16E14500401406F2E
:1018B0000201EE6B0401010E5A6F4BC453F44CC489
:1018C00054F44DC455F44EC456F44BC44FF44CC4B8
:1018D00050F44DC451F44EC452F403D00401020E2E
:1018E0005A6F0401010E596FFF0E0401405D60E064
:1018F0000201EE51020A4DE0030A1DE0010A01E077
:1019000057D06DEC1BF0000915E0D4EC5EF006C07A
:10191000EAF207C0EBF208C0ECF209C0EDF2410EAA
:10192000E66E040EE66E2CEC51F0E552E552020133
:10193000010EEE6F3DD0450EE66E040EE66E410ED2
:10194000E66E040EE66EA3EC51F0E552E552E55268
:10195000E552000904E00201020EEE6F19D0D4EC4A
:101960005EF00201EA51065C146EEB510758156EE9
:10197000EC510858166EED510958176E8D0E145C17
:101980005B0E1558000E1658000E175801E3EE6B4B
:101990000FD0410EE66E040EE66E400EE66E040EAB
:1019A000E66E9EEC05F0E552E552E552E55200D0B8
:1019B000D4EC5EF00201E651065C146EE751075864
:1019C000156EE8510858166EE9510958176E8D0EBC
:1019D000145C5B0E1558000E1658000E17580BE3DA
:1019E000D4EC5EF006C0E6F207C0E7F208C0E8F209
:1019F00009C0E9F289720401365102E0000E01D0FB
:101A0000010EE8B08986E8A0899678EC03F0000919
:101A100002E0000E01D0010EE8B08984E8A08994AC
:101A200052EC5CF071EC5DF08B50400B23E065C430
:101A300014F066C415F067C416F068C417F0020EFF
:101A40001426000E152216221722175004016C19B5
:101A5000E8AE02D06C3508D06951145C6A51155853
:101A60006B5116586C51175805E28B9C0E01D36BC5
:101A700094842BD08B50400B28E1040165516611F2
:101A80006711681122E065C414F066C415F067C4DC
:101A900016F068C417F0020E1426000E1522162246
:101AA000172217506C19E8AE02D06C3508D0695176
:101AB000145C6A5115586B5116586C51175805E350
:101AC0000E010E0ED36F94948B8C0401386B1200B0
:101AD000D9CFE6FFDACFE6FFE1CFD9FFE2CFDAFFD9
:101AE000FC0EDBCFE9FFFD0EDBCFEAFFEF500EE08F
:101AF000FC0EDBCFE9FFDB2AFD0EDBCFEAFF01E3C3
:101B0000DB2AEF50E66EA3D8E552EAD7E552E5CFDF
:101B1000DAFFE7CFD9FF1200D9CFE6FFDACFE6FF31
:101B2000E1CFD9FFE2CFDAFFFC0EDBCFF6FFFD0EEF
:101B3000DBCFF7FF0800F5500FE0FC0EDBCFF6FF20
:101B4000DB2AFD0EDBCFF7FF01E3DB2A0800F550AF
:101B5000E66E7DD8E552E8D7E552E5CFDAFFE7CF6C
:101B6000D9FF1200D9CFE6FFDACFE6FFE1CFD9FFE8
:101B7000E2CFDAFFE652E652DE6ADD6AD950FC0FA8
:101B8000E96EFF0EDA20EA6EEE50ED1038E04AD82A
:101B900000091FE1DECF14F0DDCF15F0F80EDBCF2A
:101BA00016F0F90EDBCF17F01650145C17501558CD
:101BB00005E2DF2A010E01E3DB2AE9D7FC0EDBCFC9
:101BC00014F0FD0EDBCF15F014C0F3FF15C0F4FFC9
:101BD00021D0DE6ADD6A37D8E66EFA0EDBCFE9FF88
:101BE000DB2AFB0EDBCFEAFF01E3DB2AE552E750FD
:101BF000EF6EFC0EDB06FD0E01E2DB06BFD7FC0E2E
:101C0000DBCF14F0FD0EDBCF15F014C0F3FF15C0D1
:101C1000F4FF00D0E552E552E552E5CFDAFFE7CF19
:101C2000D9FF12009CA202D09C989C88A450200B43
:101C300001E0010E00D01200A850020B020A01E0E0
:101C4000010E00D01200A49AAA5000D01200D9CFE1
:101C5000E6FFDACFE6FFE1CFD9FFE2CFDAFFECDF34
:101C6000000901E0FCD7FD0EDB50A96EE552E5CF7F
:101C7000DAFFE7CFD9FF1200D9CFE6FFDACFE6FFD0
:101C8000E1CFD9FFE2CFDAFFFD0EDB500A0804E115
:101C90000D0EE66EDCDFE552FD0EDBCFE6FFD7DF93
:101CA000E552E552E5CFDAFFE7CFD9FF1200D9CFF1
:101CB000E6FFDACFE6FFE1CFD9FFE2CFDAFFE65267
:101CC000E652E6520401010E376F020EDB6AFB0E8C
:101CD000DB50F36E020EDBCFF4FFF350F45C01E354
:101CE000F8D1020EDB50E76EFC0EDBCFE9FFFD0EF4
:101CF000DBCFEAFFE750E926000EEA22EF6A040094
:101D000091DF000904E09FDF7F0BDF6E23D1040128
:101D1000385101E141DD3C0EE96E040EEA6EEE50F1
:101D2000010102190CE1EE500101031908E1EE5026
:101D30000101041904E1EE500101051900E101E17E
:101D4000ABD002C13CF403C13DF404C13EF405C173
:101D50003FF4EC0E146EAF0E156E166A14C0E6FF5B
:101D600015C0E6FF16C0E6FF08EC61F0E552E5524B
:101D7000E55201013AAF11D0D60E146EAF0E156EBA
:101D8000166A14C0E6FF15C0E6FF16C0E6FF08ECB1
:101D900061F0E552E552E55210D0BD0E146EAF0E63
:101DA000156E166A14C0E6FF15C0E6FF16C0E6FF02
:101DB00008EC61F0E552E552E55201010551E66E8D
:101DC000E66A01010451E66EE66A01010351E66E1E
:101DD000E66A01010251E66EE66AA40E146EAF0EC9
:101DE000156E166A14C0E6FF15C0E6FF16C0E6FFC2
:101DF00008EC61F0176E0B0EE15C02E2E16AE5525D
:101E0000E16E175001010951E66EE66A01010851C1
:101E1000E66EE66A01010751E66EE66A01010651C7
:101E2000E66EE66A8A0E146EAF0E156E166A14C060
:101E3000E6FF15C0E6FF16C0E6FF08EC61F0176E7E
:101E40000B0EE15C02E2E16AE552E16E175001011E
:101E50000D51E66EE66A01010C51E66EE66A01017B
:101E60000B51E66EE66A01010A51E66EE66A6F0EF4
:101E7000146EAF0E156E166A14C0E6FF15C0E6FFAD
:101E800016C0E6FF08EC61F0176E0B0EE15C02E293
:101E9000E16AE552E16E175004015A0526E104019A
:101EA0004E51E66EE66A04014D51E66EE66A0401A3
:101EB0004C51E66EE66A04014B51E66EE66A470E47
:101EC000146EAF0E156E166A14C0E6FF15C0E6FF5D
:101ED00016C0E6FF08EC61F0176E0B0EE15C02E243
:101EE000E16AE552E16E17501DD0020E04015A5D01
:101EF00019E1450EE66E010EE66E150E146EAF0E7C
:101F0000156E166A14C0E6FF15C0E6FF16C0E6FFA0
:101F100008EC61F0176E050EE15C02E2E16AE55241
:101F2000E16E175004015A6B0401795112E0D80E8A
:101F3000146EAE0E156E166A14C0E6FF15C0E6FFED
:101F400016C0E6FF08EC61F0E552E552E5520401E7
:101F5000796BD5D6030EDF5C26E16EDE000905E065
:101F60000401385101E118DCF8D75E0EE66E6FDE31
:101F7000E55262DE000906E00401385102E1CCECD2
:101F80000BF0F7D7430EE66E62DEE5520401010E58
:101F90003B6FFC0EDBCFE9FFFD0EDBCFEAFFEF6A04
:101FA000020EDB6A96D0080EDF5C06E07F0EDF5C77
:101FB00003E0150EDF5C4BE1020EDB5001E187D63A
:101FC000150EDF5C07E1020EDB50E76E010EE7CF76
:101FD000DBFF03D0DE52010EDD6E010EDBCFF3FF1F
:101FE000DB06F350000932E0020EDB06020EDB5086
:101FF000E76EFC0EDBCFE9FFFD0EDBCFEAFFE7501B
:10200000E926000EEA22EF6A17DE000906E0040165
:10201000385102E1CCEC0BF0F7D7080EE66E17DE74
:10202000E5520ADE000903E0CCEC0BF0FAD7200EF3
:10203000E66E0DDEE55200DE000903E0CCEC0BF0AD
:10204000FAD7080EE66E03DEE552C7D740D60D0E6E
:10205000DF5C04E0200EDF5C01E239D6DF507E0851
:1020600001E235D60D0EDF5C02E10A0EDF6E0A0ECC
:10207000DF5C01E12ED0020EDBCFF3FFDB2AF35051
:10208000E76EFC0EDBCFE9FFFD0EDBCFEAFFE7508A
:10209000E926000EEA22DFCFEFFF020EDB50E76EEB
:1020A000FC0EDBCFE9FFFD0EDBCFEAFFE750E926B0
:1020B000000EEA22EF6AC0DD000906E00401385193
:1020C00002E1CCEC0BF0F7D7DFCFE6FFC0DDE55245
:1020D000FED5B2DD000906E00401385102E1CCEC86
:1020E0000BF0F7D70D0EE66EB2DDE552A5DD000967
:1020F00006E00401385102E1CCEC0BF0F7D70A0EF0
:10210000E66EA5DDE5520401376B020EDB5000D010
:10211000E552E552E552E552E5CFDAFFE7CFD9FFC8
:102120001200E66AE66AE66AE66AF2EC5AF0E552FE
:10213000E552E552E552600EE66E10EC5BF0E552BA
:10214000AC0EE66EE66A000EE66E010EE66E3AEC46
:102150005BF0E552E552E552E5521200D9CFE6FFB9
:10216000DACFE6FFE1CFD9FFE2CFDAFFE652AC0EDD
:10217000E66EE66AE66A000EE66E010EE66EE9ECD1
:102180005DF0146E050EE15C02E2E16AE552E16E7B
:10219000145001013A8B3A8F3A8D060EE66EE66ACC
:1021A000D20E146E9E0E156E166A14C0E6FF15C090
:1021B000E6FF16C0E6FF3B0EE66E010EE66EC6ECCD
:1021C0005DF0176E070EE15C02E2E16AE552E16E36
:1021D00017500101390E006F1B0E016FC00E166FF4
:1021E000A80E176F010E186F0A0E196FC00EA76F99
:1021F000A80EA86F010EA96F0B0EAA6F4CEC03F08E
:102200000101AB6F1A691B691C691D6BC00E1E6F43
:10221000A80E1F6F010E206F216FC00E226FA80E37
:10222000236F010E246F256F266B276B286B296B9C
:10223000DC0E416F050E426F9B0E776F020E786FBA
:10224000D10E146EAE0E156E166A14C0E6FF15C0E0
:10225000E6FF16C0E6FF7D0EE66E010EE66E58EC58
:102260005EF0176E050EE15C02E2E16AE552E16E96
:102270001750CC0E146EAE0E156E166A14C0E6FF23
:1022800015C0E6FF16C0E6FF910EE66E010EE66E83
:1022900058EC5EF0176E050EE15C02E2E16AE55271
:1022A000E16E1750B80E146EAE0E156E166A14C09D
:1022B000E6FF15C0E6FF16C0E6FF450EE66E010E0E
:1022C000E66E58EC5EF0176E050EE15C02E2E16A24
:1022D000E552E16E1750010EE66EE66AD9CFE6FFD1
:1022E000DACFE6FFE66AE66AE66AE66A82EC5AF068
:1022F000146E080EE15C02E2E16AE552E16E1450F0
:10230000600EDF5C17E1AC0EE66EE66A000EE66E6C
:10231000010EE66E010EE66EE66AE66AE66A82EC99
:102320005AF0146E080EE15C02E2E16AE552E16ED9
:10233000145001D0F6DE16C102F117C103F118C125
:1023400004F119C105F11AC106F11BC107F11CC145
:1023500008F11DC109F11EC10AF11FC10BF120C115
:102360000CF121C10DF122C10EF123C10FF124C1E5
:1023700010F125C111F126C112F127C113F128C1B5
:1023800014F129C115F177C17BF178C17CF101010C
:1023900079517A1104E079C17BF17AC17CF1005165
:1023A000406F01C114F0156A14C03FF13A8B010E61
:1023B000A66FE552E552E5CFDAFFE7CFD9FF12006D
:1023C000900E146EAE0E156E166A14C0E6FF15C0A0
:1023D000E6FF16C0E6FF08EC61F0E552E552E55273
:1023E0001200D9CFE6FFDACFE6FFE1CFD9FFE2CF87
:1023F000DAFF470EE12402E3E168E652E16ED36AB8
:10240000800E9B6E0F014D6B0F014C6B9B8CC0902F
:10241000F19EBB6A0E01050ED26F0E010B0EF66F18
:102420000E01090ED86F0E010A0ECA6F0E01030EBF
:10243000FB6F010E926E1E0E936E150E946E2F0E94
:10244000896E8A6A8B6A898A656A0F0139870C0EE0
:10245000BA6ECC6A3F0ECB6E040ECA6E200EBB6EF7
:10246000BC6A0C0EBA6E430ECD6ED60ECE6ED30E77
:10247000CF6E9F809E909D8004015B6B5C6B020120
:10248000F56B0201F66BF76B0201F86B0201F96B59
:102490000401386B0401376B04017C6B0401396B58
:1024A00004013B6B04013C6B3D6B3E6B3F6B0401D5
:1024B000576B586B0401596B04015A6B04013A6B5A
:1024C000040EE66EE66AE66A4F0EE66E040EE66EEF
:1024D000E9EC5DF0146E050EE15C02E2E16AE552A2
:1024E000E16E1450040EE66EE66AE66A530EE66E7E
:1024F000040EE66EE9EC5DF0146E050EE15C02E29E
:10250000E16AE552E16E14500401366B04015D6B23
:102510005E6B04015F6B606B0401616B626B636BEC
:10252000646B0401656B666B676B686B0401696BB8
:102530006A6B6B6B6C6B04016D6B6E6B6F6B706BAE
:102540000401716B726B736B746B0401756B766B4A
:10255000776B786B0401796B04017A6B0401800E50
:102560007B6FE66A010EE66EE668000EE66E050E0B
:10257000E66EE9EC5DF0146E050EE15C02E2E16AE4
:10258000E552E16E1450E66A010EE66EE668000E52
:10259000E66E060EE66EE9EC5DF0146E050EE15C8B
:1025A00002E2E16AE552E16E1450E66A010EE66E5F
:1025B000E668000EE66E070EE66EE9EC5DF0146E5E
:1025C000050EE15C02E2E16AE552E16E1450E66A52
:1025D000010EE66EE668000EE66E080EE66EE9ECA9
:1025E0005DF0146E050EE15C02E2E16AE552E16E17
:1025F0001450E66A010EE66EE668000EE66E090EFD
:10260000E66EE9EC5DF0146E050EE15C02E2E16A53
:10261000E552E16E1450E66A010EE66EE668000EC1
:10262000E66E0A0EE66EE9EC5DF0146E050EE15CF6
:1026300002E2E16AE552E16E1450E66A010EE66ECE
:10264000E668000EE66E0B0EE66EE9EC5DF0146EC9
:10265000050EE15C02E2E16AE552E16E1450800E83
:10266000E66EE66AE668000EE66E0C0EE66EE9ECD3
:102670005DF0146E050EE15C02E2E16AE552E16E86
:102680001450200EA86E900E9C6E9A0EAB6EA8840D
:102690000201FE69FF69A498A49AC26AA20EC16EE3
:1026A0000F01FE0E486F0F011F0E496FC280C18CD3
:1026B000C282C2B2FED7C19C9E9C9F8C9D8CB9ECFD
:1026C0005EF0898225EC5AF049DDF28EF28C24EC22
:1026D0005CF004014069E1EC2FF006C014F007C083
:1026E00015F008C016F009C017F00B6ACA0E0C6E80
:1026F0009A0E0D6E3B0E0E6E14C006F015C007F05C
:1027000016C008F017C009F0CEEC61F002C014F05A
:1027100003C015F004C016F005C017F014C0E6FFA2
:1027200015C0E6FF16C0E6FF17C0E6FF8C0E186E58
:10273000AE0E196E1A6A18C0E6FF19C0E6FF1AC07D
:10274000E6FF860EE66E040EE66E63EC60F01B6E2E
:10275000090EE15C02E2E16AE552E16E1B50010103
:102760003AAF08D002C13CF403C13DF404C13EF4C9
:1027700005C13FF401013ABF02D001013A9D4C0E60
:10278000146EAE0E156E166A14C0E6FF15C0E6FF95
:1027900016C0E6FF08EC61F0E552E552E5524CEC5C
:1027A00003F00101AB5D02E0000E01D0010EDF6E0F
:1027B0001E0E146EAE0E156E166A14C0E6FF15C01E
:1027C000E6FF16C0E6FF08EC61F0E552E552E5527F
:1027D00000C1E6FF01C1E6FF080E146EAE0E156ED5
:1027E000166A14C0E6FF15C0E6FF16C0E6FF08EC47
:1027F00061F0176E050EE15C02E2E16AE552E16EFE
:10280000175001011951E66EE66A01011851E66E92
:10281000E66A01011751E66EE66A01011651E66E9D
:10282000E66AE00E146EAD0E156E166A14C0E6FF71
:1028300015C0E6FF16C0E6FF08EC61F0176E0B0E40
:10284000E15C02E2E16AE552E16E175001011D51BF
:10285000E66EE66A01011C51E66EE66A01011B5153
:10286000E66EE66A01011A51E66EE66ABB0E146E68
:10287000AD0E156E166A14C0E6FF15C0E6FF16C051
:10288000E6FF08EC61F0176E0B0EE15C02E2E16A14
:10289000E552E16E175001012151E66EE66A010131
:1028A0002051E66EE66A01011F51E66EE66A0101FB
:1028B0001E51E66EE66A960E146EAD0E156E166A21
:1028C00014C0E6FF15C0E6FF16C0E6FF08EC61F095
:1028D000176E0B0EE15C02E2E16AE552E16E175001
:1028E00001012551E66EE66A01012451E66EE66AB1
:1028F00001012351E66EE66A01012251E66EE66AA5
:10290000660E146EAD0E156E166A14C0E6FF15C085
:10291000E6FF16C0E6FF08EC61F0176E0B0EE15CF7
:1029200002E2E16AE552E16E175001012951E66EBB
:10293000E66A01012851E66EE66A01012751E66E5A
:10294000E66A01012651E66EE66A310E146EAD0E9E
:10295000156E166A14C0E6FF15C0E6FF16C0E6FF46
:1029600008EC61F0176E0B0EE15C02E2E16AE552E1
:10297000E16E175001013A51800B01E0010EE66E45
:10298000E66A1A0E146EAD0E156E166A14C0E6FFD6
:1029900015C0E6FF16C0E6FF08EC61F0176E050EE5
:1029A000E15C02E2E16AE552E16E1750450EE66E27
:1029B000010EE66EF30E146EAC0E156E166A14C0A0
:1029C000E6FF15C0E6FF16C0E6FF08EC61F0176EE3
:1029D000050EE15C02E2E16AE552E16E175077C153
:1029E000E6FF78C1E6FFD30E146EAC0E156E166AC4
:1029F00014C0E6FF15C0E6FF16C0E6FF08EC61F064
:102A0000176E050EE15C02E2E16AE552E16E1750D5
:102A100079C1E6FF7AC1E6FFB20E146EAC0E156EF8
:102A2000166A14C0E6FF15C0E6FF16C0E6FF08EC04
:102A300061F0176E050EE15C02E2E16AE552E16EBB
:102A400017507D0EE66E010EE66E940E146EAC0EFF
:102A5000156E166A14C0E6FF15C0E6FF16C0E6FF45
:102A600008EC61F0176E050EE15C02E2E16AE552E6
:102A7000E16E1750910EE66E010EE66E7B0E146E3F
:102A8000AC0E156E166A14C0E6FF15C0E6FF16C040
:102A9000E6FF08EC61F0176E050EE15C02E2E16A08
:102AA000E552E16E175041C1E6FF42C1E6FF5F0EFD
:102AB000146EAC0E156E166A14C0E6FF15C0E6FF64
:102AC00016C0E6FF08EC61F0176E050EE15C02E24D
:102AD000E16AE552E16E17500101A651E66EE66A21
:102AE0002D0E146EAC0E156E166A14C0E6FF15C0DE
:102AF000E6FF16C0E6FF08EC61F0176E050EE15C1C
:102B000002E2E16AE552E16E17500101A551E66E5D
:102B1000E66A150E146EAC0E156E166A14C0E6FF4A
:102B200015C0E6FF16C0E6FF08EC61F0176E050E53
:102B3000E15C02E2E16AE552E16E1750DF5026E007
:102B40000101AA51E66EE66A0101A951E66EE66A44
:102B50000101A851E66EE66A0101A751E66EE66A38
:102B6000E60E146EAB0E156E166A14C0E6FF15C0A5
:102B7000E6FF16C0E6FF08EC61F0176E0B0EE15C95
:102B800002E2E16AE552E16E175025D00101AA5137
:102B9000E66EE66A0101A951E66EE66A0101A851F6
:102BA000E66EE66A0101A751E66EE66AB60E146E9D
:102BB000AB0E156E166A14C0E6FF15C0E6FF16C010
:102BC000E6FF08EC61F0176E0B0EE15C02E2E16AD1
:102BD000E552E16E17506A0E146EAB0E156E166A52
:102BE00014C0E6FF15C0E6FF16C0E6FF08EC61F072
:102BF000E552E552E55204013B6B04013B514DE1C6
:102C0000480E146EAB0E156E166A14C0E6FF15C0A2
:102C1000E6FF16C0E6FF08EC61F0E552E552E5522A
:102C2000320EE66EE66AE66AD950020FE66E000ED4
:102C3000DA20E66EE9EC5DF0146E050EE15C02E26E
:102C4000E16AE552E16E1450310EE66ED950020F82
:102C5000E66E000EDA20E66E57EC0EF0E552E55215
:102C6000E552000904E10401010E3B6F16D0210E6C
:102C7000E66ED950020FE66E000EDA20E66E03EC27
:102C80005EF0E552E552E552F3CF14F0F4CF15F0C3
:102C90001450151001E101D0B0D704013B5101E0FF
:102CA0007ED5520EE66ED950020FE66E000EDA2087
:102CB000E66E03EC5EF0E552E552E552F3CF14F018
:102CC000F4CF15F01450151014E1720EE66ED950C1
:102CD000020FE66E000EDA20E66E03EC5EF0E552BF
:102CE000E552E552F3CF16F0F4CF17F01650171057
:102CF00011E0320E146EAB0E156E166A14C0E6FFAC
:102D000015C0E6FF16C0E6FF08EC61F0E552E5529B
:102D1000E552FF00D950020FE66E000EDA20E66E93
:102D2000EEEC5FF0E552E552360EF3CFDBFF370EE7
:102D3000F4CFDBFF360EDBCF14F0370EDBCF15F010
:102D4000D890155004E6010E145C000E155854E39B
:102D5000360EDBCF16F0370EDBCF17F0173404E258
:102D600016501008000E175447E31F0E146EAB0EDA
:102D7000156E166A14C0E6FF15C0E6FF16C0E6FF22
:102D800008EC61F0E552E552E55204013B5101E0E7
:102D900006D5310EE66ED950020FE66E000EDA202F
:102DA000E66E57EC0EF0E552E552E552000913E0ED
:102DB000D950020FE66E000EDA20E66E71EC5EF07E
:102DC000E552E552F3CF14F0F4CF15F0010E145C88
:102DD000000E155811E2FD0E146EAA0E156E166A3D
:102DE00014C0E6FF15C0E6FF16C0E6FF08EC61F070
:102DF000E552E552E552D3D4460EDB6A360EDBCF00
:102E000008F0370EDBCF09F0630E081801E1095016
:102E100001E1A8D2100E081801E1095001E186D2A3
:102E20000F0E081801E1095001E15BD20E0E0818DF
:102E300001E1095001E130D20D0E081801E10950FD
:102E400001E1F7D10C0E081801E1095001E1B4D1FC
:102E50000B0E081801E1095001E171D10A0E0818A2
:102E600001E1095001E14FD1090E081801E10950B3
:102E700001E12DD1080E081801E1095001E1EAD065
:102E8000070E081801E1095001E1BDD0060E08182F
:102E900001E1095001E19FD0050E081801E1095038
:102EA00001E181D0040E081801E1095064E0030E2D
:102EB000081801E1095047E0020E081801E1095025
:102EC0002AE0010E081801E1095001E05FD2D95053
:102ED000020FE66E000EDA20E66EEEEC5FF0E552D1
:102EE000E552380EF3CFDBFF390EF4CFDBFFD950BC
:102EF000020FE66E000EDA20E66EEEEC5FF0E552B1
:102F0000E552F3CF00F1F4CF01F1010EF36E460E5E
:102F1000F3CFDBFF4DD2160EE66E010EE66ED950F2
:102F2000020FE66E000EDA20E66E2EEC30F0E5526F
:102F3000E552E552E552000905E0010EF36E460E3A
:102F4000F3CFDBFF35D21A0EE66E010EE66ED950D6
:102F5000020FE66E000EDA20E66E2EEC30F0E5523F
:102F6000E552E552E552000905E0010EF36E460E0A
:102F7000F3CFDBFF1DD21E0EE66E010EE66ED950BA
:102F8000020FE66E000EDA20E66E2EEC30F0E5520F
:102F9000E552E552E552000905E0010EF36E460EDA
:102FA000F3CFDBFF05D2220EE66E010EE66ED9509E
:102FB000020FE66E000EDA20E66E2EEC30F0E552DF
:102FC000E552E552E552000905E0010EF36E460EAA
:102FD000F3CFDBFFEDD1260EE66E010EE66ED95083
:102FE000020FE66E000EDA20E66E2EEC30F0E552AF
:102FF000E552E552E552000905E0010EF36E460E7A
:10300000F3CFDBFFD5D1D950020FE66E000EDA20E8
:10301000E66EEEEC5FF0E552E552380EF3CFDBFFE3
:10302000390EF4CFDBFF380EDBCF14F0390EDBCFD7
:1030300015F0020E145C000E15580BE2380EDB5032
:1030400001013A9FE8B03A8F010EF36E460EF3CFBE
:10305000DBFFAED1D950020FE66E000EDA20E66E2D
:1030600071EC5EF0E552E552400EF3CFDBFF410E0E
:10307000F4CFDBFFD950400FE96E000EDA20EA6E84
:10308000010ED880EE54000EED5420E2400EDBCF4E
:1030900014F0410EDBCF15F0320E145C000E155803
:1030A00015E2D950020FE66E000EDA20E66E450EEC
:1030B000E66E010EE66E37EC5EF0E552E552E55243
:1030C000E552010EF36E460EF3CFDBFF71D1D950FE
:1030D000020FE66E000EDA20E66EEEEC5FF0E552CF
:1030E000E552380EF3CFDBFF390EF4CFDBFF380E9D
:1030F000DBCF77F1390EDBCF78F1010EF36E460EA0
:10310000F3CFDBFF55D1D950020FE66E000EDA2067
:10311000E66EEEEC5FF0E552E552380EF3CFDBFFE2
:10312000390EF4CFDBFF380EDBCF79F1390EDBCF70
:103130007AF1010EF36E460EF3CFDBFF39D1D95091
:10314000020FE66E000EDA20E66E71EC5EF0E552DC
:10315000E552400EF3CFDBFF410EF4CFDBFFD95039
:10316000400FE96E000EDA20EA6E010ED880EE54B0
:10317000000EED5420E2400EDBCF14F0410EDBCF09
:1031800015F0140E145C000E155815E2D950020FFC
:10319000E66E000EDA20E66E7D0EE66E010EE66E3D
:1031A00037EC5EF0E552E552E552E552010EF36E62
:1031B000460EF3CFDBFFFCD0D950020FE66E000EB7
:1031C000DA20E66E71EC5EF0E552E552400EF3CF88
:1031D000DBFF410EF4CFDBFFD950400FE96E000E4C
:1031E000DA20EA6E010ED880EE54000EED5420E293
:1031F000400EDBCF14F0410EDBCF15F0140E145C43
:10320000000E155815E2D950020FE66E000EDA20B6
:10321000E66E910EE66E010EE66E37EC5EF0E5525C
:10322000E552E552E552010EF36E460EF3CFDBFF99
:10323000BFD0D950020FE66E000EDA20E66EEEEC3B
:103240005FF0E552E552380EF3CFDBFF390EF4CFD5
:10325000DBFF380EDBCF14F0390EDBCF15F0200E7C
:10326000145C030E155817E3D950380FE96E000EA1
:10327000DA20EA6E800ED880EE54070EED540BE390
:10328000380EDBCF41F1390EDBCF42F1010EF36E88
:10329000460EF3CFDBFF8CD0D950020FE66E000E46
:1032A000DA20E66EEEEC5FF0E552E552380EF3CF31
:1032B000DBFF390EF4CFDBFFD950380FE96E000E7B
:1032C000DA20EA6E010ED880EE54000EED5408E3C9
:1032D000380EDBCFA6F1010EF36E460EF3CFDBFF07
:1032E00067D0D950020FE66E000EDA20E66EEEECE3
:1032F0005FF0E552E552380EF3CFDBFF390EF4CF25
:10330000DBFFD950380FE96E000EDA20EA6E100E9E
:10331000D880EE54270EED5408E3380EDBCFA5F12C
:10332000010EF36E460EF3CFDBFF42D0A70EE66E22
:10333000010EE66ED950020FE66E000EDA20E66E40
:103340002EEC30F0E552E552E552E552000909E075
:103350004CEC03F00101AB6F010EF36E460EF3CFA0
:10336000DBFF26D091EC10F0D30E146EAA0E156E72
:10337000166A14C0E6FF15C0E6FF16C0E6FF08ECAB
:1033800061F0E552E552E552CFEF13F0C00E146E36
:10339000AA0E156E166A14C0E6FF15C0E6FF16C029
:1033A000E6FF08EC61F0E552E552E552CFEF13F08D
:1033B000460EDB5011E0A40E146EAA0E156E166AAE
:1033C00014C0E6FF15C0E6FF16C0E6FF08EC61F08A
:1033D000E552E552E55210D0820E146EAA0E156E1B
:1033E000166A14C0E6FF15C0E6FF16C0E6FF08EC3B
:1033F00061F0E552E552E552CFEF13F0470EE15C84
:1034000002E2E16AE552E16EE552E5CFDAFFE7CF8D
:04341000D9FF1200CE
:0C341400E66A020EE66E96EC26F0E55229
:10342000E5520D0EE66EE66AE5EC25F0E552E55252
:103430001200D9CFE6FFDACFE6FFE1CFD9FFE2CF26
:10344000DAFFE6528A8693969392949E93808A84BA
:103450009394A49E200E726E738C739ED8EC24F00D
:103460001D0EE66E33EC25F0E552146E14C0DFFF3E
:10347000080EDF14F3E1DF1C010BF0E10201010E85
:10348000F36FEF6BF06BE66A080EE66EE5EC25F085
:10349000E552E552E66A090EE66EE5EC25F0E552E6
:1034A000E552090EE66E0C0EE66EE5EC25F0E552EF
:1034B000E5521A0EE66E0D0EE66EE5EC25F0E552CD
:1034C000E552090EE66E0A0EE66EE5EC25F0E552D1
:1034D000E5521A0EE66E0B0EE66EE5EC25F0E552AF
:1034E000E5520A0EE66E040EE66EE5EC25F0E552B6
:1034F000E5521A0EE66E050EE66EE5EC25F0E55295
:10350000E5520A0EE66E020EE66EE5EC25F0E55297
:10351000E5521A0EE66E030EE66EE5EC25F0E55276
:10352000E552E66A3CEC24F0E552E66A020EE66EED
:1035300096EC26F0E552E5520D0EE66EE66AE5ECF5
:1035400025F0E552E552320EE66E020EE66EE5EC2F
:1035500025F0E552E552120EE66E040EE66EE5EC3D
:1035600025F0E552E552400EE66E030EE66EE5EC00
:1035700025F0E552E5523F0EE66E090EE66EE5ECEB
:1035800025F0E552E552120EE66E060EE66EE5EC0B
:1035900025F0E552E5520C0EE66E070EE66EE5EC00
:1035A00025F0E552E552EE0EE66E0A0EE66EE5EC0B
:1035B00025F0E552E552050EE66E0B0EE66EE5ECE3
:1035C00025F0E552E552040EE66E030EE66E96EC2B
:1035D00026F0E552E5523BC1E6FF040EE66EE5EC4F
:1035E00025F0E552E5523CC1E6FF050EE66EE5EC3E
:1035F00025F0E552E5523DC1E6FF020EE66EE5EC30
:1036000025F0E552E5523EC1E6FF030EE66EE5EC1D
:1036100025F0E552E5523FC1E6FFE66AE5EC25F00C
:10362000E552E55240C1E6FF010EE66EE5EC25F0FD
:10363000E552E552E66A150EE66EE5EC25F0E55238
:10364000E552120EE66E33EC25F0E552146E14C00E
:10365000F4F2E66A010EE66E100EE66E54EC26F009
:10366000E552E552E552720EE66E340EE66E140E29
:10367000E66E54EC26F0E552E552E552000EE66E99
:10368000E66AE66A54EC26F0E552E552E552000E91
:10369000E66EE66A96EC26F0E552E552040EE66E1A
:1036A0001F0EE66E2FEC26F0E552E552E552E5528C
:1036B000E5CFDAFFE7CFD9FF1200010EE66E83EC0B
:1036C00025F0E552F3CF14F0F4CF15F000011450BB
:1036D000040B01E0010E00D012001F0EE66E33EC69
:1036E00025F0E552146E00011450080B080A01E0A1
:1036F000010E00D01200D9CFE6FFDACFE6FFE1CF0E
:10370000D9FFE2CFDAFFE652E6520201F35101E0BF
:103710003AD0010EF36FEFC214F0F0C215F01406A8
:10372000000E155A14C0DEFF15C0DDFFDECF14F009
:10373000DDCF15F0166A176AD880090E14541A0ED8
:103740001554000E1654000E175404E2090EDE6ED6
:103750001A0EDD6E400EE66E1E0EE66E2FEC26F0A3
:10376000E552E552DFCFE6FF0C0EE66EE5EC25F004
:10377000E552E552010EDBCFE6FF0D0EE66EE5ECFD
:1037800025F0E552E552E552E552E552E5CFDAFF84
:10379000E7CFD9FF1200D9CFE6FFDACFE6FFE1CFBE
:1037A000D9FFE2CFDAFFE652E652E652E652190EB0
:1037B000E66E010EE66E96EC26F0E552E552190E25
:1037C000E66E33EC25F0E552146E14C0DFFF0E0EEA
:1037D000E66EE66A96EC26F0E552E5520E0EE66ECF
:1037E00033EC25F0E552146E020E14C0DBFF0F0E11
:1037F000E66E33EC25F0E552146E030E14C0DBFFC9
:10380000190EE66E010EE66E96EC26F0E552E552D4
:10381000190EE66E33EC25F0E552146EDF50000110
:10382000145CCDE10C0EE66EE66A96EC26F0E552ED
:10383000E5520C0EE66E33EC25F0E552146E14C022
:10384000DFFF0D0EE66E33EC25F0E552146E010E2F
:1038500014C0DBFF020EDBCF14F0030EDBCF15F03C
:10386000DECF16F0DDCF17F01450165C1550175848
:1038700026E2090E186E1A0E196E1A6A1B6A020EDB
:10388000DBCF20F0030EDBCF21F0DE50205C1C6E7E
:10389000DD5021581D6E1E6A1F6A1C50185C146E84
:1038A0001D501958156E1E501A58166E1F501B5871
:1038B000176E14C0F3FF15C0F4FF28D027D0020EF6
:1038C000DBCF14F0030EDBCF15F0DF50141803E14B
:1038D000DE52DD50151806E1090EF36E1A0EF46E75
:1038E00015D014D0DECF16F0DDCF17F0020EDB506E
:1038F000165C146E030EDB501758156E1406000E7E
:10390000155A14C0F3FF15C0F4FF00D0040EE15C9B
:1039100002E2E16AE552E16EE552E5CFDAFFE7CF78
:10392000D9FF1200D9CFE6FFDACFE6FFE1CFD9FF0A
:10393000E2CFDAFF150EE12402E3E168E652E16E20
:10394000190EE66E010EE66E96EC26F0E552E55293
:10395000190EE66E33EC25F0E552146E140E14C009
:10396000DBFF000EE66EE66A96EC26F0E552E552C5
:10397000140EDB5002E1000EC0D00201F35103E14E
:10398000BADE000EBAD0EFC2F1F2F0C2F2F2F1C22A
:10399000E6FFE66AE5EC25F0E552E552F2C2E6FF05
:1039A000010EE66EE5EC25F0E552E552140EE66EEA
:1039B000E66AD9CFE6FFDACFE6FFCCEC23F0E5529A
:1039C000E552E552E552120EDBCFE6FF130EDBCFD8
:1039D000E6FF6EEC34F0E552E552120EF3CFDBFF5A
:1039E000130EF4CFDBFFDECF14F0DDCF15F0166A37
:1039F000176AD880090E14541A0E1554000E165466
:103A0000000E175435E3D9CFE9FFDACFEAFFEF50C4
:103A1000010B2EE1D950020FE96E000EDA20EA6E9A
:103A2000EE52EE52EE52EF50800B22E1D950020FCF
:103A3000E96E000EDA20EA6EEE52EE52EF50100BF5
:103A400017E1D950020FE96E000EDA20EA6EEE0E91
:103A5000D880EE54050EED540BE3D950020FE96EF9
:103A6000000EDA20EA6EEE52EE52EF50800B01E1CA
:103A7000FF00DECFEFF2DDCFF0F2060EE66EE66A73
:103A8000D9500C0FE66E000EDA20E66EFC0EDBCF8E
:103A9000E9FFFD0EDBCFEAFFE9CF14F0EACF15F026
:103AA00014C0E6FF15C0E6FF9BEC5DF0166E060E37
:103AB000E15C02E2E16AE552E16E1650FA0EDBCFFC
:103AC000E9FFFB0EDBCFEAFFEF68130EDB500808BF
:103AD00010E1120EDB5004E0120EDB50060809E183
:103AE000FA0EDBCFE9FFFB0EDBCFEAFF120EDBCFD6
:103AF000EFFF0201F36B010E00D0146E150EE15CB6
:103B000002E2E16AE552E16E1450E552E5CFDAFFD8
:103B1000E7CFD9FF1200D9CFE6FFDACFE6FFE1CF3A
:103B2000D9FFE2CFDAFF0B0EE66E020EE66EE5EC91
:103B300025F0E552E5521A0EE66E030EE66EE5EC50
:103B400025F0E552E552D950F90FE96EFF0EDA2063
:103B5000EA6E180EEE261A0EED22F90EDBCFE6FF06
:103B6000060EE66EE5EC25F0E552E552FA0EDBCFE7
:103B7000E6FF070EE66EE5EC25F0E552E552060E8F
:103B8000E66EE66AFC0EDBCFE6FFFD0EDBCFE6FF5E
:103B90005FEC24F0E552E552E552E552060EE66E82
:103BA000E66A3B0EE66E010EE66E5FEC24F0E5522F
:103BB000E552E552E552080EE66E3CEC24F0E55283
:103BC000FB0EDB5002E1000E01D0060EE66E3CEC6F
:103BD00024F0E552E552E5CFDAFFE7CFD9FF120036
:103BE000D9CFE6FFDACFE6FFE1CFD9FFE2CFDAFFA8
:103BF0000E0EE12402E3E168E652E16E800EE66E0D
:103C00001F0EE66E2FEC26F0E552E552800EE66EB2
:103C10001F0EE66E0AEC26F0E552E5520A0EE66E3D
:103C20001C0EE66E0AEC26F0E552E552080EE66E32
:103C30001F0EE66E2FEC26F0E552E552050E02014E
:103C4000F45D04E0060EF45D01E009D1DE6ADD6A90
:103C50001C0EE66E33EC25F0E552146E0A0E0001E0
:103C6000141411E1D9CFE9FFDACFEAFFEE2A000EF2
:103C7000ED22EECF15F0EDCF16F0E80E155C030E39
:103C8000165801E2E5D71C0EE66E33EC25F0E5523E
:103C9000146E00011450020B0AE1DECF15F0DDCFE7
:103CA00016F0E80E155C030E165801E2D8D0080E87
:103CB000E66E1F0EE66E0AEC26F0E552E552E66A65
:103CC00033EC25F0E552146E020E14C0DBFF010E3A
:103CD000E66E33EC25F0E552146E030E14C0DBFFE4
:103CE000060EE66E33EC25F0E552146E040E14C099
:103CF000DBFF070EE66E33EC25F0E552146E050E81
:103D000014C0DBFF040EDB2A050E01E3DB2A040EE0
:103D1000DBCFE6FFE66AE5EC25F0E552E552050E5D
:103D2000DBCFE6FF010EE66EE5EC25F0E552E5524D
:103D3000070EE66EE66AD950060FE66E000EDA2030
:103D4000E66ECCEC23F0E552E552E552E5520D0E5D
:103D5000DB6A100EF36E0D0EDBCFF4FFF350F45C54
:103D60006DE21C0EE66E33EC25F0E552146E000198
:103D70001450020B62E0D950060FE96E000EDA20F3
:103D8000EA6EEE52EE52EE52EF50200B56E0800EED
:103D9000E66E1F0EE66E2FEC26F0E552E552800E21
:103DA000E66E1F0EE66E0AEC26F0E552E5520A0EAC
:103DB000E66E1C0EE66E0AEC26F0E552E552080EA1
:103DC000E66E1F0EE66E2FEC26F0E552E5521C0E55
:103DD000E66E33EC25F0E552146E0A0E0001141461
:103DE00001E1F5D7080EE66E1F0EE66E0AEC26F02E
:103DF000E552E552040EDBCFE6FFE66AE5EC25F07E
:103E0000E552E552050EDBCFE6FF010EE66EE5EC6E
:103E100025F0E552E552070EE66EE66AD950060F28
:103E2000E66E000EDA20E66ECCEC23F0E552E552A9
:103E3000E552E5520D0EDB2A8CD700D0020EDBCF07
:103E4000E6FFE66AE5EC25F0E552E552030EDBCF2E
:103E5000E6FF010EE66EE5EC25F0E552E5520E0EAA
:103E6000E15C02E2E16AE552E16EE552E5CFDAFF9C
:103E7000E7CFD9FF1200D9CFE6FFDACFE6FFE1CFD7
:103E8000D9FFE2CFDAFFE652E652140E0201176ABA
:103E9000F125166EF2511722FC0EDB501624146E1B
:103EA000FD0EDB501720156E14C0DEFF15C0DDFFC0
:103EB000DECF14F0DDCF15F0166A176AD880090E30
:103EC00014541A0E1554000E1654000E175408E21E
:103ED000D9CFE9FFDACFEAFF0A0EEE5E1A0EED5AED
:103EE000DFCFE6FFE66AE5EC25F0E552E552010E8C
:103EF000DBCFE6FFE66EE5EC25F0E552E552E55254
:103F0000E552E552E5CFDAFFE7CFD9FF1200D9CF6E
:103F1000E6FFDACFE6FFE1CFD9FFE2CFDAFFE652E4
:103F2000E652020EE66E33EC25F0E552146E14C034
:103F3000DFFF030EE66E33EC25F0E552146E010E42
:103F400014C0DBFFFC0EDBCFE6FF020EE66EE5ECF5
:103F500025F0E552E552FD0EDBCFE6FF030EE66EDF
:103F6000E5EC25F0E552E552DECF14F0DDCF15F09B
:103F700014C0F3FF15C0F4FF00D0E552E552E5523E
:103F8000E5CFDAFFE7CFD9FF1200D9CFE6FFDACFCE
:103F9000E6FFE1CFD9FFE2CFDAFFE652E652E66A6A
:103FA00033EC25F0E552146E14C0DFFF010EE66E0F
:103FB00033EC25F0E552146E010E14C0DBFFFC0E4D
:103FC000DBCFE6FFE66AE5EC25F0E552E552FD0EB3
:103FD000DBCFE6FF010EE66EE5EC25F0E552E5529B
:103FE000DECF14F0DDCF15F014C0F3FF15C0F4FFE1
:103FF00000D0E552E552E552E5CFDAFFE7CFD9FF31
:104000001200D9CFE6FFDACFE6FFE1CFD9FFE2CF4A
:10401000DAFFE652E652E652E652140E0201176A41
:10402000F125166EF2511722FC0EDB501624146E89
:10403000FD0EDB501720156E14C0DEFF15C0DDFF2E
:10404000DECF14F0DDCF15F0166A176AD880090E9E
:1040500014541A0E1554000E1654000E175408E28C
:10406000D9CFE9FFDACFEAFF0A0EEE5E1A0EED5A5B
:10407000E66A33EC25F0E552146E020E14C0DBFF45
:10408000010EE66E33EC25F0E552146E030E14C0FB
:10409000DBFFDFCFE6FFE66AE5EC25F0E552E5520F
:1040A000010EDBCFE6FFE66EE5EC25F0E552E552CA
:1040B000FA0EDBCFE6FFFB0EDBCFE6FF2CD8E55296
:1040C000E552F3CFDEFFF4CFDDFF020EDBCFE6FFDC
:1040D000E66AE5EC25F0E552E552030EDBCFE6FF9C
:1040E000010EE66EE5EC25F0E552E552DECF14F068
:1040F000DDCF15F014C0F3FF15C0F4FF040EE15C32
:1041000003E200D0E16AE552E16EE552E5CFDAFF65
:10411000E7CFD9FF1200D9CFE6FFDACFE6FFE1CF34
:10412000D9FFE2CFDAFF1E0EE12402E3E168E65296
:10413000E16E020EDB6A030EDB6A040EDB6A050E1B
:10414000DB6AE66A33EC25F0E552146E14C0DFFF3B
:10415000010EE66E33EC25F0E552146E010E14C02C
:10416000DBFFD950FC0FE96EFF0EDA20EA6EEE504D
:10417000ED1001E1A1D0D950FC0FE96EFF0EDA205D
:10418000EA6E140ED880EE54000EED5404E2140EC4
:10419000146E156A06D0FC0EDBCF14F0FD0EDBCFDB
:1041A00015F0060E14C0DBFF070E15C0DBFF060E70
:1041B000DBCFE6FF070EDBCFE6FFD950080FE66E38
:1041C000000EDA20E66EE8DAE552E552E552E552F5
:1041D000060EDBCF14F0070EDBCF15F0D950FC0F25
:1041E000E96EFF0EDA20EA6E1450EE5E1550ED5ABD
:1041F000D950060FE96E000EDA20EA6EEF50010B7F
:1042000014E0D950080F146E000EDA20156E060E59
:10421000DB501424E96E070EDB501520EA6EEF6ABE
:10422000060EDB2A070E01E3DB2AD950080F146EB5
:10423000000EDA20156E1C0E14C0DBFF1D0E15C01B
:10424000DBFFD950060FE96E000EDA20EA6EEE5061
:10425000ED1031E0D9501C0FE96E000EDA20EA6E45
:10426000EECFF3FFEDCFF4FF020EEE26000EEF22AD
:10427000F3CFE9FFF4CFEAFFEECF14F0EFCF15F064
:10428000166A176AD950020FE96E000EDA20EA6E3C
:104290001450EE261550EE221650EE221750EE2244
:1042A000D950060FE96E000EDA20EA6E020EEE5EBD
:1042B000000EED5AC6D755D7DFCFE6FFE66AE5EC2C
:1042C00025F0E552E552010EDBCFE6FFE66EE5ECA8
:1042D00025F0E552E552020EDBCF14F0030EDBCFE2
:1042E00015F0166A176A040EDBCF18F0050EDBCF47
:1042F00019F01A6A1B6A18501426195015221A5000
:1043000016221B501722020E14C0DBFF030E15C02D
:10431000DBFF040E16C0DBFF050E17C0DBFF040E2B
:10432000DBCF14F0050EDBCF15F0D950020FE96E8C
:10433000000EDA20EA6E1450EE261550ED22020E21
:10434000DB1C146E030EDB1C156E14C0F3FF15C0CE
:10435000F4FF1E0EE15C03E200D0E16AE552E16E7B
:10436000E552E5CFDAFFE7CFD9FF1200D9CFE6FF5C
:10437000DACFE6FFE1CFD9FFE2CFDAFF060EE12484
:1043800002E3E168E652E16E040EDB6A050EDB6AC9
:10439000D950FC0FE96EFF0EDA20EA6EFF0EEE1820
:1043A00002E1FF0EED181FE1010EF36E040EF3CFD4
:1043B000DBFF020EE66E57DBE552146E000114506F
:1043C000E66ED950FC0FE96EFF0EDA20EA6EE55278
:1043D000E750EE6EED6A030EE66E45DBE552146EB5
:1043E000FD0E14C0DBFFD950FA0FE96EFF0EDA2084
:1043F000EA6EFF0EEE1802E1FF0EED181EE1010E4F
:10440000F36E050EF3CFDBFFE66A2DDBE552146E8B
:1044100000011450E66ED950FA0FE96EFF0EDA2053
:10442000EA6EE552E750EE6EED6A010EE66E1BDBBA
:10443000E552146EFB0E14C0DBFFD950F80FE96E85
:10444000FF0EDA20EA6E010ED880EE54000EED5415
:1044500076E3050EDB500EE1E66A05DBE552146EED
:1044600014C0DFFF010EE66EFEDAE552146E010E97
:1044700014C0DBFF040EDB5010E1020EE66EF3DA2F
:10448000E552146E020E14C0DBFF030EE66EEBDA8B
:10449000E552146E030E14C0DBFFFA0EDBCFE6FF0D
:1044A000E66A93DBE552E552FB0EDBCFE6FF010E39
:1044B000E66E8BDBE552E552FC0EDBCFE6FF020E2B
:1044C000E66E83DBE552E552FD0EDBCFE6FF030E21
:1044D000E66E7BDBE552E552F80EDBCF14F0DB062F
:1044E000F90EDBCF15F001E2DB061450151005E0E4
:1044F00030D9E66EC1D9E552EFD7050EDB500DE19C
:10450000DFCFE6FFE66A61DBE552E552010EDBCF65
:10451000E6FFE66E5ADBE552E552040EDB500EE193
:10452000020EDBCFE6FFE66E50DBE552E552030EEE
:10453000DBCFE6FFE66E49DBE552E552F1D0040E33
:10454000DB5022E0F80EDBCF16F0F90EDBCF17F0D0
:10455000FC0EDB501624146EFD0EDB501720156E7A
:10456000020E14C0DBFF030E15C0DBFF020EDBCF13
:10457000E6FFE66E2ADBE552E552030EDBCFE6FFEF
:10458000E66E23DBE552E552FA0EDBCF14F0FB0EAC
:10459000DBCF15F01406000E155AD950F80FE96E4E
:1045A000FF0EDA20EA6E1450EE261550ED221F0E93
:1045B000E66E59DAE552146E000114BAF8D7FA0E15
:1045C000DBCFE6FF100EE66E00DBE552E552FB0E98
:1045D000DBCFE6FF110EE66EF8DAE552E552FC0E8F
:1045E000DBCFE6FF140EE66EF0DAE552E552FD0E83
:1045F000DBCFE6FF150EE66EE8DAE552E552FA0E7D
:10460000DBCF14F0FB0EDBCF15F0166A176AD880EB
:10461000090E14541A0E1554000E1654000E175499
:104620001CE3F80EDBCF18F0F90EDBCF19F01A6A95
:104630001B6AD880090E18541A0E1954000E1A5409
:10464000000E1B540AE2D950F80FE96EFF0EDA2073
:10465000EA6E0A0EEE5E1A0EED5AF80EDBCFE6FF9A
:10466000120EE66EB2DAE552E552F90EDBCFE6FF46
:10467000130EE66EAADAE552E552100EE66E1F0E34
:10468000E66EC8DAE552E552200EE66E1F0EE66EC3
:10469000E6DAE552E552050EDB5042E0F80EDB2A81
:1046A000F90E01E3DB2AFA0EDBCF14F0FB0EDBCFB1
:1046B00015F0166A176AD880090E14541A0E15548C
:1046C000000E1654000E17541CE3F80EDBCF18F042
:1046D000F90EDBCF19F01A6A1B6AD880090E18543C
:1046E0001A0E1954000E1A54000E1B540AE2D95027
:1046F000F80FE96EFF0EDA20EA6E0A0EEE5E1A0E71
:10470000ED5AF80EDBCFE6FFE66A5FDAE552E552D6
:10471000F90EDBCFE6FF010EE66E57DAE552E55201
:10472000060EE15C02E2E16AE552E16EE552E5CF98
:10473000DAFFE7CFD9FF12001F0EE66E94D9E552DB
:10474000146E00011450200B200A01E0010E00D06D
:104750001200D9CFE6FFDACFE6FFE1CFD9FFE2CFF3
:10476000DAFFE6528A96728AA49E3A0E756EA4AE5D
:10477000FED7A49E7550DF6E756AA4AEFED7A49EC8
:104780007550DF6E8A86DF5000D0E552E552E5CFE6
:10479000DAFFE7CFD9FF1200D9CFE6FFDACFE6FF85
:1047A000E1CFD9FFE2CFDAFFE652E652E6528A962F
:1047B000728AA49E3A0E756EDE6ADD6AD950FC0FCD
:1047C000E96EFF0EDA20EA6EEE50ED1005E0FC0E09
:1047D000DB06FD0E01E2DB06A4AEFED7A49E020EB0
:1047E00075CFDBFFDECF14F0DDCF15F0FA0EDBCF97
:1047F00016F0FB0EDBCF17F01650145C175015584F
:1048000028E28A96728A756ADF2A010E01E3DB2AA2
:10481000D950FC0FE96EFF0EDA20EA6EEE50ED1073
:1048200011E0FC0EDB2AFD0E01E3DB2AA4AEFED76D
:10483000A49EFC0EDBCFE9FFFD0EDBCFEAFF75CFB8
:10484000EFFF06D0A4AEFED7A49E020E75CFDBFF0D
:10485000C9D78A86DECF14F0DDCF15F014C0F3FF80
:1048600015C0F4FF00D0E552E552E552E552E5CF20
:10487000DAFFE7CFD9FF1200D9CFE6FFDACFE6FFA4
:10488000E1CFD9FFE2CFDAFFE6528A96728AA49E80
:104890007A0E756EA4AEFED7A49E7550DF6EFD0E27
:1048A000DB50756EA4AEFED7A49E7550DF6E8A866F
:1048B000E552E552E5CFDAFFE7CFD9FF1200D9CFB5
:1048C000E6FFDACFE6FFE1CFD9FFE2CFDAFFE6522B
:1048D0008A96728AA49E7A0E756EA4AEFED7A49EA6
:1048E0007550DF6ED950FA0FE96EFF0EDA20EA6ECE
:1048F000EE50ED1018E0FC0EDBCFE9FFFD0EDBCF34
:10490000EAFFEF50756EFC0EDB2AFD0E01E3DB2A99
:10491000FA0EDB06FB0E01E2DB06A4AEFED7A49E78
:104920007550DF6EDFD78A86E552E552E5CFDAFFB4
:10493000E7CFD9FF1200D9CFE6FFDACFE6FFE1CF0C
:10494000D9FFE2CFDAFFE6528A96728AA49E7A0EE7
:10495000756EA4AEFED7A49E7550DF6ED950FA0FC7
:10496000E96EFF0EDA20EA6EEE50ED1019E0FC0E53
:10497000DBCFF6FFFD0EDBCFF7FF0800F550756EBD
:10498000FC0EDB2AFD0E01E3DB2AFA0EDB06FB0E32
:1049900001E2DB06A4AEFED7A49E7550DF6EDED723
:1049A0008A86E552E552E5CFDAFFE7CFD9FF12005C
:1049B000D9CFE6FFDACFE6FFE1CFD9FFE2CFDAFFCA
:1049C000E652E652E652E652E652200EE66E1E0E21
:1049D000E66E20D9E552E552010EF36EF3CFDBFF10
:1049E000020EDB6A010EDBCF14F0DB06020EDBCF1A
:1049F00015F001E2DB061450151006E00C0EE66E11
:104A00001AEC62F0E552EED78A96728AA49E756817
:104A1000A4AEFED7A49E7550DF6E8A86010EF36E9B
:104A2000030EF3CFDBFF040EDB6A030EDBCF14F0C3
:104A3000DB06040EDBCF15F001E2DB061450151087
:104A400006E00C0EE66E1AEC62F0E552EED7050EAB
:104A5000E15C02E2E16AE552E16EE552E5CFDAFFA0
:104A6000E7CFD9FF1200D9CFE6FFDACFE6FFE1CFDB
:104A7000D9FFE2CFDAFFE6528A96728AA49EFD0E33
:104A8000DB50756EA4AEFED7A49E7550DF6E756ABE
:104A9000A4AEFED7A49E7550DF6E8A86DF5000D08C
:104AA000E552E552E5CFDAFFE7CFD9FF1200D9CFC3
:104AB000E6FFDACFE6FFE1CFD9FFE2CFDAFFE65239
:104AC0008A96728AA49E8A96728AFD0EDB50756E53
:104AD000A4AEFED7A49E7550DF6E756AA4AEFED755
:104AE000A49E7550DF6E756AA4AEFED7A49E755065
:104AF000DF6E8A86DF5000D0E552E552E5CFDAFF5F
:104B0000E7CFD9FF1200D9CFE6FFDACFE6FFE1CF3A
:104B1000D9FFE2CFDAFFE652E652140EE66E020E3D
:104B2000E66E04D9E552E552FD0EDBCFE6FF140E2A
:104B3000E66E4BD8E552E552010EE66E120EE66EB9
:104B400044D8E552E5520A0EE66E030EE66EEED844
:104B5000E552E5520A0EE66EAADFE552146E000138
:104B600014B0F8D7140EE66E020EE66EDFD8E552EA
:104B7000E552E66A120EE66E28D8E552E552180EA6
:104B8000E66E95DFE552146E14C0DFFF190EE66E77
:104B90008EDFE552146E010E14C0DBFF000EE66ED0
:104BA000E66AC4D8E552E552DECF14F0DDCF15F049
:104BB00014C0F3FF15C0F4FF00D0E552E552E552F2
:104BC000E5CFDAFFE7CFD9FF1200D9CFE6FFDACF82
:104BD000E6FFE1CFD9FFE2CFDAFFE6528A96728A8A
:104BE000A49EFD0EDB504009756EA4AEFED7A49EB8
:104BF0007550DF6EFC0EDB50756EA4AEFED7A49E22
:104C00007550DF6E8A86E552E552E5CFDAFFE7CFD1
:104C1000D9FF1200D9CFE6FFDACFE6FFE1CFD9FF07
:104C2000E2CFDAFFE6528A96728AA49EFD0EDB502E
:104C3000A009756EA4AEFED7A49E7550DF6EFC0E63
:104C4000DB50756EA4AEFED7A49E7550DF6E8A86CB
:104C5000E552E552E5CFDAFFE7CFD9FF1200D9CF11
:104C6000E6FFDACFE6FFE1CFD9FFE2CFDAFFE65287
:104C70008A96728AA49EFD0EDB508009756EA4AEE2
:104C8000FED7A49E7550DF6EFC0EDB50756EA4AE91
:104C9000FED7A49E7550DF6E8A86E552E552E5CFB9
:104CA000DAFFE7CFD9FF1200D9CFE6FFDACFE6FF70
:104CB000E1CFD9FFE2CFDAFF140EE66E020EE66E08
:104CC00035D8E552E552FD0EDBCFE6FF140EE66E59
:104CD0007CDFE552E552FB0EDBCFE6FF160EE66EFB
:104CE00074DFE552E552FC0EDBCFE6FF170EE66EF1
:104CF0006CDFE552E5520A0EE66E030EE66E16D83C
:104D0000E552E5520A0EE66ED2DEE552146E00015F
:104D100014B0F8D7000EE66EE66A08D8E552E55200
:104D2000E552E5CFDAFFE7CFD9FF1200D9CFE6FF92
:104D3000DACFE6FFE1CFD9FFE2CFDAFF030EE66E6E
:104D40001F0EE66E67DFE552E552FD0EDBCFE6FF94
:104D50001F0EE66E84DFE552E552E552E5CFDAFF3D
:104D6000E7CFD9FF1200040EE66E1F0EE66E52DF8B
:104D7000E552E5521D0EE66E76DEE552146E000138
:104D800014B4F8D71F0EE66E6EDEE552146E000105
:104D900014B6F8D7200EE66E1E0EE66E60DFE55202
:104DA000E5521200200EE66E1E0EE66E33DFE5526F
:104DB000E5521D0EE66E57DEE552146E000114A09A
:104DC000F8D7040EE66E1F0EE66E49DFE552E55297
:104DD0001200D9CFE6FFDACFE6FFE1CFD9FFE2CF6D
:104DE000DAFF150EE66E030EE66EA0DFE552E55221
:104DF000FD0EDBCFE6FF150EE66EE7DEE552E5526F
:104E0000000EE66EE66A92DFE552E552E552E5CF26
:104E1000DAFFE7CFD9FF1200D9CFE6FFDACFE6FFFE
:104E2000E1CFD9FFE2CFDAFFE652150EE66E030EB0
:104E3000E66E7CDFE552E552150EE66E14DEE552B5
:104E4000146E14C0DFFF000EE66EE66A6FDFE552F7
:104E5000E552DF5000D0E552E552E5CFDAFFE7CF6B
:044E6000D9FF120064
:0C4E6400D9CFE6FFDACFE6FFE1CFD9FF9F
:104E7000E2CFDAFFE652DF6A0A0EDF5C06E2DFCF3E
:104E8000E6FFEFD8E552DF2AF7D703019583E55215
:104E9000E552E5CFDAFFE7CFD9FF12000301A3699E
:104EA0001200D9CFE6FFDACFE6FFE1CFD9FFE2CF9C
:104EB000DAFFE652E652E652D950010FE96EDACF38
:104EC000EAFF000EEA22000EEE6E030EED6EDF6AC0
:104ED0000A0EDF5C01E3BAD0010EDBCFE9FF020E60
:104EE000DBCFEAFF0C0EE926000EEA22EECF14F02B
:104EF000EFCF15F0166A176A145015101610171018
:104F000001E098D0010EDBCFE9FF020EDBCFEAFF14
:104F10000C0EE926000EEA22FC0EDBCFEEFFFD0EA2
:104F2000DBCFEDFFD950FC0FE96EFF0EDA20EA6E01
:104F3000EE50ED1024E10301000ED8809655200EAE
:104F4000975505E3000E965D100E975903E2966B98
:104F5000100E976F96C314F097C315F0962B000EA2
:104F60009723010EDBCFE9FF020EDBCFEAFF0C0E29
:104F7000E926000EEA2214C0EEFF15C0EDFFD9505D
:104F8000FA0FE96EFF0EDA20EA6EEE50ED1022E025
:104F90000A0EE66EE66AFA0EDBCFE6FFFB0EDBCF0B
:104FA000E6FF010EDBCFE9FF020EDBCFEAFFE9CF20
:104FB00014F0EACF15F014C0E6FF15C0E6FF9BEC35
:104FC0005DF0166E060EE15C02E2E16AE552E16E0A
:104FD00016501CD00A0EE66EE66AE668010EDBCFBC
:104FE000E9FF020EDBCFEAFFE9CF14F0EACF15F0BC
:104FF00014C0E6FF15C0E6FFE9EC5DF0166E050E85
:10500000E15C02E2E16AE552E16E1650010EDBCF8F
:10501000E9FF020EDBCFEAFF0A0EE926000EEA22C4
:10502000F80EDBCFEEFFF90EDBCFEDFFDFCF8CF319
:10503000DF500ED0D950010FE96E000EDA20EA6E73
:105040000E0EEE26000EEF22DF2A42D7FF0E00D012
:10505000E552E552E552E552E5CFDAFFE7CFD9FF59
:105060001200D9CFE6FFDACFE6FFE1CFD9FFE2CFDA
:10507000DAFF0A0EF36EFD0EDBCFF4FFF350F45CA3
:1050800001E320D0FD0EDB500E0DF3CFE9FFF4CF8E
:10509000EAFF000EE926030EEA220C0EE926000EB6
:1050A000EA22EE6AED6AFD0EDB500E0DF3CFE9FF4A
:1050B000F4CFEAFF000EE926030EEA22EE6AEE6A5A
:1050C000EE6AEE6AE552E5CFDAFFE7CFD9FF1200CC
:1050D000D9CFE6FFDACFE6FFE1CFD9FFE2CFDAFFA3
:1050E000080EE76EFC0EDBCF14F0FD0EDBCF15F0E3
:1050F000E7501426000E1522166A176A0B0E1426A6
:105100001A0E1522000E162217220E0E1426000E5D
:10511000152216221722140E1426000E152216220E
:10512000172214C0E6FF15C0E6FF87EC1FF0E5521A
:10513000E552FC0EDBCF91F3FD0EDBCF92F3E5528F
:10514000E5CFDAFFE7CFD9FF1200D9CFE6FFDACFFC
:10515000E6FFE1CFD9FFE2CFDAFF080EE76EFC0EE3
:10516000DBCF14F0FD0EDBCF15F0E7501426000E58
:10517000152214C0E6FF15C0E6FF88EC59F0E55291
:10518000E552FC0EDBCF93F3FD0EDBCF94F3E5523B
:10519000E5CFDAFFE7CFD9FF1200D9CFE6FFDACFAC
:1051A000E6FFE1CFD9FFE2CFDAFF6DEC1BF000099B
:1051B00003E1F36AF46A31D0FD0EDB500301A35D15
:1051C0000CE0FD0EDBCFA3F303018D6B8E6B000EA5
:1051D000E66EE66A7DDFE552E552FD0EDBCF8CF32D
:1051E000C00E186E050E196E1A6A1B6A8DC31CF06C
:1051F0008EC31DF01E6A1F6A1C50185C146E1D5071
:105200001958156E1E501A58166E1F501B58176EDF
:1052100014C0F3FF15C0F4FF00D0E552E5CFDAFF6C
:10522000E7CFD9FF1200D9CFE6FFDACFE6FFE1CF13
:10523000D9FFE2CFDAFF91C314F092C315F0166ADA
:10524000176AC00E145C050E1558000E1658000E95
:10525000175802E3000E15D0FD0EDBCFE6FF3CEC45
:1052600024F0E5520301912B000E922391518D5DA4
:1052700092518E5904E291C38DF392C38EF3010EC5
:1052800000D0E552E5CFDAFFE7CFD9FF1200D9CF42
:10529000E6FFDACFE6FFE1CFD9FFE2CFDAFFE65251
:1052A000E652C00E186E050E196E1A6A1B6A91C37B
:1052B0001CF092C31DF01E6A1F6A1C50185C146E0D
:1052C0001D501958156E1E501A58166E1F501B5837
:1052D000176E14C0DEFF15C0DDFFDECF14F0DDCF8A
:1052E00015F0FA0EDBCF16F0FB0EDBCF17F01650E1
:1052F000145C175015580AE2D9CFE9FFDACFEAFF5C
:10530000FA0EEECFDBFFFB0EEDCFDBFFFA0EDBCFAD
:1053100008F0FB0EDBCF09F008500301912709507C
:10532000922391518D5D92518E5904E291C38DF378
:1053300092C38EF3FA0EDBCFE6FFFB0EDBCFE6FF68
:10534000FC0EDBCFE6FFFD0EDBCFE6FF5FEC24F0CB
:10535000E552E552E552E552FA0EDBCF14F0FB0EB2
:10536000DBCF15F014C0F3FF15C0F4FF00D0E552F9
:10537000E552E552E5CFDAFFE7CFD9FF1200D9CFEA
:10538000E6FFDACFE6FFE1CFD9FFE2CFDAFFE65260
:10539000E652C00E186E050E196E1A6A1B6A91C38A
:1053A0001CF092C31DF01E6A1F6A1C50185C146E1C
:1053B0001D501958156E1E501A58166E1F501B5846
:1053C000176E14C0DEFF15C0DDFFDECF14F0DDCF99
:1053D00015F0FA0EDBCF16F0FB0EDBCF17F01650F0
:1053E000145C175015580AE2D9CFE9FFDACFEAFF6B
:1053F000FA0EEECFDBFFFB0EEDCFDBFFFA0EDBCFBD
:1054000008F0FB0EDBCF09F008500301912709508B
:10541000922391518D5D92518E5904E291C38DF387
:1054200092C38EF3FA0EDBCFE6FFFB0EDBCFE6FF77
:10543000FC0EDBCFE6FFFD0EDBCFE6FF9BEC24F09E
:10544000E552E552E552E552FA0EDBCF14F0FB0EC1
:10545000DBCF15F014C0F3FF15C0F4FF00D0E55208
:10546000E552E552E5CFDAFFE7CFD9FF1200D9CFF9
:10547000E6FFDACFE6FFE1CFD9FFE2CFDAFFFC0E9D
:10548000DBCF16F0FD0EDBCF17F016C0E6FF17C01E
:10549000E6FFFC0EDBCFE6FFFD0EDBCFE6FF71EC97
:1054A0005EF0E552E552F3CF18F0F4CF19F018C0D2
:1054B000E6FF19C0E6FFFC0EDBCFE6FFFD0EDBCFFB
:1054C000E6FFE5DEE552E552E552E552E552E7CF6B
:1054D00017F0E552E7CF16F01650F324146E17506C
:1054E000F420156E14C0F3FF15C0F4FF00D0E55290
:1054F000E5CFDAFFE7CFD9FF1200D9CFE6FFDACF49
:10550000E6FFE1CFD9FFE2CFDAFFFC0EDBCF16F0EA
:10551000FD0EDBCF17F016C0E6FF17C0E6FFFC0E4E
:10552000DBCF1AF0FD0EDBCF1BF01C6A1AC0E6FFC2
:105530001BC0E6FF1CC0E6FF7FEC5EF0E552E552C3
:10554000E55207C018F008C019F018C0E6FF19C0EE
:10555000E6FFFC0EDBCFE6FFFD0EDBCFE6FF0FDF45
:10556000E552E552E552E552E552E7CF17F0E55234
:10557000E7CF16F01650F324146E1750F420156E72
:1055800014C0F3FF15C0F4FF00D0E552E5CFDAFFF9
:10559000E7CFD9FF1200D9CFE6FFDACFE6FFE1CFA0
:1055A000D9FFE2CFDAFF1C0EE12402E3E168E65204
:1055B000E16E03018C510E0DF3CF14F0F4CF15F012
:1055C000000E1426030E1522080E14C0DBFF090E70
:1055D00015C0DBFF080E156A8D25146E8E5115223D
:1055E0000A0E14C0DBFF0B0E15C0DBFF080EDBCF6D
:1055F000E9FF090EDBCFEAFF0C0EE926000EEA22D6
:10560000EECFE6FFEFCFE6FF6EEC34F0E552E55269
:10561000F3CFDEFFF4CFDDFF080EDBCFE9FF090E8D
:10562000DBCFEAFF0A0EE926000EEA22EECFE6FF04
:10563000EFCFE6FF6EEC34F0E552E552020EF3CF09
:10564000DBFF030EF4CFDBFF0A0EDBCFE6FF0B0E12
:10565000DBCFE6FF6EEC34F0E552E552040EF3CFFB
:10566000DBFF050EF4CFDBFF060EDB6A070EDB6AFD
:105670000C0E02C1DBFF0D0E03C1DBFF0E0E04C1D9
:10568000DBFF0F0E05C1DBFF080EDBCFE9FF090EC4
:10569000DBCFEAFF100EEECFDBFF110EEECFDBFF0C
:1056A000120EEECFDBFF130EEECFDBFF140EDB6A24
:1056B000110EF36E150EF3CFDBFF0A0EDBCF08F0F1
:1056C0000B0EDBCF09F0160E08C0DBFF170E09C06A
:1056D000DBFF160EDBCFE6FF170EDBCFE6FF6EEC2F
:1056E00034F0E552E552160EF3CFDBFF170EF4CF80
:1056F000DBFF0C0EE66EE66AD9500C0FE66E000E6C
:10570000DA20E66EF5EC34F0E552E552E552E5526A
:10571000F3CF14F0F4CF15F0141E151E060E14C0AE
:10572000DBFF070E15C0DBFF190EE66E1A0EE66EE4
:1057300087EC1FF0E552E5520A0EDBCFE6FF0B0EB9
:10574000DBCFE6FF110EE66E080EDBCFE9FF090E98
:10575000DBCFEAFFE9CF14F0EACF15F014C0E6FF83
:1057600015C0E6FFC7EC58F0166E050EE15C02E2CC
:10577000E16AE552E16E1650080EE66EE66AD9CF90
:10578000E6FFDACFE6FF5FEC24F0E552E552E552A2
:10579000E5522D0EE66E1A0EE66EC5EC1FF0E552D0
:1057A000E552180EF3CFDBFF190EF4CFDBFF0A0E24
:1057B000DBCFE6FF0B0EDBCFE6FF8BEC20F0E552F4
:1057C000E5521A0EF3CFDBFF1B0EF4CFDBFFD950EF
:1057D0001A0FE96E000EDA20EA6EEE50ED1004E1C9
:1057E0001A0EDB681B0EDB68180EDBCFE6FF190E06
:1057F000DBCFE6FFC5EC1FF0E552E552330EE66E57
:105800001A0EE66E87EC1FF0E552E552020EE66EC8
:10581000E66AD9501A0FE66E000EDA20E66E5FECEB
:1058200024F0E552E552E552E552F0EC1DF003019B
:105830008D6B8E6B0301A3691C0EE15C02E2E16AD1
:10584000E552E16EE552E5CFDAFFE7CFD9FF12006E
:10585000D9CFE6FFDACFE6FFE1CFD9FFE2CFDAFF1B
:10586000FD0EDBCF8CF3DB500301A45D03E0F36A94
:10587000F46A16D0030195A107D09591000EE66E4B
:10588000E66A63DCE552E552030193518F5D146EC5
:1058900090519455156E14C0F3FF15C0F4FF00D05D
:1058A000E552E5CFDAFFE7CFD9FF1200D9CFE6FF07
:1058B000DACFE6FFE1CFD9FFE2CFDAFF03018F5164
:1058C000935D9051945904E28C510301A45D02E070
:1058D000000E12D0A9EC23F0E66EFC0EDBCFE9FF40
:1058E000FD0EDBCFEAFFE552E750EF6E0301932B8D
:1058F000000E9423010E00D0E552E5CFDAFFE7CF8A
:10590000D9FF1200D9CFE6FFDACFE6FFE1CFD9FF0A
:10591000E2CFDAFFE652E65203018F51935D9051D8
:10592000945904E28C510301A45D03E0F36AF46A24
:1059300052D0030193518F5D146E90519455156EA2
:1059400014C0DEFF15C0DDFFDECF14F0DDCF15F093
:10595000FA0EDBCF16F0FB0EDBCF17F01650145CFF
:10596000175015580AE2D9CFE9FFDACFEAFFFA0E4D
:10597000EECFDBFFFB0EEDCFDBFFFA0EDBCFE6FF5A
:10598000FB0EDBCFE6FFFC0EDBCFE6FFFD0EDBCF31
:10599000E6FFCCEC23F0E552E552E552E552FA0E73
:1059A000F3CFDBFFFB0EF4CFDBFFFA0EDBCF08F00B
:1059B000FB0EDBCF09F00850030193270950942315
:1059C000FA0EDBCF14F0FB0EDBCF15F014C0F3FFA3
:1059D00015C0F4FF00D0E552E552E552E5CFDAFFFD
:1059E000E7CFD9FF1200030195B309D07BEC1BF080
:1059F00003018F6B906B0301A4690301958312006F
:105A0000D9CFE6FFDACFE6FFE1CFD9FFE2CFDAFF69
:105A1000190EE12402E3E168E652E16E03018F6BA7
:105A2000906B080EE66EE66AD9CFE6FFDACFE6FFA6
:105A3000CCEC23F0E552E552E552E552DECFE6FF2D
:105A4000DDCFE6FF6EEC34F0E552E552F3CFDEFF3A
:105A5000F4CFDDFF020EDBCFE6FF030EDBCFE6FF68
:105A60006EEC34F0E552E552020EF3CFDBFF030E8D
:105A7000F4CFDBFF040EDBCFE6FF050EDBCFE6FF46
:105A80006EEC34F0E552E552F3CF14F0F4CF15F09C
:105A9000080E145E000E155A040E14C0DBFF050E2E
:105AA00015C0DBFFD950060FE96E000EDA20EA6E52
:105AB000EE50ED1001E18AD0FC0EDBCFE9FFFD0EC8
