:020000040000fa
:080000000034040000000000c0
:020000040000fa
:10680000af5123000e7f24000e018800000000001d
:106810000c00070000772000110020001100070085
:10682000000020000000e000020032000000020032
:1068300000000000dea10200000000000040da00bd
:106840000000fe004440a900603123000000e00089
:106850000300320020002000a00188004440a8006e
:106860000000060091018800800078000000eb0025
:1068700015003700e280400032a0b4009101ba0058
:10688000e280400032a0b4009102ba00e2804000f1
:1068900032a0b4000002eb00472bde00f507b20087
:1068a000602ce10004003a000059eb008301e9008c
:1068b000fdff3e00040037006128e10001003200c6
:1068c0000082eb00040007001101ba000200e000a2
:1068d000e8ff3a00000006003159ba008301e900e0
:1068e0000c0032002159ba008301e900080032008f
:1068f0000400e00003003a00e280400032a0b4004f
:10690000f5ff370011d9ba008301e900faff3a0018
:106910008100e800e180400032a0b40000000600e1
:106920006900e100040035006d00e100030034005f
:106930000002b10001003200000005001000050057
:106940001004b100030035009001b10001003c00cb
:106950001000050000000500800078001104b1005f
:10696000030035009101b10001003c000050a0007f
:10697000000006001004b100070035009001b100ce
:10698000040034007000b100030035009001b10034
:1069900001003c001000050000000500020ab900db
:1069a000001bb9000200b8008100420081004300d2
:1069b00000000600881f7800000478005001be0027
:1069c0004000be00040040008580480006014900e8
:1069d00087814900009cbe000294be000400e100d3
:1069e0000588e1000690e1000798e100020031000f
:1069f000680044001008e8004f047800000006001a
:106a0000f4874700889fbe008a9fbe008c9fbe000f
:106a10008e1f78000205be000004be00d4b79f00a0
:106a2000e5b79f00f6b79f0087bf9f000000eb000f
:106a3000c0b79f00b0b79f00a0b79f0090b79f005e
:106a400080b79f000d042000bfb097004fb09700a3
:106a5000000140000000e0000f003d004f08de0094
:106a600000007100c0b79f009e00070001003d00bc
:106a700012002000a100070001003d0012002000cc
:106a8000a6000700b1000700b60007000f00400095
:106a9000c8ff0700220037004f08de000006710023
:106aa000ccb79f008f00070001003d0012002000be
:106ab0009200070001003d0012002000970007002f
:106ac000a20007000fb297009fb297002fb3970064
:106ad000bfb39700a90007000000520081805a0050
:106ae00002015b0083815b0080b79f0091b79f002c
:106af000a2b79f00b3b79f000007eb009f000700fd
:106b00000020e10001a8e10002b0e10003b8e100cb
:106b1000010031001e0020000e005600c0b79f008b
:106b20004fb297000400e00007003500100020007d
:106b3000010020006011b800080470008984700012
:106b40000a0571008b8571008d06e900beff3a00d1
:106b50000400e00003003d00820007000f00400039
:106b600094ff07004fa897000000e00004003a00df
:106b70000fb497009fb497002fb59700bfb597004b
:106b8000940007004f0778004f06be004f05be0077
:106b90004f04be004f01b10000000600881f7800be
:106ba00018002000881f780095ff07008f87e900f4
:106bb0004f04780000000600801feb0090ff0700e4
:106bc0008f87e90000000600889fbe008a9fbe00f4
:106bd0008c1f78006e00070007003d00730007005f
:106be000e00f5b00e08f5b0007003d003200070014
:106bf0000006eb00040037003400070002003d00ef
:106c00002a0007001c00200072000700e3ff0700b5
:106c10000203be000002be000c00e00001003200d2
:106c2000220007000400be000601be004f067800e7
:106c30004f05be004f04be0000000600889fbe0046
:106c40008a9fbe008c1f78005100070005003d00a0
:106c500056000700e00f5b00e08f5b0006003d0080
:106c6000040037001900070003003d006000b80071
:106c70006011b8001000070056000700ceff0700a3
:106c80000203be000002be000c00e0000100320062
:106c9000060007000400be000601be004f06780093
:106ca0004f05be004f04be00000006006000b800a3
:106cb0006011b800000037000402500085825800bf
:106cc0000603590087835900000006000006eb0008
:106cd000e00f5200e08f5a00e00f5b00e08f5b0096
:106ce000000006000180400090b79f000001eb000b
:106cf0008fb097000100e000000006000200700065
:106d000090b79f000180400080b79f000001eb001a
:106d1000ffa897000100e0000000060002007000dc
:106d200080b79f00018040006faa9700cf20de004f
:106d300001007000f0af9f00040242002500070030
:106d40004f18de000002720000000600e4af9f0052
:106d50000804440089844c000a054d008b854d00d1
:106d6000000006003fb29700cfb297005fb39700d4
:106d7000efb3970000fe2f00000006003fb0970021
:106d8000cfb097005fb19700efb197000000060009
:106d90000205be000004be00e00f5000e08f580066
:106da000e00f5900e08f5900000006006000b800b5
:106db0006011b80008045000898458000a05590081
:106dc0008b8559001c002000e00f5200e08f5a0014
:106dd000000006000800be000a01be000000060018
:106de0001400200073013700889fbe008a9fbe00f8
:106df0008c1f78008a0107009101330003866c0024
:106e00006450e1002e0032006420e10033003200c3
:106e10006150e1002f0032006120e10031003200ba
:106e200085855500eb07b00009002000080420000c
:106e3000050037000804440089844c000a00310032
:106e40000603430087834b000001530081815b00f0
:106e5000f8ff33000203be000800a000080444004d
:106e600089844c00f6ff3900c639dd0083017300c8
:106e700001003200130020008904d1000884d300ef
:106e80000998a300050032000800a7000300a00035
:106e90008904d1000884d3008b05e8008904d1005f
:106ea0000884d3000001eb000281d20074010700c6
:106eb00001f0a1000cf0a70001f0a000690137006b
:106ec0006420e1006b0132000801be000200be0038
:106ed000f7ff37006120e100660132006000b80072
:106ee000f3ff37000000200001f82700f0ff370013
:106ef000889fbe008a9fbe00010578000100e00067
:106f00000400350008003c000000e00020003200d2
:106f10000500370060001000e080180002003b0010
:106f200001f02c001a0037000004be006011b80008
:106f30006b0920000982cf00020039000882cf00cf
:106f40000441b000694252000e00320008003b00cc
:106f500082817100610164008904d1000884d3003a
:106f60008b05e8000442e800f9ff3a00050037000d
:106f70000804440089844c008b05e9000442e900c0
:106f8000fbff3a003e0107000af0a70001f0a00055
:106f90004f05be004f04be000000060003f0a20033
:106fa000889fbe008a9fbe008c1f78001c010700ce
:106fb000230133006450e1004f0032006420e100ff
:106fc0005200320003826c0007003b000905d0002c
:106fd0000306d000820f54000c065d000200390049
:106fe000020032008901780003067800858255008e
:106ff00004003d000003fd008103fd008502ea005e
:107000008b854200840f720002003b00600010007c
:10701000e08018006011b8000005eb007a28e1005c
:107020000a00390006007800c75ddd00f707b200ee
:10703000878075002d003700828171000a01780079
:10704000610560008180d1000080d3008502e900e5
:10705000f9ff3b00060440008784480002003b0023
:1070600060041400e0841c000988a30007003200bb
:107070008a81710082817100610164008904d100fc
:107080000884d3008b05e800170037000978a300b7
:1070900013003a000b00e000130034008b05e900f8
:1070a0000804440089844c000a4474000978a30051
:1070b0000d003a000b00e000070034008b05e900ea
:1070c0000804440089844c0001003a000b002000b1
:1070d0000978a300f7ff32000001eb00020037003f
:1070e000828171000a017800e50007000cf0a7001a
:1070f00001f0a000db0037006420e10002003a004c
:10710000838f6c00db0033000801be000200be006c
:10711000d4003700889fbe008a9fbe008c1f780075
:10712000bf000700c600330003866c006450e10016
:10713000240032006420e100270032006150e100a9
:10714000220032006120e100210032008b854200e4
:10715000eb07b1000134b800003ab800080442005f
:1071600089844a00013ab8000030b80088804000a5
:1071700009014a00040033000000400081804800fb
:10718000020149008b05e900c909dd008301700097
:107190000100320013002000c814de004814dd0096
:1071a0004709de001200b200c808de000884700043
:1071b000b300070001f0a1000cf0a70001f0a0004f
:1071c000a80037006120e100aa0032000801be00db
:1071d0000200be00f7ff37006150e100fcff3a00fb
:1071e000a40037000001eb00cb0037000001be0017
:1071f000320107000470a70003f0a1006509b10087
:10720000160032000d0035006828e1000600350048
:10721000f0ff2f00f1ff27000300e00013003b0008
:1072200001002800000005000000400081804800a7
:107230008502e900fcff3a0008003700f88f4200a1
:1072400002003c008000eb00000005008100d1003e
:107250000080d3008502e800fcff3a000300e00054
:1072600002003b0060001000e080180000000600f3
:107270000081eb00a80037006022b8000602200061
:107280000000d0008180d2000482d2008582d2002a
:107290000000a0000202520083825a000300310065
:1072a0000202420083824a000000a1000603e900b6
:1072b000f3ff3a0000000600839f68000100e00031
:1072c00002003d0060001000e08018000300e000b4
:1072d00002003d0060011100e0811900e6ff070097
:1072e0004f00e00002003b0060001000e08018004a
:1072f00000000600f4ff2f002e003700deff07001d
:107300000400be00000006001400fa00889fbe00c2
:107310008a9fbe008c9fbe000005be000206be0014
:10732000680047000c90be000a90be00f8000700fd
:107330006400e1001a00320016003e006100e10026
:107340001a0032006e049000fe0490000e0b9000b4
:107350009e0b90006011b8009e0590000b38b100a4
:10736000d501200082817100610164008703d10092
:107370000683d3008984d3000884d3008502e90002
:10738000f8ff3a003e0007000df0a70001f0a00052
:107390001a013700f1ff2700f0ff2f001701370017
:1073a00001f8270000002000f7ff37006000b80058
:1073b000f5ff3700889fbe008a9fbe00841f7800bb
:1073c000170007004f00780011003300f0ff2f0076
:1073d000838f6c0006003b00040565000a00a700cf
:1073e0000800370009f0a600100020000800370050
:1073f000820f5400838f5c000300390010002000ce
:1074000001003e000000200009f0a7000000ea0093
:107410004f05be004f04be000000e0000000060063
:107420000004be00a50007000003be000405be0066
:107430000200be00a1000700844f75000000060096
:107440000200be006450e100050036006420e10047
:10745000020036000968a30001003a000800be00df
:107460000160a0004f0678004f05be004f04be002b
:1074700000000600f0ff2f00f1ff2700f9ff3700a2
:1074800081002000618055000b003d000b002000b2
:1074900061fe2f000100e1001d00340082817100b7
:1074a000610164008904d1000884d3000000e80071
:1074b000faff3a00710020006100640003007000d0
:1074c000020060000900320061044400e0844c00c6
:1074d0000988a500050032008b05e8006808e10076
:1074e00002003a008904d1000884d300f20f200082
:1074f0000258e10005003d00c75ddd00f907b2005c
:107500008980750008007800000006000bf827004d
:107510008b00780000000500889fbe008a9fbe0097
:107520008c9fbe00820578000004be006300070047
:107530000800be006420e1000700390002003a00a4
:10754000f1ff2700f0ff2f000160a00012022000d1
:1075500002408800550037006120e10003003a0036
:107560000b00a70001f823005000370001f0a10034
:10757000020021009364240019fe07000800be00e9
:1075800004003500b2fd2000930c2400a000070089
:107590000004be000005eb000b00a6004f0dde004e
:1075a00001f0a1000004be0032982f0023ea23005e
:1075b000d8fe07000001eb0003f023000b00a7003a
:1075c00003f8230076fe070008ff07000000a7006d
:1075d0000a00a20046fe07000b00e0000300320094
:1075e0000200200003f023006cfe070001f0a2005f
:1075f0000006be000200200093042400c5fe070020
:107600000801be0066fe0700809fbe000c00be00a1
:1076100022a22a00d3a72300befe07004f01be000e
:107620005ffe07000004be0001f0a1000200200080
:1076300003982300eafd07000800be00190035008a
:107640000001be00b3fe07000006be00b2c529005f
:10765000e3622300affe070022222b00f3942b00ed
:107660004ffe07000c01be00aafe0700e2732800cf
:1076700083c023004afe07000c01be00a5fe0700e0
:1076800042aa2a00a3e22b0045fe07000c01be001f
:10769000a0fe07000801be009efe07000801be0014
:1076a0003ffe07000a00a70001f0a2004f06be003f
:1076b0004f05be004f04be0000000600c70ade00f2
:1076c000f107b200f50fb20008003200e1cf42002e
:1076d000020032000170a00024000500810f70003c
:1076e000010032000408050044000500810f70000d
:1076f00002003a00140005008502e9000000400085
:1077000081c04800fcff3b000170a0002400050080
:10771000800078005002be005003be004439de00f5
:10772000f700b200f37f200003016100090032007e
:107730000218e10016003a0085017200830173000f
:10774000838173000008200015003a0040002000eb
:107750001300370085017200830173008381730079
:1077600005003a0004a8be0006a8be0010002000d4
:107770000b0037000201e9000402420085824a0042
:1077800006034b0087834b000748a300f9ff320034
:107790000740a00004a8be0006a8be0020002000ec
:1077a00080009800920098000000060068044700de
:1077b0000294be000094be00fc0447008694be0004
:1077c0008494be0009007800d1ff0700080078000b
:1077d000cfff070099007800814f70000b003b003d
:1077e0000800be000c0007004f00b1000300370086
:1077f000f3ff2700f2ff2f006110b9004f06be0013
:107800004f05be004f04be000080fa0000000600d5
:10781000040020000e003700e48240001078a3002e
:1078200007003200640240001178a3003400be005b
:107830001401be00040032000330a700000006005f
:107840003500be001501be000330a0000000060098
:10785000889fbe008a9fbe008c1f78004f26dd00e7
:10786000effe0700f6fe33006120e1004300320026
:107870006250e10041003e003e0039006420e1001a
:107880003c003200058255000f003b000402e80076
:1078900038003a00800f5300818f5b0035003400c0
:1078a0000800be0003f0a10001f0a60003f0a00054
:1078b0000cf0a700bafd0700eafe370006034300fc
:1078c00087834b000c4646000005530081855b0012
:1078d000020033000a03be000c00a0000402e9000d
:1078e000f6ff3b00850578000602430087824b00c7
:1078f00004003a006000b80009f0a70001f0a00001
:10790000d8fe37000002520081825a000704e000ce
:10791000040033000603430087834b008b05e90016
:10792000faff3700090578000604be000203be0016
:107930006011b800d2fe0700e00f5200e08f5a003d
:107940000700350002003c000c08a30004003200d0
:107950000601be0003f0a0000cf0a70090fd070098
:107960000a85680001f0a1000af0a70001f0a0005c
:10797000bcfe37000800be00bafe3700100220002f
:107980000cf0a60000408800bafe3700811f780086
:107990000100e00002003d0060001000e0801800df
:1079a0000300e00002003d0060011100e0811900c9
:1079b00052fe07004f00e00002003b006000100094
:1079c000e0801800000006002800fa00889fbe0032
:1079d0008a9fbe008c9fbe0003866b0073ff07006a
:1079e0000028a30064003a000128a30067003a00c1
:1079f0000008a30062003a000108a30065003a00f5
:107a00001e009000be08900081064000ed3fb100ce
:107a1000f4805700ee019000111ab8008e09900012
:107a2000311bb8009e099000311cb800511db800f0
:107a3000f485570046000700fe0190003a00070059
:107a40008b85e8003e0007008e099000400007008b
:107a5000ee019000340007008b85e8003800070035
:107a60008e099000400007009e0990001b18b80086
:107a7000890440000a854800fe0190003400070098
:107a80008b85e80038000700ee0190003000070009
:107a90008e0990001b18b800890440000a85480030
:107aa0000a98a30008003a000402420085824a00b6
:107ab00006034b0087834b0008044c0089844c006c
:107ac0000a054d008d06e90084827200850273006c
:107ad0004c3add00850272000100320015002000e2
:107ae000443ade001400b2004538de00cb45dd002c
:107af0000b007000c540de00cb4ddd008b807000b8
:107b00004549de00cb55dd000b017100c551de009b
:107b10000d037800bc01070003f0a1000cf0a700e2
:107b200003f0a00035ff37001b18b80085024000a5
:107b300006834800e0834b0060044c0007003700d8
:107b40001b18b8000603400087834800faff37007f
:107b50001b18b8008703400008844800e0844c00ec
:107b600060054d00000006001b18b8000804400026
:107b700089844800faff37000108a3001cff3a007f
:107b80005800be005801be00e3ff37000008a30004
:107b900017ff3a0009047800f9ff370081037800e5
:107ba000c6fe07000001be006000b8000478a30014
:107bb00013003a006220e10015003e000d0039007c
:107bc0008301d1000281d3008180d3008301d100e1
:107bd0000281d3008180d3008301d1000281d300d0
:107be0008180d3000538b000c42add00f300b20064
:107bf0008381720007f0a70003f0a00000000600d8
:107c0000f3ff2700f2ff2f006110b900fbff3700e0
:107c100003ff2700f7ff37008f1fd100a6010700e1
:107c20008f87e9000000e00000000600801feb00e5
:107c3000a10107008f87e9000000e00000000600b6
:107c4000c60107000509780000000600809feb00d0
:107c5000990107008f87e9000000e000000006009e
:107c60002800fa00889fbe008a9fbe008c9fbe003d
:107c700003866b00cdfe07006400e1004400320083
:107c80006408e1004a0032006100e1004600320071
:107c90006108e10049003200ec0647006000b800ce
:107ca0003d02be003d03be00f48657006011b800df
:107cb0003d04be003d05be007d0320000b003700e3
:107cc0000000a0008d06e90013003200040242000b
:107cd00085824a0006034b0087834b00000040006a
:107ce0008180480002014900838149000802520056
:107cf00089825a000a035b008b835b00f0ff3b0024
:107d00000802420089824a000a034b008b834b0021
:107d10008d06e900edff3a008482720086827200cf
:107d2000f707b200878272000100320015002000c0
:107d30001e0490003e0b900006035400e63fb00086
:107d40000368a300070032000000a7000500a000a0
:107d50008301d1000281d3008180d3000080d30051
:107d60000603e8008301d1000281d3008180d300a3
:107d70000080d3000002eb000482d2002201070041
:107d800003f0a1000cf0a70003f0a0009bfe370059
:107d9000640247006408e10095fe32003400be0032
:107da0003401be00f6ff37006108e10090fe3200aa
:107db0006011b8006000b800f1ff370003ff270032
:107dc00002002000fbff37001400fa00889fbe006d
:107dd0008a9fbe008c9fbe000004be000205be004c
:107de000680047000a90be000890be0048fe0700e9
:107df0000070a7000bf0a1000bf8a30016003a00da
:107e00009e0290003043200080825200b0fe2f007e
:107e10000028e1000d003c00b0fc2f000028e1002c
:107e20000d0034001e0990008e0890007e00900026
:107e30000501b0000201d1008180d3000080d30091
:107e40008502e800fbff3a006cfe370001002800c5
:107e50000000200069fe37006000b80067fe3700b0
:107e60004f89de0082017800b00037002800fa0058
:107e7000889fbe008a9fbe008c9fbe0007067800c8
:107e8000878669000c003b000304780087047800b3
:107e900008f0a10009f0a100840f5000858f580060
:107ea000860f5900890f5c00030033000cf0a2001c
:107eb00001003a000cf0a1003cfe07006400e10064
:107ec0005f003200780147006408e1006100320081
:107ed0006c014700748557003200be001201be00dd
:107ee0003a04be001a05be001e039000be0a9000b0
:107ef0008503530006003d000004fd008104fd00e1
:107f00000205fd008305fd008703ea0005037800f4
:107f10000df8a3000400320060041400e0841c008b
:107f200060051d00e0851d006022b8007d03200073
:107f30000d38e1008006eb000b0039004433dd0012
:107f4000f300b200830173003900370084827200ad
:107f50000d027800e10664008b85d1000a85d3000c
:107f60008984d3000884d3008703e900f7ff3b002e
:107f700008004000898048000a0149008b814900bf
:107f800004003b0060001000e08018006001190050
:107f9000e08119000358a300090032008d827200ad
:107fa00084827200610260008301d1000281d300eb
:107fb0008180d3000080d3000603e8001b00370057
:107fc0000348a30017003a000600e0001700340041
:107fd0000603e9000d00a30000004800818048006e
:107fe00002014900838149000348a3000f003a00c1
:107ff0000600e000090034000603e900000040002c
:1080000081804800020149008381490001003a0053
:108010000003eb000348a300f5ff32006022b80024
:1080200002003700848272006182660076000700d9
:1080300003f0a1000cf0a70003f0a000effd370053
:10804000640147006408e10002003a000df8a30053
:10805000e7fd3a003200be001201be00e7fd370026
:1080600007f0a20081ff37001400fa00889fbe00cd
:108070008a9fbe008c9fbe000004be000205be00a9
:10808000680047000a90be000890be00a0fd0700ef
:108090000070a7000bf0a1000bf8a30020003a002d
:1080a0009e0990000e099000fe0090006e00900066
:1080b0009e0290003443200084825200cffd3200a3
:1080c0000a003c00b4fc2f000428e1001400340036
:1080d0008301d1000281d3008180d3000080d300ce
:1080e0008502e800faff3a00c4fd3700b400200022
:1080f0000428e10007003c000000400081804800a7
:1081000002014900838149008502e900faff3a0033
:10811000bafd3700030028000200200001003700ec
:108120006011b8006000b800b4fd3700889fbe0041
:10813000830478000300e0002c00350003003c00bd
:1081400000827000040271002600320036432000d5
:10815000c50020008383cf000a0039000541b1002b
:108160008283cf00070039000541b1008183cf0031
:10817000040039000541b1008083cf0001003900bf
:108180000541b10085c353006022b80012003200df
:108190000a003b0084827200610260008301d1000a
:1081a0000281d3008180d3000080d3000603e80061
:1081b0008743e800f7ff3a0007003700000040005f
:1081c0008180480002014900838149000603e900db
:1081d0008743e900f9ff3a000b00070009f0a70008
:1081e00003f0a0004f04be00000006006000100075
:1081f000e080180060011900e0811900d3ff3b0006
:10820000033e2c00f7ff3700180020005700200025
:10821000080453000d003d000600200097fc2f00cd
:108220000740e1001e003400848272006102600099
:108230008301d1000281d3008180d3000080d3006c
:108240000804e800f8ff3a004700200061046000dd
:1082500005047400040464000d0032006100400055
:10826000e080480060014900e081490003b8a500b2
:10827000070032000603e8006538e10004003a0018
:108280008301d1000281d3008180d3000080d3001c
:10829000f87f20000830e100030035000803780073
:1082a0006000b8006011b8004433dd00f300b20094
:1082b0008301730000000600889fbe008a9fbe00f5
:1082c0008c9fbe000404be000605be00809fbe0059
:1082d000829fbe002e000700040678000800be0042
:1082e0000a01be002a000700840678004f03be0082
:1082f0004f02be008d4f76007fb097001300330011
:10830000f0ff2f008b8f6b0006003b000d06660010
:108310000c00a7000a00370007f0a600100020009c
:108320000a003700880f5200898f5a008a0f5b00bd
:108330008b8f5b00030039001000200001003e001d
:108340000000200007f0a7000000ea004f06be0072
:108350004f05be004f04be00000006000003be0033
:10836000d6fc07006220e100020032000600be00d9
:1083700005000500e507b100f107b20004f0230095
:108380008480700007f0a70001f0a0002400050021
:1083900005ff270005826100070032000428e10084
:1083a00001003200240005000600070001003a0029
:1083b000440005000408050002000700f9ff3a0028
:1083c000140005006f826100810270008502710057
:1083d00085027200000006008001eb0002003700f9
:1083e000817178008301e800828f5100fcff3a0020
:1083f00000000600800078003004e000feff3a0034
:10840000010050000000e900000006008001eb00c0
:108410000200370061f079008301e800828f51008b
:10842000fcff3a000000060010417800b141510005
:1084300003003a000000e8000204e000faff3a00fe
:108440000300fb0000000600000278008242780072
:10845000034878008100fb00a20020001100090001
:108460008200d8008000fd000043b00070fa9f0039
:10847000014078000104e000030032000043b00036
:1084800060fa9f000000060065fa9f0000000600e9
:1084900080007800630060000f003a004206200070
:1084a000811f7800110009008280d8000100780047
:1084b000cf0078000000e00008003a00c012200061
:1084c0000100400002192000110009000280d800bc
:1084d0000100e00001003200d0160500e0160500a2
:1084e000889fbe008a1f78008c9fbe001004be00cb
:1084f000c2032000030020000800be0023fd070087
:10850000f09a8900c2032000030020000800be008a
:1085100069fb07000004be00c20320000300200026
:108520001afd0700009b8900c20320000300200001
:108530000800be0060fb07000006be0082012000ac
:108540000300200011fd0700109b8900820120001c
:10855000030020000c00be0057fb0700209b890091
:108560006400400072002000110009000200d800e1
:1085700001017800529b890060042000040037004c
:1085800000005500209b8900803623001000e80081
:10859000409b89002a9b8100409b8100bcff070013
:1085a000800f5500f6ff3d006200600001f02f00d3
:1085b00001046600000474006a9b89006036230091
:1085c0000008eb0080027800c44d2300080037004b
:1085d00002805100209b89001500e800309b890033
:1085e0000880fb000000d1000884600000047400d3
:1085f000239b8100309b810064407800084070001c
:108600000081fb004810dd00f80fb2000004740088
:10861000828f5100eeff3d000300e800209b89009f
:10862000e03523004f06be004f0578004f04be0022
:10863000000006000400fa00629c8100c1032000d3
:108640000191b90030021100a0821900e4bf9f001f
:10865000f5bf9f0064805700a1ff07000080fa006b
:1086600000000600889fbe008a9fbe00800478003c
:10867000600090006300b900022b2300000141005c
:108680000b372300924d7800103723009240900062
:1086900001487800203723002241900002487800ea
:1086a0000ac2b300303723000a487800490090001e
:1086b0006300b900622c2300000141004037230011
:1086c000124878005037230092409000014878000b
:1086d0006037230022419000024878007037230061
:1086e0000a487800b90090008a4178000a41780071
:1086f000a037230054ff0700a9009000a3c3b300d4
:1087000002c3b300d03723004fff07009900900049
:10871000a3c3b30002c3b300003823004aff07001d
:10872000990078008a41780002c3b30030382300f2
:1087300045ff0700d90090004806200011000900fd
:108740008800d8008000fd00f3c040008041eb00ad
:108750000a417800603823003bff07005900900071
:10876000110009000800d800a3c0b30002c3b30081
:108770008038230034ff07000b0078004f05be004f
:108780004f04be0000000600aaff0700b5ff370037
:108790000000fa00889fbe008a1f780080027800df
:1087a0001fb99700ee8457006a2a23003200370071
:1087b0000204e80050c2b30080cf50002c003a0001
:1087c0008981e9009800fb0000fd2f000083400034
:1087d0000284e8000600e00009003a008304780003
:1087e0001300780002003700815a78000000e8008a
:1087f000904078000104e000fbff3a001d003700c4
:108800008304780013027800060043008003eb0025
:10881000818040002106b1008a0140008080500024
:1088200013017800811f7800110009000202d800ae
:1088300001007800cf0078000002780063817800a2
:10884000811f7800110009000200d80000017800a3
:10885000cf00780000c3b300805a41008703e800ce
:108860008381e900868f530002003200ecff37005d
:10887000815a780008017800924078000104e000f5
:10888000cbff3a00814a78004f0578004f04be00c4
:108890000080fa0000000600889fbe008a9fbe008c
:1088a0008c1f780000067800020578000304780029
:1088b000810040008105e90080047800180137003c
:1088c0000a02e80050c2b30080cf51000b013a0009
:1088d0000a85e80094407800a0c5b30080cf50001e
:1088e000e800320028003c006d40500080cf50006e
:1088f0008e00320012003c006b40500080cf5000d0
:108900005300320007003c00a2f0220083cf500049
:108910008d0032000040e90080cf5000e0003a00b6
:108920004200370080c4b30080cf5000670032009f
:108930000040e80080cf5000d9003a006c003700ba
:1089400070c5b30080cf50008f00320007003c009c
:108950006440500080cf50007e00320000c0e8002c
:1089600080cf5000ce003a007c00370080c5b300b5
:1089700080cf5000ac0032000040e80080cf5000b3
:10898000c7003a00ba003700a0c6b30080cf50003d
:108990005f0032000f003c006840500080cf500064
:1089a0002700320004003c000040e90080cf500066
:1089b000bb003a001900370030c6b30080cf50002a
:1089c000270032000040e80080cf5000b4003a0099
:1089d0003c00370070c7b30080cf50007a003200ef
:1089e00007003c006a40500080cf50004c0032002d
:1089f0006340400080cf5000a9003a004d0037008e
:108a000080c7b30080cf5000730032000040e80000
:108a100080cf5000a2003a008f003700680090001d
:108a20000000400081292300030037006800900007
:108a300000004000a12823006101780042003700b7
:108a4000480090000000400021272300faff370073
:108a50004800900000004000a1252300f6ff3700e9
:108a6000d8009000c0762000809f4000981f7800ba
:108a700018009000801f780028009000801f780068
:108a800038009000801f78004800900000004000ef
:108a900021272300e11f78006800900000004000bb
:108aa00081292300e11f7800c0f02200801f780098
:108ab0002047230036ff070022472300f087570096
:108ac0002100370038009000010037002800900096
:108ad000801f780010f22200801f780020472300ba
:108ae0002bff070022472300e487570016003700ba
:108af00028009000c2002000110009000200d800e8
:108b00000100e00058003a0082007800560037006b
:108b100078009000801fe80040f22200eeff37004e
:108b200048009000801fe800eaff3700180090001e
:108b3000e7ff37002800900072f22200eb0f500090
:108b400001003c00a2f22200890178008200780036
:108b50006600370018007800ddff370078009000cd
:108b600072002000110009000200d8000001780006
:108b700068009000808f5000010034000201e8007e
:108b8000821f7800d3ff3700780090007200200029
:108b9000110009000200d8008002780081017800ed
:108ba000050278006800900066004000110009008e
:108bb0000200d800818f5100010034000502e80056
:108bc000841f7800c3ff370068009000801f780082
:108bd000d0f22200c0ff3700d8009000c0762000fd
:108be000809f400038009000801f7800480090006f
:108bf0000000400021272300e11f7800680090005a
:108c00000000400081292300e11f780000f32200ca
:108c1000801f780020472300ddfe07002247230045
:108c2000ea875700c8ff3700981f780018009000a7
:108c3000801f780028009000801f7800e0f3220059
:108c4000801f780020472300d1fe07002247230021
:108c5000e8875700bcff370058009000420620000c
:108c6000110009000200d800811f780099ff370029
:108c7000d8009000c0762000809f400070f4220051
:108c800095ff3700080890000000e0000200320065
:108c9000c2928100acff3700b2928100aaff370078
:108ca0002247230050c2b300004978003147230017
:108cb00094487800404723000048eb001104e0008e
:108cc000a1ff3a00040578009fff37000980550096
:108cd00000004100808f500002003a00804deb0000
:108ce00009003700845978008100e80011427800bb
:108cf0000404e000f5ff3a00080037008b8f5400b1
:108d000003003a00804ceb000000eb000900370044
:108d1000835c78008901780004057800830478007a
:108d20009a4178000304e000e5fe3a00834c7800a5
:108d30000c8054004f0678004f05be004f04be0063
:108d400000000600800178000001780031407800c2
:108d5000005978000004e000fcff3a0003007800ae
:108d6000000006000400fa00e0bf9f00e481570005
:108d7000812978000002eb000f0037006fb89700e0
:108d8000904078007fb89700104078000402e80017
:108d900080cf5000040032008180fb000080fb0087
:108da00000805000070037006fb897000000e8000f
:108db000e0bf9f009309e800820f5200efff3a00e6
:108dc0000000eb000080fa00000006000000fa003e
:108dd000cfb8970068815700e043230029030700bc
:108de0000080fa0000000600889fbe000004be005c
:108df000060037000804e8000000fb008900780046
:108e0000e5000700e10f4000040032001840780040
:108e10000004e000f7ff3a000000eb004f04be0042
:108e200000000600881f7800e1432300eeff0700e2
:108e300000047800e1432300a0002000d6000700d2
:108e4000080078004f04780000000600889fbe00ec
:108e50000004be000d0037000900780065fd070022
:108e6000000178000800be00f40a07000000e000de
:108e700002003a0008007800090037009900fb0062
:108e80000800e80035010700000478000800e00051
:108e9000020032001804e000efff3a000000eb008f
:108ea0004f04be00000006000001780000c2b300bd
:108eb000010037000201e8009240780080cf5000a6
:108ec000fcff3200e9cf5000faff3200d0c2b300fd
:108ed00080cf500003003a000201e80014c0b30044
:108ee000050037000042eb00b0c2b30080cf500055
:108ef00001003a000201e8008000eb0005fd2f00b0
:108f0000040037006a08b900008041008500400075
:108f10000201e8009201fb0005804100e90f5000ca
:108f2000f8ff36000404e000010032008100ea008e
:108f3000010078000000060080017800d0162000b3
:108f40000018b800421ade0004024000e082480027
:108f500042062000110009008281d800000178003b
:108f600002025200e0825a0002192000110009009a
:108f70008281d8008000fd0001004200e0804a00ac
:108f800000000600889fbe00000378000102e80090
:108f900010bf200000a2b90010442f0004004000c0
:108fa00044062000811f7800110009000480d800c9
:108fb000cf007800000141006114b800e18f50003b
:108fc0001400360002192000110009000283d800a5
:108fd000010078000000e000070032006300630039
:108fe00008003a00110009000483d8008000fd0049
:108ff0000000e0000300320010002000010020000b
:10900000020037002000200001002000000454006e
:1090100081845c000600e900c7ff070008004000eb
:10902000898048004f04be0000000600889fbe00f3
:109030008a9fbe008c9fbe0000067800d00690007c
:10904000a0fb2f00008046000081eb008081eb0038
:1090500021032000810f500033003e001200200049
:109060008000eb00207b2000c6ff07000005be004b
:10907000c0762000008046003c019000cc009000ab
:10908000c0ff07000004be000a0550008b85580091
:1090900072002000030020000a00be003bfa070017
:1090a00064004000e08048007200200003002000bf
:1090b00036fa070060069800b0762000008046006f
:1090c0009dff0700000454000804e900780698009a
:1090d00082012000030020000a00be002ff60700d6
:1090e0002c019000cf91de000000410081804900fa
:1090f000c20320000300200028f607001c01900096
:10910000cf91de000000410081804900c2032000b1
:109110000300200021f607001c017800cf91de003b
:1091200000014100818149000200be004f06be00df
:109130004f05be004f04be0000000600000378008b
:1091400080027800020278008001eb0008003700fe
:109150000402e90063c07800805a78008301e800c7
:109160000004e00002003a008000eb000600370037
:10917000828f5100f6ff3a00fbff37000040eb0002
:1091800080f07a008100e800848f5000fbff3a00f5
:109190000600780000000600889fbe0000017800ed
:1091a00001047800b10090000118a3003d003200d6
:1091b0000198a30003003a00180090000000e000ae
:1091c00038003a000190a000310498008204780031
:1091d000f90fb200180090000000e00002003a0011
:1091e00028009000000c7800ea8f540006003a0036
:1091f000380090000078a30003003a00880078004f
:10920000d0002000e4ff0700980090005800900074
:10921000808f50000b0032000100e800100498001d
:109220001800780009587800000c780011c0b300cd
:10923000e04f230001487800ea8f54000600320016
:109240001900370088007800094078000c0a0700f0
:109250008004780014003700380090000088a300d4
:109260001100320018019000a80090004800900002
:10927000071f070098009000810f50000400320083
:10928000380090000003b300300498008084eb00a5
:109290000000eb001004980028009000000c7800fb
:1092a000010037008084eb00090078004f04be0005
:1092b00000000600881f780000047800300090004d
:1092c0000008a30007003200800078000120b200ef
:1092d00004003a0011049800a8009000010c7800e6
:1092e000170037000018a300190032000098a300ef
:1092f00017003200a80090000100e00014003200c6
:10930000180190000200e0001100320048009000b7
:10931000df1e070098009000810f5000030032000c
:10932000380090000003b300300498000000eb0008
:109330001004980028009000000c7800380090007d
:109340000058a300020032000080eb00010037004b
:109350000000eb004f047800000006001041780088
:10936000814f5100040032000000e8000204e000d8
:10937000faff3a000000eb00000006000c00fa00c3
:10938000a0bf9f00c0bf9f001afc0700b0bf9f0096
:10939000f0bf9f00100c2000d0bf9f0074815700c9
:1093a000efb097006c805700240a07000080fa0095
:1093b00000000600e6874700889fbe008a9fbe0027
:1093c0008c9fbe008e1f7800000478008106780014
:1093d0000100e00003003200800e78000100370039
:1093e0000804e800984478000900fb004cf50700e9
:1093f000800078000000e000f9ff3a00d0c2b3001e
:1094000080cf540003003a000804e8001bc0b300fa
:1094100005003700b0c2b30080cf540001003a000d
:109420000804e800814578000005eb000a07780091
:109430006000b800f0b79f0081bf9f000b48a300f9
:1094400005003a00e0c2b300984f100002003a0055
:109450000b44a0001e003700984478000900fb0070
:109460000cfd2f000c004000e90f50001a003e00d8
:109470000b14a0000b00fb00e90f55001100320097
:109480000048a300010032000e07e9000a05e800c9
:10949000a2002000030020007fb097008fb8970043
:1094a0003ef507000cc144000281fb0003002000d0
:1094b0000000410081804900f0b79f0081bf9f00fc
:1094c000030037000048a30001003a000e07e8003f
:1094d0000804e800d9ff370050c6b30080cf54001d
:1094e000040032000002eb0050c4b30080cf5400ef
:1094f00032003a008801e80093407800d0c2b300ff
:1095000080cf500002003a000b34a0000300370067
:10951000b0c2b30080cf500003003a008881e80059
:10952000010037008301e8009340780006c3b300d0
:1095300086cf5000fbff32000100fb0005fd2f002d
:1095400005004000e90f50000300360003047800d6
:109550000002eb001600370006c050000082fb003e
:109560000304e800184178000200fb0005004000f9
:10957000e90f50000e003e006a20b900064151007c
:109580000281fb00000241000384e800984078005b
:109590000100fb0005004000e90f500004003e0000
:1095a0006a21b90006c050000080fb0002024000a2
:1095b0000b38a300010032000402ea000405470052
:1095c0000d00e000030032000b18a3000100320080
:1095d000880e78007fb097008fb8970044f6070098
:1095e0000004be000006be006011b800fcf50700d4
:1095f0006011b8000000e0005900320030f82f0080
:10960000800f550003003d0020022000004088002c
:109610005300370000082000800f55000a00340076
:1096200020022000004088000b08a3000300320045
:109630000200200003f82f0049003700020020003c
:1096400003f82700460037000a00e0001c003d0038
:109650000a05ea0006003700922f2000530125007a
:109660000800be00e0f507000004be006a055500d2
:10967000e90f5500f8ff3c000006eb00060037003c
:1096800002002000031224000800be00d6f50700e7
:109690000004be000c06e8008a0f5600f8ff3a00ee
:1096a0000806be0002002000030820000800be00db
:1096b000cbf507000000e00025003d001c0037004e
:1096c0000a00e00007003c0021003700922f200034
:1096d000530125000800be008ef607000004be00fe
:1096e0006a055500e94f5500f8ff3e000006eb0003
:1096f0000600370002002000031224000800be000c
:1097000084f607000004be000c06e8008a0f56002d
:10971000f8ff3a000806be00f2ff2f00f3f727001b
:109720000800be00f3f607000000e0000800340067
:109730000b08a300030032000200200003082800e9
:109740000700370002002000030820000400370053
:109750000b08a300010032000df0a2000c01be00b6
:109760000200be004f0778004f06be004f05be0046
:109770004f04be006f00b100000006008000eb0047
:109780000cff37000c00fa00889fbe000004780030
:10979000cfb09700f0ff2700d0bf9f008004eb0000
:1097a00099bf9f0088bf9f00a8bf9f00200c20008a
:1097b000b0bf9f007881570070805700970a07005c
:1097c0000fb89700094878000fb8970008045000b8
:1097d000080078004f04be000080fa000000060078
:1097e000889fbe008a9fbe0080407800d0c6b3002c
:1097f00080cf5000290036000185fb004206200082
:10980000110009000285d8000001780001047800e9
:109810004311dd002bcd22000b0141006022b80076
:109820000600200007fe2300028890009288900026
:10983000b28990002289900063f80700a9002000f7
:10984000809fbe00110009000984d8000004780040
:109850004f00be004344dd000b044400482290004a
:10986000d822900068239000f823900056f8070053
:10987000801f780001027800110009000985d800d6
:109880000102fd004f0078004322dd000b02420080
:109890005403be004402be001f0037000180fb00dd
:1098a00029cd2200eacf500014003600a20020008b
:1098b000110009000280d80000017800010478003e
:1098c0004311dd00090141006022b80006002000bc
:1098d00007fe230042209000d2209000f221900049
:1098e0006221900038f807004344dd000904440079
:1098f0003802be002803be00070037004300dd0029
:10990000090040006022b8000600200007fe230086
:109910005001be004000be002bf807004f05be00fe
:109920004f04be0000000600889fbe008a1f78001a
:10993000804078000004e00021003d008040ea0003
:10994000d0c6b30080cf5000090034008104fb0072
:1099500042062000110009008204d80000017800ae
:10996000010078004311dd002acd22001f003700de
:109970000100fb0023cd220039003700a2002000a7
:10998000110009000200d8000001780001007800f1
:109990004311dd00030141004300dd0003004000ee
:1099a0003002be002003be0042209000d220900072
:1099b000f22190006221900003f807002e0037008a
:1099c000d0c6b30080cf5000230034008104fb00d8
:1099d00042062000110009008204d800000178002e
:1099e000010078004311dd002ad822000a0141005d
:1099f000a8002000110009000800d8004300dd0085
:109a00000a00400040229000d02290006023900085
:109a1000f02390000288900092889000b289900014
:109a200022899000e8f70700801f78000102780083
:109a3000110009008804d8000102fd004f007800e1
:109a40000402fb004322dd000a0242005403be0070
:109a50004402be00d8ff37000100fb0023d82200db
:109a6000eacf5000c5ff3c004300dd00030040008a
:109a70005001be004000be004f0578004f04be00fc
:109a800000000600ef04b000889fbe008a9fbe0061
:109a90008c9fbe008e1f78006022b8006033b80033
:109aa000e4a79f00f5a79f0086af9f0097af9f0098
:109ab000a0af9f00b1af9f00c2af9f008002eb003c
:109ac000a5a79f00d00737008001eb0050c2b3006c
:109ad00080cf5000090032000100fb00afa89700c2
:109ae000adfd0700e10f4000c70732002fa397002c
:109af0000603e800a6a79f00c3073700bfab970087
:109b000097407800b0c2b30080cf500019003200f7
:109b100007003c006b40500080cf50001000320026
:109b20006340400080cf500021003a00160037000b
:109b3000d0c2b30080cf5000040032006340400028
:109b400080cf50001a003a00140037000330a00004
:109b50003fac97000804e800b8af9f00e7ff37006c
:109b60000300a000bfac97008904e800b9af9f00d4
:109b7000e2ff37000310a0003fad97000a05e800a0
:109b8000baaf9f00ddff370003b0a000bfad970064
:109b90008b05e800bbaf9f00d8ff37000320a00073
:109ba0003fa897000000e800b0af9f00d3ff370048
:109bb0000318a300010032000300a1000338a30032
:109bc000010032000320a1000100fb0002fd2f0074
:109bd00002004000e90f500010003e008000eb0042
:109be000e1979f00020278006f9197006a10b90018
:109bf000bfaa97001501fb000001410004014100cc
:109c0000e2979f005500fb00b5af9f0004004000a5
:109c1000e90f50000d003e00f3ff37000003eb009a
:109c2000e6979f00a0c2b30080cf500007003a0023
:109c3000cfab970047047800c7af9f00e8979f001d
:109c4000bfac97008904e800b9af9f00e0c2b30041
:109c50003fad97009a4f100021003a00830678002c
:109c60000de0a0008a00e80064405000914f100011
:109c700004003200b1af9f008005eb00bba79f003e
:109c8000100037004fa89700c0007800c0af9f00b9
:109c9000b1a79f003fa997000281e800b2af9f00e3
:109ca000130037003fa297006a20b900000041006e
:109cb00003004000b0a79f00bfaa97008502e800fc
:109cc000b5af9f003fab97001601fb0003fd2f00cf
:109cd00003004100e90f5000f2ff36000400370096
:109ce000830678000dc0a0008003eb00b7a79f009b
:109cf0003fac9700b8407800b8af9f00e1679f0085
:109d000070c6b30080cf50003c00320017003c000a
:109d10006440500080cf50008f0032000e003c00a5
:109d20007c40500080cf50003300320006003c00e1
:109d30000104e0003a07320000c0e90080cf500083
:109d4000aa003a002900370080c5b30080cf500038
:109d5000a6003a002d00370050c6b30080cf500057
:109d6000230032001f003c00a700370000c7b300eb
:109d700080cf5000250032000a003c0064405000b3
:109d800080cf5000110032006340400080cf50006f
:109d90001c0032006640500080cf500093003a0013
:109da0009900370050c7b30080cf500095003200b3
:109db0006340400080cf50001500320065405000e5
:109dc00080cf500089003a001300370000002800bf
:109dd0000d48a30001003a000001200080867600b3
:109de000c3ff37000da0a000870037000d50a00072
:109df0000d80a000840037000d50a0000d90a00041
:109e0000810037000d60a0007f0037000d50a000da
:109e10000d70a0007c003700cfac9700490078009f
:109e2000c9af9f00e0a79f000000e00002003a00d9
:109e3000eb382300eba79f000000eb00f0a79f008a
:109e4000020037008100e800f1a79f00ffa0970003
:109e50006fa19700028040001004e000f9ff3a0073
:109e6000bfa197000300e000040032007fa297002a
:109e7000848f510001003100f3a79f007fa097005d
:109e80000005eb006f939700800f53000100360030
:109e9000000553004368de00e104600019003a0049
:109ea0000904780009003700afa8970000022000dd
:109eb000b9fc0700e10f400003003200afa3970098
:109ec0008703e800a7a79f000804e8008a0f540052
:109ed000f5ff3a000085eb000a003700efa097007d
:109ee0003100fb00e1a79f00afa89700aafc070084
:109ef000e10f4000030032002fa497000804e8009f
:109f0000a8a79f00ffa597000b00e900f0a79f00fe
:109f1000e10f4000f1ff3a000004eb000900e0000f
:109f20000a003a00b8063700afa8970000022000e8
:109f300099fc0700e10f4000030032002fa19700b9
:109f40000201e800a2a79f000804e8008a0f54005d
:109f5000f5ff3a00ac063700cfa997004300780020
:109f6000c3af9f00cf80de0001017800820178003e
:109f70000203be000002be00e0a79f00f1a79f0001
:109f800082af9f0093af9f004822de00482cdd0087
:109f900004027400e4679f000d48a3000c00320027
:109fa0000404e0000a003200e14f420008003200e1
:109fb00079fa2f0009804700044878004fcd9700b8
:109fc0001a4098002b002000fba79f0003003700d9
:109fd000f0679f0010002000f0a79f0071fa2f008b
:109fe00081804700e1a79f009dff370062fa2f00a4
:109ff0000f014100e2a79f0013002000f3a79f007c
:10a0000097ff37000d0cb30000702000008266003f
:10a01000820432000dc8a300020032006400200058
:10a02000b4a79f000d48a300090032004fa8970075
:10a030004005be004004be00c0af9f00e89f9f00e7
:10a04000f99f9f008aa79f009ba79f0008003700e9
:10a050004fa997004200be00c2af9f00cff6070095
:10a06000e09f9f00f19f9f0082a79f0093a79f0002
:10a070006022b8006033b8006f989700ff9897008f
:10a080000fa197009fa19700e3f607000000e000f2
:10a090000a003d006f9a9700ff9a97000fa3970060
:10a0a0009fa3970007f0a200e49f9f00f59f9f00e9
:10a0b00086a79f0097a79f003d00b3000000eb001c
:10a0c000d0979f006022b8006033b8006f98970067
:10a0d000ff9897000fa197009fa19700d3f6070064
:10a0e0000000e000340032006f989700ff9897005e
:10a0f0000fa197009fa1970083f40700a5fa2f00f6
:10a1000005814700cef607005f9097000000e90048
:10a110006300b900a2002000110009000200d8006d
:10a120008000fd00d1979f000100e00002003d008b
:10a130000100e900d0979f005f9497000840ea0073
:10a14000f9fd07006f9a9700ff9a97000fa39700f9
:10a150009fa397001cf60700a09f9f00b19f9f0040
:10a16000c29f9f00d39f9f006022b800060020007e
:10a1700007ff2300a8f607000000e00002003d00f2
:10a180000800e9000b0037006022b800060020003c
:10a19000470224002f989700bf9897004f99970087
:10a1a000df999700a9f607000000e00002003500e3
:10a1b0000800e800d0979f005f939700d6a79f0004
:10a1c0000600e00003003c0010c0b300e0679f0001
:10a1d00002003700afcb9700e7679f000d067800bd
:10a1e0000c10b20008003a000d98a300770232006c
:10a1f0005fa49700e40f440003003500bfa497005c
:10a20000890f5400f20135003fa597000a00e000d5
:10a21000040032000d98a300020032000a05e90094
:10a22000baa79f00bfa5970020c1b300f28f5500c9
:10a2300001003e006fc09700e0679f006022b800f9
:10a240006033b8006f989700ff9897000fa19700b0
:10a250009fa1970075f607000000e0006d00320036
:10a260006f659700afc897000ac05000aefd0700a9
:10a270000002be000203be006f989700ff9897008f
:10a280000fa197009fa1970075f60700e09f9f0020
:10a29000f19f9f0082a79f0093a79f00caf6070027
:10a2a0000004be00eef60700e00f5400e08f5c00f3
:10a2b00004003d006022b80006002000071f2400b3
:10a2c000eaf607000002be000203be006f98970086
:10a2d000ff9897000fa197009fa1970060f70700d4
:10a2e0006022b8000600200007fe230057f6070092
:10a2f0000000e0000c0035006022b80006002000dd
:10a3000007fe23006f989700ff9897000fa1970012
:10a310009fa19700d5f60700e09f9f00f19f9f0047
:10a3200082a79f0093a79f006f989700ff989700c0
:10a330000fa197009fa19700a3f607000002be009f
:10a340006033b8000a00fb004304dd00490123002c
:10a3500009004400d000900060019000f0019000de
:10a36000400090000020e10001a8e10002b0e100ff
:10a3700003b8e100100039000400200005002a00a5
:10a380009699290097fb23006f989700ff989700f4
:10a390000fa197009fa197008bf50700e09f9f00fa
:10a3a000f19f9f0082a79f0093a79f005fa1970046
:10a3b0000200e80016003700090044005001be000a
:10a3c0004000be000020e10001a8e10002b0e10071
:10a3d00003b8e1000f0031006022b8000600200041
:10a3e000470224006f989700ff9897000fa19700ed
:10a3f0009fa1970074f50700e09f9f00f19f9f00c9
:10a4000082a79f0093a79f00dfa197000300e900a8
:10a41000d0979f004968de006100600080cf9f00f8
:10a420000004e0004000320000802000008666004a
:10a430003d003a00bfa29700f48f520002003400a2
:10a4400046012000b6a79f006f989700ff989700dd
:10a450000fa197009fa197005bf607000004be00c4
:10a460000c0578008c0578000b003700bfa397001f
:10a470008703e900b7a79f00a40020000500200083
:10a480006033b8000800be000a01be00c3f1070037
:10a490000205be000004be00e00f5400e08f5c0027
:10a4a000e00f5d00e08f5d000b003200a400200093
:10a4b000050020006033b8000800be000a01be009d
:10a4c000bdf10700e00f5000e08f5800e00f590089
:10a4d000e08f5900e5ff3200ef6097000100fb00bc
:10a4e0003fa49700800f54000f003d0008c05000ab
:10a4f0000dfd07000002be000203be006f9897002a
:10a50000ff9897000fa197009fa19700d4f507002f
:10a51000e09f9f00f19f9f0082a79f0093a79f004d
:10a52000efc49700e9679f006f959700bfa597005c
:10a530000b005500650650000b00e00002003a00d9
:10a540000db8a3000100320066065000638066006b
:10a55000010032000c06e9000d28a300260032009d
:10a56000e18066000d18a3000c003200d00220002c
:10a570000100e00001003a000080e900afa8970068
:10a5800005fb0700e10f4000180032002fa09700e4
:10a590000000e800a0a79f00140037000100e000c1
:10a5a00012003200afa8970000022000fafa07005c
:10a5b000e10f40000d003200afa097008100e800dd
:10a5c000a1a79f0009003700afa897000003200053
:10a5d000f1fa0700e10f4000030032002fa19700bd
:10a5e0000201e800a2a79f000c06e9000c00e000b1
:10a5f000f5ff3c002e0037000d38a3000a003200a2
:10a600000b003700afa8970000022000e2fa070015
:10a61000e10f400003003200afa197008301e80082
:10a62000a3a79f000c06e9000c00e000f5ff3c002a
:10a63000e18066000d18a30013003200d002200054
:10a640000100e00001003a000080e900afa8970097
:10a65000d1fa0700e10f4000150032002fa2970049
:10a660000402e800a4a79f0011003700e8a79f009c
:10a67000f9a79f008aaf9f009baf9f008042eb002d
:10a68000e5679f00800037000100e000080032000d
:10a69000afa8970000022000bffa0700e10f4000ba
:10a6a000030032002fa397000603e800a6a79f002f
:10a6b0006f989700ff9897000fa197009fa19700b0
:10a6c000c1f507000004be006055b800ef639700b5
:10a6d0000700fb004300dd004e0123000e00400098
:10a6e0003002be002003be000800be000a01be000a
:10a6f0002af107000003b000afa89700a6fa0700f0
:10a70000e10f4000030032002fa097000000e80096
:10a71000a0a79f00ef6097000100fb004300dd0051
:10a720000e0040003002be002003be000800be0044
:10a730000a01be0020f107000205be000004be00b1
:10a74000e0a79f00f1a79f0082af9f0093af9f00fb
:10a75000bfa297000500e00002003a000db8a30078
:10a7600049003200afa89700e00220008afa0700f3
:10a77000e10f4000030032002fa397000603e8001a
:10a78000a6a79f00ef6397000700fb00bfa09700fc
:10a7900000805000809f9f00240037000fc9970061
:10a7a0000204e00005003200e00f5400e08f5c007e
:10a7b000e00f5d00e08f5d00acff32000000fb00a9
:10a7c0004300dd004e0123000e0040003002be00b9
:10a7d0002003be000800be000a01be00eff0070023
:10a7e0000003b000afa897006bfa0700e10f40002c
:10a7f00003003200afa197008301e800a3a79f00e8
:10a800006f6297000400fb004300dd000e00400073
:10a810003002be002003be000800be000a01be00d8
:10a82000e5f007000205be000004be00ef629700dd
:10a830000540e900e0679f00e14f4000d7ff3a0084
:10a84000e8a79f00f9a79f008aaf9f009baf9f00da
:10a850000004eb0009003700afa8970000032000b8
:10a860004dfa0700e10f4000030032002fa39700cc
:10a870000603e800a6a79f000804e8008f9b970046
:10a88000870f5400f4ff3a000d58a300090032006e
:10a89000afa89700500420003ffa0700e10f4000e6
:10a8a0000c0032002fa497000804e800a8a79f001e
:10a8b00008003700afa897005006200036fa0700be
:10a8c000e10f400003003200afa497008904e800c4
:10a8d000a9a79f005f9097000000e0000b003d00db
:10a8e0000000ea00d0979f00afa89700d002200098
:10a8f00029fa0700e10f40000c0032002fa5970055
:10a900000a05e800aaa79f0008003700afa8970033
:10a91000b002200020fa0700e10f400003003200df
:10a92000afa597008b05e800aba79f005f9097004d
:10a93000a8002000110009000800d8000003b000a2
:10a94000afa8970014fa0700e10f4000030032009f
:10a950002fa097000000e800a0a79f00df909700bd
:10a96000110009008800d8008000fd000003b0003d
:10a97000afa8970008fa0700e10f4000030032007b
:10a98000afa097008100e800a1a79f000d38a300a9
:10a990001d0432000c00e0001b0434000004eb0036
:10a9a000afa8970000022000fbf90700e10f40006c
:10a9b000030032002fa197000201e800a2a79f0028
:10a9c0000804e8008c0f54000f043200f4ff370035
:10a9d000dfa197000300e00004003d003fa29700c4
:10a9e000030052000000e900b0a79f006f98970095
:10a9f000ff9897000fa197009fa197009af5070075
:10aa00000205be000004be000c4278004501230090
:10aa10000b0037000400fb004300dd000500400090
:10aa20005001be004000be000040e10001c8e1004e
:10aa300002d0e10003d8e100030039000442e8003d
:10aa4000f44f5200f3ff3a00e4679f000400fb005c
:10aa5000bfa2970000875200f80f57000d003c007e
:10aa60000e4078005efb07000002be000203be003d
:10aa70006f989700ff9897000fa197009fa19700ec
:10aa8000faf40700e09f9f00f19f9f0082a79f00bc
:10aa900093a79f000e407800a3fb0700d0af9f0054
:10aaa000e1af9f00f2af9f0083b79f00e00f54001b
:10aab000e08f5c00e00f5d00e08f5d00040035007a
:10aac0000800be000a01be0098f507001300370019
:10aad00010002000010020006011b8000800600094
:10aae000898060000a0161008b8161008b03d100c5
:10aaf0000a83d3008982d3000882d3000000720049
:10ab000081807200020173008381730087f5070062
:10ab10000002be000203be00d4f407000002be0023
:10ab20000203be006f989700ff9897000fa197004f
:10ab30009fa197004af507000002be000203be0075
:10ab40005fa89700efa897007fa997008fb19700a3
:10ab50009df3070044f507000205be000004be0097
:10ab60000006eb0008003700a400200005002000cc
:10ab70006033b8000800be000a01be0007f00700fd
:10ab80000205be000004be000c035700b6a79f00dc
:10ab90008e0f56001d0032000c06e800a4002000b5
:10aba000050020006033b8000800be000a01be00a6
:10abb00001f00700e00f5000e08f5800e00f59004f
:10abc000e08f5900e8ff320010003700bfa3970064
:10abd000f88f53000d003c000740780000fb070091
:10abe0000002be000203be006f989700ff98970016
:10abf0000fa197009fa197009cf40700e09f9f0082
:10ac0000f19f9f0082a79f0093a79f005fa49700da
:10ac1000e90f540015003c006022b8006033b80012
:10ac20006f989700ff9897000fa197009fa197003a
:10ac3000fef307000000e000360032006f98970036
:10ac4000ff9897000fa197009fa1970006f50700b6
:10ac5000e00f5000e08f5800e00f5900e08f5900de
:10ac60002c003a00e10f54002a00340004002000b8
:10ac700005002e00b6e02200170124002f9897004f
:10ac8000bf9897004f999700df999700e2f307006c
:10ac90000000e00003003d00dfa497007380540033
:10aca000020037005fa5970072005500d0979f0003
:10acb0002f6897001cfb0700a09f9f00b19f9f007b
:10acc000c29f9f00d39f9f000002be000203be00f0
:10acd0006f989700ff9897000fa197009fa197008a
:10ace000dff30700e0f40700e0a79f00f1a79f0053
:10acf00082af9f0093af9f006000b8006011b80062
:10ad0000d0b79f00e1b79f00f2b79f0083bf9f00bd
:10ad1000340037006f989700ff9897000fa19700b5
:10ad20009fa19700d0f40700e0a79f00f1a79f0024
:10ad300082af9f0093af9f00e00f5000e08f58005c
:10ad4000e00f5900e08f590002003500f7f40700ca
:10ad50001700370010002000010020006011b8002b
:10ad60006fa29700ffa297000fab97009fab9700d1
:10ad70000400600085806000060161008781610039
:10ad80008703d1000683d3008582d3000482d300d9
:10ad900000007200818072000201730083817300e1
:10ada000e2f407000002be000203be002ff4070019
:10adb0000002be000203be006f989700ff98970044
:10adc0000fa197009fa19700a5f40700d0b79f009f
:10add000e1b79f00f2b79f0083bf9f000000eb0028
:10ade000d0979f0014c0b300450123000f00370027
:10adf0000400fb004300dd00050340003600be00f8
:10ae00002601be006fa49700ffa497000fad970026
:10ae10009fad97000040e10001c8e10002d0e100d1
:10ae200003d8e100030039000442e800f44f520067
:10ae3000efff3a00e4679f000400fb00bfa4970007
:10ae400000804400df909700010040006f9597005c
:10ae5000000655004b68de00610060000047780086
:10ae60000004e00002003a000900e00001003200a6
:10ae70000c06e90063806600010032000c06e90060
:10ae80000d28a30026003200e18066000d18a30003
:10ae90000c003200d00220000100e00001003a0066
:10aea0000080e900afa89700bbf80700e10f400061
:10aeb00018003200afa597008b05e800aba79f00f4
:10aec000140037000100e00012003200afa8970024
:10aed00000022000b0f80700e10f40000d00320032
:10aee0002fa097000000e800a0a79f0009003700ee
:10aef000afa8970000032000a7f80700e10f40006b
:10af000003003200afa097008100e800a1a79f00d6
:10af10000c06e9000c00e000f5ff3c003f003700a4
:10af20000d38a3000a0032000b003700afa89700cd
:10af30000002200098f80700e10f400003003200f3
:10af40002fa197000201e800a2a79f000c06e900cc
:10af50000c00e000f5ff3c00e18066000d18a30046
:10af60000c003200d00220000100e00001003a0095
:10af70000080e900afa8970087f80700e10f4000c4
:10af800026003200afa197008301e800a3a79f002d
:10af9000220037000100e00020003200afa8970037
:10afa000000220007cf80700e10f40001b00320087
:10afb0002fa297000402e800a4a79f001700370003
:10afc0000000fb004300dd004101230001004000c0
:10afd0003002be002003be006fa09700ffa09700c4
:10afe0000fa997009fa99700ecee0700a40020008e
:10aff000050020006033b800efee07000003b0004a
:10b00000afa8970064f80700e10f4000030032008a
:10b01000afa297008502e800a5a79f006f63970085
:10b020000640e900e0679f00e14f4000e4ff3a007e
:10b030000b003700afa897000003200056f8070068
:10b04000e10f400003003200afa397008703e80040
:10b05000a7a79f005f9097000000e900d0979f008e
:10b060005f9097000000e000f2ff3c003fa49700d3
:10b07000f20f54000300340020c1b300e0679f00ca
:10b0800002003700efc49700e9679f00ef60970068
:10b090000100fb003fa5970000005500f0979f00be
:10b0a0000104e00002003a000e04e0000800320053
:10b0b000afa89700e002200037f80700e10f40003a
:10b0c00003003200afa597008b05e800aba79f00f7
:10b0d0006f60970014fa07000002be000203be0072
:10b0e0005fb09700efb097007fb197008fb99700de
:10b0f00035f20700dcf307001e0037000000fb00fc
:10b100004300dd004e0123000e0040003002be006f
:10b110002003be000800be000a01be009fee07002b
:10b12000a4002000050020006033b800a2ee070054
:10b130000003b000afa8970017f80700e10f400028
:10b14000030032002fa097000000e800a0a79f0096
:10b15000ef6097000100fb004300dd000e0040009f
:10b160003002be002003be000800be000a01be007f
:10b1700091ee07000205be000004be006f6197005b
:10b180000240e900e0679f00e14f4000dbff3a002a
:10b19000e8a79f00f9a79f008aaf9f009baf9f0081
:10b1a0000004eb0009003700afa89700000320005f
:10b1b000f9f70700e10f400003003200afa197004c
:10b1c0008301e800a3a79f000804e8007f9297008e
:10b1d000840f5400f4ff3a000d38a3000a02320035
:10b1e0000c00e000080234000004eb00afa8970058
:10b1f00000022000e8f70700e10f400003003200e2
:10b20000afa297008502e800a5a79f000804e80008
:10b210008c0f5400fc013200f4ff37000d00780061
:10b22000000cb20032003a000d00e00009003d00c1
:10b230004fa897004005be004004be00c0af9f006d
:10b24000e8a79f00f9a79f008aaf9f009baf9f00d0
:10b25000160037000d48a300090032004fa99700df
:10b260004200be00c2af9f004f89de00cf91de00da
:10b270000002be0002037800820378000700370056
:10b28000cfa9970043007800c3af9f000002780069
:10b29000cfa2de000503780086037800e4a79f00b4
:10b2a000f5a79f0086af9f0097af9f006fa4970000
:10b2b000ffa497000fad97009fad9700e00f5400db
:10b2c000e08f5c00e00f5d00e08f5d0026003d0038
:10b2d0003d00b3006000b8006011b80008045000e1
:10b2e000898458000a0559008b8559001a003700d7
:10b2f0000d00e00005003d004faa97004401be008c
:10b300004400be00c4af9f00070037000d48a300f3
:10b310000a003200cfaa97004500be00c5af9f00cb
:10b320000401780084017800e0a79f00f1a79f0046
:10b3300082af9f0093af9f000b0037004fab970089
:10b3400046007800c6af9f00000478000900200086
:10b350000a0020000b002000e8a79f00f9a79f002b
:10b360008aaf9f009baf9f00bfa497000900e00039
:10b370000b003a006fa09700ffa097000fa997005d
:10b380009fa99700e00f5000e08f5800e00f590090
:10b39000e08f590002003a0011002000b1a79f0081
:10b3a0000d0678000c0cb20000042000800f56003f
:10b3b0003700320003003c000c00e00007003200c0
:10b3c0004b00370000082000800f560018003200a4
:10b3d000000c2000800f560045003a0014c0b30056
:10b3e000450123000f0037000400fb004300dd008f
:10b3f000050040005001be004000be006fa4970051
:10b40000ffa497000fad97009fad97000040e100ab
:10b4100001c8e10002d0e10003d8e10033003900a7
:10b420000442e800f44f5200efff3a002f003700cb
:10b4300000012000010020006011b80014c0b3001a
:10b440006fa49700ffa497000fad97009fad9700e2
:10b450000040e10001c8e10002d0e10003d8e100b2
:10b4600022003900490020000000d0008180d20075
:10b470000281d2008381d2008904e900faff3a00f8
:10b480000442e800f04f5200edff3a001700370089
:10b4900080002000010020006011b80014c0b3003b
:10b4a0006fa49700ffa497000fad97009fad970082
:10b4b0000040e10001c8e10002d0e10003d8e10052
:10b4c0000a003900390020000000d0008180d2003d
:10b4d0000281d2008381d2008904e900faff3a0098
:10b4e0000442e800f54f5200edff3a00e4679f0088
:10b4f0006f6597000a00fb00bfa597008b0f5000f7
:10b5000002003d00eb679f0004003700bfa09700da
:10b51000808f500001003d00b0a79f006f91970001
:10b520000200e00004003200638066000200320086
:10b530000201e900e2979f000de8a3000b00320032
:10b54000ef9197003fa29700848f510003003c00c9
:10b550008002eb00e5979f00040037006f9397008f
:10b56000bfa3970007035300e6979f00408c20007d
:10b570000080660001842000810f500006003a0020
:10b580006f9497000800e000110032000804e90001
:10b59000e8979f000e003700008c200000806600b6
:10b5a00001882000810f500009003a00ef949700b5
:10b5b000e28f540003003c000005eb00ea979f0077
:10b5c00003003700ef9597008b85e900eb979f000c
:10b5d000ef6097000100fb000007eb006f91970000
:10b5e000800f510001003400000751000d28a30016
:10b5f0004b003200e18066000d18a3000c00320001
:10b60000d00220000100e00001003a000080e900c3
:10b61000afa89700e0f60700e10f400027003200d6
:10b62000afa197008301e800a3a79f002300370084
:10b630000100e00009003200afa8970000022000de
:10b64000d5f60700e10f40001c0032002fa2970042
:10b650000402e800a4a79f0018003700008c200017
:10b660000080660001882000810f500013003a001e
:10b67000afa8970000032000c7f60700e10f4000c5
:10b6800003003200afa297008502e800a5a79f0043
:10b69000800520000d58a30001003a00800720001b
:10b6a000afa89700bcf60700e10f4000030032008e
:10b6b0002fa397000603e800a6a79f000e00e00056
:10b6c0000d0032000004eb00afa89700000320003b
:10b6d000b1f60700e10f400003003200afa397006e
:10b6e0008703e800a7a79f000804e8008e0f540016
:10b6f000f5ff3a000007eb003fa49700c340dd00d0
:10b70000c0002300808540004240dd0064055000f9
:10b710006340b900909f9f0063045000a20037006f
:10b720000e00e0000f003200688066000d003a0055
:10b7300000047800afa897000002200096f60700ea
:10b74000e10f400003003200afa497008904e80035
:10b75000a9a79f000804e8008e0f5400f5ff3a00e7
:10b760000007eb00e18066000d18a3000c0032001a
:10b77000d00220000100e00001003a000080e90052
:10b78000afa8970084f60700e10f40000e003200da
:10b790002fa597000a05e800aaa79f000a00370016
:10b7a0000100e00008003200afa89700000220006e
:10b7b00079f60700e10f400003003200afa59700c3
:10b7c0008b05e800aba79f00008c200080806600fe
:10b7d00000842000808f500009003a00afa8970035
:10b7e000000320006cf60700e10f4000c2ff3200aa
:10b7f0002fa097000000e800a0a79f00beff370021
:10b8000000882000808f5000bbff3a00afa897004f
:10b810000003200060f60700e10f40000300320043
:10b82000afa097008100e800a1a79f00800520003d
:10b830000d58a30001003a0080072000afa8970030
:10b8400055f60700e10f4000abff32002fa1970033
:10b850000201e800a2a79f00a7ff37000004200014
:10b86000800f56003100320003003c000c00e00065
:10b87000070032004000370000082000800f56000b
:10b8800012003200000c2000800f56003a003a00ef
:10b890003b02be002b03be006fa09700ffa09700e5
:10b8a0000fa997009fa99700bcec0700a4002000f7
:10b8b000050020006033b800bfec070004c3b300ec
:10b8c00004424000e4679f002b00370059392300f1
:10b8d0000d58a30001003a00693a2300140020002b
:10b8e000050020006033b8000a0078000000e9007d
:10b8f000050033000402d0008582d2000683d20006
:10b900008783d200f9ff37006fa09700ffa0970050
:10b910000fa997009fa99700a0ec07006f00600097
:10b92000e9447800e9679f00130037001400200005
:10b93000050020006033b800880078008100e9002d
:10b94000050033000402d0008582d2000683d200b5
:10b950008783d200f9ff37006fa09700ffa0970000
:10b960000fa997009fa997008cec07006740600023
:10b970000043b000e0679f006f6197000200fb008a
:10b98000afa8970004f60700e10f40000300320063
:10b99000afa197008301e800a3a79f00e8855500a9
:10b9a0006405550063045400d0ff2f003fa29700a8
:10b9b00000a0b9009f9a97000080420063005000e9
:10b9c000800f5400a5ff3a000d38a3000e0032008e
:10b9d0000e00e0000c0034000004eb00afa897005c
:10b9e00000022000ecf50700e10f400003003200e8
:10b9f0002fa397000603e800a6a79f000804e8000d
:10ba00008e0f5400f5ff3a00bfab9700b7407800a7
:10ba1000b7af9f00e1679f000104e0002af83a00f9
:10ba20002fa097004f0778004f06be004f05be00bd
:10ba30004f04be00ef04b100000006008101780051
:10ba40000002eb000b003700e44078000104e00046
:10ba5000030032000402e80093cf500004003200db
:10ba60008180fb001380fb00008050000000060076
:10ba70008301e800820f5200f3ff3a000000050046
:10ba80000200fa00889fbe00a0ff9f00010478001a
:10ba9000b1009000810478000904b2000200320075
:10baa0000000fb00360037000118a30005003a0033
:10bab0000103b30031049800190498000080eb00e2
:10bac0002f003700580090000000e00006003a0008
:10bad0004800900012002000e6805700ec14070098
:10bae0001904980024003700280090000000e000ae
:10baf00008003a00a04f230020049800000c7800b2
:10bb00002000200050049800100498000130a0008c
:10bb10003104980018019000a8009000480090009f
:10bb2000db14070028009000000c78000080eb0078
:10bb30001004980018007800aff8970001587800ba
:10bb4000000c78002ff89700ea4f50000a003a00e6
:10bb5000380090000088a300070032001801900010
:10bb6000a800900048009000c9140700190498002c
:10bb7000a8009000010c7800aff897000100fb00ce
:10bb80004f04be000080fa0000000600889fbe003f
:10bb9000000478008144780000fd2f00000044007c
:10bba000e90f500002003e00000178000d00370050
:10bbb0000800780062eb07000000e000030032009c
:10bbc0000800780064eb07000004780008007800a3
:10bbd00068eb07000000e0000700320090fa2f0039
:10bbe000000144000980fb00800f510002003d006d
:10bbf0000280fb0001003700f00f20004f04be0060
:10bc000000000600881f7800c0a881008106070098
:10bc10000004780042eb07000000e000faff3a0061
:10bc2000e10f440003003200c1a881000800780041
:10bc3000ac0607004f04780000000600ec874700c0
:10bc4000889fbe008a9fbe008c9fbe008e1f78001a
:10bc500081bf9f0002077800c0a889008046eb00e2
:10bc6000040137008884fb00090078002ceb0700f2
:10bc7000800078000000e00002003200e1ff0700d1
:10bc8000fc00370050c2b300804f5400f0003a006f
:10bc90000fbd970020c0b300c0ef9f00d1ef9f0001
:10bca00081ef9f000300370040c0b300c0ef9f004a
:10bcb0000fbd97000fb99700b240780082bf9f0078
:10bcc0008184fb0090c6b30080cf50003500320065
:10bcd00017003e006640500080cf500062003200e6
:10bce0000c003e007740500080cf5000280032000a
:10bcf00006003e000104e0009b003200a0c2b30039
:10bd000080cf50006e003a001d00370080c5b300a0
:10bd10001600370040c6b30080cf5000210032002b
:10bd20006440400080cf500065003a0012003700a8
:10bd300030c7b30080cf50001e00320007003e0025
:10bd40006740500080cf5000110032006340400037
:10bd500080cf50005a003a001400370050c7b3009b
:10bd600080cf50000f0032006340400080cf500071
:10bd700053003a006500370020c0b300cbff370006
:10bd8000dfe897008140e800d1ef9f00c8ff37004f
:10bd90004fe9970080c0b300e24f5100c3ff3a0063
:10bda000c1ff3700acc0b300590037008cc0b300ee
:10bdb0005700370093ff0700dfe897000104e00019
:10bdc00002003a004e017800d2b79f00c0a881005f
:10bdd0001006070000047800e10f4000a2003200c6
:10bde0008fec9700120037000a85e8008abf9f0099
:10bdf000160037008fb897001100fb00800f540029
:10be0000f9ff32005fe997000204e00003003a0006
:10be10005fb0970008587800d0b79f008944e900c8
:10be20000a003200c0a88100fa050700000478006b
:10be30000800e800e10f5000040036000800780018
:10be4000b7ea07000000e000eaff3200dfe89700f1
:10be50000104e00087003a008d46e8005fb19700da
:10be600001497800830037005fe897000004e00094
:10be700003003a008d46e800ce007800d1b79f005d
:10be8000c0a88100e3050700e10f40007600320002
:10be90005fe997000204e00003003a00dfb097007a
:10bea00080587800d1b79f000fe997000241e90060
:10beb00082ef9f004240a9006e003400f0ff37007f
:10bec0000180fb0008fd2f0008004000e90f500032
:10bed0005f003e000a007800f3f3070080ef9f0048
:10bee00088007800030037000fb897000000e800d2
:10bef00080bf9f000fb997001200fb0001004000b7
:10bf0000e90f5000f8ff360069ff37000cc1b3009d
:10bf10003cff0700c0a88100be05070000057800af
:10bf20000040eb00e0ef9f00d0022000800f5500a2
:10bf300005003a00c0a88100b6050700000578009a
:10bf400011c0b300e1ef9f008c4078000a00780038
:10bf50000eff0700e14f40000a003a00c1a881002f
:10bf60000a007800df0507000d04e0004b003a00ee
:10bf7000c0a88100300090000048a30043003200b8
:10bf8000480037008fed97006044b8000c81fb003b
:10bf9000030020000800be0080ea07000004be0085
:10bfa0008c4078000a007800f8fe07000080fb0053
:10bfb0000100200008044000898448008b45e90006
:10bfc00007003200c0a88100920507000005780034
:10bfd0008c407800edfe0700e14f4000ebff3a0097
:10bfe0008c4078000a007800e8fe0700e14f40002e
:10bff00003003a00c1a881000a007800b9050700d3
:10c000006fe997000204e0000200320060041400af
:10c01000e0841c005fe897000004e00015003a008f
:10c020008d46e800cfe89700e4cf500003003a00c7
:10c030004e0078000888be000e0037000e81e9002f
:10c04000020778001200780008087800090037001d
:10c05000c0a881006f050700808f540005003200e2
:10c06000e10f40000b003a000d04e0000d0032002b
:10c070000a0037008fb897003144780081bf9f00d5
:10c080000804e000f7fe3a00040037000000eb006f
:10c0900005003700c1a88100920507000d80fb0054
:10c0a000010037000080eb004f0778004f06be000c
:10c0b0004f05be004f04be00cf00b10000000600d7
:10c0c000889fbe008a1f7800804078000004e0004e
:10c0d00021003d008040ea00d0c6b30080cf500070
:10c0e000090034008104fb00420620001100090011
:10c0f0008204d80000017800010078004311dd00bf
:10c100002acd22001f0037000100fb0023cd2200b2
:10c1100039003700a2002000110009000200d800f9
:10c1200000017800010078004311dd0003014100a7
:10c130004300dd00030040003002be002003be00cb
:10c1400042209000d2209000f221900062219000c5
:10c150001dee07002e003700d0c6b30080cf500080
:10c16000230034008104fb00420620001100090076
:10c170008204d80000017800010078004311dd003e
:10c180002ad822000a014100a8002000110009005d
:10c190000800d8004300dd000a0040004022900063
:10c1a000d022900060239000f0239000028890003d
:10c1b00092889000b28990002289900002ee0700d8
:10c1c000801f780001027800110009008804d8005f
:10c1d0000102fd004f0078000402fb004322dd0055
:10c1e0000a0242005403be004402be00d8ff3700da
:10c1f0000100fb0023d82200eacf5000c5ff3c001d
:10c200004300dd00030040005001be004000be00be
:10c210004f0578004f04be00000006008f03b000f9
:10c22000889fbe008a9fbe008c9fbe008e1f780034
:10c23000e0b79f00f1b79f0082bf9f000000eb00b6
:10c24000a0b79f00e60437008001eb0050c2b300a6
:10c2500080cf5000090032000100fb00efb09700d2
:10c26000cdf30700e10f4000dd043200afb09700ce
:10c270008100e800a1b79f00d90437007fb1970083
:10c2800092407800d0c2b30080cf50000c00320042
:10c2900007003c006d40500080cf50000d00320080
:10c2a0006b40400080cf500019003a000e0037006c
:10c2b00000c3b30080cf500015003a000f003700d4
:10c2c0000330a0007fb297000402e800f4b79f009b
