:020000040000fa
:080000000034040000000000c0
:020000040000fa
:10680000ef4f23000e7f24000e01880000000000df
:106810000c00070020f32f000100200011000700ea
:10682000000020000000e000020032000000020032
:1068300000000000f0990200000000000040da00b3
:106840000000fe004440a900609623000000e00024
:106850000300320020002000a00188004440a8006e
:106860000000060091018800800078000000eb0025
:1068700015003700e280400032a0b4009101ba0058
:10688000e280400032a0b4009102ba00e2804000f1
:1068900032a0b4000002eb00472bde00f507b20087
:1068a000602ce10004003a000059eb008301e9008c
:1068b000fdff3e00040037006128e10001003200c6
:1068c0000082eb00040007001101ba000200e000a2
:1068d000e8ff3a00000006003159ba008301e900e0
:1068e0000c0032002159ba008301e900080032008f
:1068f0000400e00003003a00e280400032a0b4004f
:10690000f5ff370011d9ba008301e900faff3a0018
:106910008100e800e180400032a0b40000000600e1
:106920001004b100030035009001b10001003c00eb
:106930001000050000000500800078001104b1007f
:10694000030035009101b10001003c000050a0009f
:10695000000006001004b100070035009001b100ee
:10696000040034007000b100030035009001b10054
:1069700001003c0010000500000005006900e10076
:10698000040035006d00e100030034000002b10096
:10699000010032000000050010000500020ab900e5
:1069a000001bb9000200b8008100420081004300d2
:1069b00000000600881f7800000478005001be0027
:1069c0004000be00040040008580480006014900e8
:1069d00087814900009cbe000294be000400e100d3
:1069e0000588e1000690e1000798e100020031000f
:1069f000680044001008e8004f047800000006001a
:106a0000f4874700889fbe008a9fbe008c9fbe000f
:106a10008e1f78000205be000004be00d4b79f00a0
:106a2000e5b79f00f6b79f0087bf9f000000eb000f
:106a3000c0b79f00b0b79f00a0b79f0090b79f005e
:106a400080b79f000d042000bfb097004fb09700a3
:106a5000000140000000e0000f003d004f08de0094
:106a600000007100c0b79f009e00070001003d00bc
:106a700012002000a100070001003d0012002000cc
:106a8000a6000700b1000700b60007000f00400095
:106a9000c8ff0700220037004f08de000006710023
:106aa000ccb79f008f00070001003d0012002000be
:106ab0009200070001003d0012002000970007002f
:106ac000a20007000fb297009fb297002fb3970064
:106ad000bfb39700a90007000000520081805a0050
:106ae00002015b0083815b0080b79f0091b79f002c
:106af000a2b79f00b3b79f000007eb009f000700fd
:106b00000020e10001a8e10002b0e10003b8e100cb
:106b1000010031001e0020000e005600c0b79f008b
:106b20004fb297000400e00007003500100020007d
:106b3000010020006011b800080470008984700012
:106b40000a0571008b8571008d06e900beff3a00d1
:106b50000400e00003003d00820007000f00400039
:106b600094ff07004fa897000000e00004003a00df
:106b70000fb497009fb497002fb59700bfb597004b
:106b8000940007004f0778004f06be004f05be0077
:106b90004f04be004f01b10000000600881f7800be
:106ba00018002000881f780095ff07008f87e900f4
:106bb0004f04780000000600801feb0090ff0700e4
:106bc0008f87e90000000600889fbe008a9fbe00f4
:106bd0008c1f78006e00070007003d00730007005f
:106be000e00f5b00e08f5b0007003d003200070014
:106bf0000006eb00040037003400070002003d00ef
:106c00002a0007001c00200072000700e3ff0700b5
:106c10000203be000002be000c00e00001003200d2
:106c2000220007000400be000601be004f067800e7
:106c30004f05be004f04be0000000600889fbe0046
:106c40008a9fbe008c1f78005100070005003d00a0
:106c500056000700e00f5b00e08f5b0006003d0080
:106c6000040037001900070003003d006000b80071
:106c70006011b8001000070056000700ceff0700a3
:106c80000203be000002be000c00e0000100320062
:106c9000060007000400be000601be004f06780093
:106ca0004f05be004f04be00000006006000b800a3
:106cb0006011b800000037000402500085825800bf
:106cc0000603590087835900000006000006eb0008
:106cd000e00f5200e08f5a00e00f5b00e08f5b0096
:106ce000000006000180400090b79f000001eb000b
:106cf0008fb097000100e000000006000200700065
:106d000090b79f000180400080b79f000001eb001a
:106d1000ffa897000100e0000000060002007000dc
:106d200080b79f00018040006faa9700cf20de004f
:106d300001007000f0af9f00040242002500070030
:106d40004f18de000002720000000600e4af9f0052
:106d50000804440089844c000a054d008b854d00d1
:106d6000000006003fb29700cfb297005fb39700d4
:106d7000efb3970000fe2f00000006003fb0970021
:106d8000cfb097005fb19700efb197000000060009
:106d90000205be000004be00e00f5000e08f580066
:106da000e00f5900e08f5900000006006000b800b5
:106db0006011b80008045000898458000a05590081
:106dc0008b8559001c002000e00f5200e08f5a0014
:106dd000000006000800be000a01be000000060018
:106de0006022b800060220000000d0008180d2009e
:106df0000482d2008582d2000000a000020252006c
:106e000083825a00030031000202420083824a005a
:106e10000000a1000603e900f3ff3a0000000600ad
:106e2000839f68000100e00002003d006000100048
:106e3000e08018000300e00002003d006001110046
:106e4000e0811900e6ff07004f00e00002003b0070
:106e500060001000e080180000000600889fbe005f
:106e60008a9fbe008c1f78000a01070011013300c1
:106e700003866c006450e100240032006420e100cd
:106e8000270032006150e100220032006120e10061
:106e9000210032008b854200eb07b1000134b800bd
:106ea000003ab8000804420089844a00013ab80058
:106eb0000030b8008880400009014a000400330017
:106ec0000000400081804800020149008b05e90074
:106ed000c909dd00830170000100320013002000a9
:106ee000c814de004814dd004709de001200b200bd
:106ef000c808de0008847000fe00070001f0a10051
:106f00000cf0a70001f0a000f30037006120e100c1
:106f1000f50032000801be000200be00f7ff370096
:106f20006150e100fcff3a00ef0037000001be00b5
:106f3000160107000470a70003f0a1006509b10065
:106f4000160032000d0035006828e100060035000b
:106f5000f0ff2f00f1ff27000300e00013003b00cb
:106f6000010028000000050000004000818048006a
:106f70008502e900fcff3a0008003700f88f420064
:106f800002003c008000eb00000005008100d10001
:106f90000080d3008502e800fcff3a000300e00017
:106fa00002003b0060001000e080180000000600b6
:106fb000889fbe008a9fbe00010578000100e000a6
:106fc0000400350008003c000000e0002000320012
:106fd0000500370060001000e080180002003b0050
:106fe00001f02c001a0037000004be006011b80048
:106ff0006b0920000982cf00020039000882cf000f
:107000000441b000694252000e00320008003b000b
:1070100082817100610164008904d1000884d30079
:107020008b05e8000442e800f9ff3a00050037004c
:107030000804440089844c008b05e9000442e900ff
:10704000fbff3a00ab0007000af0a70001f0a00028
:107050004f05be004f04be000000060003f0a20072
:10706000889fbe008a9fbe008c1f780089000700a1
:10707000900033006450e1004f0032006420e100d2
:107080005200320003826c0007003b000905d0006b
:107090000306d000820f54000c065d000200390088
:1070a00002003200890178000306780085825500cd
:1070b00004003d000003fd008103fd008502ea009d
:1070c0008b854200840f720002003b0060001000bc
:1070d000e08018006011b8000005eb007a28e1009c
:1070e0000a00390006007800c75ddd00f707b2002e
:1070f000878075002d003700828171000a017800b9
:10710000610560008180d1000080d3008502e90024
:10711000f9ff3b00060440008784480002003b0062
:1071200060041400e0841c000988a30007003200fa
:107130008a81710082817100610164008904d1003b
:107140000884d3008b05e800170037000978a300f6
:1071500013003a000b00e000130034008b05e90037
:107160000804440089844c000a4474000978a30090
:107170000d003a000b00e000070034008b05e90029
:107180000804440089844c0001003a000b002000f0
:107190000978a300f7ff32000001eb00020037007e
:1071a000828171000a017800520007000cf0a700ec
:1071b00001f0a000480037006420e10002003a001e
:1071c000838f6c00480033000801be000200be003f
:1071d00041003700140020008100370000ff070045
:1071e0000400be00000006001400fa00889fbe00e4
:1071f0008a9fbe008c9fbe000005be000206be0036
:10720000680047000c90be000a90be008f00070087
:107210006400e1001a00320016003e006100e10047
:107220001a0032006e049000fe0490000e0b9000d5
:107230009e0b90006011b8009e0590000b38b100c5
:10724000d501200082817100610164008703d100b3
:107250000683d3008984d3000884d3008502e90023
:10726000f8ff3a00230007000df0a70001f0a0008e
:10727000b1003700f1ff2700f0ff2f00ae0037000c
:1072800001f8270000002000f7ff37006000b80079
:10729000f5ff37000004be003c0007000003be00fd
:1072a0000405be000200be0038000700844f7500d0
:1072b000000006000200be006450e1000500360038
:1072c0006420e100020036000968a30001003a00d2
:1072d0000800be000160a0004f0678004f05be0008
:1072e0004f04be0000000600f0ff2f00f1ff270052
:1072f000f9ff370081002000618055000b003d0040
:107300000b00200061fe2f000100e1001d00340091
:1073100082817100610164008904d1000884d30076
:107320000000e800faff3a007100200061006400ec
:107330000300700002006000090032006104440094
:10734000e0844c000988a500050032008b05e800a8
:107350006808e10002003a008904d1000884d300e3
:10736000f20f20000258e10005003d00c75ddd007e
:10737000f907b20089807500080078000000060057
:107380000bf827008b00780000000500c70ade001c
:10739000f107b200f50fb20008003200e1cf420061
:1073a000020032000170a00024000500810f70006f
:1073b000010032000408050044000500810f700040
:1073c00002003a00140005008502e90000004000b8
:1073d00081c04800fcff3b000170a00024000500b4
:1073e000889fbe008a9fbe00841f7800a9ff070007
:1073f0004f00780011003300f0ff2f00838f6c00e6
:1074000006003b00040565000a00a70008003700dd
:1074100009f0a6001000200008003700820f540079
:10742000838f5c00030039001000200001003e0043
:107430000000200009f0a7000000ea004f05be0090
:107440004f04be000000e00000000600800078004d
:107450005002be005003be004439de00f700b20007
:10746000f37f200003016100090032000218e100ef
:1074700016003a0085017200830173008381730056
:107480000008200015003a004000200013003700db
:1074900085017200830173008381730005003a0047
:1074a00004a8be0006a8be00100020000b00370094
:1074b0000201e9000402420085824a0006034b00f3
:1074c00087834b000748a300f9ff32000740a00064
:1074d00004a8be0006a8be0020002000800098007e
:1074e0009200980000000600680447000294be0065
:1074f0000094be00fc0447008694be008494be0045
:1075000009007800d1ff070008007800cfff0700ce
:1075100099007800814f70000b003b000800be000e
:107520000a0007004f00b10003003700f3ff2700f7
:10753000f2ff2f006110b9004f06be004f05be00dc
:107540004f04be000080fa0000000600e482400004
:107550001078a30007003200640240001178a300f5
:107560003400be001401be00040032000330a70046
:10757000000006003500be001501be000330a0006b
:1075800000000600811f78000100e00002003d00bd
:1075900060001000e08018000300e00002003d00e1
:1075a00060011100e08119000cff07004f00e000ae
:1075b00002003b0060001000e080180000000600a0
:1075c0002800fa00889fbe008a9fbe008c9fbe00e4
:1075d00003866b00c4ff07000028a30064003a0084
:1075e0000128a30067003a000008a30062003a00e7
:1075f0000108a30065003a001e009000be0890003c
:1076000081064000ed3fb100f4805700ee0190008c
:10761000111ab8008e099000311bb8009e09900025
:10762000311cb800511db800f48557004600070012
:10763000fe0190003a0007008b85e8003e0007003d
:107640008e09900040000700ee0190003400070012
:107650008b85e800380007008e0990004000070085
:107660009e0990001b18b800890440000a85480054
:10767000fe019000340007008b85e8003800070009
:10768000ee019000300007008e0990001b18b80032
:10769000890440000a8548000a98a30008003a00bf
:1076a0000402420085824a0006034b0087834b0098
:1076b00008044c0089844c000a054d008d06e90041
:1076c00084827200850273004c3add0085027200ec
:1076d0000100320015002000443ade001400b20020
:1076e0004538de00cb45dd000b007000c540de00f4
:1076f000cb4ddd008b8070004549de00cb55dd00b1
:107700000b017100c551de000d037800bc010700bc
:1077100003f0a1000cf0a70003f0a00086ff3700e3
:107720001b18b8008502400006834800e0834b0028
:1077300060044c00070037001b18b8000603400027
:1077400087834800faff37001b18b8008703400002
:1077500008844800e0844c0060054d0000000600ed
:107760001b18b8000804400089844800faff37005d
:107770000108a3006dff3a005800be005801be008a
:10778000e3ff37000008a30068ff3a00090478000f
:10779000f9ff370081037800fcfe07000001be00fe
:1077a0006000b8000478a30013003a006220e100f2
:1077b00015003e000d0039008301d1000281d30085
:1077c0008180d3008301d1000281d3008180d30066
:1077d0008301d1000281d3008180d3000538b0003d
:1077e000c42add00f300b2008381720007f0a70015
:1077f00003f0a00000000600f3ff2700f2ff2f00b7
:107800006110b900fbff370003ff2700f7ff3700c7
:107810008f1fd100a60107008f87e9000000e0005c
:1078200000000600801feb00a10107008f87e90020
:107830000000e00000000600c6010700050978000e
:1078400000000600809feb00990107008f87e90088
:107850000000e000000006002800fa00889fbe003b
:107860008a9fbe008c9fbe0003866b001eff070030
:107870006400e100440032006408e1004a00320084
:107880006100e100460032006108e1004900320079
:10789000ec0647006000b8003d02be003d03be009c
:1078a000f48657006011b8003d04be003d05be00df
:1078b0007d0320000b0037000000a0008d06e900ca
:1078c000130032000402420085824a0006034b0086
:1078d00087834b000000400081804800020149007e
:1078e000838149000802520089825a000a035b0022
:1078f0008b835b00f0ff3b000802420089824a0054
:107900000a034b008b834b008d06e900edff3a0024
:107910008482720086827200f707b200878272004a
:1079200001003200150020001e0490003e0b900064
:1079300006035400e63fb0000368a30007003200ce
:107940000000a7000500a0008301d1000281d30040
:107950008180d3000080d3000603e8008301d100ba
:107960000281d3008180d3000080d3000002eb00ad
:107970000482d2002201070003f0a1000cf0a7004e
:1079800003f0a000ecfe3700640247006408e10049
:10799000e6fe32003400be003401be00f6ff3700c0
:1079a0006108e100e1fe32006011b8006000b8003b
:1079b000f1ff370003ff270002002000fbff370024
:1079c0001400fa00889fbe008a9fbe008c9fbe00f4
:1079d0000004be000205be00680047000a90be0019
:1079e0000890be0099fe07000070a7000bf0a100f0
:1079f0000bf8a30016003a009e02900030432000ce
:107a000080825200b0fe2f000028e1000d003c00f3
:107a1000b0fc2f000028e1000d0034001e0990008a
:107a20008e0890007e0090000501b0000201d10098
:107a30008180d3000080d3008502e800fbff3a007c
:107a4000bdfe37000100280000002000bafe37000c
:107a50006000b800b8fe37004f89de008201780070
:107a6000b00037002800fa00889fbe008a9fbe0041
:107a70008c9fbe0007067800878669000c003b00db
:107a8000030478008704780008f0a10009f0a10041
:107a9000840f5000858f5800860f5900890f5c00b5
:107aa000030033000cf0a20001003a000cf0a1002a
:107ab0008dfe07006400e1005f003200780147009e
:107ac0006408e100610032006c01470074855700d2
:107ad0003200be001201be003a04be001a05be000c
:107ae0001e039000be0a90008503530006003d006f
:107af0000004fd008104fd000205fd008305fd007a
:107b00008703ea00050378000df8a30004003200a3
:107b100060041400e0841c0060051d00e0851d0069
:107b20006022b8007d0320000d38e1008006eb00e4
:107b30000b0039004433dd00f300b2008301730011
:107b400039003700848272000d027800e10664007b
:107b50008b85d1000a85d3008984d3000884d300a3
:107b60008703e900f7ff3b000800400089804800d8
:107b70000a0149008b81490004003b0060001000ad
:107b8000e080180060011900e08119000358a3008b
:107b9000090032008d8272008482720061026000ee
:107ba0008301d1000281d3008180d3000080d30003
:107bb0000603e8001b0037000348a30017003a0043
:107bc0000600e000170034000603e9000d00a300e2
:107bd000000048008180480002014900838149007b
:107be0000348a3000f003a000600e000090034003b
:107bf0000603e900000040008180480002014900be
:107c00008381490001003a000003eb000348a30010
:107c1000f5ff32006022b800020037008482720053
:107c2000618266007600070003f0a1000cf0a70057
:107c300003f0a00040fe3700640147006408e10043
:107c400002003a000df8a30038fe3a003200be00f0
:107c50001201be0038fe370007f0a20081ff370096
:107c60001400fa00889fbe008a9fbe008c9fbe0051
:107c70000004be000205be00680047000a90be0076
:107c80000890be00f1fd07000070a7000bf0a100f6
:107c90000bf8a30020003a009e0990000e09900006
:107ca000fe0090006e0090009e0290003443200081
:107cb0008482520020fe32000a003c00b4fc2f00f7
:107cc0000428e100140034008301d1000281d300b4
:107cd0008180d3000080d3008502e800faff3a00db
:107ce00015fe3700b40020000428e10007003c0026
:107cf0000000400081804800020149008381490062
:107d00008502e900faff3a000bfe37000300280065
:107d100002002000010037006011b8006000b800c8
:107d200005fe3700889fbe00830478000300e00052
:107d30002c00350003003c0000827000040271003a
:107d40002600320036432000c50020008383cf0088
:107d50000a0039000541b1008283cf0007003900d5
:107d60000541b1008183cf00040039000541b10015
:107d70008083cf00010039000541b10085c3530065
:107d80006022b800120032000a003b0084827200b8
:107d9000610260008301d1000281d3008180d300a1
:107da0000080d3000603e8008743e800f7ff3a00ad
:107db00007003700000040008180480002014900b0
:107dc000838149000603e9008743e900f9ff3a008f
:107dd0000b00070009f0a70003f0a0004f04be004d
:107de0000000060060001000e0801800600119002b
:107df000e0811900d3ff3b00033e2c00f7ff370062
:107e00001800200057002000080453000d003d001a
:107e10000600200097fc2f000740e1001e00340000
:107e200084827200610260008301d1000281d3006c
:107e30008180d3000080d3000804e800f8ff3a00f6
:107e4000470020006104600005047400040464001d
:107e50000d00320061004000e080480060014900f0
:107e6000e081490003b8a500070032000603e800de
:107e70006538e10004003a008301d1000281d3009b
:107e80008180d3000080d300f87f20000830e1001b
:107e900003003500080378006000b8006011b800e6
:107ea0004433dd00f300b2008301730000000600dc
:107eb000889fbe008a9fbe008c9fbe000404be0047
:107ec0000605be00809fbe00829fbe002e000700f8
:107ed000040678000800be000a01be002a00070060
:107ee000840678004f03be004f02be008d4f76001f
:107ef0007fb0970013003300f0ff2f008b8f6b00d3
:107f000006003b000d0666000c00a7000a003700c3
:107f100007f0a600100020000a003700880f52006a
:107f2000898f5a008a0f5b008b8f5b00030039003a
:107f30001000200001003e000000200007f0a70014
:107f40000000ea004f06be004f05be004f04be0011
:107f5000000006000003be000cfd07006220e100e7
:107f6000020032000600be0005000500e507b10072
:107f7000f107b20004f023008480700007f0a7002e
:107f800001f0a0002400050005ff27000582610024
:107f9000070032000428e10001003200240005003f
:107fa0000600070001003a0044000500040805002f
:107fb00002000700f9ff3a00140005006f8261001b
:107fc00081027000850271008502720000000600c7
:107fd0008001eb0002003700817178008301e80026
:107fe000828f5100fcff3a000000060080007800fc
:107ff0003004e000feff3a00010050000000e900fc
:10800000000006008001eb000200370061f07900fb
:108010008301e800828f5100fcff3a000000060057
:1080200010417800b141510003003a000000e8001f
:108030000204e000faff3a000300fb000000060023
:108040000002780082427800034878008100fb003b
:10805000a2002000110009008200d8008000fd006d
:108060000043b00070fa9f00014078000104e00076
:10807000030032000043b00060fa9f0000000600d9
:1080800065fa9f0000000600800078006300600031
:108090000f003a0042062000811f780011000900fd
:1080a0008280d80001007800cf0078000000e00056
:1080b00008003a00c0122000010040000219200010
:1080c000110009000280d8000100e0000100320028
:1080d000d0160500e0160500889fbe008a1f7800b4
:1080e0008c9fbe001004be00c203200003002000cd
:1080f0000800be0023fd0700109a8900c20320007b
:10810000030020000800be0045fb07000004be007d
:10811000c2032000030020001afd0700209a8900f6
:10812000c2032000030020000800be003cfb070043
:108130000006be00820120000300200011fd0700a0
:10814000309a890082012000030020000c00be004c
:1081500033fb0700409a8900640040007200200051
:10816000110009000200d80001017800729a89000c
:10817000600420000400370000005500409a890088
:10818000c03423001000e800609a89004a9a8100f8
:10819000609a8100bcff0700800f5500f6ff3d008c
:1081a0006200600001f02f0001046600000474000a
:1081b0008a9a8900a03423000008eb00800278002e
:1081c000044c23000800370002805100409a8900c7
:1081d0001500e800509a89000880fb000000d100db
:1081e0000884600000047400439a8100509a810062
:1081f00064407800084070000081fb004810dd00fa
:10820000f80fb20000047400828f5100eeff3d00b1
:108210000300e800409a8900203423004f06be0086
:108220004f0578004f04be00000006000400fa006d
:10823000829b8100c10320000191b900300211002e
:10824000a0821900e4bf9f00f5bf9f006480570023
:10825000a1ff07000080fa0000000600889fbe0012
:108260008a9fbe0080047800600090006300b9001f
:1082700042292300000141004b352300924d780034
:10828000503523009240900001487800603523006b
:1082900022419000024878000ac2b30070352300e2
:1082a0000a487800490090006300b900a22a230020
:1082b00000014100803523001248780090352300ea
:1082c0009240900001487800a035230022419000a0
:1082d00002487800b03523000a487800b9009000c1
:1082e0008a4178000a417800e035230054ff0700f6
:1082f000a9009000a3c3b30002c3b300103623004b
:108300004fff070099009000a3c3b30002c3b3005e
:10831000403623004aff0700990078008a41780020
:1083200002c3b3007036230045ff0700d900900058
:1083300048062000110009008800d8008000fd00d8
:10834000f3c040008041eb000a417800a0362300d2
:108350003bff070059009000110009000800d800f9
:10836000a3c0b30002c3b300c036230034ff07002c
:108370000b0078004f05be004f04be000000060051
:10838000aaff0700b5ff37000000fa00889fbe0073
:108390008a1f7800800278001fb99700ee8457008a
:1083a000aa282300320037000204e80050c2b300bc
:1083b00080cf50002c003a008981e9009800fb0032
:1083c00000fd2f00008340000284e8000600e0006a
:1083d00009003a0083047800130078000200370097
:1083e000815a78000000e800904078000104e00025
:1083f000fbff3a001d003700830478001302780069
:10840000060043008003eb00818040002106b1009c
:108410008a0140008080500013017800811f78009d
:10842000110009000202d80001007800cf00780096
:108430000002780063817800811f78001100090034
:108440000200d80000017800cf00780000c3b3001c
:10845000805a41008703e8008381e900868f53003a
:1084600002003200ecff3700815a780008017800e2
:10847000924078000104e000cbff3a00814a780086
:108480004f0578004f04be000080fa00000006008f
:10849000889fbe008a9fbe008c1f7800000678006f
:1084a0000205780003047800810040008105e9009e
:1084b00080047800180137000a02e80050c2b300b7
:1084c00080cf51000b013a000a85e8009440780003
:1084d000a0c5b30080cf5000e800320028003c0067
:1084e0006d40500080cf50008e00320012003c00e2
:1084f0006b40500080cf50005300320007003c001a
:10850000e2ee220083cf50008d0032000040e900ef
:1085100080cf5000e0003a004200370080c4b30032
:1085200080cf5000670032000040e80080cf50004c
:10853000d9003a006c00370070c5b30080cf5000fe
:108540008f00320007003c006440500080cf500094
:108550007e00320000c0e80080cf5000ce003a001c
:108560007c00370080c5b30080cf5000ac003200e3
:108570000040e80080cf5000c7003a00ba00370042
:10858000a0c6b30080cf50005f0032000f003c0057
:108590006840500080cf50002700320004003c00ab
:1085a0000040e90080cf5000bb003a0019003700be
:1085b00030c6b30080cf5000270032000040e800f2
:1085c00080cf5000b4003a003c00370070c7b300c1
:1085d00080cf50007a00320007003c006a40500013
:1085e00080cf50004c0032006340400080cf5000ec
:1085f000a9003a004d00370080c7b30080cf50007b
:10860000730032000040e80080cf5000a2003a0022
:108610008f0037006800900000004000c127230051
:10862000030037006800900000004000e1262300ae
:1086300061017800420037004800900000004000cf
:1086400061252300faff3700480090000000400039
:10865000e1232300f6ff3700d8009000c076200009
:10866000809f4000981f780018009000801f7800bd
:1086700028009000801f780038009000801f78004c
:10868000480090000000400061252300e11f7800b1
:108690006800900000004000c1272300e11f78001f
:1086a00000ef2200801f78006045230036ff07009e
:1086b00062452300f0875700210037003800900002
:1086c0000100370028009000801f780050f0220041
:1086d000801f7800604523002bff070062452300c0
:1086e000e48757001600370028009000c2002000e1
:1086f000110009000200d8000100e00058003a0013
:10870000820078005600370078009000801fe80053
:1087100080f02200eeff370048009000801fe80044
:10872000eaff370018009000e7ff370028009000ac
:10873000b2f02200eb0f500001003c00e2f02200fa
:108740008901780082007800660037001800780000
:10875000ddff370078009000720020001100090052
:108760000200d8000001780068009000808f50005f
:10877000010034000201e800821f7800d3ff3700b7
:108780007800900072002000110009000200d8005b
:10879000800278008101780005027800680090006e
:1087a00066004000110009000200d800818f5100ce
:1087b000010034000502e800841f7800c3ff370081
:1087c00068009000801f780010f12200c0ff370081
:1087d000d8009000c0762000809f400038009000b4
:1087e000801f7800480090000000400061252300b1
:1087f000e11f78006800900000004000c1272300be
:10880000e11f780040f12200801f780060452300be
:10881000ddfe070062452300ea875700c8ff3700e6
:10882000981f780018009000801f780028009000a2
:10883000801f780020f22200801f7800604523000e
:10884000d1fe070062452300e8875700bcff3700d0
:108850005800900042062000110009000200d800d4
:10886000811f780099ff3700d8009000c076200063
:10887000809f4000b0f2220095ff3700080890006a
:108880000000e00002003200e2918100acff3700fe
:10889000d2918100aaff37006245230050c2b30085
:1088a00000497800714523009448780080452300f2
:1088b0000048eb001104e000a1ff3a000405780035
:1088c0009fff37000980550000004100808f500055
:1088d00002003a00804deb0009003700845978000f
:1088e0008100e800114278000404e000f5ff3a003e
:1088f000080037008b8f540003003a00804ceb00d7
:108900000000eb0009003700835c780089017800e3
:1089100004057800830478009a4178000304e0009d
:10892000e5fe3a00834c78000c8054004f06780036
:108930004f05be004f04be00000006008001780015
:108940000001780031407800005978000004e00010
:10895000fcff3a0003007800000006000400fa0063
:10896000e0bf9f00e4815700812978000002eb00fe
:108970000f0037006fb89700904078007fb89700dd
:10898000104078000402e80080cf5000040032005c
:108990008180fb000080fb00008050000700370052
:1089a0006fb897000000e800e0bf9f009309e8005f
:1089b000820f5200efff3a000000eb000080fa0047
:1089c000000006000000fa00cfb897006881570049
:1089d000204223001e0207000080fa00000006006b
:1089e000889fbe000004be00060037000804e800af
:1089f0000000fb0089007800ce000700e10f400076
:108a000004003200184078000004e000f7ff3a004c
:108a10000000eb004f04be0000000600881f780035
:108a200021422300eeff07000004780021422300ca
:108a3000a0002000bf000700080078004f04780065
:108a4000000006000001780000c2b30001003700fa
:108a50000201e8009240780080cf5000fcff320015
:108a6000e9cf5000faff3200d0c2b30080cf5000ef
:108a700003003a000201e80014c0b300050037000b
:108a80000042eb00b0c2b30080cf500001003a00ba
:108a90000201e8008000eb0005fd2f000400370014
:108aa0006a08b90000804100850040000201e8002a
:108ab0009201fb0005804100e90f5000f8ff3600ed
:108ac0000404e000010032008100ea0001007800a7
:108ad000000006000003780080027800020278009f
:108ae0008001eb00080037000402e90063c0780051
:108af000805a78008301e8000004e00002003a0098
:108b00008000eb0006003700828f5100f6ff3a002c
:108b1000fbff37000040eb0080f07a008100e800a6
:108b2000848f5000fbff3a0006007800000006002a
:108b300080017800d01620000018b800421ade002c
:108b400004024000e08248004206200011000900b3
:108b50008281d8000001780002025200e0825a00af
:108b600002192000110009008281d8008000fd0058
:108b700001004200e0804a0000000600889fbe001d
:108b8000000378000102e80010bf200000a2b90035
:108b900010442f000400400044062000811f78008c
:108ba000110009000480d800cf00780000014100c6
:108bb0006114b800e18f5000140036000219200043
:108bc000110009000283d800010078000000e000d5
:108bd000070032006300630008003a00110009003a
:108be0000483d8008000fd000000e0000300320094
:108bf00010002000010020000200370020002000ab
:108c0000010020000004540081845c000600e9009b
:108c1000c7ff070008004000898048004f04be00dd
:108c200000000600889fbe008a9fbe008c9fbe0089
:108c300000067800d0069000a0fb2f0000804600c0
:108c40000081eb008081eb0021032000810f5000a8
:108c500033003e00120020008000eb00207b20004b
:108c6000c6ff07000005be00c07620000080460059
:108c70003c019000cc009000c0ff07000004be0043
:108c80000a0550008b855800720020000300200068
:108c90000a00be003bfa070064004000e080480084
:108ca000720020000300200036fa070060069800da
:108cb000b0762000008046009dff070000045400ad
:108cc0000804e900780698008201200003002000d3
:108cd0000a00be0031f707002c019000cf91de00a2
:108ce0000000410081804900c203200003002000f1
:108cf0002af707001c019000cf91de000000410020
:108d000081804900c20320000300200023f70700f0
:108d10001c017800cf91de000001410081814900f3
:108d20000200be004f06be004f05be004f04be004d
:108d300000000600889fbe00000178000104780052
:108d4000b10090000118a3003d0032000198a3007b
:108d500003003a00180090000000e00038003a00dc
:108d60000190a0003104980082047800f90fb2004d
:108d7000180090000000e00002003a002800900077
:108d8000000c7800ea8f540006003a00380090008a
:108d90000078a30003003a0088007800d00020008b
:108da000e4ff07009800900058009000808f50006a
:108db0000b0032000100e800100498001800780051
:108dc00009587800000c780011c0b300204e230031
:108dd00001487800ea8f540006003200190037007d
:108de00088007800094078000709070080047800af
:108df00014003700380090000088a30011003200f2
:108e000018019000a8009000480090003c1d070049
:108e100098009000810f500004003200380090004c
:108e20000003b300300498008084eb000000eb00e6
:108e30001004980028009000000c78000100370012
:108e40008084eb00090078004f04be00000006009b
:108e5000881f780000047800300090000008a3000c
:108e600007003200800078000120b20004003a00c0
:108e700011049800a8009000010c7800170037003a
:108e80000018a300190032000098a3001700320058
:108e9000a80090000100e0001400320018019000ca
:108ea0000200e0001100320048009000141d07008d
:108eb00098009000810f50000300320038009000ad
:108ec0000003b300300498000000eb001004980089
:108ed00028009000000c7800380090000058a30093
:108ee000020032000080eb00010037000000eb00c0
:108ef0004f0478000000060010417800814f5100b7
:108f0000040032000000e8000204e000faff3a002a
:108f10000000eb00000006000c00fa00a0bf9f005c
:108f2000c0bf9f0031fc0700b0bf9f00f0bf9f0093
:108f3000100c2000d0bf9f0074815700efb0970045
:108f40006c8057001f0907000080fa00000006002f
:108f50000c00fa00889fbe0000047800cfb0970094
:108f6000f0ff2700d0bf9f008004eb0099bf9f0057
:108f700088bf9f00a8bf9f00200c2000b0bf9f00ab
:108f80007881570070805700860a07000fb8970055
:108f9000094878000fb897000804500008007800ce
:108fa0004f04be000080fa0000000600889fbe004b
:108fb0008a9fbe0080407800d0c6b30080cf5000aa
:108fc000290036000185fb0042062000110009003f
:108fd0000285d80000017800010478004311dd000b
:108fe0006bcb22000b0141006022b800060020007c
:108ff00007fe23000288900092889000b2899000ba
:10900000228990006ef90700a9002000809fbe0011
:10901000110009000984d800000478004f00be0048
:109020004344dd000b04440048229000d822900005
:1090300068239000f823900061f90700801f7800f2
:1090400001027800110009000985d8000102fd0025
:109050004f0078004322dd000b0242005403be00a3
:109060004402be001f0037000180fb0069cb2200d4
:10907000eacf500014003600a200200011000900c1
:109080000280d80000017800010478004311dd005f
:10909000090141006022b8000600200007fe2300fd
:1090a00042209000d2209000f22190006221900096
:1090b00043f907004344dd00090444003802be00c0
:1090c0002803be00070037004300dd000900400010
:1090d0006022b8000600200007fe23005001be00f9
:1090e0004000be0036f907004f05be004f04be0029
:1090f00000000600889fbe008a1f7800804078002c
:109100000004e00021003d008040ea00d0c6b3002a
:1091100080cf5000090034008104fb00420620008b
:10912000110009008204d8000001780001007800d5
:109130004311dd006acb22001f0037000100fb0055
:1091400063cb220039003700a20020001100090083
:109150000200d80000017800010078004311dd0012
:10916000030141004300dd00030040003002be0067
:109170002003be0042209000d2209000f2219000f7
:10918000622190000ef907002e003700d0c6b30010
:1091900080cf5000230034008104fb0042062000f1
:1091a000110009008204d800000178000100780055
:1091b0004311dd006ad622000a014100a800200008
:1091c000110009000800d8004300dd000a0040003b
:1091d00040229000d022900060239000f023900065
:1091e0000288900092889000b289900022899000b5
:1091f000f3f80700801f78000102780011000900d1
:109200008804d8000102fd004f0078000402fb0032
:109210004322dd000a0242005403be004402be00a5
:10922000d8ff37000100fb0063d62200eacf5000d0
:10923000c5ff3c004300dd00030040005001be00bc
:109240004000be004f0578004f04be00000006003d
:10925000ef04b000889fbe008a9fbe008c9fbe00b6
:109260008e1f78006022b8006033b800e4a79f002a
:10927000f5a79f0086af9f0097af9f00a0af9f000c
:10928000b1af9f00c2af9f008002eb00a5a79f0077
:10929000d00737008001eb0050c2b30080cf5000f0
:1092a000090032000100fb00afa89700a1fe0700f3
:1092b000e10f4000c70732002fa397000603e80024
:1092c000a6a79f00c3073700bfab97009740780061
:1092d000b0c2b30080cf50001900320007003c003c
:1092e0006b40500080cf50001000320063404000bf
:1092f00080cf500021003a0016003700d0c2b300e2
:1093000080cf5000040032006340400080cf500006
:109310001a003a00140037000330a0003fac970059
:109320000804e800b8af9f00e7ff37000300a00083
:10933000bfac97008904e800b9af9f00e2ff370097
:109340000310a0003fad97000a05e800baaf9f00e8
:10935000ddff370003b0a000bfad97008b05e8002c
:10936000bbaf9f00d8ff37000320a0003fa89700a5
:109370000000e800b0af9f00d3ff37000318a30040
:10938000010032000300a1000338a30001003200f5
:109390000320a1000100fb0002fd2f00020040009d
:1093a000e90f500010003e008000eb00e1979f00a5
:1093b000020278006f9197006a10b900bfaa970067
:1093c0001501fb000001410004014100e2979f00ec
:1093d0005500fb00b5af9f0004004000e90f5000ae
:1093e0000d003e00f3ff37000003eb00e6979f00ff
:1093f000a0c2b30080cf500007003a00cfab970067
:1094000047047800c7af9f00e8979f00bfac970064
:109410008904e800b9af9f00e0c2b3003fad9700f8
:109420009a4f100021003a00830678000de0a0005a
:109430008a00e80064405000914f100004003200a0
:10944000b1af9f008005eb00bba79f001000370065
:109450004fa89700c0007800c0af9f00b1a79f0041
:109460003fa997000281e800b2af9f0013003700c8
:109470003fa297006a20b9000000410003004000ad
:10948000b0a79f00bfaa97008502e800b5af9f0074
:109490003fab97001601fb0003fd2f0003004100c6
:1094a000e90f5000f2ff3600040037008306780011
:1094b0000dc0a0008003eb00b7a79f003fac970052
:1094c000b8407800b8af9f00e1679f0070c6b30056
:1094d00080cf50003c00320017003c006440500038
:1094e00080cf50008f0032000e003c007c405000c6
:1094f00080cf50003300320006003c000104e00041
:109500003a07320000c0e90080cf5000aa003a00bc
:109510002900370080c5b30080cf5000a6003a0074
:109520002d00370050c6b30080cf5000230032001a
:109530001f003c00a700370000c7b30080cf5000d9
:10954000250032000a003c006440500080cf5000eb
:10955000110032006340400080cf50001c003200f8
:109560006640500080cf500093003a0099003700c9
:1095700050c7b30080cf50009500320063404000d8
:1095800080cf5000150032006540500080cf500061
:1095900089003a0013003700000028000d48a3009e
:1095a00001003a000001200080867600c3ff3700ea
:1095b0000da0a000870037000d50a0000d80a00076
:1095c000840037000d50a0000d90a00081003700ee
:1095d0000d60a0007f0037000d50a0000d70a000ae
:1095e0007c003700cfac970049007800c9af9f00de
:1095f000e0a79f000000e00002003a002b372300a4
:10960000eba79f000000eb00f0a79f0002003700cf
:109610008100e800f1a79f00ffa097006fa19700cd
:10962000028040001004e000f9ff3a00bfa197005b
:109630000300e000040032007fa29700848f5100f5
:1096400001003100f3a79f007fa097000005eb0009
:109650006f939700800f5300010036000005530000
:109660004368de00e104600019003a000904780054
:1096700009003700afa8970000022000adfd0700e9
:10968000e10f400003003200afa397008703e8001a
:10969000a7a79f000804e8008a0f5400f5ff3a00ce
:1096a0000085eb000a003700efa097003100fb00b7
:1096b000e1a79f00afa897009efd0700e10f4000c3
:1096c000030032002fa497000804e800a8a79f0019
:1096d000ffa597000b00e900f0a79f00e10f4000f5
:1096e000f1ff3a000004eb000900e0000a003a0034
:1096f000b8063700afa89700000220008dfd0700d4
:10970000e10f4000030032002fa197000201e800a2
:10971000a2a79f000804e8008a0f5400f5ff3a0052
:10972000ac063700cfa9970043007800c3af9f0075
:10973000cf80de0001017800820178000203be00c4
:109740000002be00e0a79f00f1a79f0082af9f002c
:1097500093af9f004822de00482cdd000402740015
:10976000e4679f000d48a3000c0032000404e000f1
:109770000a003200e14f42000800320079fa2f005f
:1097800009804700044878004fcd97001a409800a0
:109790002b002000fba79f0003003700f0679f000d
:1097a00010002000f0a79f0071fa2f008180470071
:1097b000e1a79f009dff370062fa2f000f014100d3
:1097c000e2a79f0013002000f3a79f0097ff370038
:1097d0000d0cb3000070200000826600820432008d
:1097e0000dc8a3000200320064002000b4a79f004f
:1097f0000d48a300090032004fa897004005be00a5
:109800004004be00c0af9f00e89f9f00f99f9f00eb
:109810008aa79f009ba79f00080037004fa99700c9
:109820004200be00c2af9f00daf70700e09f9f0032
:10983000f19f9f0082a79f0093a79f006022b8001e
:109840006033b8006f989700ff9897000fa19700ba
:109850009fa19700eef707000000e0000a003d001e
:109860006f9a9700ff9a97000fa397009fa3970006
:1098700007f0a200e49f9f00f59f9f0086a79f002e
:1098800097a79f003d00b3000000eb00d0979f001a
:109890006022b8006033b8006f989700ff98970077
:1098a0000fa197009fa19700def707000000e000de
:1098b000340032006f989700ff9897000fa197002f
:1098c0009fa1970048f60700a5fa2f0005814700e1
:1098d000d9f707005f9097000000e9006300b90026
:1098e000a2002000110009000200d8008000fd0045
:1098f000d1979f000100e00002003d000100e90057
:10990000d0979f005f9497000840ea00f9fd070098
:109910006f9a9700ff9a97000fa397009fa3970055
:1099200027f70700a09f9f00b19f9f00c29f9f0045
:10993000d39f9f006022b8000600200007ff23008d
:10994000b3f707000000e00002003d000800e90056
:109950000b0037006022b8000600200047022400f8
:109960002f989700bf9897004f999700df9997001d
:10997000b4f707000000e000020035000800e8002e
:10998000d0979f005f939700d6a79f000600e00046
:1099900003003c0010c0b300e0679f0002003700e6
:1099a000afcb9700e7679f000d0678000c10b20060
:1099b00008003a000d98a300770232005fa49700d8
:1099c000e40f440003003500bfa49700890f540042
:1099d000f20135003fa597000a00e00004003200c4
:1099e0000d98a300020032000a05e900baa79f0003
:1099f000bfa5970020c1b300f28f550001003e00c3
:109a00006fc09700e0679f006022b8006033b80025
:109a10006f989700ff9897000fa197009fa197005c
:109a200080f707000000e0006d0032006f659700ce
:109a3000afc897000ac05000aefd07000002be008c
:109a40000203be006f989700ff9897000fa1970040
:109a50009fa1970080f70700e09f9f00f19f9f0064
:109a600082a79f0093a79f00d5f707000004be00c0
:109a7000f9f70700e00f5400e08f5c0004003d00a0
:109a80006022b80006002000071f2400f5f7070039
:109a90000002be000203be006f989700ff98970077
:109aa0000fa197009fa197006bf807006022b800f4
:109ab0000600200007fe230062f707000000e00018
:109ac0000c0035006022b8000600200007fe2300cd
:109ad0006f989700ff9897000fa197009fa197009c
:109ae000e0f70700e09f9f00f19f9f0082a79f0083
:109af00093a79f006f989700ff9897000fa197007a
:109b00009fa19700aef707000002be006033b800c7
:109b10000a00fb004304dd0089ff22000900440025
:109b2000d000900060019000f00190004000900093
:109b30000020e10001a8e10002b0e10003b8e1006b
:109b4000100039000400200005002a009699290021
:109b500097fb23006f989700ff9897000fa197003d
:109b60009fa1970096f60700e09f9f00f19f9f003e
:109b700082a79f0093a79f005fa197000200e800c3
:109b800016003700090044005001be004000be002e
:109b90000020e10001a8e10002b0e10003b8e1000b
:109ba0000f0031006022b8000600200047022400a8
:109bb0006f989700ff9897000fa197009fa19700bb
:109bc0007ff60700e09f9f00f19f9f0082a79f0004
:109bd00093a79f00dfa197000300e900d0979f00a3
:109be0004968de006100600080cf9f000004e00053
:109bf0004000320000802000008666003d003a00f0
:109c0000bfa29700f48f52000200340046012000ea
:109c1000b6a79f006f989700ff9897000fa1970035
:109c20009fa1970066f707000004be000c057800ae
:109c30008c0578000b003700bfa397008703e9006d
:109c4000b7a79f00a4002000050020006033b800e3
:109c50000800be000a01be00d0f307000205be00e6
:109c60000004be00e00f5400e08f5c00e00f5d00d8
:109c7000e08f5d000b003200a400200005002000f2
:109c80006033b8000800be000a01be00caf3070036
:109c9000e00f5000e08f5800e00f5900e08f5900ae
:109ca000e5ff3200ef6097000100fb003fa4970042
:109cb000800f54000f003d0008c050000dfd07004c
:109cc0000002be000203be006f989700ff98970045
:109cd0000fa197009fa19700dff60700e09f9f006c
:109ce000f19f9f0082a79f0093a79f00efc497005a
:109cf000e9679f006f959700bfa597000b0055007f
:109d0000650650000b00e00002003a000db8a30009
:109d100001003200660650006380660001003200d8
:109d20000c06e9000d28a30026003200e180660041
:109d30000d18a3000c003200d00220000100e0004a
:109d400001003a000080e900afa89700f9fb070086
:109d5000e10f4000180032002fa097000000e8003b
:109d6000a0a79f00140037000100e000120032009d
:109d7000afa8970000022000eefb0700e10f4000b3
:109d80000d003200afa097008100e800a1a79f005e
:109d900009003700afa8970000032000e5fb07008b
:109da000e10f4000030032002fa197000201e800fc
:109db000a2a79f000c06e9000c00e000f5ff3c00a4
:109dc0002e0037000d38a3000a0032000b003700c8
:109dd000afa8970000022000d6fb0700e10f40006b
:109de00003003200afa197008301e800a3a79f0002
:109df0000c06e9000c00e000f5ff3c00e180660085
:109e00000d18a30013003200d00220000100e00072
:109e100001003a000080e900afa89700c5fb0700e9
:109e2000e10f4000150032002fa297000402e80065
:109e3000a4a79f0011003700e8a79f00f9a79f0083
:109e40008aaf9f009baf9f008042eb00e5679f00b9
:109e5000800037000100e00008003200afa8970042
:109e600000022000b3fb0700e10f400003003200b6
:109e70002fa397000603e800a6a79f006f989700fe
:109e8000ff9897000fa197009fa19700ccf60700bd
:109e90000004be006055b800ef6397000700fb00a8
:109ea0004300dd008eff22000e0040003002be00a5
:109eb0002003be000800be000a01be0037f3070001
:109ec0000003b000afa897009afb0700e10f400025
:109ed000030032002fa097000000e800a0a79f0019
:109ee000ef6097000100fb004300dd000e00400022
:109ef0003002be002003be000800be000a01be0002
:109f00002df307000205be000004be00e0a79f007d
:109f1000f1a79f0082af9f0093af9f00bfa2970061
:109f20000500e00002003a000db8a300490032002d
:109f3000afa89700e00220007efb0700e10f400081
:109f4000030032002fa397000603e800a6a79f0096
:109f5000ef6397000700fb00bfa097000080500050
:109f6000809f9f00240037000fc997000204e00083
:109f700005003200e00f5400e08f5c00e00f5d0050
:109f8000e08f5d00acff32000000fb004300dd000d
:109f90008eff22000e0040003002be002003be00f3
:109fa0000800be000a01be00fcf207000003b0007a
:109fb000afa897005ffb0700e10f400003003200ed
:109fc000afa197008301e800a3a79f006f629700ed
:109fd0000400fb004300dd000e0040003002be0024
:109fe0002003be000800be000a01be00f2f2070016
:109ff0000205be000004be00ef6297000540e900c4
:10a00000e0679f00e14f4000d7ff3a00e8a79f00bc
:10a01000f9a79f008aaf9f009baf9f000004eb0051
:10a0200009003700afa897000003200041fb07009c
:10a03000e10f4000030032002fa397000603e80061
:10a04000a6a79f000804e8008f9b9700870f540085
:10a05000f4ff3a000d58a30009003200afa89700a2
:10a060005004200033fb0700e10f40000c003200d9
:10a070002fa497000804e800a8a79f000800370055
:10a08000afa89700500620002afb0700e10f400010
:10a0900003003200afa497008904e800a9a79f003d
:10a0a0005f9097000000e0000b003d000000ea0018
:10a0b000d0979f00afa89700d00220001dfb07009b
:10a0c000e10f40000c0032002fa597000a05e800c0
:10a0d000aaa79f0008003700afa89700b002200091
:10a0e00014fb0700e10f400003003200afa597000a
:10a0f0008b05e800aba79f005f909700a8002000a9
:10a10000110009000800d8000003b000afa89700b4
:10a1100008fb0700e10f4000030032002fa097006a
:10a120000000e800a0a79f00df9097001100090041
:10a130008800d8008000fd000003b000afa89700a1
:10a14000fcfa0700e10f400003003200afa09700c7
:10a150008100e800a1a79f000d38a3001d04320074
:10a160000c00e0001b0434000004eb00afa89700d3
:10a1700000022000effa0700e10f40000300320068
:10a180002fa197000201e800a2a79f000804e800a1
:10a190008c0f54000f043200f4ff3700dfa197004a
:10a1a0000300e00004003d003fa2970003005200be
:10a1b0000000e900b0a79f006f989700ff989700f4
:10a1c0000fa197009fa19700a5f607000205be000a
:10a1d0000004be000c42780085ff22000b0037000f
:10a1e0000400fb004300dd00050040005001be00fc
:10a1f0004000be000040e10001c8e10002d0e100e3
:10a2000003d8e100030039000442e800f44f520093
:10a21000f3ff3a00e4679f000400fb00bfa2970031
:10a2200000875200f80f57000d003c000e407800e8
:10a230005efb07000002be000203be006f9897009d
:10a24000ff9897000fa197009fa1970005f60700c0
:10a25000e09f9f00f19f9f0082a79f0093a79f0010
:10a260000e407800a3fb0700d0af9f00e1af9f0036
:10a27000f2af9f0083b79f00e00f5400e08f5c00b7
:10a28000e00f5d00e08f5d00040035000800be00b7
:10a290000a01be00a3f607001300370010002000db
:10a2a000010020006011b800080060008980600093
:10a2b0000a0161008b8161008b03d1000a83d30006
:10a2c0008982d3000882d30000007200818072006e
:10a2d000020173008381730092f607000002be0042
:10a2e0000203be00dff507000002be000203be004d
:10a2f0006f989700ff9897000fa197009fa1970074
:10a3000055f607000002be000203be005fa89700da
:10a31000efa897007fa997008fb19700a8f40700d6
:10a320004ff607000205be000004be000006eb0069
:10a3300008003700a4002000050020006033b800aa
:10a340000800be000a01be0014f207000205be00ac
:10a350000004be000c035700b6a79f008e0f5600e6
:10a360001d0032000c06e800a400200005002000bb
:10a370006033b8000800be000a01be000ef20700fc
:10a38000e00f5000e08f5800e00f5900e08f5900b7
:10a39000e8ff320010003700bfa39700f88f53008a
:10a3a0000d003c000740780000fb07000002be00e3
:10a3b0000203be006f989700ff9897000fa19700c7
:10a3c0009fa19700a7f50700e09f9f00f19f9f00c6
:10a3d00082a79f0093a79f005fa49700e90f5400f6
:10a3e00015003c006022b8006033b8006f989700f9
:10a3f000ff9897000fa197009fa1970009f507000c
:10a400000000e000360032006f989700ff98970038
:10a410000fa197009fa1970011f60700e00f5000d1
:10a42000e08f5800e00f5900e08f59002c003a00ef
:10a43000e10f54002a0034000400200005002e0023
:10a44000b6e02200170124002f989700bf989700cc
:10a450004f999700df999700edf407000000e000a6
:10a4600003003d00dfa49700738054000200370012
:10a470005fa5970072005500d0979f002f68970046
:10a480001cfb0700a09f9f00b19f9f00c29f9f00e1
:10a49000d39f9f000002be000203be006f9897008a
:10a4a000ff9897000fa197009fa19700eaf407007b
:10a4b000ebf50700e0a79f00f1a79f0082af9f0088
:10a4c00093af9f006000b8006011b800d0b79f0044
:10a4d000e1b79f00f2b79f0083bf9f0034003700b1
:10a4e0006f989700ff9897000fa197009fa1970082
:10a4f000dbf50700e0a79f00f1a79f0082af9f0058
:10a5000093af9f00e00f5000e08f5800e00f59001c
:10a51000e08f59000200350002f6070017003700ef
:10a5200010002000010020006011b8006fa2970009
:10a53000ffa297000fab97009fab9700040060004d
:10a540008580600006016100878161008703d1007a
:10a550000683d3008582d3000482d30000007200fa
:10a56000818072000201730083817300edf50700a2
:10a570000002be000203be003af507000002be0062
:10a580000203be006f989700ff9897000fa19700f5
:10a590009fa19700b0f50700d0b79f00e1b79f00db
:10a5a000f2b79f0083bf9f000000eb00d0979f0091
:10a5b00014c0b30085ff22000f0037000400fb0029
:10a5c0004300dd00050340003600be002601be004a
:10a5d0006fa49700ffa497000fad97009fad970061
:10a5e0000040e10001c8e10002d0e10003d8e10031
:10a5f000030039000442e800f44f5200efff3a0034
:10a60000e4679f000400fb00bfa4970000804400a3
:10a61000df909700010040006f95970000065500fd
:10a620004b68de0061006000004778000004e00035
:10a6300002003a000900e000010032000c06e900c7
:10a6400063806600010032000c06e9000d28a300bb
:10a6500026003200e18066000d18a3000c003200d5
:10a66000d00220000100e00001003a000080e90073
:10a67000afa89700aff90700e10f400018003200c3
:10a68000afa597008b05e800aba79f00140037002b
:10a690000100e00012003200afa897000002200085
:10a6a000a4f90700e10f40000d0032002fa0970031
:10a6b0000000e800a0a79f0009003700afa897009e
:10a6c000000320009bf90700e10f40000300320067
:10a6d000afa097008100e800a1a79f000c06e90049
:10a6e0000c00e000f5ff3c003f0037000d38a300f0
:10a6f0000a0032000b003700afa8970000022000cc
:10a700008cf90700e10f4000030032002fa19700f1
:10a710000201e800a2a79f000c06e9000c00e0007f
:10a72000f5ff3c00e18066000d18a3000c0032002c
:10a73000d00220000100e00001003a000080e900a2
:10a74000afa897007bf90700e10f40002600320018
:10a75000afa197008301e800a3a79f002200370064
:10a760000100e00020003200afa8970000022000a6
:10a7700070f90700e10f40001b0032002fa2970084
:10a780000402e800a4a79f00170037000000fb00a8
:10a790004300dd0081ff2200010040003002be00c6
:10a7a0002003be006fa09700ffa097000fa997009d
:10a7b0009fa99700f9f00700a400200005002000e1
:10a7c0006033b800fcf007000003b000afa89700aa
:10a7d00058f90700e10f400003003200afa29700d4
:10a7e0008502e800a5a79f006f6397000640e90077
:10a7f000e0679f00e14f4000e4ff3a000b003700a4
:10a80000afa89700000320004af90700e10f4000bd
:10a8100003003200afa397008703e800a7a79f00bb
:10a820005f9097000000e900d0979f005f9097002d
:10a830000000e000f2ff3c003fa49700f20f54003c
:10a840000300340020c1b300e0679f00020037001e
:10a85000efc49700e9679f00ef6097000100fb00dd
:10a860003fa5970000005500f0979f000104e0000d
:10a8700002003a000e04e00008003200afa8970082
:10a88000e00220002bf90700e10f40000300320036
:10a89000afa597008b05e800aba79f006f609700fe
:10a8a00014fa07000002be000203be005fb097006a
:10a8b000efb097007fb197008fb9970040f3070082
:10a8c000e7f407001e0037000000fb004300dd0036
:10a8d0008eff22000e0040003002be002003be00aa
:10a8e0000800be000a01be00acf00700a400200072
:10a8f000050020006033b800aff007000003b0008f
:10a90000afa897000bf90700e10f400003003200e9
:10a910002fa097000000e800a0a79f00ef6097001d
:10a920000100fb004300dd000e0040003002be00cd
:10a930002003be000800be000a01be009ef0070012
:10a940000205be000004be006f6197000240e900ee
:10a95000e0679f00e14f4000dbff3a00e8a79f005f
:10a96000f9a79f008aaf9f009baf9f000004eb00f8
:10a9700009003700afa8970000032000edf807009a
:10a98000e10f400003003200afa197008301e8000f
:10a99000a3a79f000804e8007f929700840f54004b
:10a9a000f4ff3a000d38a3000a0232000c00e00068
:10a9b000080234000004eb00afa89700000220005a
:10a9c000dcf80700e10f400003003200afa297005f
:10a9d0008502e800a5a79f000804e8008c0f54003a
:10a9e000fc013200f4ff37000d007800000cb200cb
:10a9f00032003a000d00e00009003d004fa897002a
:10aa00004005be004004be00c0af9f00e8a79f0005
:10aa1000f9a79f008aaf9f009baf9f0016003700e9
:10aa20000d48a300090032004fa997004200be0064
:10aa3000c2af9f004f89de00cf91de000002be0052
:10aa4000020378008203780007003700cfa997003f
:10aa500043007800c3af9f0000027800cfa2de0061
:10aa60000503780086037800e4a79f00f5a79f0000
:10aa700086af9f0097af9f006fa49700ffa4970039
:10aa80000fad97009fad9700e00f5400e08f5c0082
:10aa9000e00f5d00e08f5d0026003d003d00b3004b
:10aaa0006000b8006011b8000804500089845800a4
:10aab0000a0559008b8559001a0037000d00e00087
:10aac00005003d004faa97004401be004400be00af
:10aad000c4af9f00070037000d48a3000a003200f2
:10aae000cfaa97004500be00c5af9f0004017800c3
:10aaf00084017800e0a79f00f1a79f0082af9f002c
:10ab000093af9f000b0037004fab970046007800d3
:10ab1000c6af9f0000047800090020000a00200052
:10ab20000b002000e8a79f00f9a79f008aaf9f00b5
:10ab30009baf9f00bfa497000900e0000b003a0004
:10ab40006fa09700ffa097000fa997009fa99700fb
:10ab5000e00f5000e08f5800e00f5900e08f5900df
:10ab600002003a0011002000b1a79f000d067800f6
:10ab70000c0cb20000042000800f56003700320099
:10ab800003003c000c00e000070032004b003700df
:10ab900000082000800f560018003200000c200032
:10aba000800f560045003a0014c0b30085ff220014
:10abb0000f0037000400fb004300dd0005004000eb
:10abc0005001be004000be006fa49700ffa4970094
:10abd0000fad97009fad97000040e10001c8e10074
:10abe00002d0e10003d8e100330039000442e8005c
:10abf000f44f5200efff3a002f0037000001200011
:10ac0000010020006011b80014c0b3006fa49700c9
:10ac1000ffa497000fad97009fad97000040e100a3
:10ac200001c8e10002d0e10003d8e10022003900b0
:10ac3000490020000000d0008180d2000281d200b3
:10ac40008381d2008904e900faff3a000442e80057
:10ac5000f04f5200edff3a0017003700800020004f
:10ac6000010020006011b80014c0b3006fa4970069
:10ac7000ffa497000fad97009fad97000040e10043
:10ac800001c8e10002d0e10003d8e1000a00390068
:10ac9000390020000000d0008180d2000281d20063
:10aca0008381d2008904e900faff3a000442e800f7
:10acb000f54f5200edff3a00e4679f006f65970083
:10acc0000a00fb00bfa597008b0f500002003d005b
:10acd000eb679f0004003700bfa09700808f5000f3
:10ace00001003d00b0a79f006f9197000200e000b7
:10acf0000400320063806600020032000201e900b5
:10ad0000e2979f000de8a3000b003200ef9197003f
:10ad10003fa29700848f510003003c008002eb00ab
:10ad2000e5979f00040037006f939700bfa397003b
:10ad300007035300e6979f00408c200000806600c8
:10ad400001842000810f500006003a006f949700a4
:10ad50000800e000110032000804e900e8979f00b5
:10ad60000e003700008c2000008066000188200063
:10ad7000810f500009003a00ef949700e28f5400d1
:10ad800003003c000005eb00ea979f00030037003a
:10ad9000ef9597008b85e900eb979f00ef60970098
:10ada0000100fb000007eb006f919700800f51003e
:10adb00001003400000751000d28a3004b003200b1
:10adc000e18066000d18a3000c003200d0022000c4
:10add0000100e00001003a000080e900afa8970000
:10ade000d4f70700e10f400027003200afa1970021
:10adf0008301e800a3a79f00230037000100e000c3
:10ae000009003200afa8970000022000c9f7070030
:10ae1000e10f40001c0032002fa297000402e8005e
:10ae2000a4a79f0018003700008c20000080660057
:10ae300001882000810f500013003a00afa897004e
:10ae400000032000bbf70700e10f400003003200c1
:10ae5000afa297008502e800a5a79f00800520000b
:10ae60000d58a30001003a0080072000afa897000a
:10ae7000b0f70700e10f4000030032002fa3970056
:10ae80000603e800a6a79f000e00e0000d003200b8
:10ae90000004eb00afa8970000032000a5f707000f
:10aea000e10f400003003200afa397008703e800e2
:10aeb000a7a79f000804e8008e0f5400f5ff3a0092
:10aec0000007eb003fa49700c340dd0000ff220015
:10aed000808540004240dd00640550006340b900b9
:10aee000909f9f0063045000a20037000e00e00016
:10aef0000f003200688066000d003a000004780000
:10af0000afa89700000220008af70700e10f400079
:10af100003003200afa497008904e800a9a79f00ae
:10af20000804e8008e0f5400f5ff3a000007eb001c
:10af3000e18066000d18a3000c003200d002200052
:10af40000100e00001003a000080e900afa897008e
:10af500078f70700e10f40000e0032002fa59700a0
:10af60000a05e800aaa79f000a0037000100e000d8
:10af700008003200afa89700000220006df707001c
:10af8000e10f400003003200afa597008b05e800f9
:10af9000aba79f00008c200080806600008420000a
:10afa000808f500009003a00afa8970000032000ee
:10afb00060f70700e10f4000c2ff32002fa09700aa
:10afc0000000e800a0a79f00beff37000088200017
:10afd000808f5000bbff3a00afa89700000320000d
:10afe00054f70700e10f400003003200afa09700c4
:10aff0008100e800a1a79f00800520000d58a30054
:10b0000001003a0080072000afa8970049f7070029
:10b01000e10f4000abff32002fa197000201e800d2
:10b02000a2a79f00a7ff370000042000800f560052
:10b030003100320003003c000c00e0000700320049
:10b040004000370000082000800f56001200320038
:10b05000000c2000800f56003a003a003b02be0070
:10b060002b03be006fa09700ffa097000fa99700c9
:10b070009fa99700c9ee0700a4002000050020004a
:10b080006033b800ccee070004c3b30004424000b4
:10b09000e4679f002b003700993723000d58a30069
:10b0a00001003a00a9382300140020000500200008
:10b0b0006033b8000a0078000000e90005003300a2
:10b0c0000402d0008582d2000683d2008783d2009a
:10b0d000f9ff37006fa09700ffa097000fa9970016
:10b0e0009fa99700adee07006f006000e94478006b
:10b0f000e9679f00130037001400200005002000be
:10b100006033b800880078008100e9000500330052
:10b110000402d0008582d2000683d2008783d20049
:10b12000f9ff37006fa09700ffa097000fa99700c5
:10b130009fa9970099ee0700674060000043b000a8
:10b14000e0679f006f6197000200fb00afa89700c7
:10b15000f8f60700e10f400003003200afa19700ae
:10b160008301e800a3a79f00e8855500640555000a
:10b1700063045400d0ff2f003fa2970000a0b90045
:10b180009f9a97000080420063005000800f540097
:10b19000a5ff3a000d38a3000e0032000e00e000bb
:10b1a0000c0034000004eb00afa897000002200060
:10b1b000e0f60700e10f4000030032002fa39700e4
:10b1c0000603e800a6a79f000804e8008e0f5400bd
:10b1d000f5ff3a00bfab9700b7407800b7af9f00cc
:10b1e000e1679f000104e0002af83a002fa09700d1
:10b1f0004f0778004f06be004f05be004f04be004b
:10b20000ef04b100000006000200fa00889fbe00b3
:10b21000a0ff9f0001047800b10090008104780035
:10b220000904b200020032000000fb0036003700c3
:10b230000118a30005003a000103b300310498008f
:10b24000190498000080eb002f0037005800900090
:10b250000000e00006003a004800900012002000c4
:10b26000e6805700261407001904980024003700d0
:10b27000280090000000e00008003a00e04d2300a4
:10b2800020049800000c7800200020005004980052
:10b29000100498000130a0003104980018019000bb
:10b2a000a8009000480090001514070028009000a6
:10b2b000000c78000080eb00100498001800780063
:10b2c000aff8970001587800000c78002ff897002d
:10b2d000ea4f50000a003a00380090000088a300ae
:10b2e0000700320018019000a8009000480090006c
:10b2f0000314070019049800a8009000010c7800be
:10b30000aff897000100fb004f04be000080fa0078
:10b3100000000600889fbe00000478008144780089
:10b3200000fd2f0000004400e90f500002003e0025
:10b33000000178000d0037000800780078ed070064
:10b340000000e00003003200080078007aed0700fa
:10b3500000047800080078007eed07000000e0009f
:10b360000700320090fa2f00000144000980fb0022
:10b37000800f510002003d000280fb0001003700f9
:10b38000f00f20004f04be0000000600881f780068
:10b39000e0a78100810607000004780077ed070030
:10b3a0000000e000faff3a00e10f44000300320021
:10b3b000e1a7810008007800ac0607004f04780080
:10b3c00000000600ec874700889fbe008a9fbe00f1
:10b3d0008c9fbe008e1f780081bf9f0002077800ff
:10b3e000e0a789008046eb00040137008884fb0059
:10b3f0000900780061ed0700800078000000e0009f
:10b4000002003200e1ff0700fc00370050c2b30029
:10b41000804f5400f0003a000fbd970020c0b300e9
:10b42000c0ef9f00d1ef9f0081ef9f000300370026
:10b4300040c0b300c0ef9f000fbd97000fb9970049
:10b44000b240780082bf9f008184fb0090c6b300a9
:10b4500080cf50003500320017003e00664050009b
:10b4600080cf5000620032000c003e007740500058
:10b4700080cf50002800320006003e000104e000aa
:10b480009b003200a0c2b30080cf50006e003a0093
:10b490001d00370080c5b3001600370040c6b3005a
:10b4a00080cf5000210032006440400080cf500027
:10b4b00065003a001200370030c7b30080cf50005b
:10b4c0001e00320007003e006740500080cf500051
:10b4d000110032006340400080cf50005a003a0013
:10b4e0001400370050c7b30080cf50000f00320067
:10b4f0006340400080cf500053003a0065003700a1
:10b5000020c0b300cbff3700dfe897008140e800a0
:10b51000d1ef9f00c8ff37004fe9970080c0b3000c
:10b52000e24f5100c3ff3a00c1ff3700acc0b30087
:10b53000590037008cc0b3005700370093ff070055
:10b54000dfe897000104e00002003a004e017800b5
:10b55000d2b79f00e0a78100100607000004780022
:10b56000e10f4000a20032008fec9700120037007c
:10b570000a85e8008abf9f00160037008fb8970041
:10b580001100fb00800f5400f9ff32005fe99700c3
:10b590000204e00003003a005fb09700085878000a
:10b5a000d0b79f008944e9000a003200e0a781007b
:10b5b000fa050700000478000800e800e10f5000d9
:10b5c0000400360008007800ecec07000000e00002
:10b5d000eaff3200dfe897000104e00087003a004c
:10b5e0008d46e8005fb1970001497800830037007d
:10b5f0005fe897000004e00003003a008d46e80091
:10b60000ce007800d1b79f00e0a78100e3050700d6
:10b61000e10f4000760032005fe997000204e0008d
:10b6200003003a00dfb0970080587800d1b79f0040
:10b630000fe997000241e90082ef9f004240a90014
:10b640006e003400f0ff37000180fb0008fd2f0082
:10b6500008004000e90f50005f003e000a0078003b
:10b66000f8f4070080ef9f0088007800030037009f
:10b670000fb897000000e80080bf9f000fb9970047
:10b680001200fb0001004000e90f5000f8ff3600f7
:10b6900069ff37000cc1b3003cff0700e0a7810041
:10b6a000be050700000578000040eb00e0ef9f00ba
:10b6b000d0022000800f550005003a00e0a781006d
:10b6c000b60507000005780011c0b300e1ef9f0048
:10b6d0008c4078000a0078000eff0700e14f400020
:10b6e0000a003a00e1a781000a007800df050700a0
:10b6f0000d04e0004b003a00e0a78100300090000c
:10b700000048a30043003200480037008fed970047
:10b710006044b8000c81fb00030020000800be005c
:10b720009eec07000004be008c4078000a00780000
:10b73000f8fe07000080fb00010020000804400024
:10b74000898448008b45e90007003200e0a78100aa
:10b7500092050700000578008c407800edfe070098
:10b76000e14f4000ebff3a008c4078000a0078007f
:10b77000e8fe0700e14f400003003a00e1a7810026
:10b780000a007800b90507006fe997000204e0009d
:10b790000200320060041400e0841c005fe897009f
:10b7a0000004e00015003a008d46e800cfe897005d
:10b7b000e4cf500003003a004e0078000888be0035
:10b7c0000e0037000e81e9000207780012007800b1
:10b7d0000808780009003700e0a781006f0507001e
:10b7e000808f540005003200e10f40000b003a004a
:10b7f0000d04e0000d0032000a0037008fb89700fa
:10b800003144780081bf9f000804e000f7fe3a0051
:10b81000040037000000eb0005003700e1a78100bd
:10b82000920507000d80fb00010037000080eb004f
:10b830004f0778004f06be004f05be004f04be0004
:10b84000cf00b10000000600889fbe008a1f78006c
:10b85000804078000004e00021003d008040ea00c4
:10b86000d0c6b30080cf5000090034008104fb0033
:10b8700042062000110009008204d800000178006f
:10b88000010078004311dd006acb22001f00370061
:10b890000100fb0063cb220039003700a20020002a
:10b8a000110009000200d8000001780001007800b2
:10b8b0004311dd00030141004300dd0003004000af
:10b8c0003002be002003be0042209000d220900033
:10b8d000f22190006221900039ef07002e0037001e
:10b8e000d0c6b30080cf5000230034008104fb0099
:10b8f00042062000110009008204d80000017800ef
:10b90000010078004311dd006ad622000a014100df
:10b91000a8002000110009000800d8004300dd0045
:10b920000a00400040229000d02290006023900046
:10b93000f02390000288900092889000b2899000d5
:10b94000228990001eef0700801f78000102780016
:10b95000110009008804d8000102fd004f007800a2
:10b960000402fb004322dd000a0242005403be0031
:10b970004402be00d8ff37000100fb0063d622005e
:10b98000eacf5000c5ff3c004300dd00030040004b
:10b990005001be004000be004f0578004f04be00bd
:10b9a000000006008f03b000889fbe008a9fbe0083
:10b9b0008c9fbe008e1f7800e0b79f00f1b79f00fc
:10b9c00082bf9f000000eb00a0b79f00e604370095
:10b9d0008001eb0050c2b30080cf5000090032005c
:10b9e0000100fb00efb09700d2f40700e10f400028
:10b9f000dd043200afb097008100e800a1b79f00de
:10ba0000d90437007fb1970092407800d0c2b300cc
:10ba100080cf50000c00320007003c006d40500009
:10ba200080cf50000d0032006b40400080cf5000ae
:10ba300019003a000e00370000c3b30080cf500059
:10ba400015003a000f0037000330a0007fb29700c6
:10ba50000402e800f4b79f00eaff37000300a000eb
:10ba6000ffb297008502e800f5b79f00e5ff3700b9
:10ba70000310a0007fb697000c06e800fcb79f00fb
:10ba8000e0ff37000320a0007fb097000000e8002f
:10ba9000f0b79f00dbff37000318a300010032005e
:10baa0000300a1000338a300010032000320a1001d
:10bab0000100fb0002fd2f0002004000e90f5000d2
:10bac00010003e008000eb00c1b79f00020278002a
:10bad0004fb197006a10b900ffb297001501fb0043
:10bae0000001410004014100c2b79f005500fb0066
:10baf000f5b79f0004004000e90f50000d003e0024
:10bb0000f3ff37000006eb00ccb79f00a0c2b300e4
:10bb100080cf500007003a000fb89700c0007800af
:10bb200080bf9f00c1b79f007fb197000201e8006e
:10bb3000f2b79f00e0c2b3007fb29700944f1000ad
:10bb400021003a00830678000de0a0008400e800a0
:10bb500064405000914f100004003200f1b79f0084
:10bb60008002eb00b5b79f00100037000fbe9700b2
:10bb70004c0078008cbf9f00b0b79f00ffb09700cb
:10bb80008180e800f1b79f00130037003fb29700b3
:10bb90006a20b9000000410003004000b0b79f00d8
:10bba000ffb297008502e800f5b79f007fb69700c7
:10bbb0001c01fb0003fd2f0003004100e90f5000b2
:10bbc000f2ff360004003700830678000dc0a000a5
:10bbd0000000eb00b0b79f007fb19700b240780043
:10bbe000f2b79f00c17f9f00c0c6b30080cf500056
:10bbf0002700320014003c006840500080cf500005
:10bc00009d00320009003c006c40500080cf500085
:10bc1000290032006b40400080cf5000720032009b
:10bc20000104e000560432008e00370060c6b30005
:10bc300080cf50001c0032006340400080cf500095
:10bc400088003a008c00370030c7b30080cf500026
:10bc50001c00320007003c006440500080cf5000c0
:10bc6000130032000040e80080cf50007d003a0011
:10bc70001100370050c7b30080cf50007d00320064
:10bc80006340400080cf500076003a000b00370040
:10bc9000000028000d48a30001003a000001200028
:10bca00080867600ccff37000da0a0007200370020
:10bcb0000d60a000700037000d50a0000d70a000b6
:10bcc0006d0037008fb997004300780083bf9f0055
:10bcd000000478000000e00001003a00c8392300a9
:10bce0008004eb00010037008104e800890078003f
:10bcf000088044001004e000fbff3a003fb29700c8
:10bd00000400e00003003200890f520001003100fe
:10bd1000840478000007eb00cfb29700898f5200af
:10bd200001003600098752004368de00e10660002a
:10bd300019003a000d06780009003700efb09700af
:10bd400000022000fbf30700e10f40000300320077
:10bd50002fb097000000e800a0b79f000c06e80095
:10bd60008e0f5600f5ff3a000087eb000a003700ff
:10bd7000880078003100fb0001047800efb09700e4
:10bd8000ecf30700e10f400003003200afb0970072
:10bd90008100e800a1b79f000900e9008004780055
:10bda000e10f4000f2ff3a000006eb000d00e0005a
:10bdb0000a003a00ec033700efb0970000022000c1
:10bdc000dcf30700e10f4000030032002fb19700c1
:10bdd0000201e800a2b79f000c06e8008e0f560093
:10bde000f5ff3a00e00337008fb997004300780071
:10bdf00083bf9f00cf80de000101780082017800c0
:10be00000205be000004be000203be000002be0028
:10be10004822de00482edd0004027600c47f9f0029
:10be20000d48a3000a0032000404e00008003200bc
:10be3000e14f420006003200d1fb2f000180470095
:10be400004487800184098002900200002003700bc
:10be5000d07f9f0019002000d2fb2f0002844700f2
:10be6000a6ff3700c3fb2f00038447001900200002
:10be7000a2ff37000d0cb3000070200000826600a6
:10be8000270232000dc8a300020032006400200027
:10be9000b4b79f000d48a300050032000fba970009
:10bea0004401be004400be0084bf9f000400370070
:10beb0008fba97004500be0085bf9f0035ee070092
:10bec000e0af9f00f1af9f0082b79f0093b79f0044
:10bed0006022b8006033b8006fa89700ffa89700f1
:10bee0000fb197009fb1970049ee07000000e000f6
:10bef0000a003d006fa89700ffa897000fb19700b8
:10bf00009fb1970003f0a200e0af9f00f1af9f0048
:10bf100082b79f0093b79f003d00b3000000eb0085
:10bf200080a79f006022b8006033b8006fa8970018
:10bf3000ffa897000fb197009fb1970039ee070057
:10bf40000000e000340032006fa89700ffa89700bf
:10bf50000fb197009fb19700a3ec070003fc2f00df
:10bf60000381470034ee07000fa097000000e900ae
:10bf70006300b900a2002000110009000200d800ef
:10bf80008000fd0081a79f000100e00002003d004d
:10bf90000100e90080a79f000fa497000840ea0075
:10bfa00029fe07006faa9700ffaa97000fb397001a
:10bfb0009fb3970082ed0700a0af9f00b1af9f0035
:10bfc000c2af9f00d3af9f006022b80006002000e0
:10bfd00007ff23000eee07000000e00002003d0016
:10bfe0000800e9000b0037006022b80006002000be
:10bff000470224002fa89700bfa897004fa99700d9
:10c00000dfa997000fee07000000e00002003500f6
:10c010000800e80080a79f003fb29700f80f520089
:10c0200057003c00d0c6b300804f520029003600b4
:10c030000485fb0042062000110009000285d8009b
:10c0400000017800010478004311dd006bcb220071
:10c050000b0141006022b8000600200007fe23000b
:10c060000288900092889000b28990002289900006
:10c0700053ed0700a9002000809fbe0011000900b9
:10c080000984d800000478004f00be004344dd005e
:10c090000b04440048229000d822900068239000ae
:10c0a000f823900046ed0700801f78000102780019
:10c0b000110009000985d8000102fd004f00780039
:10c0c0004322dd000b0242005403be004402be00c6
:10c0d0001f0037000480fb0069cb2200ea4f5200aa
:10c0e00014003600a2002000110009000280d800d0
:10c0f00000017800010478004311dd0009014100ce
:10c100006022b8000600200007fe230042209000b5
:10c11000d2209000f22190006221900028ed0700cb
:10c120004344dd00090444003802be002803be0079
:10c13000070037004300dd00090040006022b8001e
:10c140000600200007fe23005001be004000be0094
:10c150001bed07000002be000203be006fa897009f
:10c16000ffa897000fb197009fb197003dee070021
:10c17000e0af9f00f1af9f0082b79f0093b79f0091
:10c180000fa49700e90f540015003c006022b8008e
:10c190006033b8006fa89700ffa897000fb1970011
:10c1a0009fb197009fed07000000e00032003200d1
:10c1b0006fa89700ffa897000fb197009fb1970055
:10c1c000a7ee0700e00f5000e08f5800e00f590085
:10c1d000e08f590028003a00e10f54002600340097
:10c1e0000400200005002e00b6e022001701240004
:10c1f0002fa89700bfa897004fa99700dfa9970025
:10c2000083ed07000000e00002003d0073005400d1
:10c21000010037007200540080a79f000fc09700f4
:10c2200089fd0700a0af9f00b1af9f00c2af9f0084
:10c23000d3af9f000002be000203be006fa89700ac
:10c24000ffa897000fb197009fb1970082ed0700fc
:10c2500083ee07000205be000004be006000b800c7
:10c260006011b800a0a79f00b1a79f00c2a79f00c0
:10c27000d3a79f002e0037006fa89700ffa8970054
:10c280000fb197009fb1970075ee07000205be0041
:10c290000004be00e00f5000e08f5800e00f59008e
:10c2a000e08f5900020035009eee070013003700b2
:10c2b00010002000010020006011b800080060009c
:10c2c000898060000a0161008b8161008b03d100cd
