:020000040000fa
:080000000034040000000000c0
:020000040000fa
:106800002f122400007f24000001880000000000f7
:106810000c000700603b2d00010020001100070064
:10682000000020000000e000020032000000020032
:10683000000000009e760200000000000040da0028
:106840000000fe004440a90040a822000000e00033
:106850000300320020002000a00188004440a8006e
:106860000000060091018800800078000000eb0025
:1068700015003700e280400032a0b4009101ba0058
:10688000e280400032a0b4009102ba00e2804000f1
:1068900032a0b4000002eb00472bde00f507b20087
:1068a000602ce10004003a000059eb008301e9008c
:1068b000fdff3e00040037006128e10001003200c6
:1068c0000082eb00040007001101ba000200e000a2
:1068d000e8ff3a00000006003159ba008301e900e0
:1068e0000c0032002159ba008301e900080032008f
:1068f0000400e00003003a00e280400032a0b4004f
:10690000f5ff370011d9ba008301e900faff3a0018
:106910008100e800e180400032a0b40000000600e1
:106920001004b100030035009001b10001003c00eb
:106930001000050000000500800078001104b1007f
:10694000030035009101b10001003c000050a0009f
:10695000000006001004b100070035009001b100ee
:10696000040034007000b100030035009001b10054
:1069700001003c0010000500000005006900e10076
:10698000040035006d00e100030034000002b10096
:106990000100320000000500100005000a00fa00a6
:1069a00011002000b1bf9f00c0bf9f006a80570048
:1069b00000c0da004fb897000080fa00000006001f
:1069c0000a00fa0051002000b1bf9f00c0bf9f0025
:1069d0006a80570000c0da005fb897000080fa00b4
:1069e000000006000a00fa0044002000b4bf9f0027
:1069f000c0bf9f00d2bf9f00e3bf9f00f1bf9f00b9
:106a00006a80570000c0da005fb89700efb89700bf
:106a10000080fa0000000600889fbe008004780015
:106a200000f981000000e00003003a0010000700b8
:106a30000000e0000a00350000f981000900e000d4
:106a400002003a00000478000600370000047800d5
:106a500009004000060007000000e00001003d00c2
:106a60000084eb00080078004f04be000000060020
:106a7000800078000000e00004003a0020f22300cb
:106a800000f9890001017800060037000081eb0061
:106a900020122400808f500002003e0001f989007e
:106aa0000001eb000200780000000600020ab900b5
:106ab000001bb9000200b8008100420081004300c1
:106ac00000000600881f7800000478005001be0016
:106ad0004000be00040040008580480006014900d7
:106ae00087814900009cbe000294be000400e100c2
:106af0000588e1000690e1000798e10002003100fe
:106b0000680044001008e8004f0478000000060008
:106b1000f4874700889fbe008a9fbe008c9fbe00fe
:106b20008e1f78000205be000004be00d4b79f008f
:106b3000e5b79f00f6b79f0087bf9f000000eb00fe
:106b4000c0b79f00b0b79f00a0b79f0090b79f004d
:106b500080b79f000d042000bfb097004fb0970092
:106b6000000140000000e0000f003d004f08de0083
:106b700000007100c0b79f009e00070001003d00ab
:106b800012002000a100070001003d0012002000bb
:106b9000a6000700b1000700b60007000f00400084
:106ba000c8ff0700220037004f08de000006710012
:106bb000ccb79f008f00070001003d0012002000ad
:106bc0009200070001003d0012002000970007001e
:106bd000a20007000fb297009fb297002fb3970053
:106be000bfb39700a90007000000520081805a003f
:106bf00002015b0083815b0080b79f0091b79f001b
:106c0000a2b79f00b3b79f000007eb009f000700eb
:106c10000020e10001a8e10002b0e10003b8e100ba
:106c2000010031001e0020000e005600c0b79f007a
:106c30004fb297000400e00007003500100020006c
:106c4000010020006011b800080470008984700001
:106c50000a0571008b8571008d06e900beff3a00c0
:106c60000400e00003003d00820007000f00400028
:106c700094ff07004fa897000000e00004003a00ce
:106c80000fb497009fb497002fb59700bfb597003a
:106c9000940007004f0778004f06be004f05be0066
:106ca0004f04be004f01b10000000600881f7800ad
:106cb00018002000881f780095ff07008f87e900e3
:106cc0004f04780000000600801feb0090ff0700d3
:106cd0008f87e90000000600889fbe008a9fbe00e3
:106ce0008c1f78006e00070007003d00730007004e
:106cf000e00f5b00e08f5b0007003d003200070003
:106d00000006eb00040037003400070002003d00dd
:106d10002a0007001c00200072000700e3ff0700a4
:106d20000203be000002be000c00e00001003200c1
:106d3000220007000400be000601be004f067800d6
:106d40004f05be004f04be0000000600889fbe0035
:106d50008a9fbe008c1f78005100070005003d008f
:106d600056000700e00f5b00e08f5b0006003d006f
:106d7000040037001900070003003d006000b80060
:106d80006011b8001000070056000700ceff070092
:106d90000203be000002be000c00e0000100320051
:106da000060007000400be000601be004f06780082
:106db0004f05be004f04be00000006006000b80092
:106dc0006011b800000037000402500085825800ae
:106dd0000603590087835900000006000006eb00f7
:106de000e00f5200e08f5a00e00f5b00e08f5b0085
:106df000000006000180400090b79f000001eb00fa
:106e00008fb097000100e000000006000200700053
:106e100090b79f000180400080b79f000001eb0009
:106e2000ffa897000100e0000000060002007000cb
:106e300080b79f00018040006faa9700cf20de003e
:106e400001007000f0af9f0004024200250007001f
:106e50004f18de000002720000000600e4af9f0041
:106e60000804440089844c000a054d008b854d00c0
:106e7000000006003fb29700cfb297005fb39700c3
:106e8000efb3970000fe2f00000006003fb0970010
:106e9000cfb097005fb19700efb1970000000600f8
:106ea0000205be000004be00e00f5000e08f580055
:106eb000e00f5900e08f5900000006006000b800a4
:106ec0006011b80008045000898458000a05590070
:106ed0008b8559001c002000e00f5200e08f5a0003
:106ee000000006000800be000a01be000000060007
:106ef0006022b800060220000000d0008180d2008d
:106f00000482d2008582d2000000a000020252005a
:106f100083825a00030031000202420083824a0049
:106f20000000a1000603e900f3ff3a00000006009c
:106f3000839f68000100e00002003d006000100037
:106f4000e08018000300e00002003d006001110035
:106f5000e0811900e6ff07004f00e00002003b005f
:106f600060001000e080180000000600e0ff07004d
:106f70000400be0000000600811f78000100e00050
:106f800002003d0060001000e08018000300e000f7
:106f900002003d0060011100e0811900f3ff0700cd
:106fa0004f00e00002003b0060001000e08018008d
:106fb000000006002800fa00889fbe008a9fbe00dd
:106fc0008c9fbe0003866b00060307000028a30009
:106fd00064003a000128a30067003a000008a300fb
:106fe00062003a000108a30065003a001e0090000c
:106ff000be08900081064000ed3fb100f4805700cc
:10700000ee019000111ab8008e099000311bb800f3
:107010009e099000311cb800511db800f48557003e
:1070200046000700fe0190003a0007008b85e8004b
:107030003e0007008e09900040000700ee0190001e
:10704000340007008b85e800380007008e099000a7
:10705000400007009e0990001b18b80089044000fa
:107060000a854800fe019000340007008b85e80087
:1070700038000700ee019000300007008e099000f4
:107080001b18b800890440000a8548000a98a3002c
:1070900008003a000402420085824a0006034b00c1
:1070a00087834b0008044c0089844c000a054d007e
:1070b0008d06e90084827200850273004c3add007f
:1070c000850272000100320015002000443ade0003
:1070d0001400b2004538de00cb45dd000b00700027
:1070e000c540de00cb4ddd008b8070004549de00e1
:1070f000cb55dd000b017100c551de000d0378009a
:10710000d102070003f0a1000cf0a70003f0a000db
:10711000c80237001b18b8008502400006834800eb
:10712000e0834b0060044c00070037001b18b800d8
:107130000603400087834800faff37001b18b80099
:107140008703400008844800e0844c0060054d003f
:10715000000006001b18b80008044000898448009d
:10716000faff37000108a300af023a005800be0042
:107170005801be00e3ff37000008a300aa023a004e
:1071800009047800f9ff370081037800da0207006c
:107190000001be006000b8000478a30013003a00ac
:1071a0006220e10015003e000d0039008301d1008e
:1071b0000281d3008180d3008301d1000281d300fa
:1071c0008180d3008301d1000281d3008180d3006c
:1071d0000538b000c42add00f300b20083817200dc
:1071e00007f0a70003f0a00000000600f3ff27004f
:1071f000f2ff2f006110b900fbff370003ff2700eb
:10720000f7ff37008f1fd100d00207008f87e900fa
:107210000000e00000000600801feb00cb0207002a
:107220008f87e9000000e000000006001400fa006b
:10723000889fbe008a9fbe008c9fbe000004be00d7
:107240000205be00680047000a90be000890be001c
:10725000e70207000070a7000bf0a1009e09900054
:107260000e099000fe0090006e0090009e029000bb
:1072700034432000848252000a00320010003c0097
:10728000b4fc2f000428e1001f0034008301d1006a
:107290000281d3008180d3000080d3008502e80002
:1072a000faff3a000b00e00062023b0060001000b1
:1072b000e080180060011900e08119005d023700cc
:1072c000b40020000428e10007003d000000400059
:1072d0008180480002014900838149008502e9005c
:1072e000faff3a00efff3700f3ff2700f2ff2f000d
:1072f0006110b9000b00e0004e023b0003002800c3
:1073000002002000010037006011b8006000b800e2
:1073100048023700889fbe008a9fbe0003057800a0
:107320000300e000050035000b003c000082700007
:1073300004027100300032000700370060001000c6
:10734000e080180060011900e081190002003b0094
:1073500001f02d00280037000004be000200be002e
:107360006011b8006b092000950220000182cf0057
:107370000a0039000541b1000082cf000700390042
:107380000541b1000982cf00040039000541b10078
:107390000882cf00010039000541b10005425200ca
:1073a000120032000a003b0082817100610164001a
:1073b0008100d1000080d3008984d3000884d300e9
:1073c0008b05e8000442e800f7ff3a0007003700a9
:1073d0000804440089844c00000048008180480073
:1073e0008b05e9000442e900f9ff3a00a702070013
:1073f0000af0a70001f0a0004f05be004f04be0038
:1074000000000600c702070005097800000006001a
:10741000809feb004d0207008f87e9000000e0002d
:10742000000006002800fa00889fbe008a9fbe0068
:107430008c9fbe0003866b00ea0107006400e10038
:10744000440032006408e1004a0032006100e100bb
:10745000460032006108e10049003200ec064700b6
:107460006000b8003d02be003d03be00f486570038
:107470006011b8003d04be003d05be007d03200044
:107480000b0037000000a0008d06e9001300320059
:107490000402420085824a0006034b0087834b00aa
:1074a00000004000818048000201490083814900ba
:1074b0000802520089825a000a035b008b835b003a
:1074c000f0ff3b000802420089824a000a034b0099
:1074d0008b834b008d06e900edff3a008482720039
:1074e00086827200f707b2008782720001003200c4
:1074f000150020001e0490003e0b9000060354006f
:10750000e63fb0000368a300070032000000a700b8
:107510000500a0008301d1000281d3008180d30047
:107520000080d3000603e8008301d1000281d3006c
:107530008180d3000080d3000002eb000482d200df
:10754000c101070003f0a1000cf0a70003f0a000a8
:10755000b8013700640247006408e100b20132005c
:107560003400be003401be00f6ff37006108e100c0
:10757000ad0132006011b8006000b800f1ff3700c3
:1075800003ff270002002000fbff37001400fa0071
:10759000889fbe008a9fbe008c9fbe000004be0074
:1075a0000205be00680047000a90be000890be00b9
:1075b0000f0207000070a7000bf0a1000bf8a3005a
:1075c00016003a009e029000304320008082520054
:1075d000b0fe2f000028e1000d003c00b0fc2f00a1
:1075e0000028e1000d0034001e0990008e08900074
:1075f0007e0090000501b0000201d1008180d3001f
:107600000080d3008502e800fbff3a0089013700c3
:107610000100280000002000860137006000b8004b
:1076200084013700889fbe008a9fbe000105780054
:107630000100e0000400350008003c000000e0000c
:10764000200032000500370060001000e0801800c4
:1076500002003b0001f02c001a0037000004be00bd
:107660006011b8006b0920000982cf0002003900c8
:107670000882cf000441b000694252000e0032007f
:1076800008003b0082817100610164008904d1001f
:107690000884d3008b05e8000442e800f9ff3a00b3
:1076a000050037000804440089844c008b05e9007c
:1076b0000442e900fbff3a00f40107000af0a700ca
:1076c00001f0a0004f05be004f04be000000060000
:1076d00003f0a200889fbe008a9fbe008c1f780026
:1076e0001d020700240233006450e1004f00320005
:1076f0006420e1005200320003826c0007003b006e
:107700000905d0000306d000820f54000c065d006e
:107710000200390002003200890178000306780077
:107720008582550004003d000003fd008103fd003b
:107730008502ea008b854200840f720002003b0044
:1077400060001000e08018006011b8000005eb0038
:107750007a28e1000a00390006007800c75ddd00e4
:10776000f707b200878075002d0037008281710015
:107770000a017800610560008180d1000080d3009b
:107780008502e900f9ff3b000604400087844800b9
:1077900002003b0060041400e0841c000988a30080
:1077a000070032008a8171008281710061016400ea
:1077b0008904d1000884d3008b05e8001700370046
:1077c0000978a30013003a000b00e0001300340016
:1077d0008b05e9000804440089844c000a447400c5
:1077e0000978a3000d003a000b00e0000700340008
:1077f0008b05e9000804440089844c0001003a002c
:107800000b0020000978a300f7ff32000001eb0015
:1078100002003700828171000a0178009b01070095
:107820000cf0a70001f0a000dc0137006420e100ab
:1078300002003a00838f6c00dc0133000801be00b7
:107840000200be00d501370007f0a200000037009b
:107850002800fa00889fbe008a9fbe008c9fbe0051
:1078600007067800878669000c003b000304780057
:107870008704780008f0a10009f0a100840f5000ef
:10788000858f5800860f5900890f5c000300330074
:107890000cf0a20001003a000cf0a100d10007009a
:1078a0006400e1005f003200780147006408e100f5
:1078b000610032006c014700748557003200be0041
:1078c0001201be003a04be001a05be001e0390005d
:1078d000be0a90008503530006003d000004fd0031
:1078e0008104fd000205fd008305fd008703ea0019
:1078f000050378000df8a3000400320060041400b2
:10790000e0841c0060051d00e0851d006022b800b9
:107910007d0320000d38e1008006eb000b003900ec
:107920004433dd00f300b2008301730039003700f7
:10793000848272000d027800e10664008b85d1001c
:107940000a85d3008984d3000884d3008703e90023
:10795000f7ff3b0008004000898048000a01490009
:107960008b81490004003b0060001000e08018009b
:1079700060011900e08119000358a30009003200da
:107980008d82720084827200610260008301d100e6
:107990000281d3008180d3000080d3000603e80079
:1079a0001b0037000348a30017003a000600e00060
:1079b000170034000603e9000d00a3000000480092
:1079c0008180480002014900838149000348a300e7
:1079d0000f003a000600e000090034000603e90049
:1079e0000000400081804800020149008381490075
:1079f00001003a000003eb000348a300f5ff32004a
:107a00006022b80002003700848272006182660042
:107a10008d00070003f0a1000cf0a70003f0a00008
:107a200084003700640147006408e10002003a0066
:107a30000df8a3007c003a003200be001201be0027
:107a40007c0037001400fa00889fbe008a9fbe00a9
:107a50008c9fbe000004be000205be006800470007
:107a60000a90be000890be00e10007000070a70069
:107a70000bf0a1000bf8a30020003a009e09900033
:107a80000e099000fe0090006e0090009e02900093
:107a90003443200084825200660032000a003c0019
:107aa000b4fc2f000428e100140034008301d1004d
:107ab0000281d3008180d3000080d3008502e800da
:107ac000faff3a005b003700b40020000428e10010
:107ad00007003c000000400081804800020149008e
:107ae000838149008502e900faff3a00510037001e
:107af0000300280002002000010037006011b800d8
:107b00006000b8004b003700889fbe0083047800f7
:107b10000300e0002c00350003003c0000827000f0
:107b2000040271002600320036432000c500200008
:107b30008383cf000a0039000541b1008283cf0062
:107b4000070039000541b1008183cf0004003900ee
:107b50000541b1008083cf00010039000541b1002b
:107b600085c353006022b800120032000a003b00b7
:107b700084827200610260008301d1000281d3001f
:107b80008180d3000080d3000603e8008743e8002b
:107b9000f7ff3a00070037000000400081804800ee
:107ba00002014900838149000603e9008743e90097
:107bb000f9ff3a002400070009f0a70003f0a00035
:107bc0004f04be000000060060001000e0801800b6
:107bd00060011900e0811900d3ff3b00033e2c0037
:107be000f7ff3700680447000294be000094be000f
:107bf000fc0447008694be008494be00090078000f
:107c00007b000700080078007900070099007800e1
:107c1000814f70000b003b000800be00e60007002b
:107c20004f00b10003003700f3ff2700f2ff2f00e1
:107c30006110b9004f06be004f05be004f04be00e4
:107c40000080fa0000000600180020005700200005
:107c5000080453000d003d000600200097fc2f0093
:107c60000740e1001e00340084827200610260005f
:107c70008301d1000281d3008180d3000080d30032
:107c80000804e800f8ff3a004700200061046000a3
:107c900005047400040464000d003200610040001b
:107ca000e080480060014900e081490003b8a50078
:107cb000070032000603e8006538e10004003a00de
:107cc0008301d1000281d3008180d3000080d300e2
:107cd000f87f20000830e100030035000803780039
:107ce0006000b8006011b8004433dd00f300b2005a
:107cf0008301730000000600c70ade00f107b2002e
:107d0000f50fb20008003200e1cf4200020032005d
:107d10000170a00024000500810f700001003200f6
:107d20000408050044000500810f700002003a00bd
:107d3000140005008502e9000000400081c04800f1
:107d4000fcff3b000170a00024000500889fbe00de
:107d50008a9fbe008c9fbe000404be000605be00c4
:107d6000809fbe00829fbe00a1000700040678002d
:107d70000800be000a01be009d00070084067800ce
:107d80004f03be004f02be008d4f76007fb09700bc
:107d900013003300f0ff2f008b8f6b0006003b00b9
:107da0000d0666000c00a7000a00370007f0a600c9
:107db000100020000a003700880f5200898f5a00f7
:107dc0008a0f5b008b8f5b000300390010002000de
:107dd00001003e000000200007f0a7000000ea00bc
:107de0004f06be004f05be004f04be000000060057
:107df000800078005002be005003be004439de000f
:107e0000f700b200f37f2000030161000900320097
:107e10000218e10016003a00850172008301730028
:107e2000838173000008200015003a004000200004
:107e30001300370085017200830173008381730092
:107e400005003a0004a8be0006a8be0010002000ed
:107e50000b0037000201e9000402420085824a005b
:107e600006034b0087834b000748a300f9ff32004d
:107e70000740a00004a8be0006a8be002000200005
:107e80008000980092009800000006008100200009
:107e9000618055000b003d000b00200061fe2f00ab
:107ea0000100e1001d003400828171006101640065
:107eb0008904d1000884d3000000e800faff3a00ea
:107ec0007100200061006400030070000200600087
:107ed0000900320061044400e0844c000988a500d8
:107ee000050032008b05e8006808e10002003a0056
:107ef0008904d1000884d300f20f20000258e10069
:107f000005003d00c75ddd00f907b20089807500fe
:107f100008007800000006000bf827008b007800ae
:107f2000000005000003be0073ff07006220e100af
:107f3000020032000600be0005000500e507b100a2
:107f4000f107b20004f023008480700007f0a7005e
:107f500001f0a000240005000004be0066ff070039
:107f60000003be000405be000200be0062ff070061
:107f7000844f7500000006000200be006450e1005e
:107f8000050036006420e100020036000968a30005
:107f900001003a000800be000160a0004f06780012
:107fa0004f05be004f04be0000000600f0ff2f008a
:107fb000f1ff2700f9ff3700e48240001078a300aa
:107fc00007003200640240001178a3003400be00b4
:107fd0001401be00040032000330a70000000600b8
:107fe0003500be001501be000330a00000000600f1
:107ff00005ff270005826100070032000428e10028
:1080000001003200240005000600070001003a00cc
:10801000440005000408050002000700f9ff3a00cb
:10802000140005006f8261008102700085027100fa
:1080300085027200000006008001eb00020037009c
:10804000817178008301e800828f5100fcff3a00c3
:1080500000000600800078003004e000feff3a00d7
:10806000010050000000e900000006000c00fa00ca
:10807000889fbe0000047800cfb09700f0ff270073
:10808000d0bf9f008004eb0099bf9f0088bf9f0076
:10809000a8bf9f00200c2000b0bf9f007881570030
:1080a00070805700ff0307000fb897000948780059
:1080b0000fb8970008045000080078004f04be0075
:1080c0000080fa00000006008001eb00020037008b
:1080d00061f079008301e800828f5100fcff3a00d3
:1080e0000000060010417800b141510003003a0041
:1080f0000000e8000204e000faff3a000300fb0081
:1081000000000600000278008242780003487800f0
:108110008100fb00a2002000110009008200d800ad
:108120008000fd000043b00070fa9f00014078001d
:108130000104e000030032000043b00060fa9f0039
:108140000000060065fa9f0000000600800078002d
:10815000630060000f003a0042062000811f780093
:10816000110009008280d80001007800cf0078005b
:108170000000e00008003a00c012200001004000aa
:1081800002192000110009000280d8000100e0005f
:1081900001003200d0160500e0160500889fbe00e1
:1081a0008a1f78008c9fbe001004be00c20320000e
:1081b000030020000800be006ffb070080ec890070
:1081c000c2032000030020000800be0058fb070087
:1081d0000004be00c20320000300200066fb07006d
:1081e00090ec8900c2032000030020000800be00bc
:1081f0004ffb07000006be008201200003002000a4
:108200005dfb0700a0ec8900820120000300200034
:108210000c00be0046fb0700b0ec89006400400083
:1082200072002000110009000200d800010178004e
:10823000e2ec8900600420000400370000005500d3
:10824000b0ec8900a0d923001000e800d0ec890030
:10825000baec8100d0ec8100bcff0700800f550014
:10826000f6ff3d006200600001f02f00010466008f
:1082700000047400faec890080d923000008eb00a8
:108280008002780044ed230008003700028051008e
:10829000b0ec89001500e800c0ec89000880fb0004
:1082a0000000d1000884600000047400b3ec810079
:1082b000c0ec810064407800084070000081fb0041
:1082c0004810dd00f80fb20000047400828f5100e6
:1082d000eeff3d000300e800b0ec890000d9230068
:1082e0004f06be004f0578004f04be000000060098
:1082f0000400fa00f2ed8100c10320000191b900f1
:1083000030021100a0821900e4bf9f00f5bf9f005a
:1083100064805700a1ff07000080fa0000000600fb
:10832000889fbe008a9fbe00800478006000900095
:108330006300b90022ce2300000141002bda2300a4
:10834000924d780030da2300924090000148780086
:1083500040da230022419000024878000ac2b300ac
:1083600050da23000a487800490090006300b90001
:1083700082cf23000001410060da23001248780018
:1083800070da2300924090000148780080da2300e0
:10839000224190000248780090da23000a487800d1
:1083a000b90090008a4178000a417800c0da2300c1
:1083b00054ff0700a9009000a3c3b30002c3b30099
:1083c000f0da23004fff070099009000a3c3b30029
:1083d00002c3b30020db23004aff070099007800a6
:1083e0008a41780002c3b30050db230045ff070039
:1083f000d900900048062000110009008800d8002c
:108400008000fd00f3c040008041eb000a4178008d
:1084100080db23003bff070059009000110009009a
:108420000800d800a3c0b30002c3b300a0db230040
:1084300034ff07000b0078004f05be004f04be005c
:1084400000000600aaff0700b5ff37000000fa0091
:10845000889fbe008a1f7800800278001fb99700ad
:10846000ee8457008acd2300320037000204e80072
:1084700050c2b30080cf50002c003a008981e9003f
:108480009800fb0000fd2f00008340000284e800fc
:108490000600e00009003a00830478001300780029
:1084a00002003700815a78000000e8009040780010
:1084b0000104e000fbff3a001d0037008304780050
:1084c00013027800060043008003eb008180400027
:1084d0002106b1008a01400080805000130178001d
:1084e000811f7800110009000202d8000100780005
:1084f000cf0078000002780063817800811f780047
:10850000110009000200d80000017800cf007800b7
:1085100000c3b300805a41008703e8008381e9006b
:10852000868f530002003200ecff3700815a78003a
:1085300008017800924078000104e000cbff3a0087
:10854000814a78004f0578004f04be000080fa0091
:1085500000000600889fbe008a9fbe008c1f780026
:1085600000067800020578000304780081004000ce
:108570008105e90080047800180137000a02e8004c
:1085800050c2b30080cf51000b013a000a85e800c9
:1085900094407800a0c5b30080cf5000e8003200be
:1085a00028003c006d40500080cf50008e0032000b
:1085b00012003c006b40500080cf5000530032004e
:1085c00007003c00e2b4230083cf50008d0032004e
:1085d0000040e90080cf5000e0003a004200370040
:1085e00080c4b30080cf5000670032000040e80034
:1085f00080cf5000d9003a006c00370070c5b3003e
:1086000080cf50008f00320007003c0064405000d3
:1086100080cf50007e00320000c0e80080cf5000c4
:10862000ce003a007c00370080c5b30080cf5000f8
:10863000ac0032000040e80080cf5000c7003a0094
:10864000ba003700a0c6b30080cf50005f003200f0
:108650000f003c006840500080cf500027003200df
:1086600004003c000040e90080cf5000bb003a000d
:108670001900370030c6b30080cf50002700320009
:108680000040e80080cf5000b4003a003c003700c2
:1086900070c7b30080cf50007a00320007003c0062
:1086a0006a40500080cf50004c00320063404000d0
:1086b00080cf5000a9003a004d00370080c7b300ba
:1086c00080cf5000730032000040e80080cf50009f
:1086d000a2003a008f0037006800900000004000c0
:1086e000a1cc230003003700680090000000400088
:1086f000c1cb2300610178004200370048009000a0
:108700000000400041ca2300faff370048009000f3
:1087100000004000c1c82300f6ff3700d8009000d9
:10872000c0762000809f4000981f780018009000bd
:10873000801f780028009000801f7800380090008b
:10874000801f7800480090000000400041ca2300cc
:10875000e11f78006800900000004000a1cc2300d9
:10876000e11f780000b52300801f7800e0e72300b8
:1087700036ff0700e2e72300f087570021003700ab
:10878000380090000100370028009000801f78001a
:1087900050b62300801f7800e0e723002bff07007e
:1087a000e2e72300e4875700160037002800900016
:1087b000c2002000110009000200d8000100e00002
:1087c00058003a0082007800560037007800900088
:1087d000801fe80080b62300eeff370048009000bd
:1087e000801fe800eaff370018009000e7ff37001d
:1087f00028009000b2b62300eb0f500001003c00af
:10880000e2b6230089017800820078006600370014
:1088100018007800ddff370078009000720020001b
:10882000110009000200d8000001780068009000e3
:10883000808f5000010034000201e800821f7800a0
:10884000d3ff37007800900072002000110009006b
:108850000200d800800278008101780005027800cb
:108860006800900066004000110009000200d80076
:10887000818f5100010034000502e800841f780058
:10888000c3ff370068009000801f780010b72300f6
:10889000c0ff3700d8009000c0762000809f4000c5
:1088a00038009000801f78004800900000004000d1
:1088b00041ca2300e11f78006800900000004000da
:1088c000a1cc2300e11f780040b72300801f78006f
:1088d000e0e72300ddfe0700e2e72300ea87570018
:1088e000c8ff3700981f780018009000801f78009c
:1088f00028009000801f780020b82300801f780097
:10890000e0e72300d1fe0700e2e72300e8875700f5
:10891000bcff3700580090004206200011000900fb
:108920000200d800811f780099ff3700d80090001e
:10893000c0762000809f4000b0b8230095ff37002c
:10894000080890000000e0000200320052e48100bc
:10895000acff370042e48100aaff3700e2e72300c2
:1089600050c2b30000497800f1e723009448780032
:1089700000e823000048eb001104e000a1ff3a00ea
:10898000040578009fff3700098055000000410072
:10899000808f500002003a00804deb000900370044
:1089a000845978008100e800114278000404e00056
:1089b000f5ff3a00080037008b8f540003003a009f
:1089c000804ceb000000eb0009003700835c78006e
:1089d0008901780004057800830478009a417800c2
:1089e0000304e000e5fe3a00834c78000c8054005c
:1089f0004f0678004f05be004f04be000000060081
:108a00000000fa00cfb897006881570040c32300e8
:108a1000490507000080fa0000000600889fbe009c
:108a20000004be00060037000804e8000000fb0058
:108a30008900780038010700e10f4000040032008f
:108a4000184078000004e000f7ff3a000000eb0057
:108a50004f04be0000000600881f780041c32300b9
:108a6000eeff07000004780041c32300a0002000af
:108a700029010700080078004f0478000000060074
:108a80000001780000c2b300010037000201e800d5
:108a90009240780080cf5000fcff3200e9cf5000b8
:108aa000faff3200d0c2b30080cf500003003a007a
:108ab0000201e80014c0b300050037000042eb00db
:108ac000b0c2b30080cf500001003a000201e800bc
:108ad0008000eb0005fd2f00040037006a08b90094
:108ae00000804100850040000201e8009201fb0087
:108af00005804100e90f5000f8ff36000404e00053
:108b0000010032008100ea00010078000000060048
:108b1000881f78000004780014bf2000048ab90080
:108b200010442f000400400044062000811f7800fc
:108b3000110009000480d800cf0078000001410036
:108b40006113b800e28f50001400360002192000b3
:108b5000110009000284d800010078000000e00044
:108b6000070032006300640008003a0011000900a9
:108b70000484d8008000fd000000e0000300320003
:108b8000100020000100200002003700200020001b
:108b9000010020000003530081835b000800e9000e
:108ba000d21620000201b8004202de000402410099
:108bb000e082490042062000801f78001100090071
:108bc0000280d800000178004f00780002025200b5
:108bd000e0825a0002192000110009000280d8002a
:108be00000004200e0804a00060040008780480004
:108bf0004f04780000000600889fbe008a9fbe00d8
:108c000000057800d0059000a0fb2f0000804500f3
:108c10000081eb008081eb0021032000810f5000d8
:108c200021003e001200200011002000207b2000c7
:108c3000b7ff07000004be00c0762000008045009a
:108c40003a019000ca009000b1ff070008005000f0
:108c500089805800820120000300200093f707005c
:108c60002a019000cf91de00000041008180490080
:108c7000c2032000030020008cf707001a019000b7
:108c8000cf91de000000410081804900c203200036
:108c90000300200085f707001a017800cf91de005d
:108ca00000014100818149000200be004f05be0065
:108cb0004f04be0000000600000378008002780028
:108cc000020278008001eb00080037000402e9008e
:108cd00063c07800805a78008301e8000004e00057
:108ce00002003a008000eb0006003700828f51003e
:108cf000f6ff3a00fbff37000040eb0080f07a00ff
:108d00008100e800848f5000fbff3a0006007800e5
:108d100000000600800178000001780031407800f2
:108d2000005978000004e000fcff3a0003007800de
:108d300000000600881f7800a0a081000000e0006d
:108d4000010032000000010088c223000800780002
:108d50005f0c07006c04440080c82300800f54009f
:108d6000faff3a004f04780000000600889fbe001a
:108d70008a9fbe0080047800010578008205780093
:108d80000100e00002003a00000478000c00370007
:108d9000000478000a8044000000e900800f5400bd
:108da000070032000b007800810c0700e10f400043
:108db00003003200005c7800ea4f5000f5ff3a00f3
:108dc000004ceb000000eb00890f54000100320062
:108dd000090078004f05be004f04be0000000600e9
:108de000881f780082c223008080eb00dfff07002d
:108df000000478000000e0000400320095fc070049
:108e0000000044008040eb0071f89f0008007800eb
:108e10004f0478000000060010417800814f510097
:108e2000040032000000e8000204e000faff3a000b
:108e30000000eb00000006000c00fa00a0bf9f003d
:108e4000c0bf9f0083fc0700b0bf9f00f0bf9f0022
:108e5000100c2000d0bf9f0074815700efb0970026
:108e60006c805700b20c07000080fa00000006007a
:108e7000881f780000047800300090000008a300ec
:108e800007003200800078000120b20004003a00a0
:108e900011049800a8009000010c7800170037001a
:108ea0000018a300190032000098a3001700320038
:108eb000a80090000100e0001400320018019000aa
:108ec0000200e0001100320048009000eb21070092
:108ed00098009000810f500003003200380090008d
:108ee0000003b300300498000000eb001004980069
:108ef00028009000000c7800380090000058a30073
:108f0000020032000080eb00010037000000eb009f
:108f10004f04780000000600889fbe000001780022
:108f200001047800b10090000118a3003d00320058
:108f30000198a30003003a00180090000000e00030
:108f400038003a000190a0003104980082047800b3
:108f5000f90fb200180090000000e00002003a0093
:108f600028009000000c78003800900000b8a300a2
:108f70000600320000a8a3000400320021002000f7
:108f80006011b80008007800a50d0700b800900037
:108f90000100780000b0a10030049800ea8f54006e
:108fa00005003a000178a30003003a008800780029
:108fb000d0002000d8ff07009800900058009000d3
:108fc000808f50000b0032000100e8001004980070
:108fd0001800780009587800000c780011c0b30020
:108fe00080f1230001487800ea8f54000600320027
:108ff0000f0037008800780009407800f80d07005e
:10900000800478000a003700380090000088a30030
:10901000060032000800780095ff0700e10f4000cd
:1090200002003a008084eb0001003700a900200014
:10903000090078004f04be00000006000400fa009a
:10904000e0bf9f00e4815700812978000002eb0017
:109050000f0037006fb89700904078007fb89700f6
:10906000104078000402e80080cf50000400320075
:109070008180fb000080fb0000805000070037006b
:109080006fb897000000e800e0bf9f009309e80078
:10909000820f5200efff3a000000eb000080fa0060
:1090a00000000600fe874700889fbe008a9fbe0022
:1090b0008c9fbe008e1f7800f0b79f0001077800dc
:1090c00082bf9f000000eb00b0b79f00e6023700b0
:1090d0008006eb0050c2b30080cf50000900320080
:1090e0000100fb00ffb097008bff0700e10f40007d
:1090f000dd023200bfb097008100e800b1b79f00e9
:10910000d90237009e407800b0c2b30080cf500033
:109110001300320007003c006b40500080cf50002d
:109120000d0032006340400080cf500013003a0031
:109130000d003700d0c2b30080cf500004003200d1
:109140006340400080cf50000c003a000800370018
:109150000d30a000070037000d00a000050037000b
:109160000d10a000030037000db0a0000100370073
:109170000d20a0000e07e800e2ff37000d18a30045
:10918000010032000d00a1000d38a30001003200e3
:109190000d20a1000100fb0002fd2f000200400095
:1091a000e90f50000e003e000002eb00d4af9f001c
:1091b000820178005fae97006a60b9001e01fb0073
:1091c0000001410003014100d2af9f005e00fb009f
:1091d00003004000e90f50000b003e00f5ff370090
:1091e0000000eb00d0af9f00a0c2b30080cf5000c2
:1091f00005003a008fb897004101780081bf9f00b9
:10920000d2af9f000e07e8000002eb00c4b79f003a
:10921000e0c2b3009e4f100018003a000de0a0001d
:109220008e00e80064405000914f100002003200b0
:10923000010778000c0037000fbe97004c00780043
:109240008cbf9f00c0b79f000e87e8000b0037005f
:109250004fb297006a20b9000000410003004000af
:10926000c0b79f000e07e8001e01fb0003fd2f00a2
:1092700003004100e90f5000f5ff3600be407800c2
:10928000e1d79f00c0c6b30080cf5000220032005b
:109290000f003c006940500080cf50007700320042
:1092a00004003c000104e000730232006b405000f7
:1092b0000f00370040c6b30080cf5000930032004b
:1092c0006540400080cf50008b003a008f0037008f
:1092d00030c7b30080cf50001a00320007003c00b6
:1092e0006440500080cf5000110032000040e80080
:1092f00080cf500080003a000f00370050c7b30005
:1093000080cf5000800032006340400080cf50008a
:1093100079003a0009003700000028000d48a3003a
:1093200001003a000001200080867600d3ff37005c
:109330000d60a000750037000d50a0000d70a0005a
:10934000720037000fbe97004c0078008cbf9f0062
:10935000000478000000e00001003a0008dc23006f
:109360008004eb00010037008104e80089007800e8
:10937000088044001004e000fbff3a004fb0970063
:109380000000e00003003200890f500001003100ae
:10939000800478008000eb00e1af9f005fa9970098
:1093a000890f51000200360009005100e0af9f0014
:1093b0004368de00e10660001b003a000d067800fd
:1093c00009003700ffb0970000022000d2fe07001e
:1093d000e10f4000030032003fb297000402e800b2
:1093e000b4b79f000c06e8006fa89700800f5600e6
:1093f000f4ff3a008080eb00e1af9f000a003700e5
:10940000880078003100fb0001047800ffb097006d
:10941000c1fe0700e10f4000030032003fb197009a
:109420000201e800b2b79f000900e900800478005b
:10943000e10f4000f2ff3a000006eb000d00e000f3
:109440000a003a0008023700ffb09700000220002f
:10945000b1fe0700e10f4000030032003fb2970069
:109460000402e800b4b79f000c06e8006fa897005c
:10947000800f5600f4ff3a00fb0137008fb89700c9
:109480004100780081bf9f00cf80de00010178009d
:10949000820178000205be000004be000203be0087
:1094a0000002be004822de00482edd0004027600e5
:1094b000e4d79f000d48a3000a0032000404e00036
:1094c00008003200e14f42000600320071fd2f001b
:1094d0000f804000044878001840980029002000c0
:1094e00002003700f0d79f001900200072fd2f0006
:1094f0000f044100a1ff370064fd2f000f0442005c
:10950000190020009dff37000d0cb3000d007800fe
:10951000000cb20028003a000d00e00005003d00fc
:109520000fbe97004c05be004c04be008cbf9f00d0
:10953000140037000d48a3000b0032000fb997004c
:109540004200be0082bf9f004f89de00cf91de0047
:109550000002be0002037800820378000605be0008
:109560000404be00070037000fba970044007800db
:1095700084bf9f0000047800cfc4de000905780096
:109580008a057800e00f5400e08f5c00e00f5d007a
:10959000e08f5d001f003d003d00b3006000b8009b
:1095a0006011b80008045000898458000a05590069
:1095b0008b855900170037000d00e00005003d00c5
:1095c0000fbe97004c05be004c04be008cbf9f0030
:1095d000100037000d48a300070032000fba9700b3
:1095e0004400be0084bf9f006011b8000205be00a9
:1095f0000004be00070037000fbe97004c00780043
:109600008cbf9f0000047800090020000a002000a1
:109610000b0020004fb097000000e00007003a0068
:10962000e00f5400e08f5c00e00f5d00e08f5d0014
:1096300002003a0011002000c1b79f000d01780020
:10964000020cb200e2b79f0000042000800f51001e
:109650002d00320003003c000200e0000800320050
:109660003a003700000820006fb29700800f5200c8
:1096700014003200000c2000800f520033003a002a
:1096800014c0b300655423000b0037000400fb0036
:109690004300dd00050040005001be004000be0058
:1096a0000040e10001c8e10002d0e10003d8e10080
:1096b000250039000442e800f44f5200f3ff3a005d
:1096c0002100370014c0b300654c23000b003700a5
:1096d0000400fb004300dd00050040005001be0017
:1096e0004000be000040e10001c8e10002d0e100fe
:1096f00003d8e100140039000442e800f04f5200a2
:10970000f3ff3a001000370014c0b3006541230096
:109710000b0037000400fb004300dd0005004000a3
:109720005001be004000be000040e10001c8e10061
:1097300002d0e10003d8e100030039000442e80050
:10974000f64f5200f3ff3a00e4d79f006fd6970020
:109750000c00fb00cfb09700810f500002003d00cd
:10976000e1d79f00040037004fb19700800f5100f0
:1097700001003d00c0b79f005faa97000400e00011
:109780000400320063806600020032000402e90037
:10979000d4af9f000de8a3000b0032005fae97002e
:1097a0004fb09700800f560003003c008000eb0094
:1097b000d1af9f00040037005fa997004fb2970018
:1097c00004015100d2af9f00408c20000080660051
:1097d00001842000810f500006003a005fae970020
:1097e0000c00e000110032000c06e900dcaf9f0025
:1097f0000e003700008c20000080660001882000e9
:10980000810f500009003a005fa89700e20f500056
:1098100003003c008000eb00d1af9f000300370045
:109820005fa997000281e900d2af9f006fd2970035
:109830000400fb000006eb00dcb79f00dfa89700e8
:10984000808f50000200340000805000d0b79f008d
:109850000d28a30053003200e18066000d18a3001c
:109860000c003200d00220000100e00001003a00ac
:109870000080e900ffb09700a7fd0700e10f40005e
:10988000270032003fb197000201e800b2b79f0005
:10989000230037000100e00009003200ffb097000c
:1098a000000220009cfd0700e10f40001c00320078
:1098b0003fb297000402e800b4b79f0018003700d9
:1098c000008c20000080660001882000810f50007d
:1098d00013003a00ffb09700000320008efd070040
:1098e000e10f4000030032003fb697000c06e8008d
:1098f000bcb79f00800520000d58a30001003a006e
:1099000080072000ffb0970083fd0700e10f4000b3
:10991000030032003fb097000000e800b0b79f009e
:10992000dfb097000100e0000f0032000006eb00fe
:10993000ffb097000003200077fd0700e10f400013
:10994000030032003fb197000201e800b2b79f0068
:109950000c06e8005fb29700840f5600f4ff3a004f
:109960000006eb00dcb79f004fb097008000e900d5
:10997000c308dd00605423000080400090b79f00c2
:10998000604c23000080400080b79f0060412300ae
:1099900080804000f1af9f008000eb00a1b79f00e6
:1099a0009b0037005fb197000200e0001100320019
:1099b000688066000f003a0000067800ffb097004c
:1099c0000002200054fd0700e10f400003003200b8
:1099d0003fb297000402e800b4b79f000c06e8000d
:1099e0005fb09700800f5600f4ff3a008000eb0054
:1099f000d1b79f00e18066000d18a3000c00320073
:109a0000d00220000100e00001003a000080e900df
:109a1000ffb0970040fd0700e10f40000e0032004c
:109a20003fb197000201e800b2b79f000a0037007b
:109a30000100e00008003200ffb0970000022000a3
:109a400035fd0700e10f4000030032003fb29700f0
:109a50000402e800b4b79f00008c200080806600fc
:109a600000842000808f500009003a00ffb097006a
:109a70000003200028fd0700e10f4000baff32007c
:109a80003fb697000c06e800bcb79f00b6ff370052
:109a900000882000808f5000b3ff3a00ffb097008d
:109aa000000320001cfd0700e10f4000030032000e
:109ab0003fb097000000e800b0b79f00800520008d
:109ac0000d58a30001003a0080072000ffb0970066
:109ad00011fd0700e10f4000a3ff3200bfb0970067
:109ae0008100e800b1b79f009fff3700000420000d
:109af0006fb19700800f51002700320003003c0037
:109b00000200e000080032002c00370000082000ae
:109b10006fb29700800f520011003200000c20003d
:109b2000800f520025003a001fb697003c02be008d
:109b30002c03be000800be000a01be005bf4070053
:109b4000a4002000050020006033b8005ef4070088
:109b500004c3b30004424000e4d79f00170037005d
:109b60007cdc23000d58a30001003a008cdd2300ab
:109b70000fb097003002be002003be000800be00f8
:109b80000a01be0049f407006f0060006c467800cf
:109b9000ecd79f0009003700ffa897003102be00f4
:109ba0002103be000800be000a01be003ff407000a
:109bb000674060000043b000e0d79f006fd197007e
:109bc0000200fb00ffb09700d3fc0700e10f40004c
:109bd000030032003fb297000402e800b4b79f00d0
:109be0002fb697000c06e800acb79f001fb0970097
:109bf0006800500090b79f008fb09700e880500039
:109c000081b79f007fa9970068015100f2af9f00c4
:109c10002fb297004fb697008c0f5200b3ff3a0057
:109c20000d38a300100032005fb097000000e00084
:109c30000d0034000006eb00ffb09700000220008a
:109c4000b5fc0700e10f400003003200bfb09700f1
:109c50008100e800b1b79f000c06e8005fb19700f3
:109c6000820f5600f4ff3a00be407800e1d79f0013
:109c70000104e00016fd3a003fb097004f0778005e
:109c80004f06be004f05be004f04be00ef01b100fd
:109c900000000600889fbe008a9fbe0080407800ba
:109ca000d0c6b30080cf5000290036000185fb00ec
:109cb00042062000110009000285d800000178004a
:109cc000010478004311dd006b9123000b0141007a
:109cd0006022b8000600200007fe230002889000e2
:109ce00092889000b289900022899000b1f4070018
:109cf000a9002000809fbe00110009000984d8003f
:109d0000000478004f00be004344dd000b04440013
:109d100048229000d822900068239000f8239000f9
:109d2000a4f40700801f78000102780011000900e8
:109d30000985d8000102fd004f0078004322dd00b4
:109d40000b0242005403be004402be001f00370055
:109d50000180fb0069912300eacf50001400360017
:109d6000a2002000110009000280d8000001780044
:109d7000010478004311dd00090141006022b800b0
:109d80000600200007fe230042209000d220900011
:109d9000f22190006221900086f407004344dd0028
:109da000090444003802be002803be000700370043
:109db0004300dd00090040006022b80006002000da
:109dc00007fe23005001be004000be0079f40700ea
:109dd0004f05be004f04be0000000600889fbe0075
:109de0008a1f7800804078000004e00021003d00d8
:109df0008040ea00d0c6b30080cf50000900340094
:109e00008104fb0042062000110009008204d800f2
:109e100000017800010078004311dd006a91230001
:109e20001f0037000100fb00639123003900370059
:109e3000a2002000110009000200d80000017800f3
:109e4000010078004311dd00030141004300dd0003
:109e5000030040003002be002003be0042209000fc
:109e6000d2209000f22190006221900051f407006e
:109e70002e003700d0c6b30080cf5000230034003e
:109e80008104fb0042062000110009008204d80072
:109e900000017800010078004311dd006a9c230076
:109ea0000a014100a8002000110009000800d800a4
:109eb0004300dd000a00400040229000d0229000c4
:109ec00060239000f0239000028890009288900018
:109ed000b28990002289900036f40700801f780034
:109ee00001027800110009008804d8000102fd0079
:109ef0004f0078000402fb004322dd000a0242000a
:109f00005403be004402be00d8ff37000100fb002e
:109f1000639c2300eacf5000c5ff3c004300dd00f6
:109f2000030040005001be004000be004f05780015
:109f30004f04be0000000600ef04b000889fbe0082
:109f40008a9fbe008c9fbe008e1f78006022b800e2
:109f50006033b800e4a79f00f5a79f0086af9f007d
:109f600097af9f00a0af9f00b1af9f00c2af9f000f
:109f70008002eb0095a79f00c80737008001eb0027
:109f800050c2b30080cf5000090032000100fb0036
:109f9000afa89700e0fb0700e10f4000bf073200c9
:109fa0001fa397000603e80096a79f00bb07370092
:109fb000bfab970097407800b0c2b30080cf50008d
:109fc0001900320007003c006b40500080cf500069
:109fd000100032006340400080cf500021003a0062
:109fe00016003700d0c2b30080cf5000040032000a
:109ff0006340400080cf50001a003a001400370040
:10a000000330a0003fac97000804e800b8af9f0001
:10a01000e7ff37000300a000bfac97008904e80009
:10a02000b9af9f00e2ff37000310a0003fad9700db
:10a030000a05e800baaf9f00ddff370003b0a000bb
:10a04000bfad97008b05e800bbaf9f00d8ff37007e
:10a050000320a0003fa897000000e800b0af9f00d9
:10a06000d3ff37000318a300010032000300a10052
:10a070000338a300010032000320a1000100fb000f
:10a0800002fd2f0002004000e90f500010003e00ca
:10a090008000eb00e1979f00020278006f9197002b
:10a0a0006a10b900bfaa97001501fb00000141002a
:10a0b00004014100e2979f005500fb00b5af9f00ef
:10a0c00004004000e90f50000d003e00f3ff370090
:10a0d0000003eb00e6979f00a0c2b30080cf5000c2
:10a0e00007003a00cfab970047047800c7af9f0046
:10a0f000e8979f00bfac97008904e800b9af9f00c4
:10a10000e0c2b3003fad97009a4f100021003a0023
:10a11000830678000de0a0008a00e800644050004b
:10a12000914f100004003200b1af9f008005eb009a
:10a13000aba79f00100037004fa89700c000780021
:10a14000c0af9f00a1a79f003fa997000281e80030
:10a15000b2af9f00130037002fa297006a20b9000a
:10a160000000410003004000a0a79f00bfaa970085
:10a170008502e800b5af9f003fab97001601fb00da
:10a1800003fd2f0003004100e90f5000f2ff3600ed
:10a1900004003700830678000dc0a0008003eb00a8
:10a1a000a7a79f003fac9700b8407800b8af9f00ca
:10a1b000e1679f0070c6b30080cf50003c003200c2
:10a1c00017003c006440500080cf50008f003200e8
:10a1d0000e003c007c40500080cf50003300320025
:10a1e00006003c000104e0003207320000c0e90034
:10a1f00080cf5000aa003a002900370080c5b30084
:10a2000080cf5000a6003a002d00370050c6b300a2
:10a2100080cf5000230032001f003c00a700370011
:10a2200000c7b30080cf5000250032000a003c0078
:10a230006440500080cf5000110032006340400065
:10a2400080cf50001c0032006640500080cf50008c
:10a2500093003a009900370050c7b30080cf5000f8
:10a26000950032006340400080cf5000150032005e
:10a270006540500080cf500089003a00130037003d
:10a28000000028000d48a30001003a000001200052
:10a2900080867600c3ff37000da0a000870037003e
:10a2a0000d50a0000d80a000840037000d50a000cc
:10a2b0000d90a000810037000d60a0007f003700e6
:10a2c0000d50a0000d70a0007c003700cfac9700af
:10a2d00049007800c9af9f00e0a79f000000e000a0
:10a2e00002003a00abde2300eba79f000000eb006a
:10a2f000f0a79f00020037008100e800f1a79f004f
:10a30000ffa097006fa19700028040001004e000ba
:10a31000f9ff3a00afa197000300e000040032000b
:10a320007fa29700848f510001003100f3a79f00a6
:10a330007fa097000005eb006f939700800f5300fc
:10a3400001003600000553004368de00e1046000b0
:10a3500019003a000904780009003700afa89700f7
:10a3600000022000ecfa0700e10f40000300320079
:10a370009fa397008703e80097a79f000804e800c1
:10a380008a0f5400f5ff3a000085eb000a00370001
:10a39000efa097003100fb00e1a79f00afa8970056
:10a3a000ddfa0700e10f4000030032001fa4970010
:10a3b0000804e80098a79f00ffa597000b00e9009c
:10a3c000f0a79f00e10f4000f1ff3a000004eb000e
:10a3d0000900e0000a003a00b0063700afa8970075
:10a3e00000022000ccfa0700e10f40000300320019
:10a3f0001fa197000201e80092a79f000804e8004f
:10a400008a0f5400f5ff3a00a4063700cfa9970041
:10a4100043007800c3af9f00cf80de0001017800c9
:10a42000820178000203be000002be00e0a79f0088
:10a43000f1a79f0082af9f0093af9f004822de00ec
:10a44000482cdd0004027400e4679f000d48a3005f
:10a450000c0032000404e0000a003200e14f420028
:10a460000800320079fa2f000f8044000448780079
:10a470004fcd97001a4098002b002000fba79f00ab
:10a4800003003700f0679f0010002000f0a79f0036
:10a4900071fa2f008f804000e1a79f009dff3700d9
:10a4a00062fa2f000f014100e2a79f001300200075
:10a4b000f3a79f0097ff37000d0cb300007020003a
:10a4c000008266008a0432000dc8a3000200320038
:10a4d00064002000a4a79f000d48a30009003200db
:10a4e0004fa897004005be004004be00c0af9f00cb
:10a4f000d89f9f00e99f9f00fa9f9f008ba79f0016
:10a50000080037004fa997004200be00c2af9f006d
:10a510001df30700d09f9f00e19f9f00f29f9f00c7
:10a5200083a79f006022b8006033b8005f9897004f
:10a53000ef9897007f9997008fa1970031f307005c
:10a540000000e0000a003d005f9a9700ef9a970034
:10a550007f9b97008fa3970007f0a200d49f9f00d6
:10a56000e59f9f00f69f9f0087a79f003d00b300d7
:10a570000000eb00d0979f006022b8006033b80065
:10a580005f989700ef9897007f9997008fa19700a9
:10a5900021f307000000e000350032005f989700cb
:10a5a000ef9897007f9997008fa197001ff30700fe
:10a5b00058f30700a5fa2f000f81420091f307001e
:10a5c0005f9097000000e9006300b900a20020003e
:10a5d000110009000200d8008000fd00d1979f0003
:10a5e0000100e00002003d000100e900d0979f005b
:10a5f0005f9497000840ea00f8fd07005f9a970013
:10a60000ef9a97007f9b97008fa3970069f207004e
:10a61000909f9f00a19f9f00b29f9f00c39f9f009c
:10a620006022b8000600200007ff2300f5f20700b3
:10a630000000e00002003d000800e9000b003700c8
:10a640006022b80006002000470224001f989700ef
:10a65000af9897003f999700cf9997006cf3070048
:10a660000000e000020035000800e800d0979f00dd
:10a670005f939700d6a79f000600e00003003c0010
:10a6800010c0b300e0679f0002003700afcb970017
:10a69000e7679f000d0678000c10b20008003a0032
:10a6a0000d98a3007e0232005fa49700e40f4400df
:10a6b00003003500afa49700890f5400f90135005d
:10a6c0002fa597000a00e000040032000d98a300b7
:10a6d000020032000a05e900aaa79f00afa5970073
:10a6e00020c1b300f28f550001003e004fc097001b
:10a6f000e0679f006022b8006033b8005f98970061
:10a70000ef9897007f9997008fa19700c2f20700fa
:10a710000000e000740032006f669700afc8970039
:10a720000cc05000adfd07000002be000203be00d9
:10a730005f989700ef9897007f9997008fa19700f7
:10a7400038f307000004be000205be000002be0090
:10a750000203be00d49f9f00e59f9f00f69f9f00cd
:10a7600087a79f0089f307000001be00e00f50009b
:10a77000e08f580002003500aaf3070009003700f7
:10a7800061006000010020008301d1000281d3003c
:10a790000200700083807000a2f307000001be0079
:10a7a000ccf3070078f207000002be000203be00ef
:10a7b0000800be000a01be0023f407006022b800b2
:10a7c0000600200007fe230011f307000000e00050
:10a7d0000a0035006022b8000600200007fe2300b2
:10a7e0000800be000a01be0019f40700d09f9f00b8
:10a7f000e19f9f00f29f9f0083a79f005f989700b3
:10a80000ef9897007f9997008fa197005ff307005b
:10a810000002be006033b8000c00fb004304dd0002
:10a820006971230009004400d0009000600190008d
:10a83000f0019000400090000020e10001a8e1003c
:10a8400002b0e10003b8e10010003900040020006c
:10a8500005002a009699290097fb23005f9897002e
:10a86000ef9897007f9997008fa19700d1f107008b
:10a87000d09f9f00e19f9f00f29f9f0083a79f00b2
:10a88000dfa297000500e800160037000900440029
:10a890005001be004000be000020e10001a8e10020
:10a8a00002b0e10003b8e1000f0031006022b800ff
:10a8b00006002000470224005f989700ef98970059
:10a8c0007f9997008fa19700baf10700d09f9f0052
:10a8d000e19f9f00f29f9f0083a79f005fa39700c7
:10a8e0000600e900d0979f004968de006100600023
:10a8f00080cf9f000004e000400032000080200074
:10a90000008666003d003a002fa49700f40f540023
:10a910000200340049012000a9a79f005f9897001a
:10a92000ef9897007f9997008fa1970017f3070082
:10a930000004be000c0578008c0578000b00370081
:10a940002fa097000000e900a0a79f00a40020000e
:10a95000050020006033b8000800be000a01be00f8
:10a96000d2f007000205be000004be00e00f540054
:10a97000e08f5c00e00f5d00e08f5d000b003200b7
:10a98000a4002000050020006033b8000800be00cd
:10a990000a01be00ccf00700e00f5000e08f580025
:10a9a000e00f5900e08f5900e5ff3200ef6097009b
:10a9b0000100fb002fa19700800f51000f003d0008
:10a9c00002c0500005fd07000002be000203be00e9
:10a9d0005f989700ef9897007f9997008fa1970055
:10a9e00090f20700d09f9f00e19f9f00f29f9f0081
:10a9f00083a79f00cfc19700e3679f006f929700e6
:10aa0000afa2970005005200650650000500e00067
:10aa100002003a000db8a3000100320066065000a3
:10aa200063806600010032000c06e9000d28a300d7
:10aa300026003200e18066000d18a3000c003200f1
:10aa4000d00220000100e00001003a000080e9008f
:10aa5000afa8970030f90700e10f4000180032005e
:10aa60001fa397000603e80096a79f001400370075
:10aa70000100e00012003200afa8970000022000a1
:10aa800025f90700e10f40000d0032009fa3970059
:10aa90008703e80097a79f0009003700afa8970039
:10aaa000000320001cf90700e10f40000300320002
:10aab0001fa497000804e80098a79f000c06e9006f
:10aac0000c00e000f5ff3c002e0037000d38a3001d
:10aad0000a0032000b003700afa8970000022000e8
:10aae0000df90700e10f4000030032009fa497001a
:10aaf0008904e80099a79f000c06e9000c00e0001b
:10ab0000f5ff3c00e18066000d18a3001300320041
:10ab1000d00220000100e00001003a000080e900be
:10ab2000afa89700fcf80700e10f400015003200c5
:10ab30001fa597000a05e8009aa79f00110037009b
:10ab4000e8a79f00f9a79f008aaf9f009baf9f00d7
:10ab50008045eb00eb679f00800037000100e000bc
:10ab600008003200afa8970000022000eaf80700b2
:10ab7000e10f4000030032001fa097000000e80032
:10ab800090a79f005f989700ef9897007f99970094
:10ab90008fa197007df207000004be006055b80049
:10aba000ef6097000100fb004300dd006e712300a1
:10abb0000e0040003002be002003be000800be00b0
:10abc0000a01be0039f007000003b000afa89700eb
:10abd000d1f80700e10f4000030032001fa19700e9
:10abe0000201e80092a79f00ef6197000300fb00bd
:10abf0004300dd000e0040003002be002003be0016
:10ac00000800be000a01be002ff007000205be00ca
:10ac10000004be00e0a79f00f1a79f0082af9f0045
:10ac200093af9f00afa297000500e00002003a003a
:10ac30000db8a30049003200afa89700e002200041
:10ac4000b5f80700e10f4000030032001fa3970092
:10ac50000603e80096a79f00ef6397000700fb003c
:10ac6000afa0970000805000809f9f002400370015
:10ac70000fc997000204e00005003200e00f540005
:10ac8000e08f5c00e00f5d00e08f5d00acff320004
:10ac90000000fb004300dd006e7123000e00400049
:10aca0003002be002003be000800be000a01be0044
:10acb000feef07000003b000afa8970096f807006a
:10acc000e10f4000030032009fa197008301e800dc
:10acd00093a79f006f6297000400fb004300dd0014
:10ace0000e0040003002be002003be000800be007f
:10acf0000a01be00f4ef07000205be000004be001a
:10ad0000ef6297000540e900e0679f00e14f4000d7
:10ad1000d7ff3a00e8a79f00f9a79f008aaf9f00de
:10ad20009baf9f000004eb0009003700afa897001d
:10ad30000003200078f80700e10f40000300320014
:10ad40001fa397000603e80096a79f000804e800e9
:10ad50008f9b9700870f5400f4ff3a000d58a30013
:10ad600009003200afa89700500420006af80700dd
:10ad7000e10f40000c0032001fa497000804e80017
:10ad800098a79f0008003700afa897005006200042
:10ad900061f80700e10f4000030032009fa4970014
:10ada0008904e80099a79f005f9097000000e000e9
:10adb0000b003d000000ea00d0979f00afa897006d
:10adc000d002200054f80700e10f40000c003200d0
:10add0001fa597000a05e8009aa79f000800370002
:10ade000afa89700b00220004bf80700e10f400029
:10adf000030032009fa597008b05e8009ba79f00ea
:10ae00005f909700a8002000110009000800d800fa
:10ae10000003b000afa897003ff80700e10f400023
:10ae2000030032001fa097000000e80090a79f00d9
:10ae3000df909700110009008800d8008000fd0015
:10ae40000003b000afa8970033f80700e10f4000ff
:10ae5000030032009fa097008100e80091a79f00a7
:10ae60000d38a3000d0432000c00e0000b04340088
:10ae70000004eb00afa897000002200026f80700ae
:10ae8000e10f4000030032001fa197000201e8001b
:10ae900092a79f000804e8008c0f5400ff033200c3
:10aea000f4ff3700dfa197000300e00004003d003d
:10aeb0002fa29700030052000000e900a0a79f0006
:10aec0005f989700ef9897007f9997008fa1970060
:10aed000dcf207000205be000004be000c42780050
:10aee000657123000b0037000400fb004300dd0008
:10aef000050040005001be004000be000040e100df
:10af000001c8e10002d0e10003d8e10003003900ec
:10af10000442e800f44f5200f3ff3a00e4679f0058
:10af20000400fb00afa2970000875200f80f570003
:10af30000d003c000e40780056fb07000002be00ea
:10af40000203be005f989700ef9897007f999700e3
:10af50008fa197003ef20700d09f9f00e19f9f00c6
:10af6000f29f9f0083a79f000e4078009bfb070085
:10af7000d0af9f00e1af9f00f2af9f0083b79f006b
:10af8000e00f5400e08f5c00e00f5d00e08f5d009b
:10af9000040035000800be000a01be00daf2070016
:10afa0001300370010002000010020006011b800dd
:10afb00008006000898060000a0161008b816100e7
:10afc0008b03d1000a83d3008982d3000882d30087
:10afd000000072008180720002017300838173009f
:10afe000c9f207000002be000203be0018f207000b
:10aff0000002be000203be005f989700ef98970022
:10b000007f9997008fa197000ff207000002be0002
:10b010000203be005fa89700efa897007fa99700e2
:10b020008fb19700e3ef070086f207000205be002c
:10b030000004be000006eb0008003700a40020005a
:10b04000050020006033b8000800be000a01be0001
:10b0500016ef07000205be000004be000c035700f7
:10b06000a6a79f008e0f56001d0032000c06e800b8
:10b07000a4002000050020006033b8000800be00d6
:10b080000a01be0010ef0700e00f5000e08f5800eb
:10b09000e00f5900e08f5900e8ff32001000370040
:10b0a000afa39700f88f53000d003c0007407800d5
:10b0b000f8fa07000002be000203be005f98970086
:10b0c000ef9897007f9997008fa19700e0f1070014
:10b0d000d09f9f00e19f9f00f29f9f0083a79f004a
:10b0e0005fa49700e90f540015003c006022b800ef
:10b0f0006033b8005f989700ef9897007f999700aa
:10b100008fa1970044f007000000e00036003200f5
:10b110005f989700ef9897007f9997008fa197000d
:10b1200048f20700e00f5000e08f5800e00f590090
:10b13000e08f59002c003a00e10f54002a0034003f
:10b140000400200005002e00b6e0220017012400b4
:10b150001f989700af9897003f999700cf99970055
:10b1600028f007000000e00003003d00dfa4970086
:10b1700073805400020037005fa5970072005500ed
:10b18000d0979f002f68970014fb0700909f9f00a7
:10b19000a19f9f00b29f9f00c39f9f000002be001f
:10b1a0000203be005f989700ef9897007f99970081
:10b1b0008fa197009bf0070022f20700e0a79f00f5
:10b1c000f1a79f0082af9f0093af9f006000b8007f
:10b1d0006011b800d0b79f00e1b79f00f2b79f00a1
:10b1e00083bf9f00340037005f989700ef98970067
:10b1f0007f9997008fa1970012f20700e0a79f00a8
:10b20000f1a79f0082af9f0093af9f00e00f500017
:10b21000e08f5800e00f5900e08f59000200350020
:10b2200039f207001700370010002000010020004d
:10b230006011b8006fa29700ffa297000fab9700b4
:10b240009fab9700040060008580600006016100ec
:10b25000878161008703d1000683d3008582d300f4
:10b260000482d3000000720081807200020173002a
:10b270008381730024f207000002be000203be00b7
:10b2800073f107000002be000203be005f98970042
:10b29000ef9897007f9997008fa197006af10700b8
:10b2a000d0b79f00e1b79f00f2b79f0083bf9f0018
:10b2b0000000eb00d0979f0014c0b300657123001d
:10b2c0000f0037000400fb004300dd0005034000d1
:10b2d0003600be002601be006fa49700ffa49700b1
:10b2e0000fad97009fad97000040e10001c8e1005d
:10b2f00002d0e10003d8e100030039000442e80075
:10b30000f44f5200efff3a00e4679f000400fb0097
:10b31000afa4970000804400df9097000100400038
:10b320006f959700000655004b68de0061006000d5
:10b33000004778000004e00002003a000900e00045
:10b34000010032000c06e900638066000100320053
:10b350000c06e9000d28a30026003200e1806600fb
:10b360000d18a3000c003200d00220000100e00004
:10b3700001003a000080e900afa89700e6f6070058
:10b38000e10f4000180032009fa597008b05e800f0
:10b390009ba79f00140037000100e000120032005c
:10b3a000afa8970000022000dbf60700e10f400085
:10b3b0000d0032001fa097000000e80090a79f003a
:10b3c00009003700afa8970000032000d2f607005d
:10b3d000e10f4000030032009fa097008100e800c9
:10b3e00091a79f000c06e9000c00e000f5ff3c006f
:10b3f0003f0037000d38a3000a0032000b00370071
:10b40000afa8970000022000c3f60700e10f40003c
:10b41000030032001fa197000201e80092a79f00dd
:10b420000c06e9000c00e000f5ff3c00e18066003e
:10b430000d18a3000c003200d00220000100e00033
:10b4400001003a000080e900afa89700b2f60700bb
:10b45000e10f4000260032009fa197008301e80021
:10b4600093a79f00220037000100e0002000320077
:10b47000afa8970000022000a7f60700e10f4000e8
:10b480001b0032001fa297000402e80094a79f004f
:10b49000170037000000fb004300dd00617123004e
:10b4a000010040003002be002003be006fa09700e4
:10b4b000ffa097000fa997009fa99700fbed070039
:10b4c000a4002000050020006033b800feed070056
:10b4d0000003b000afa897008ff60700e10f40000f
:10b4e000030032009fa297008502e80095a79f0005
:10b4f0006f6397000640e900e0679f00e14f40005e
:10b50000e4ff3a000b003700afa8970000032000cb
:10b5100081f60700e10f4000030032009fa397006f
:10b520008703e80097a79f005f9097000000e9005d
:10b53000d0979f005f9097000000e000f2ff3c0072
:10b540002fa49700f20f54000300340020c1b30071
:10b55000e0679f0002003700cfc49700e9679f00b3
:10b56000ef6097000100fb002fa597000000550039
:10b57000f0979f000104e00002003a000e04e00092
:10b5800008003200afa89700e002200062f6070032
:10b59000e10f4000030032009fa597008b05e800f3
:10b5a0009ba79f006f6097000cfa07000002be0087
:10b5b0000203be005fb09700efb097007fb1970025
:10b5c0008fb997007bee07001ef107001e003700c1
:10b5d0000000fb004300dd006e7123000e00400000
:10b5e0003002be002003be000800be000a01be00fb
:10b5f000aeed0700a4002000050020006033b80075
:10b60000b1ed07000003b000afa8970042f60700b5
:10b61000e10f4000030032001fa097000000e80087
:10b6200090a79f00ef6097000100fb004300dd0042
:10b630000e0040003002be002003be000800be0025
:10b640000a01be00a0ed07000205be000004be0016
:10b650006f6197000240e900e0679f00e14f400002
:10b66000dbff3a00e8a79f00f9a79f008aaf9f0081
:10b670009baf9f000004eb0009003700afa89700c4
:10b680000003200024f60700e10f40000300320011
:10b690009fa197008301e80093a79f000804e8009a
:10b6a0007f929700840f5400f4ff3a000d38a300f6
:10b6b000fa0132000c00e000f80134000004eb0055
:10b6c000afa897000002200013f60700e10f40002a
:10b6d000030032009fa297008502e80095a79f0013
:10b6e0000804e8008c0f5400ec013200f4ff37002e
:10b6f0000d007800000cb20032003a000d00e000ae
:10b7000009003d004fa897004005be004004be0060
:10b71000c0af9f00e8a79f00f9a79f008aaf9f00d6
:10b720009baf9f00160037000d48a30009003200b0
:10b730004fa997004200be00c2af9f004f89de00b4
:10b74000cf91de000002be00020378008203780081
:10b7500007003700cfa9970043007800c3af9f00d0
:10b7600000027800cfa2de0005037800860378008f
:10b77000e4a79f00f5a79f0086af9f0097af9f00ab
:10b780006fa49700ffa497000fad97009fad97009f
:10b79000e00f5400e08f5c00e00f5d00e08f5d0083
:10b7a00026003d003d00b3006000b8006011b80005
:10b7b00008045000898458000a0559008b855900f7
:10b7c0001a0037000d00e00005003d004faa970069
:10b7d0004401be004400be00c4af9f000700370014
:10b7e0000d48a3000a003200cfaa97004500be0012
:10b7f000c5af9f000401780084017800e0a79f0096
:10b80000f1a79f0082af9f0093af9f000b0037000e
:10b810004fab970046007800c6af9f000004780049
:10b82000090020000a0020000b002000e8a79f006c
:10b83000f9a79f008aaf9f009baf9f00afa497001e
:10b840000900e0000b003a006fa09700ffa09700ee
:10b850000fa997009fa99700e00f5000e08f5800b4
:10b86000e00f5900e08f590002003a00110020005b
:10b87000a1a79f000d0678000c0cb2000004200068
:10b88000800f56003400320003003c000c00e00042
:10b89000070032004500370000082000800f5600e6
:10b8a00018003200000c2000800f56003f003a00c4
:10b8b00014c0b300657123000f0037000400fb00c3
:10b8c0004300dd00050040005001be004000be0006
:10b8d0006fa49700ffa497000fad97009fad97004e
:10b8e0000040e10001c8e10002d0e10003d8e1001e
:10b8f0002d0039000442e800f44f5200efff3a00f7
:10b900002900370014c0b300656923000f00370019
:10b910000400fb004300dd00050040005001be00b4
:10b920004000be006fa49700ffa497000fad9700e2
:10b930009fad97000040e10001c8e10002d0e100a6
:10b9400003d8e100180039000442e800f04f52002b
:10b95000efff3a001400370014c0b300655e230007
:10b960000f0037000400fb004300dd00050040002d
:10b970005001be004000be006fa49700ffa49700d6
:10b980000fad97009fad97000040e10001c8e100b6
:10b9900002d0e10003d8e100030039000442e800ce
:10b9a000f64f5200efff3a00e4679f00ef64970004
:10b9b0000900fb002fa597008a0f500002003d00f0
:10b9c000ea679f0004003700afa59700808f5500fd
:10b9d00001003d00a0a79f006f9097000000e000cd
:10b9e000050032006380660003003200ef9097008c
:10b9f0008100e900e1979f000de8a3000b003200f1
:10ba00006f919700afa19700830f510003003c0096
:10ba10000002eb00e4979f0004003700ef929700cc
:10ba20002fa3970086825200e5979f00408c20004c
:10ba30000080660001842000810f500006003a005b
:10ba4000ef9397000700e000110032008703e90040
:10ba5000e7979f000e003700008c200000806600f2
:10ba600001882000810f500009003a006f94970070
:10ba7000e20f540003003c008004eb00e9979f00b4
:10ba8000030037006f9597000a85e900ea979f0049
:10ba9000ef6597000b00fb008000eb00b1a79f0053
:10baa0006f919700800f5100020034000000510098
:10bab000b0a79f000d28a3004f003200e180660070
:10bac0000d18a3000c003200d00220000100e0009d
:10bad00001003a000080e900afa897000ef50700ca
:10bae000e10f4000270032009fa197008301e8008a
:10baf00093a79f00230037000100e00009003200f7
:10bb0000afa897000002200003f50700e10f4000f6
:10bb10001c0032001fa297000402e80094a79f00b7
:10bb200018003700008c200000806600018820008b
:10bb3000810f500013003a00afa8970000032000c7
:10bb4000f5f40700e10f4000030032009fa29700c8
:10bb50008502e80095a79f00800520000d58a300ee
:10bb600001003a0080072000afa89700eaf4070020
:10bb7000e10f4000030032001fa397000603e80016
:10bb800096a79f00bfa397000700e0000f003200b8
:10bb90000004eb00afa8970000032000def40700cc
:10bba000e10f4000030032009fa497008904e800e1
:10bbb00099a79f000804e8003fa597008a0f54004a
:10bbc000f4ff3a008005eb00bba79f002fa0970071
:10bbd0008000e900c308dd0060712300808540001b
:10bbe0006069230000854000605e2300808440007f
:10bbf0000007eb0094003700bfa097000100e000b1
:10bc000011003200688066000f003a0000047800de
:10bc1000afa8970000022000bff40700e10f40002a
:10bc2000030032001fa197000201e80092a79f00c5
:10bc30000804e800bfa19700830f5400f4ff3a0006
:10bc40000002eb00b4a79f00e18066000d18a3007e
:10bc50000c003200d00220000100e00001003a0098
:10bc60000080e900afa89700abf40700e10f4000a7
:10bc70000e0032009fa297008502e80095a79f0062
:10bc80000a0037000100e00008003200afa897006a
:10bc900000022000a0f40700e10f40000300320082
:10bca0001fa397000603e80096a79f00008c2000c2
:10bcb0008080660000842000808f500009003a00d8
:10bcc000afa897000003200093f40700e10f4000a5
:10bcd000beff32009fa397008703e80097a79f004d
:10bce000baff370000882000808f5000b7ff3a006d
:10bcf000afa897000003200087f40700e10f400081
:10bd0000030032001fa497000804e80098a79f00d2
:10bd1000800520000d58a30001003a008007200094
:10bd2000afa897007cf40700e10f4000a7ff3200a6
:10bd30009fa497008904e80099a79f00a3ff3700fc
:10bd400000042000800f56002800320003003c0051
:10bd50000c00e000070032002e0037000008200031
:10bd6000800f560012003200000c2000800f560099
:10bd700028003a003b02be002b03be006fa09700d4
:10bd8000ffa097000fa997009fa99700c7eb070096
:10bd9000a4002000050020006033b800caeb0700b3
:10bda00004c3b30004424000e4679f001900370059
:10bdb00018df23000d58a30001003a0028e02300fb
:10bdc0003a02be002a03be006fa09700ffa09700b2
:10bdd0000fa997009fa99700b4eb07006f006000c0
:10bde00068447800e8679f000a0037003902be0007
:10bdf0002903be006fa09700ffa097000fa997002e
:10be00009fa99700a9eb0700674060000043b000be
:10be1000e0679f00ef6297000500fb00afa8970066
:10be20003df40700e10f4000030032001fa397001c
:10be30000603e80096a79f000e07e800e885550076
:10be400068055500e8845400afa39700870f57009a
:10be5000bbff3a000d38a300100032003fa497004a
:10be60000800e0000d0034000004eb00afa89700cc
:10be70000002200028f40700e10f40000300320018
:10be80009fa497008904e80099a79f000804e80090
:10be90003fa597008a0f5400f4ff3a00bfad97000a
:10bea000bb407800bbaf9f00e1679f000104e0004a
:10beb00032f83a001fa097004f0778004f06be00e7
:10bec0004f05be004f04be00ef04b10000000600a5
:10bed000889fbe008a1f7800000478003000900020
:10bee000630060002400320008007800e0f30700df
:10bef0003805900080ef2f000000650030049800a6
:10bf0000280090000000e00004003200e804650012
:10bf100002003a00850207002904980048009000ba
:10bf20009eea0700e10f400013003200b8009000c5
:10bf30000102b20010003a000ac8a3001800320043
:10bf4000f0f881000000e0001500320000017800e8
:10bf500081047800012a200012289000880f5000e8
:10bf6000070032004205b0004905b000818f54003f
:10bf70000b003200f8ff37000080eb0009003700ab
:10bf8000020078008eea0700f0f881000900400006
:10bf90008000eb00112898000100780001003700b4
:10bfa0000000eb004f0578004f04be0000000600c3
:10bfb000881f780000047800b00090000148a300ba
:10bfc00007003a000108a300050032000198a30011
:10bfd00008003200100090000000e0000500320070
:10bfe000380090000040a000300498008080eb00f2
:10bff000200037000190a100310498001800900043
:10c000000000e000060034000000e9001004980081
:10c0100018007800b080fb00000c780006003700a4
:10c02000380090000068a300edff3a000800780097
:10c030004202070080007800380090000078a300da
:10c040000c003a00fa8f500008003a0028009000d7
:10c050000000e000e2ff3200180090000000e8005d
:10c0600010049800180ce900ddff3700ed8f500038
:10c07000e2ff3200010078004f0478000000060063
:10c08000889fbe00000478008144780000fd2f00e6
:10c0900000004400e90f500002003e00000178005b
:10c0a0000d003700080078001dea07000000e000de
:10c0b00003003200080078001fea0700000478003f
:10c0c0000800780023ea07000000e00007003200c3
:10c0d00090fa2f00000144000980fb00800f5100fe
:10c0e00002003d000280fb0001003700f00f20003d
:10c0f0004f04be0000000600881f7800d0f88100c1
:10c10000abff0700000478001cea07000000e00015
:10c11000faff3a00e10f440003003200d1f8810039
:10c1200008007800530207004f0478000000060062
:10c13000ec874700889fbe008a9fbe008c9fbe0090
:10c140008e1f780081bf9f0002077800d0f8890019
:10c150008046eb00020137008884fb00090078006c
:10c1600006ea0700800078000000e00002003200cc
:10c17000e1ff0700fa00370050c2b300804f5400bf
:10c18000ee003a000fbd970020c0b300c0ef9f0043
:10c19000d1ef9f0081ef9f000300370040c0b30044
:10c1a000c0ef9f000fbd97000fb99700b240780015
:10c1b00082bf9f008184fb0080c6b30080cf500007
:10c1c0002800320015003e007040500080cf500023
:10c1d000890032000a003e006c40500080cf5000c1
:10c1e0002600320071003e000104e0009900320098
:10c1f000a0c2b30080cf50006c003a001b00370093
:10c2000030c6b30080cf5000520032000040e8003a
:10c2100080cf500065003a001d00370030c7b300e2
:10c2200080cf50001e00320007003e0067405000e3
:10c2300080cf5000110032006340400080cf50009a
:10c240005a003a001400370050c7b30080cf5000a6
:10c250000f0032006340400080cf500053003a008e
:10c260006500370020c0b300cdff3700dfe897003e
:10c270008140e800d1ef9f00caff37004fe99700e7
:10c2800080c0b300e24f5100c5ff3a00c3ff370042
:10c29000acc0b300590037008cc0b3005700370062
:10c2a00095ff0700dfe897000104e00002003a0074
:10c2b0004e017800d2b79f00d0f881003cff070004
:10c2c00000047800e10f4000a20032008fec9700dc
