:0600000001288801952F84
:100F2A002000AE2FF200992F240014189D2F9E2F17
:100F3A00992F72089100A12F2000911DA52FA62F8D
:100F4A00A12F24001108F0007008F100200091116F
:100F5A00080021008C018E01303022008C008E01A5
:100F6A0002302400950040309400200091112400A2
:100F7A00141022008E110E16240095161030873197
:100F8A00972787310E30873197278731033087318A
:100F9A0097278731DF30F300730824009505000096
:100FAA00000022008E150000000022008E11003081
:100FBA00F4000030F5000030750264300319740241
:100FCA00031CE82FE92FEA2FF82F00000130F4075D
:100FDA000030F53D00307502643003197402031CB9
:100FEA00F72FF82FEA2F22000C128C1220308E06CF
:060FFA006400FB2F01283A
:020000040001F9
:02000E00F40FED
:00000001FF
